:100000000C94F5000C944A120C9477120C941D0178
:100010000C941D010C941D010C9486070C941D0179
:100020000C941D010C941D010C941D010C941D01D8
:100030000C941D010C941D010C941D010C941D01C8
:100040000C94A4120C941D010C94A1140C94EF14A4
:100050000C941D010C941D010C941D010C941D01A8
:100060000C941D010C941D01005EBCE2613FDD8318
:10007000C29C7E20A3FD1F419DC3217FFCA2401E88
:100080005F01E3BD3E6082DC237D9FC1421CFEA078
:10009000E1BF5D0380DE3C62BEE0025CDF81633D68
:1000A0007C22C09E1D43A1FF4618FAA427799BC558
:1000B00084DA3866E5BB5907DB856739BAE4065848
:1000C0001947A5FB7826C49A653BD987045AB8E638
:1000D000A7F91B45C6987A24F8A6441A99C7257B28
:1000E0003A6486D85B05E7B98CD2306EEDB3510F18
:1000F0004E10F2AC2F7193CD114FADF3702ECC9208
:10010000D38D6F31B2EC0E50AFF1134DCE90722CF7
:100110006D33D18F0C52B0EE326C8ED0530DEFB1E7
:10012000F0AE4C1291CF2D73CA947628ABF51749D7
:100130000856B4EA6937D58B5709EBB536688AD4C7
:1001400095CB2977F4AA4816E9B7550B88D6346AB7
:100150002B7597C94A14F6A8742AC896154BA9F7A7
:10016000B6E80A54D7896B35000000002400270048
:100170002A0000000000250028002B0000000000DD
:1001800023002600290004040404040404040202D9
:100190000202020203030303030301020408102006
:1001A0004080010204081020010204081020000011
:1001B0000007000201000003040600000000000028
:1001C0000000010402000302048A050506C30B2097
:1001D00019421E2C25802E882F2D370038003C8F89
:1001E0003D106F2000003301C31611241FBECFEF56
:1001F000D8E0DEBFCDBF14E0A0E0B1E0ECE2FFE369
:1002000002C005900D92A032B107D9F717E0A0E225
:10021000B4E001C01D92A531B107E1F711E0CAEECB
:10022000D1E004C02297FE010E94901FC63ED10774
:10023000C9F70E9419170C94941F0C940000809128
:10024000F9059091FA05A091FB05B091FC05019686
:10025000A11DB11D8093F9059093FA05A093FB05AC
:10026000B093FC0508950F931F9301E915E0C801B1
:1002700065E00E94FE0E8FE995E0B8010E94340F00
:100280001F910F910895EF92FF920F931F93682F84
:1002900070E083E0660F771F8A95E1F76E547A4F1E
:1002A0008FE995E00E9430117B018C0120E030E065
:1002B0004AEF52E40E94131D8823B4F4C801B70129
:1002C00020E030E040E252EC0E94621E181664F416
:1002D000C801B70120E030E040E251E40E94661E10
:1002E0000E947F1DCB0100C01F910F91FF90EF90E6
:1002F0000895CF92DF92EF92FF920F931F93CF93C7
:10030000DF936B01EE24FF248701C0E0D0E013C02F
:1003100080E00E9498139C0120503240442737FD12
:100320004095542FCA01B9010E94321FE60EF71EF4
:10033000081F191F2196CC15DD0554F3C801B7011C
:100340000E94B01D7B018C01B601882777FD809546
:10035000982F0E94B21D9B01AC01C801B7010E94F9
:10036000171D0E94CD1EDF91CF911F910F91FF901D
:10037000EF90DF90CF90089528EE33E0AC01429FDC
:10038000C001439F900D529F900D11240E94DE07E3
:1003900008958FEF0E943C0880E063EE75E04AE12B
:1003A0000E94760882E00E9444088091010688231A
:1003B00011F40E943C0808951F9380910106882340
:1003C00051F068EC70E080E090E00E94FA12109228
:1003D000EC051092EB058091FD05882309F441C0DE
:1003E00080910106882359F180E294E064E170E095
:1003F00040ED57E00E94370A60912004709121047B
:1004000080912204909123040E947F1D7093E40543
:100410006093E30560912C0470912D0480912E046B
:1004200090912F0420E030E048EC52E40E94661ED8
:100430000E947F1D7093EC056093EB0512C080E273
:1004400094E068EC75E00E944F0920E030E046E659
:1004500053E40E94661E0E947F1D7093E405609322
:10046000E3058091FE05882309F441C080910106CF
:10047000882359F18CE794E064E170E040ED57E0A7
:100480000E94370A60917C0470917D0480917E0403
:1004900090917F040E947F1D7093E6056093E505AF
:1004A000609188047091890480918A0490918B04F2
:1004B00020E030E048EC52E40E94661E0E947F1D5E
:1004C0007093EC056093EB0512C08CE794E068EC48
:1004D00075E00E944F0920E030E046E653E40E94B8
:1004E000661E0E947F1D7093E6056093E50580916E
:1004F000FF05882309F441C080910106882359F142
:1005000088ED94E064E170E040ED57E00E94370A26
:100510006091D8047091D9048091DA049091DB0441
:100520000E947F1D7093E8056093E7056091E404E5
:100530007091E5048091E6049091E70420E030E0BA
:1005400048EC52E40E94661E0E947F1D7093EC05E9
:100550006093EB0512C088ED94E068EC75E00E94B2
:100560004F0920E030E046E653E40E94661E0E94F8
:100570007F1D7093E8056093E7058091000688234E
:1005800009F441C080910106882359F184E395E084
:1005900064E170E040ED57E00E94370A6091340555
:1005A0007091350580913605909137050E947F1D29
:1005B0007093EA056093E9056091400570914105EB
:1005C000809142059091430520E030E048EC52E4F0
:1005D0000E94661E0E947F1D7093EC056093EB05E0
:1005E00012C084E395E068EC75E00E944F0920E0BA
:1005F00030E046E653E40E94661E0E947F1D709321
:10060000EA056093E905809101068823B9F487E043
:100610000E949813AA2797FDA095BA2FBC01CD017F
:100620000E94B21D2BE23BE64EE25FE30E94661E93
:100630000E947F1D7093EC056093EB05809103068B
:10064000813031F583E161E00E94F91382E390E0AB
:100650000E94DE078FE995E00E94FF1087E791E096
:100660000E94DE0710E00CC0812F0E944301E12FA1
:10067000F0E0EE0FFF1FE351FA4F918380831F5F7D
:100680008091E205181780F383E160E00E94F9137E
:1006900080910206813009F08BC06091E305709172
:1006A000E40586EE96E04AE050E00E94531886EE9C
:1006B00096E060E071E00E9485186091E505709118
:1006C000E60586EE96E04AE050E00E94531886EE7A
:1006D00096E060E071E00E9485186091E7057091F6
:1006E000E80586EE96E04AE050E00E94531886EE58
:1006F00096E060E071E00E9485186091E9057091D4
:10070000EA0586EE96E04AE050E00E94531886EE35
:1007100096E060E071E00E9485186091EB057091B1
:10072000EC0586EE96E04AE050E00E94531886EE13
:1007300096E060E071E00E9485184091F9055091C3
:10074000FA056091FB057091FC0586EE96E02AE0C3
:1007500030E00E94F21786EE96E060E071E00E94C1
:10076000851810E015C0E12FF0E0EE0FFF1FE351F8
:10077000FA4F6081718186EE96E04AE050E00E9477
:10078000531886EE96E060E071E00E9485181F5FC6
:100790008091E205181738F386EE96E060E071E08C
:1007A0000E94821964E170E080E090E00E94FA12F9
:1007B00080910106882371F086E061E00E94F913C0
:1007C00068EC70E080E090E00E94FA1286E060E061
:1007D0000E94F9130E94C90180910106882339F013
:1007E00060E177E280E090E00E94FA1204C08AE0C3
:1007F00090E00E94BC011F910895CF92DF92EF928A
:10080000FF920F931F9386E061E00E94BA1383E189
:1008100061E00E94BA1383E060E00E94BA13109274
:10082000F9051092FA051092FB051092FC0586E07E
:1008300061E00E94F91386EE96E040E855E260E040
:1008400070E00E942A1586EE96E062E071E00E9458
:10085000821986EE96E06BE271E00E94821986EEC4
:1008600096E061E471E00E94821988E062E00E94F3
:10087000BA1389E062E00E94BA1388E00E944D1426
:10088000892B29F480910D04815080930D0489E017
:100890000E944D14892B19F481E08093900580917A
:1008A0009005813061F480E090E0A2E0B3E48093B1
:1008B000090490930A04A0930B04B0930C046AE01B
:1008C00070E080E090E00E94FA1280910D0461E0F7
:1008D00042ED20E436E00E948E080AE010E010931A
:1008E000E4050093E30580E063EE75E04AE10E94D1
:1008F000760864E670E080E090E00E94FA12015011
:1009000010408FEF0F3F180751F782E00E94440814
:100910001092E4051092E30581E00E9498131816E6
:1009200019064CF481E08093FD05809104068F5FE9
:100930008093040602C01092FD0582E00E94981385
:10094000181619064CF481E08093FE058091040688
:100950008F5F8093040602C01092FE0583E00E9420
:100960009813181619064CF481E08093FF058091C6
:1009700004068F5F8093040602C01092FF0584E096
:100980000E949813181619064CF481E08093000613
:10099000809104068F5F8093040602C010920006C7
:1009A00080910406882319F481E08093FD0580E19D
:1009B00097E20E94DE0786E060E00E94F91380E083
:1009C00090E064EF76E00E94790122E538EB4EE595
:1009D0005FE30E94661E6B017C0120E030E044EB87
:1009E00052E40E94621E181624F481E080930106EE
:1009F00002C010920106809101068823E1F000E018
:100A000010E086E061E00E94F91368EC70E080E09D
:100A100090E00E94FA1286E060E00E94F9136CE216
:100A200071E080E090E00E94FA120F5F1F4F0A30E1
:100A3000110539F714C068EE73E080E090E00E9481
:100A4000FA1286E061E00E94F91360ED77E080E041
:100A500090E00E94FA1286E060E00E94F91383E1C0
:100A600061E00E94F91362E370E080E090E00E9490
:100A7000FA128FE995E00E94AB118FE995E060E0F2
:100A80000E94460F8FE995E00E94430F8093E20594
:100A9000873018F086E08093E20510E08091E2054F
:100AA000181708F023C2612F70E033E0660F771F3C
:100AB0003A95E1F76E547A4F81E995E00E94680E0D
:100AC000882309F413C21F5FE9CF1092030603C005
:100AD00081E08093030686EE96E00E94C11688238B
:100AE00021F081E08093020602C0109202068091FC
:100AF0000206813009F03BC186EE96E063E571E0C5
:100B00000E94851886EE96E04DEC5CEC65EB72E495
:100B100022E030E00E946F1986EE96E066E671E012
:100B20000E94851886EE96E04DEC5CEC65EB72E475
:100B300022E030E00E946F1986EE96E069E771E0EE
:100B40000E94851886EE96E04DEC5CEC65EB72E455
:100B500022E030E00E946F1986EE96E06CE871E0CA
:100B60000E94851886EE96E049E25CE565E871E44E
:100B700022E030E00E946F1968EE73E080E090E0C0
:100B80000E94FA1286EE96E06FE971E00E948518E5
:100B900086EE96E0B701A60120E030E00E946C19D5
:100BA00086EE96E068EC71E00E9482198091010661
:100BB0008823D9F186EE96E06AEC71E00E948219F2
:100BC00086EE96E063E072E00E94821980919005C3
:100BD000813031F486EE96E068E372E00E9482197B
:100BE00086EE96E06BE472E00E948518409109045D
:100BF00050910A0460910B0470910C0486EE96E00B
:100C000022E030E00E946F1986EE96E062E572E025
:100C10000E94851886EE96E04AE959E969ED7FE37E
:100C200022E030E00E946F191FC086EE96E060E679
:100C300072E00E94821986EE96E061EA72E00E94FC
:100C4000851886EE96E066EE4AE050E00E940118B4
:100C500086EE96E068EC71E00E94821986EE96E0DE
:100C600066EB72E00E94821980910406882329F4C1
:100C700086EE96E06CEF72E026C08091FD05882339
:100C800031F086EE96E06BE273E00E94821980916B
:100C9000FE05882331F086EE96E069E373E00E945A
:100CA00082198091FF05882331F086EE96E067E493
:100CB00073E00E94821980910006882331F086EE4D
:100CC00096E065E573E00E94821980910306813009
:100CD00099F486EE96E063E673E00E94851886EE4E
:100CE00096E06091E2054AE050E00E94011886EE2D
:100CF00096E06DE673E004C086EE96E06AE973E084
:100D00000E94821986EE96E066EC73E00E948219DA
:100D100086EE96E06AED73E00E94851886EE96E016
:100D200060910D044AE050E00E94011886EE96E0C2
:100D300061EE73E00E94851886EE96E069EE73E03E
:100D40000E94851886EE96E060EF73E00E94851899
:100D500086EE96E062ED70E04AE050E00E94661890
:100D600064EF71E080E090E00E94FA1204C086EE29
:100D700096E00E94B1158091FD05882351F080E234
:100D800094E061E070E02DEC3CEC45EB52E40E9415
:100D900013098091FE05882351F08CE794E062E00E
:100DA00070E02DEC3CEC45EB52E40E94130980917D
:100DB000FF05882351F088ED94E063E070E02DECAE
:100DC0003CEC45EB52E40E94130980910006882315
:100DD00051F084E395E064E070E029E23CE545E809
:100DE00051E40E94130980910106882309F470C020
:100DF0008091FD058823C1F02091090430910A04F7
:100E000040910B0450910C0480E294E060E070E0AB
:100E10000F2EFAE9EF2EF9E9FF2EF9ED0F2FFFE380
:100E20001F2FF02D0E94F7088091FE058823C1F046
:100E30002091090430910A0440910B0450910C0454
:100E40008CE794E060E070E00F2EFAE9EF2EF9E90C
:100E5000FF2EF9ED0F2FFFE31F2FF02D0E94F70853
:100E60008091FF058823C1F02091090430910A0484
:100E700040910B0450910C0488ED94E060E070E028
:100E80000F2EFAE9EF2EF9E9FF2EF9ED0F2FFFE310
:100E90001F2FF02D0E94F708809100068823C1F0D3
:100EA0002091090430910A0440910B0450910C04E4
:100EB00084E395E060E070E00F2EFAE9EF2EF9E9A7
:100EC000FF2EF9ED0F2FFFE31F2FF02D0E94F708E3
:100ED00081E06FE171E042E050E00E9414121F9146
:100EE0000F91FF90EF90DF90CF90089564EF71E045
:100EF00080E090E00E94FA1283E160E00E94F91322
:100F00008091E205882309F4E0CDE2CD1F920F9293
:100F10000FB60F9211242F933F934F935F936F93CC
:100F20007F938F939F93AF93BF93EF93FF930E9411
:100F30003608FF91EF91BF91AF919F918F917F9173
:100F40006F915F914F913F912F910F900FBE0F9036
:100F50001F901895982F83FF02C088E2982797FF6B
:100F600002C090E001C0906484B7877F84BFF8948A
:100F70008091600088618093600090936000789415
:100F80000895EAE7F0E0908180818F77808383B7CE
:100F9000817F846083BFF89483B7816083BF85B706
:100FA000806685BF85B78F79806485BF7894889582
:100FB00083B78E7F83BF90937A000895CF92DF929C
:100FC000EF92FF921F93CF93DF937C01EC0158E0E7
:100FD000C52ED12C20C01F5F193029F0969587951A
:100FE00080329105C0F710920506812F0E94AA0752
:100FF0000E94C1078FEF0E94AA07960102C0220F2C
:10100000331F1A95E2F7C21BD30B80910506882384
:1010100051F0C21BD30BC031D10510F461E004C004
:10102000CE0110E0DDCF60E02091590630915A06E4
:1010300040915B0650915C06EC1AFD0AC701A0E0E6
:10104000B0E0820F931FA41FB51F809359069093A1
:101050005A06A0935B06B0935C06862FDF91CF9172
:101060001F91FF90EF90DF90CF900895809105063B
:101070008F5F80930506089590E0882309F491E03E
:10108000892F0E940E1A08951F93182F16C011233E
:10109000A1F093B7133011F484E005C0123011F0C1
:1010A00080E001C08CE0917F892B83BF83B7816092
:1010B00083BF889583B78E7F83BF0E94061A8823DB
:1010C00031F71F91089588E096E00E94D01A90931E
:1010D000070680930606809106069091070620E099
:1010E0008F5F9F4F09F021E0822F08950F931F9388
:1010F000CF93DF93182FEB01042F02C00E946308E7
:101100000E94F5198823D1F3812FBE01402F0E9440
:10111000421BDF91CF911F910F910895BF92CF9203
:10112000DF92EF92FF920F931F93CF93DF93C82E1E
:10113000D62EB42EE90182E0681751F083E06817DB
:1011400049F081E0681711F060E005C06BE203C070
:1011500066E501C06AE570E080E090E020E836E9ED
:1011600048E950E00E94321F7B018C016D2D70E038
:1011700080E090E024EC39E040E050E00E94321F33
:101180009E0140E050E00E94321FE60EF71E081F4D
:10119000191FC801B7010E94D819B0920C078C2DF5
:1011A0008F7180930D0764E170E080E090E00E9411
:1011B000FA1280910D07882341F080E065E07CE120
:1011C00043E050E00E94141203C080E00E943712F6
:1011D0000E94191AC09250068C2DDF91CF911F9159
:1011E0000F91FF90EF90DF90CF90BF900895EF9216
:1011F000FF920F931F93FC01758B648B208F318FAF
:10120000428F538FE0A2F1A202A313A380E090E0EB
:10121000A0E0B4E484AB95ABA6ABB7AB1F910F9144
:10122000FF90EF900895FC01778B668B248F358FAC
:10123000468F578F80E090E0A0E0B4E480AF91AF9C
:10124000A2AFB3AF08958EE480937C0062E070E0BB
:1012500080E090E00E94FA1280917A00806480938E
:101260007A0080917A0086FDFCCF8091780090E032
:10127000A0E0B0E060917900362F20E0442737FDF0
:101280004095542F282B392B4A2B5B2B60E070E3C1
:1012900081E190E00E94731FCA01B90108952F9265
:1012A0003F924F925F926F927F928F929F92AF92F6
:1012B000BF92CF92DF92EF92FF920F931F93DF9333
:1012C000CF9300D000D000D0CDB7DEB79E838D8302
:1012D0007A8369830E9423091B012C0188249924A5
:1012E0008CE4682E712C2D813E81620E731E285B6A
:1012F0003F4F3C832B8354C0ED81FE8186890E9441
:101300009813ED81FE8197A386A3E0ACF1AC02AD0A
:1013100013ADAA2797FDA095BA2FBC01CD010E945D
:10132000B21D5B016C01A80197010E94AE1C20E078
:1013300030E040E85AE30E94661E9B01AC01C80100
:10134000B7010E94AF1C9B01AC01ED81FE8160AF33
:1013500071AF82AF93AFC601B5010E94AE1C9B0175
:10136000AC01ED81FE8160AB71AB82AB93AB0E94AF
:10137000661E9B01AC01EB81FC81608371838283DB
:101380009383F30160817181828193810E94AF1CFC
:10139000F30160837183828393830894811C911C81
:1013A00029813A818216930608F4A6CFB90180E01C
:1013B00090E00E94B01D9B01AC01F301608171813E
:1013C000828193810E94171D0E94CD1E7B018C019A
:1013D000B101882777FD8095982F0E94B21D20E0EB
:1013E00030E04AE754E40E94171D20E030E040E876
:1013F0005AE30E94661EED81FE81248D358D468D57
:10140000578D0E94661EA80197010E94661EED81FD
:10141000FE81608B718B828B938B80E090E0A0E0EB
:10142000B0E0F30180839183A283B383ED81FE81D9
:101430002089318942895389B901CA0126960FB69C
:10144000F894DEBF0FBECDBFCF91DF911F910F91FA
:10145000FF90EF90DF90CF90BF90AF909F908F90D4
:101460007F906F905F904F903F902F9008952F92B4
:101470003F924F925F926F927F928F929F92AF9224
:10148000BF92CF92DF92EF92FF920F931F93DF9361
:10149000CF93CDB7DEB7AE970FB6F894DEBF0FBED1
:1014A000CDBF9EA78DA77E876D878A010E942309E5
:1014B00069877A878B879C870E94EC123B014C01DD
:1014C00028E5222E312C2DA53EA5220E331EC80163
:1014D000A0E0B0E089A79AA7ABA7BCA7ADA5BEA521
:1014E00054968C910E949813F10191838083AA27CE
:1014F00097FDA095BA2FBC01CD010E94B21D7B01C2
:101500008C012DEC3CEC4CE054E40E94131D87FD53
:1015100002C0AA240DC0AA24C801B70126E636E6F7
:1015200046EE53E40E94621E181614F4AA24A394F3
:101530000E94EC12661977098809990929A53AA52C
:101540004BA55CA5261737074807590710F0AA20B6
:1015500029F20E94EC1269837A838B839C8318861C
:101560001F821E821D824DA55EA5405C5F4F5A8F73
:10157000498F8DA59EA58C5B9F4F9C8F8B8FADA5B2
:10158000BEA5A85BBF4FBE8FAD8FEDA5FEA5E45BEA
:10159000FF4FF8A3EF8F2DA53EA5205B3F4F3AA349
:1015A00029A34DA55EA54C5A5F4F5CA34BA38DA507
:1015B0009EA5865A9F4F9EA38DA39BE5292E312C75
:1015C000ADA5BEA52A0E3B1EA85ABF4FB8A7AFA314
:1015D0001CC021E0F101208302C0D1011C92ED81E9
:1015E000FE81319729F4D1018C91EDA1FEA1808378
:1015F000ADA1BEA19C91F1018081981731F02F819E
:1016000038852F5F3F4F38872F834F8158858D85D1
:101610009E854817590708F025C10E94EC122981C0
:101620003A814B815C81621B730B840B950B29A55E
:101630003AA54BA55CA5621773078407950708F0C8
:1016400011C14D815E814F5F5F4F5E834D83EDA57C
:10165000FEA584A595A5A6A5B7A580A791A7A2A735
:10166000B3A784890E949813ADA5BEA595969C93B7
:101670008E93949756968C910E9498137C01EDA5B9
:10168000FEA597A386A3A4A8B5A8C6A8D7A844A0DA
:1016900055A0B201882777FD8095982F0E94B21D32
:1016A0003B014C01A60195010E94AE1C20E030E0F8
:1016B00040E85AE30E94661E9B01AC01C601B501D9
:1016C0000E94AF1C9B01AC01ADA5BEA5D4966D9345
:1016D0007D938D939C93D797C401B3010E94AE1C58
:1016E0003B014C01EDA5FEA564A775A786A797A7AA
:1016F000A0ACB1ACC2ACD3AC0027F7FC0095102F66
:10170000C801B7010E94B21D7B018C01A6019501A1
:101710000E94AE1C20E030E040E85AE30E94661EC2
:101720009B01AC01C601B5010E94AF1C9B01AC013D
:10173000ADA5BEA5D8966D937D938D939C93DB97B5
:10174000C801B7010E94AE1C5B016C01EDA5FEA5AE
:1017500060AB71AB82AB93ABC401B301A401930145
:101760000E94661E9B01AC01A98DBA8D6D937D937D
:101770008D939C931397EB8DFC8D60817181828199
:1017800093810E94AF1CAB8DBC8D6D937D938D9327
:101790009C931397C601B501A60195010E94661E90
:1017A0009B01AC01ED8DFE8D6083718382839383F9
:1017B000AF8DB8A16D917D918D919C910E94AF1CD0
:1017C000EF8DF8A16083718382839383ADA5BEA55D
:1017D0009896ED90FD900D911C919B97C401B301DB
:1017E000A80197010E94AE1CEDA5FEA520A131A184
:1017F00042A153A10E94661E9B01AC01C801B70122
:101800000E94AF1CADA5BEA5DC966D937D938D9314
:101810009C93DF97A60195010E94661E9B01AC0177
:10182000E9A1FAA16083718382839383ABA1BCA1F8
:101830006D917D918D919C910E94AF1CEBA1FCA1BB
:101840006083718382839383D1018C91EDA1FEA18A
:101850008083AFA1B8A58D919C91841595050CF45A
:10186000B8CEBBCEE985FA85BF01882777FD809584
:10187000982F0E94B21D20E030E04AE754E40E9415
:10188000171D20E030E040E85AE30E94661E7B010D
:101890008C01ADA5BEA558962D913D914D915C91C1
:1018A0005B970E94661E6F87788B898B9A8BED8180
:1018B000FE81BF0180E090E00E94B01D5B016C01E1
:1018C0002DA53EA52C5B3F4F3C8B2B8BD9016D91F9
:1018D0007D918D919C91A60195010E94171D0E94FA
:1018E000CD1E9B01AC016F85788989899A890E94F8
:1018F000661E1B012C01EDA5FEA5648775878687F2
:101900009787C801B701248D358D468D578D0E946C
:10191000661E7B018C012DA53EA5245B3F4F3E8BAF
:101920002D8BD9016D917D918D919C91A601950191
:101930000E94171D0E94CD1E9B01AC01C801B7017A
:101940000E94661E3B014C01EDA5FEA5608B718BCC
:10195000828B938B6F85788989899A89A8019701F1
:101960000E94661E2DA53EA52C5A3F4F388F2F8B07
:10197000D9012D913D914D915C910E94661EA60169
:1019800095010E94171D7B018C01EDA5FEA56083CA
:10199000718382839383C201B101A40193010E94E8
:1019A000661E9B01AC01ADA5BEA514966D937D93FB
:1019B0008D939C931797C801B7010E94171DEDA541
:1019C000FEA5608771878287938780E090E0A0E022
:1019D000B0E0EB89FC8980839183A283B383ED8996
:1019E000FE8980839183A283B383EF89F88D8083FE
:1019F0009183A283B383AE960FB6F894DEBF0FBE79
:101A0000CDBFCF91DF911F910F91FF90EF90DF90AD
:101A1000CF90BF90AF909F908F907F906F905F908E
:101A20004F903F902F900895FC01138615861486E1
:101A300087E090E012863197009711F00197FACF76
:101A40000895DC0180E00BC0E82FF0E08D9190E07C
:101A5000E827F927E859FF4FE49161508E2F66235C
:101A600099F70895DF92EF92FF920F931F93FC0175
:101A7000E08001811281F894F80181818E298183AF
:101A80008281DE2CD0948D21828383E090E00E94BD
:101A90005313F80181818D2181838AE090E00E94B7
:101AA0005313F8010081789485E390E00E9453136A
:101AB00080E010E0FF240E211F21012B09F081E0BE
:101AC0001F910F91FF90EF90DF900895EF92FF929A
:101AD0000F931F93CF93DF937C0101E010E0C0E0F0
:101AE000D0E0C7010E94320D8111102B000F21960A
:101AF000C830D105B1F7812FDF91CF911F910F91A0
:101B0000FF90EF9008951F93CF93DF93FC01108116
:101B1000C181D281912F909560FF12C0F8948A8183
:101B200089238A838981812B89838AE090E00E94BE
:101B300053138A81812B8A83789487E390E011C0C4
:101B4000F8948A8189238A838981812B898381E41E
:101B500090E00E9453138A81812B8A83789485E0D8
:101B600090E00E945313DF91CF911F910895CF927F
:101B7000DF92EF92FF920F931F93CF93DF938C012D
:101B8000E42EFF24F394C0E0D0E0C62EDD2460E014
:101B90008F2D90E08C219D21892B09F061E0C801F7
:101BA0000E94830DFF0C2196C830D10581F7EE20ED
:101BB000A9F4F894D8011196ED91FC9112979181B6
:101BC0008C918095982391831196ED91FC911297B9
:101BD00092818C918095982392837894DF91CF9114
:101BE0001F910F91FF90EF90DF90CF9008956CECD4
:101BF00040E00E94B70D0895EF92FF920F931F935C
:101C0000CF93DF938C017B0165E540E00E94B70D27
:101C1000C0E0D0E0F701EC0FFD1FC801608140E09B
:101C20000E94B70D2196C830D105A1F7DF91CF9161
:101C30001F910F91FF90EF900895DF92EF92FF9226
:101C40000F931F93CF93DF93FC010081C181D28159
:101C5000F8948981D02ED0948D21898378941DE7C2
:101C6000E02EFF24115059F182E090E00E945313BE
:101C7000888190E08E219F21892BA1F3F8948A819D
:101C80008D218A838981802B8983789484EF91E0E8
:101C90000E945313F89489818D21898380E590E017
:101CA0000E945313888110E090E0E822F922EF2887
:101CB00009F411E0789484EA91E00E945313812F93
:101CC000DF91CF911F910F91FF90EF90DF900895DA
:101CD000AF92BF92DF92EF92FF920F931F93CF9339
:101CE000DF93EC015B018D85882309F061C0CE0193
:101CF0000E941D0E882329F41B861D861C8690E0F9
:101D00006BC0CE0160EF40E00E94B70D01E0DD2422
:101D1000EE24FF24F394CE010E94320D182FCE0141
:101D20000E94320D113019F48130E1F439C01817D6
:101D300009F58B85081770F460E0FE01EE0DF11DCA
:101D4000838190E02F2D30E082239323181619060B
:101D50004CF003C060E0081729F0093008F04CC0CF
:101D60000C874AC0FE01EE0DF11D83818F2983830C
:101D700061E009C0612FFE01EE0DF11D9F2D9095D0
:101D8000838189238383CE010E94830D0F5FFF0C23
:101D900019F4E394FF24F39487E08E1508F0BBCF89
:101DA000013430F0DB86DD2011F581E08D871FC026
:101DB0001B861D861C8690E0DE0120E030E0F501E8
:101DC000E20FF31F13968C91139780832F5F3F4F81
:101DD00011962830310599F7892FDF91CF911F9106
:101DE0000F91FF90EF90DF90BF90AF9008958B819F
:101DF0008823F1F291E0E0CFD02EBDCFFF920F9378
:101E00001F938C01F62E862F60E00E94BA138F2D4F
:101E100090E0FC01E656FE4FE491D801EC938A571E
:101E20009E4FFC016491E62FF0E0EE0FFF1FE45897
:101E3000FE4F8591949112969C938E9311971B96C9
:101E40001C921B971D961C921D971C961C92F801C4
:101E500087E090E012863197009711F00197FACF52
:101E60001F910F91FF900895FC0180E090E1928B0B
:101E7000818B768365831482108289E0818381E07F
:101E8000828383830895FC0184810895FC01628329
:101E900008956F927F928F929F92AF92BF92CF924E
:101EA000DF92EF92FF920F931F93CF93DF93FB018B
:101EB000EA01998180E0288130E0282B392BE081EC
:101EC000E23231F0E83221F0E03109F084C04BC059
:101ED0004C814F3329F1403420F44F3109F07BC05D
:101EE0002FC04F3579F04F3709F075C0B9018827F9
:101EF00077FD8095982F0E94B21D20E030E040E8E9
:101F00005DE32EC035952795B901882777FD80952B
:101F1000982F0E94B21D20E030E040E05EE320C038
:101F20003595279535952795B901882777FD8095B3
:101F3000982F0E94B21D20E030E040E85EE310C020
:101F400093E0359527959A95E1F7B901882777FDB4
:101F50008095982F0E94B21D20E030E040E05FE3C2
:101F60000E94661E32C0EF8035952795B9018827FB
:101F700077FD8095982F0E94B21D20E030E040E868
:101F80005EE30E94AE1C3B014C016E2D70E02E8181
:101F9000621B7109882777FD8095982F0E94B21DDA
:101FA0005B016C01FF2400E010E0C801B7010E9452
:101FB000B01D9B01AC01C601B5010E94171D9B011C
:101FC000AC01C401B3010E94AF1C9B01AC01832F83
:101FD000942F752F00C0262F382F492F572FB90166
:101FE000CA01DF91CF911F910F91FF90EF90DF9089
:101FF000CF90BF90AF909F908F907F906F900895FB
:102000000895EF92FF920F931F938C017B01FC01C7
:10201000858196810E941D0EF80185819681B70108
:102020000E94FC0DF8018581968164EB40E00E94DE
:10203000B70DF801858196810E94320DF82EF801C6
:10204000858196810E941D0E80E0FF2009F481E0C9
:102050001F910F91FF90EF900895CF92DF92EF9232
:10206000FF920F931F938C016B017A01FC01858114
:1020700096810E941D0EF80185819681B6010E940D
:10208000FC0DF801858196816EEB40E00E94B70D52
:10209000F801858196810E94660DF7018083F80121
:1020A000858196810E94660DF7018183F801858103
:1020B00096810E94660DF7018283F80185819681E1
:1020C0000E94660DF7018383F801858196810E9445
:1020D000660DF7018483F801858196810E94660D63
:1020E000F7018583F801858196810E94660DF701CD
:1020F0008683F801858196810E94660DF7018783AA
:10210000F801858196810E94660DF7018087F801AC
:10211000858196810E941D0E1F910F91FF90EF9077
:10212000DF90CF900895DF93CF93CDB7DEB7299797
:102130000FB6F894DEBF0FBECDBFAE014F5F5F4F4D
:102140000E942D108981811181E029960FB6F894A3
:10215000DEBF0FBECDBFCF91DF910895CF92DF924A
:10216000EF92FF920F931F93CF93DF93EC016B01DC
:10217000452BE1F08B818823C9F088818823B1F455
:102180000E94EC127B018C01CE0160E070E00E94A5
:102190009310882359F40E94EC126E197F09800B6A
:1021A000910B6E5E72408040904070F3F60160814A
:1021B000693039F06930A0F06A3041F06B3081F459
:1021C0000AC06EE570E080E090E00EC06CEB70E05D
:1021D00080E090E009C067E771E080E090E004C033
:1021E0006EEE72E080E090E00E94FA12DF91CF91F3
:1021F0001F910F91FF90EF90DF90CF900895CF93B4
:10220000DF93EC018D819E810E941D0E8D819E8148
:102210000E94F70D8D819E8164E448810E94B70D74
:102220008A81882339F0CE012196BE0140E050E03A
:102230000E94AE10DF91CF9108950F931F938A01F2
:102240000E942D10C80168E00E94210D20E0F801D5
:102250009085891709F421E0822F1F910F9108952D
:10226000CF92DF92EF92FF920F931F93DF93CF9362
:10227000CDB7DEB729970FB6F894DEBF0FBECDBF3E
:102280008C017B016E010894C11CD11CA6010E9427
:102290001D11882329F460E070E08EEF92EC05C0F8
:1022A000C801B701A6010E94490F29960FB6F894FC
:1022B000DEBF0FBECDBFCF91DF911F910F91FF9079
:1022C000EF90DF90CF900895DF93CF93CDB7DEB737
:1022D00029970FB6F894DEBF0FBECDBF9C01FB015E
:1022E00080818031D9F0C901AE014F5F5F4F0E94FC
:1022F0001D118823A9F08D818F3371F0803418F47B
:102300008F3171F40BC08F3519F08F3749F402C04B
:102310008BE007C08CE005C08AE003C089E001C003
:1023200080E029960FB6F894DEBF0FBECDBFCF91E7
:10233000DF9108950F931F938B01CB0167E00E94FB
:10234000210D20E0F8019781891709F421E0822FFF
:102350001F910F910895AF92BF92CF92DF92EF92AB
:10236000FF920F931F93DF93CF93CDB7DEB76197A3
:102370000FB6F894DEBF0FBECDBF7C01FC01858196
:1023800096810E94140DF70114826E010894C11CFD
:10239000D11C79E0A72EB12CAC0EBD1E01E02BC0E4
:1023A000C701B6010E949A11882329F1F7018081A3
:1023B000882341F4C701B6010E940110882311F05F
:1023C000F7010083C701B601A5010E942D10F70196
:1023D0001181C701B6010E946411811718F4F70139
:1023E000818104C0C701B6010E946411F701818395
:1023F00084818F5F8483F70185819681B6010E9475
:10240000680E882369F661960FB6F894DEBF0FBE9A
:10241000CDBFCF91DF911F910F91FF90EF90DF9093
:10242000CF90BF90AF900895823000F5E82FF0E094
:10243000EE0FFF1FEF5AF94F71836083882319F065
:102440008130A1F408C0809169008C7F842B809337
:102450006900E89A089580916900440F551F440F60
:10246000551F837F842B80936900E99A08958230F9
:1024700080F4882319F0813021F402C0E89801C06B
:10248000E998E82FF0E0EE0FFF1FEF5AF94F1182A5
:10249000108208951F920F920FB60F9211242F935E
:1024A0003F934F935F936F937F938F939F93AF93DC
:1024B000BF93EF93FF938091510690915206892B21
:1024C00029F0E0915106F09152060995FF91EF91A4
:1024D000BF91AF919F918F917F916F915F914F913C
:1024E0003F912F910F900FBE0F901F9018951F9244
:1024F0000F920FB60F9211242F933F934F935F9338
:102500006F937F938F939F93AF93BF93EF93FF93BB
:102510008091530690915406892B29F0E09153063F
:10252000F09154060995FF91EF91BF91AF919F9162
:102530008F917F916F915F914F913F912F910F906C
:102540000FBE0F901F9018951F920F920FB60F920B
:1025500011242F933F938F939F93AF93BF938091B9
:10256000590690915A06A0915B06B0915C06309195
:102570005D060196A11DB11D232F2D5F2D3720F083
:102580002D570196A11DB11D20935D06809359061C
:1025900090935A06A0935B06B0935C068091550613
:1025A00090915606A0915706B09158060196A11D2C
:1025B000B11D8093550690935606A0935706B0938D
:1025C0005806BF91AF919F918F913F912F910F909E
:1025D0000FBE0F901F9018958FB7F8942091590651
:1025E00030915A0640915B0650915C068FBFB9014D
:1025F000CA0108959B01AC017FB7F89480915506FC
:1026000090915606A0915706B091580666B5A89BC2
:1026100005C06F3F19F00196A11DB11D7FBFBA2FF4
:10262000A92F982F8827860F911DA11DB11D62E04B
:10263000880F991FAA1FBB1F6A95D1F7BC012DC037
:10264000FFB7F8948091550690915606A0915706D1
:10265000B0915806E6B5A89B05C0EF3F19F001966A
:10266000A11DB11DFFBFBA2FA92F982F88278E0F4C
:10267000911DA11DB11DE2E0880F991FAA1FBB1F6C
:10268000EA95D1F7861B970B885E9340C8F22150DC
:1026900030404040504068517C4F21153105410584
:1026A000510571F60895019739F0880F991F880F29
:1026B000991F02970197F1F70895789484B5826085
:1026C00084BD84B5816084BD85B5826085BD85B5D6
:1026D000816085BDEEE6F0E0808181608083E1E885
:1026E000F0E01082808182608083808181608083BD
:1026F000E0E8F0E0808181608083E1EBF0E08081C0
:1027000084608083E0EBF0E0808181608083EAE791
:10271000F0E080818460808380818260808380811A
:10272000816080838081806880831092C1000895D9
:10273000982F8E3008F09E50977080910E048295ED
:10274000880F880F807C892B80937C0080917A0091
:10275000806480937A0080917A0086FDFCCF20917E
:10276000780040917900942F80E030E0282B392BBD
:10277000C9010895CF93DF93482F50E0CA018656D0
:102780009E4FFC0134914A575E4FFA018491882391
:1027900069F190E0880F991FFC01E859FE4FA5915F
:1027A000B491FC01EE58FE4FC591D491662351F4CB
:1027B0002FB7F8948C91932F909589238C938881CF
:1027C00089230BC0623061F42FB7F8948C91932F5A
:1027D000909589238C938881832B88832FBF06C093
:1027E0009FB7F8948C91832B8C939FBFDF91CF91EF
:1027F0000895482F50E0CA0182559E4FFC01249154
:10280000CA0186569E4FFC0194914A575E4FFA01C9
:102810003491332309F440C0222351F1233071F065
:10282000243028F42130A1F0223011F514C02630D4
:10283000B1F02730C1F02430D9F404C08091800079
:102840008F7703C0809180008F7D8093800010C0BF
:1028500084B58F7702C084B58F7D84BD09C0809117
:10286000B0008F7703C08091B0008F7D8093B0005F
:10287000E32FF0E0EE0FFF1FEE58FE4FA591B4914D
:102880002FB7F894662321F48C919095892302C088
:102890008C91892B8C932FBF0895682F70E0CB010A
:1028A00082559E4FFC012491CB0186569E4FFC0120
:1028B00044916A577E4FFB019491992319F420E0CB
:1028C00030E03CC0222351F1233071F0243028F451
:1028D0002130A1F0223011F514C02630B1F027309C
:1028E000C1F02430D9F404C0809180008F7703C0F8
:1028F000809180008F7D8093800010C084B58F7799
:1029000002C084B58F7D84BD09C08091B0008F77EF
:1029100003C08091B0008F7D8093B000892F90E03C
:10292000880F991F84589E4FFC01A591B4918C91FA
:1029300020E030E0842311F021E030E0C901089567
:1029400008951F920F920FB60F9211242F933F9369
:102950004F938F939F93EF93FF938091C00082FDDD
:102960001DC04091C60020919E0630919F062F5FAA
:102970003F4F2F7330708091A0069091A1062817C9
:10298000390771F0E0919E06F0919F06E25AF94FE7
:10299000408330939F0620939E0602C08091C6001C
:1029A000FF91EF919F918F914F913F912F910F90B8
:1029B0000FBE0F901F901895E091F206F091F3066C
:1029C000E05CFF4F8191919120813181821B930BBB
:1029D0008F739070892B11F00E94A01408951F929C
:1029E0000F920FB60F9211242F933F938F939F93C3
:1029F000EF93FF932091E2063091E3068091E40685
:102A00009091E5062817390731F48091C1008F7D38
:102A10008093C10014C0E091E406F091E506EE5504
:102A2000F94F20818091E4069091E50601968F731D
:102A300090709093E5068093E4062093C600FF9182
:102A4000EF919F918F913F912F910F900FBE0F901B
:102A50001F901895AF92BF92DF92EF92FF920F9363
:102A60001F93CF93DF93EC017A018B01DD2440307B
:102A700081EE580780E0680780E0780711F0DD24D8
:102A8000D39491E0A92EB12CEC89FD89DD2069F069
:102A9000C50108A002C0880F991F0A94E2F780833D
:102AA00060E079E08DE390E005C0108260E874E8B2
:102AB0008EE190E0A80197010E94511F2150304003
:102AC00040405040569547953795279580E12030F6
:102AD000380720F0DD2011F0DD24D6CFE889F98910
:102AE0003083EA89FB89208319A2EE89FF8940811E
:102AF00021E030E0C9010C8C02C0880F991F0A94B4
:102B0000E2F7482B4083EE89FF894081C9010D8C93
:102B100002C0880F991F0A94E2F7482B4083EE8980
:102B2000FF894081C9010E8C02C0880F991F0A9449
:102B3000E2F7482B4083EE89FF8980810F8C02C029
:102B4000220F331F0A94E2F7209528232083DF9178
:102B5000CF911F910F91FF90EF90DF90BF90AF90BA
:102B60000895CF93DF93DC011E968D919C911F9762
:102B7000EC01C05CDF4FFC01EE5BFF4F2881398127
:102B80008081918128173907C9F75696ED91FC91FC
:102B90005797408121E030E0C9015C960C905C972A
:102BA00002C0880F991F0A94E2F7809584238083DE
:102BB0005696ED91FC9157974081C9015D960C9016
:102BC0005D9702C0880F991F0A94E2F780958423CD
:102BD00080835696ED91FC9157974081C9015E968E
:102BE0000C905E9702C0880F991F0A94E2F78095B7
:102BF000842380835696ED91FC91579780815F9650
:102C00000C905F9702C0220F331F0A94E2F72095C1
:102C1000282320831C96ED91FC911D97EE5BFF4FBE
:102C20008081918192938293DF91CF910895DC010D
:102C30001C96ED91FC911D97E05CFF4F2191319125
:102C400080819181281B390B2F733070C901089541
:102C5000DC011C96ED91FC911D97E05CFF4F2081FB
:102C60003181E054F040DF01AE5BBF4F8D919C910C
:102C700011972817390719F42FEF3FEF07C08D91EF
:102C80009C91E80FF91F8081282F30E0C901089539
:102C9000DC011C96ED91FC911D97E05CFF4F2081BB
:102CA0003181E054F040DF01AE5BBF4F8D919C91CC
:102CB00011972817390719F42FEF3FEF10C08D91A6
:102CC0009C911197E80FF91F20818D919C9111978C
:102CD00001968F73907011969C938E9330E0C9018A
:102CE0000895DC0191968C919197882339F0549640
:102CF000ED91FC915597808186FFF9CF91961C92BA
:102D00000895CF93DF93EC01EE85FF85E05CFF4FE4
:102D100020813181E054F0402F5F3F4F2F7330709E
:102D2000DF01AE5BBF4F8D919C911197281739073A
:102D3000D1F3E05CFF4F80819181E054F040E80FD7
:102D4000F91F6083EE85FF85E05CFF4F31832083B0
:102D5000EE89FF89208181E090E00F8C02C0880F0E
:102D6000991F0A94E2F7282B208381E089A3EC893C
:102D7000FD8980818064808381E090E0DF91CF9144
:102D8000089581E008951092E9061092E80688EE11
:102D900093E0A0E0B0E08093EA069093EB06A09366
:102DA000EC06B093ED0683E194E09093E706809300
:102DB000E6068EE596E09093F3068093F20682EAAB
:102DC00096E09093F5068093F40685EC90E090935E
:102DD000F7068093F60684EC90E09093F9068093D2
:102DE000F80680EC90E09093FB068093FA0681EC65
:102DF00090E09093FD068093FC0682EC90E0909327
:102E0000FF068093FE0686EC90E090930107809386
:102E1000000784E08093020783E08093030787E044
:102E20008093040785E08093050781E0809306077F
:102E30000895CF93DF930E945D130E94FD03CCEDB4
:102E4000D4E10E94DC012097E1F30E94DC14F9CF69
:102E5000CF92DF92EF92FF920F931F93CF93DF9366
:102E60007C016B018A01C0E0D0E00FC0D6016D91FA
:102E70006D01D701ED91FC910190F081E02DC7012A
:102E80000995C80FD91F015010400115110571F7A0
:102E9000CE01DF91CF911F910F91FF90EF90DF90C6
:102EA000CF900895EF92FF920F931F938C01DC0156
:102EB000ED91FC910190F081E02D6DE009957C0190
:102EC000D801ED91FC910190F081E02DC8016AE0FC
:102ED00009959C012E0D3F1DC9011F910F91FF9077
:102EE000EF900895CF93DF93EC016115710519F40C
:102EF00020E030E00FC0DB010D900020E9F71197D2
:102F0000A61BB70BE881F9810280F381E02DAD01AA
:102F100009959C01C901DF91CF9108954F925F926D
:102F20007F928F929F92AF92BF92CF92DF92EF9259
:102F3000FF920F931F93DF93CF93CDB7DEB7A19787
:102F40000FB6F894DEBF0FBECDBF2C01742ECB019F
:102F5000223008F42AE019A231E2C32ED12CCC0E83
:102F6000DD1E822E9924AA24BB24672D752FA5016E
:102F700094010E94511F79018A01C801B701A5017E
:102F800094010E94321F472D461B0894C108D108A6
:102F90004A3014F4405D01C0495CF6014083E114FD
:102FA000F1040105110521F07E2C5F2DC801DDCF54
:102FB000C201B6010E947217A1960FB6F894DEBF47
:102FC0000FBECDBFCF91DF911F910F91FF90EF907A
:102FD000DF90CF90BF90AF909F908F907F905F9049
:102FE0004F900895DC012115310541F4ED91FC91DC
:102FF0000190F081E02D642F099508950E948E17AD
:103000000895EF92FF920F931F939A01E62EFF24EB
:1030100000E010E0B801A7010E94F2171F910F9184
:10302000FF90EF900895CF92DF92EF92FF920F936F
:103030001F93CF93DF93EC016A017B0121153105CA
:1030400041F4E881F9810190F081E02D642F099528
:103050001FC02A303105D1F477FF17C0E881F9810C
:103060000190F081E02D6DE209958C0144275527F0
:10307000BA014C195D096E097F09CE012AE00E9450
:103080008E179801280F391F04C02AE00E948E175E
:103090009C01C901DF91CF911F910F91FF90EF909B
:1030A000DF90CF900895EF92FF920F931F937B01D3
:1030B0009A010027F7FC0095102FB801A7010E9484
:1030C00013181F910F91FF90EF900895CF92DF9208
:1030D000EF92FF920F931F936C017B019A010027DF
:1030E000F7FC0095102FB801A7010E9413188C015E
:1030F000C6010E945217080F191FC8011F910F9196
:10310000FF90EF90DF90CF9008950E94721708957E
:103110007F928F929F92AF92BF92CF92DF92EF9267
:10312000FF920F931F93CF93DF934C017A018B0192
:10313000722ECB01BA01A80197010E94171F8823A4
:1031400021F0C4016BEF73E021C0C0E0D0E0570173
:103150006801E894D7F8C601B5012FEF3FEF4FE7BC
:103160005FE70E94171F882351F4C601B5012FEFB6
:103170003FEF4FE75FE70E94131D181614F0C1E000
:10318000D0E0219739F0C4016FEF73E00E9472170D
:10319000EC0193C0C801B7012FEF3FEF4FE75FE4A9
:1031A0000E94621E181654F0C801B7012FEF3FEFBE
:1031B0004FE75FEC0E94131D882324F4C40163E0F1
:1031C00074E0E4CFC801B70120E030E040E050E017
:1031D0000E94131D87FD03C0C0E0D0E00EC0D401E3
:1031E000ED91FC910190F081E02DC4016DE2099513
:1031F000EC0117FB109517F9109520E030E040E046
:103200005FE3DD240BC0CA01B90120E030E040E2F9
:1032100051E40E94171D9B01AC01D394D71498F37D
:10322000C801B7010E94AF1C5B016C010E94841DA4
:103230007B018C01C401B801A7012AE030E00E94A3
:10324000F217C80FD91F772039F0C40167E074E086
:103250000E947217C80FD91FC801B7010E94B01D84
:103260009B01AC01C601B5010E94AE1C24C020E048
:1032700030E040E251E40E94661E7B018C010E9416
:103280007F1D5B016C01CC24B7FCC094DC2CC40115
:10329000B601A5012AE030E00E941318C80FD91F1B
:1032A000C601B5010E94B21D9B01AC01C801B70166
:1032B0000E94AE1C7A947720D1F6CE01DF91CF9197
:1032C0001F910F91FF90EF90DF90CF90BF90AF9044
:1032D0009F908F907F9008950E9488180895EF9294
:1032E000FF920F931F937C010E9488188C01C701E5
:1032F0000E945217080F191FC8011F910F91FF90CC
:10330000EF900895EF92FF920F931F937C010E941C
:1033100072178C01C7010E945217080F191FC801AC
:103320001F910F91FF90EF90089598E20EC0E898DA
:103330002A981EBC0DB407FEFDCF8EB51EBC0DB481
:1033400007FEFDCF8EB52A9AE89AE8982A989EBD86
:103350000DB407FEFDCF8EB51EBC0DB407FEFDCF2C
:103360008EB52A9AE89A807511F70895282FE89863
:103370002A9881E08EBD0DB407FEFDCF8EB51EBC30
:103380000DB407FEFDCF9EB52A9AE89AE8982A98D0
:1033900081E88EBD0DB407FEFDCF8EB5937E922BD6
:1033A0009EBD0DB407FEFDCF8EB52A9AE89A08950A
:1033B00022E0660F771F881F991F2A95D1F729E011
:1033C0003DE340E050E00E94511F86E0220F331F92
:1033D000441F551F8A95D1F720930807309309079A
:1033E00040930A0750930B07089580911307853087
:1033F00059F480911407882339F484E080931307EB
:103400000E94B61981E0089580E008958091130725
:1034100090E084300CF491E0892F0895882311F412
:1034200084E001C080E00E94B61984E08093130715
:1034300008952A9A229A2A9A84B18C6284B980E5E6
:103440008CBD8DB581608DBD3FEA2AEA9FE2E89888
:103450002A983EBD0DB407FEFDCF8EB52EBD0DB42E
:1034600007FEFDCF8EB52A9AE89AE8982A989EBD65
:103470000DB407FEFDCF8EB51EBC0DB407FEFDCF0B
:103480008EB52A9AE89A8A3A11F73FEA25E59FE233
:10349000E8982A983EBD0DB407FEFDCF8EB52EBD2F
:1034A0000DB407FEFDCF8EB52A9AE89AE8982A98BF
:1034B0009EBD0DB407FEFDCF8EB51EBC0DB407FE3C
:1034C000FDCF8EB52A9AE89A853511F7E2ECF1E046
:1034D00084918823A1F03196949131978068E8987F
:1034E0002A988EBD0DB407FEFDCF8EB59EBD0DB4DE
:1034F00007FEFDCF8EB52A9AE89A3296E9CF9091D1
:103500000C07E8982A9880EB8EBD0DB407FEFDCF1E
:103510008EB59EBD0DB407FEFDCF8EB52A9AE89AF2
:10352000209108073091090740910A0750910B0735
:10353000E8982A9887E88EBD0DB407FEFDCF8EB5BA
:10354000CA01AA27BB278EBD0DB407FEFDCF8EB5DD
:103550002A9AE89AE8982A9888E88EBD0DB407FE62
:10356000FDCF8EB5BB27A52F942F832F8EBD0DB415
:1035700007FEFDCF8EB52A9AE89AE8982A9889E83E
:103580008EBD0DB407FEFDCF8EB52EBD0DB407FE6A
:10359000FDCF8EB52A9AE89A84E0809313070895A8
:1035A000AC0180911307843021F0853009F066C0AA
:1035B00032C010920A0680910A0680931407209167
:1035C0000C078FEF9FEF8227282F22952827022EA6
:1035D000269526952025022E269520252770082E33
:1035E000892F269507942795902D82270694279555
:1035F0009025822790930F0780930E075093120710
:103600004093110785E0809313070E94951980E18C
:103610000E94B61933C080910A062091140790E0E9
:10362000049630E08217930724F0809114078834C1
:1036300028F184E0809313070E94B61980910A064E
:10364000833430F081E090E090930F0780930E0771
:103650008091090686FF0DC020910D072F3149F09A
:103660008091090690E08F71907030E08217930787
:1036700029F420910E0730910F0702C02FEF3FEF82
:10368000C9010895982F40930A0620E030E050E0E9
:103690000AC0F901E55FF94FDB01A20FB31F8C915E
:1036A00080832F5F3F4F241735079CF396FD04C09E
:1036B000907E80910D07980F9093090620910C073A
:1036C0008FEF9FEF8227282F22952827022E2695FD
:1036D00026952025022E269520252770082E892F35
:1036E000269507942795902D822706942795902557
:1036F0008227909307068093060690910A068EEF24
:10370000891B809313070E9495198CE00E94B619BB
:10371000E8982A9885EA8EBD0DB407FEFDCF8EB5D8
:103720001EBC0DB407FEFDCF8EB52A9AE89A4091D3
:1037300011075091120768E230E861C0E8982A98B2
:103740006EBD0DB407FEFDCF8EB51EBC0DB407FED9
:10375000FDCF8EB52A9AE89A87FD51C08091130754
:1037600087FF2DC020910A0680911307992787FDB6
:103770009095FA01E20FF11DE80FF91F2381809166
:103780000E0790910F078227782F72957827072EC2
:10379000769576957025072E769570257770082E8C
:1037A000892F769507947795902D8727069477959E
:1037B0009025872790930F0780930E070DC0809167
:1037C0001307882321F0813029F02AEA05C02091CF
:1037D0000E0702C020910F07E8982A983EBD0DB44D
:1037E00007FEFDCF8EB52EBD0DB407FEFDCF8EB505
:1037F0002A9AE89A809113078F5F8093130780912C
:10380000130783300CF49ACF089580911307853005
:1038100009F07DC0E8982A9884E28EBD0DB407FEB9
:10382000FDCF8EB51EBC0DB407FEFDCF8EB52A9A16
:10383000E89A80931007789448E2E8982A984EBD59
:103840000DB407FEFDCF8EB51EBC0DB407FEFDCF37
:103850008EB52A9AE89A807581F38091140788239F
:1038600071F480911407E0911107F0911207E80FAD
:10387000F11D90910C0790838F5F80931407E89857
:103880002A981EBC0DB407FEFDCF8EB51EBC0DB42C
:1038900007FEFDCF2EB52A9AE89A80911407E09191
:1038A0001107F0911207E80FF11D20838F5F8093BD
:1038B000140780910E0790910F078227282F2295D9
:1038C0002827022E269526952025022E269520258E
:1038D0002770082E892F269507942795902D8227EB
:1038E000069427959025822790930F0780930E07C3
:1038F00080910A062091140790E0049630E0821728
:1039000093075CF180911407883438F596CFE898D6
:103910002A9888E28EBD0DB407FEFDCF8EB51EBC81
:103920000DB407FEFDCF8EB52A9AE89A83FF15C025
:1039300084E0809313070E94B619E8982A9885EAD4
:103940008EBD0DB407FEFDCF8EB580E88EBD0DB4E3
:1039500007FEFDCF8EB52A9AE89A08955058BB27E6
:10396000AA270ED075C166D130F06BD120F031F4AA
:103970009F3F11F41EF45BC10EF4E095E7FB51C1CB
:10398000E92F77D180F3BA17620773078407950789
:1039900018F071F49EF58FC10EF4E0950B2EBA2F3E
:1039A000A02D0B01B90190010C01CA01A001112445
:1039B000FF27591B99F0593F50F4503E68F11A16F1
:1039C000F040A22F232F342F4427585FF3CF469582
:1039D00037952795A795F0405395C9F77EF41F16A4
:1039E000BA0B620B730B840BBAF09150A1F0FF0F6E
:1039F000BB1F661F771F881FC2F70EC0BA0F621F5A
:103A0000731F841F48F4879577956795B795F79549
:103A10009E3F08F0B3CF9395880F08F09927EE0FDB
:103A2000979587950895D9D008F481E008950CD032
:103A30000FC107D140F0FED030F021F45F3F19F004
:103A4000F0C0511139C1F3C014D198F39923C9F3CF
:103A50005523B1F3951B550BBB27AA276217730794
:103A6000840738F09F5F5F4F220F331F441FAA1F48
:103A7000A9F333D00E2E3AF0E0E830D09150504008
:103A8000E695001CCAF729D0FE2F27D0660F771FB6
:103A9000881FBB1F261737074807AB07B0E809F098
:103AA000BB0B802DBF01FF2793585F4F2AF09E3F2D
:103AB000510568F0B6C000C15F3FECF3983EDCF3FF
:103AC000869577956795B795F7959F5FC9F7880FA6
:103AD000911D9695879597F90895E1E0660F771FF8
:103AE000881FBB1F621773078407BA0720F0621B89
:103AF000730B840BBA0BEE1F88F7E095089504D082
:103B00006894B111D9C00895BCD088F09F5790F047
:103B1000B92F9927B751A0F0D1F0660F771F881FF2
:103B2000991F1AF0BA95C9F712C0B13081F0C3D00D
:103B3000B1E00895C0C0672F782F8827B85F39F0AB
:103B4000B93FCCF3869577956795B395D9F73EF451
:103B500090958095709561957F4F8F4F9F4F0895F9
:103B6000E89409C097FB3EF4909580957095619517
:103B70007F4F8F4F9F4F9923A9F0F92F96E9BB27CD
:103B80009395F695879577956795B795F111F8CF49
:103B9000FAF4BB0F11F460FF1BC06F5F7F4F8F4FB4
:103BA0009F4F16C0882311F096E911C0772321F0AA
:103BB0009EE8872F762F05C0662371F096E8862F42
:103BC00070E060E02AF09A95660F771F881FDAF799
:103BD000880F9695879597F90895990F0008550FC6
:103BE000AA0BE0E8FEEF16161706E807F907C0F083
:103BF00012161306E407F50798F0621B730B840B8B
:103C0000950B39F40A2661F0232B242B252B21F464
:103C100008950A2609F4A140A6958FEF811D811D04
:103C2000089597F99F6780E870E060E008959FEF3E
:103C300080EC089500240A94161617061806090643
:103C4000089500240A941216130614060506089512
:103C5000092E0394000C11F4882352F0BB0F40F49A
:103C6000BF2B11F460FF04C06F5F7F4F8F4F9F4FDA
:103C7000089557FD9058440F551F59F05F3F71F05C
:103C80004795880F97FB991F61F09F3F79F08795C3
:103C90000895121613061406551FF2CF4695F1DF4C
:103CA00008C0161617061806991FF1CF86957105DC
:103CB000610508940895E894BB2766277727CB0110
:103CC00097F908958ADF08F48FEF08950BD0C0CFDD
:103CD000B1DF28F0B6DF18F0952309F0A2CFA7CF07
:103CE0001124EACFC6DFA0F3959FD1F3950F50E0E2
:103CF000551F629FF001729FBB27F00DB11D639F9E
:103D0000AA27F00DB11DAA1F649F6627B00DA11D43
:103D1000661F829F2227B00DA11D621F739FB00DE9
:103D2000A11D621F839FA00D611D221F749F332759
:103D3000A00D611D231F849F600D211D822F762FF2
:103D40006A2F11249F5750408AF0E1F088234AF0EF
:103D5000EE0FFF1FBB1F661F771F881F915050403B
:103D6000A9F79E3F510570F05CCFA6CF5F3FECF303
:103D7000983EDCF3869577956795B795F795E79527
:103D80009F5FC1F7FE2B880F911D9695879597F938
:103D9000089511F40EF44BCF4EC073DFD0F3992386
:103DA000D9F3CEF39F57550B87FF55D0569597956E
:103DB000B0E020F4660F771F881FBB1F1F930F937F
:103DC00000249001A0018001F001A0E80E0F1F1F48
:103DD0000A1E511D601B710B8009B50B48F4600F62
:103DE000711F801DB51F0E1B1F0B0A0A510907C04A
:103DF0002E0F3F1F4A1F0E0F1F1F0A1E511D660F59
:103E0000771F881FBB1FA695F795E795F8F606174D
:103E1000170708065B07211D311D411D0F911F91DA
:103E2000B901842F9158880F969587950895D5DE0E
:103E3000880B990B08959F3F49F0915028F486957F
:103E400077956795B7959F5F80389F4F880F9695B8
:103E5000879597F9089591505040660F771F881FF6
:103E6000D2F70895629FD001739FF001829FE00D09
:103E7000F11D649FE00DF11D929FF00D839FF00DE9
:103E8000749FF00D659FF00D9927729FB00DE11D95
:103E9000F91F639FB00DE11DF91FBD01CF01112472
:103EA0000895A1E21A2EAA1BBB1BFD010DC0AA1F7B
:103EB000BB1FEE1FFF1FA217B307E407F50720F093
:103EC000A21BB30BE40BF50B661F771F881F991F0E
:103ED0001A9469F760957095809590959B01AC0157
:103EE000BD01CF01089597FB092E05260ED057FD81
:103EF00004D0D7DF0AD0001C38F450954095309597
:103F000021953F4F4F4F5F4F0895F6F7909580955D
:103F1000709561957F4F8F4F9F4F0895EE0FFF1F54
:0C3F20000590F491E02D0994F894FFCF77
:103F2C002000656D6F6E547820563320446973639E
:103F3C00726574652053616D706C696E67205631C3
:103F4C002E352052464D36394357004F70656E451D
:103F5C006E657267794D6F6E69746F722E6F7267D2
:103F6C0000504F53542E2E2E2E2E77616974203113
:103F7C00307300435420312043616C696272617468
:103F8C00696F6E3A2000435420322043616C6962A1
:103F9C00726174696F6E3A20004354203320436180
:103FAC006C6962726174696F6E3A200043542034FC
:103FBC002043616C6962726174696F6E3A200052C1
:103FCC004D5320566F6C74616765206F6E204143B2
:103FDC002D4143204164617074657220696E707567
:103FEC00742069733A207E00560041432D414320D2
:103FFC006164617074657220646574656374656472
:10400C00202D205265616C20506F776572206D6594
:10401C0061737572656D656E747320656E61626C2B
:10402C00656400617373756D696E6720706F776579
:10403C0072696E672066726F6D2041432D4143207B
:10404C006164617074657220286A756D7065722088
:10405C00636C6F7365642900555341206D6F646503
:10406C0020616374697661746564005663616C3AAF
:10407C00200050686173652053686966743A2000AB
:10408C0041432D41432061646170746572204E4F31
:10409C0054206465746563746564202D20417070D0
:1040AC006172656E7420506F776572206D656173F7
:1040BC007572656D656E747320656E61626C656496
:1040CC0000417373756D696E672056524D532074A1
:1040DC006F2062652000417373756D696E67207087
:1040EC006F776572696E672066726F6D206261749E
:1040FC00746572696573202F203556205553422004
:10410C002D20706F77657220736176696E67206DF4
:10411C006F646520656E61626C6564004E4F204370
:10412C005427732064657465637465642C20736113
:10413C006D706C696E672066726F6D204354312010
:10414C0062792064656661756C740043542031207B
:10415C00646574656374656400435420322064653F
:10416C00746563746564004354203320646574651E
:10417C00637465640043542034206465746563740F
:10418C006564004465746563746564200020445361
:10419C0031384232302E2E7573696E67207468691F
:1041AC007320666F722074656D70657261747572C0
:1041BC00652072656164696E6700556E61626C653D
:1041CC0020746F20646574656374204453313842E5
:1041DC0032302074656D7065726174757265207310
:1041EC00656E736F720052464D3639435720496ED7
:1041FC00697469617465643A20004E6F64653A2095
:10420C000020467265713A20003433334D687A00D1
:10421C00204E6574776F726B3A20006E616E006988
:10422C006E66006F7666002E00297C86430A0100BC
:10423C00000000811628171716481628167116004C
:00000001FF
