:100000000C94F5000C94B6160C94E3160C941D0198
:100010000C941D010C941D010C9446010C941D01BF
:100020000C941D010C941D010C941D010C941D01D8
:100030000C941D010C941D010C941D010C941D01C8
:100040000C94C1140C941D010C9410170C944217BD
:100050000C941D010C941D010C941D010C941D01A8
:100060000C941D010C941D01010402000302048A7A
:10007000050506C30B2019421E2C25802E882F2D26
:10008000370038003C8F3D106F2000005EBCE261FD
:100090003FDD83C29C7E20A3FD1F419DC3217FFCC9
:1000A000A2401E5F01E3BD3E6082DC237D9FC14212
:1000B0001CFEA0E1BF5D0380DE3C62BEE0025CDFAF
:1000C00081633D7C22C09E1D43A1FF4618FAA427F0
:1000D000799BC584DA3866E5BB5907DB856739BA91
:1000E000E406581947A5FB7826C49A653BD98704CE
:1000F0005AB8E6A7F91B45C6987A24F8A6441A9977
:10010000C7257B3A6486D85B05E7B98CD2306EEDA3
:10011000B3510F4E10F2AC2F7193CD114FADF37060
:100120002ECC92D38D6F31B2EC0E50AFF1134DCE79
:1001300090722C6D33D18F0C52B0EE326C8ED05346
:100140000DEFB1F0AE4C1291CF2D73CA947628AB5F
:10015000F517490856B4EA6937D58B5709EBB53618
:10016000688AD495CB2977F4AA4816E9B7550B8845
:10017000D6346A2B7597C94A14F6A8742AC89615FE
:100180004BA9F7B6E80A54D7896B35000000080080
:10019000020100000304070000000000000000014D
:1001A000020408102040800102040810200102040B
:1001B00008102004040404040404040202020202DD
:1001C00002030303030303000000002300260029A9
:1001D0000000000000250028002B00000000002483
:1001E0000027002A00000408721711241FBECFEF59
:1001F000D8E0DEBFCDBF13E0A0E0B1E0E8E9FCE36A
:1002000002C005900D92AE37B107D9F726E0AEE7F0
:10021000B3E001C01D92AC36B207E1F711E0CAEEBF
:10022000D1E004C02297FE010E94461EC63ED107BF
:10023000C9F70E94101A0C944A1E0C9400000F93E8
:100240001F930E940B1500917E0310917F03209154
:10025000800330918103601B710B820B930B6F360F
:1002600071058105910528F0809182038F5F80934D
:1002700082030E940B1560937E0370937F0380932B
:100280008003909381031F910F9108951F920F9205
:100290000FB60F9211242F933F934F935F936F9359
:1002A0007F938F939F93AF93BF93EF93FF930E949E
:1002B0004B09FF91EF91BF91AF919F918F917F91EA
:1002C0006F915F914F913F912F910F900FBE0F90C3
:1002D0001F9018958FEF0E94B8084AE16BE873E011
:1002E00080E00E947A0882E00E949908809186034B
:1002F000811102C00C94B8080895CF92DF92EF925A
:10030000FF920F931F93CF93DF93EB0100E010E078
:10031000C12CD12C76010C171D077CF480E00E94C3
:100320006816DC01B2509D010E941B1EC60ED71E2E
:10033000E81EF91E0F5F1F4FEECFC701B6010E94E6
:10034000661C6B017C01BE01882777FD8095982F84
:100350000E94681C9B01AC01C701B6010E94CD1B25
:10036000DF91CF911F910F91FF90EF90DF90CF9091
:100370000C94831DCF92DF92EF92FF920F931F9305
:10038000CF93DF9361E086E00E94D01561E083E1C6
:100390000E94D01562E083E00E94D0151092A10364
:1003A0001092A2031092A3031092A40361E086E0CE
:1003B0000E94091626E040E855E260E070E08FEC0C
:1003C00095E00E94021B6CE071E08FEC95E00E94CA
:1003D000F31722E030E043E353E363E170E48FEC92
:1003E00095E00E94FB196CE271E08FEC95E00E94B1
:1003F000101865E371E08FEC95E00E9410186BE433
:1004000071E08FEC95E00E94101862E088E00E9495
:10041000D01562E089E00E94D01588E00E943F1666
:10042000892B29F48091060181508093060189E08F
:100430000E943F16892B19F481E08093F703809185
:10044000F703882361F080E090E0A2E0B3E48093BA
:10045000070190930801A0930901B0930A016AE093
:1004600070E080E090E00E943A1520E436E042ED32
:1004700061E0809106010E940F08CAE0D0E0D093AD
:100480008C03C0938B034AE16BE873E080E00E9429
:100490007A0864E670E080E090E00E943A152197C7
:1004A00070F782E00E94990810928C0310928B03DF
:1004B00081E00E946816181619064CF481E08093BA
:1004C0008A03809183038F5F8093830302C010921D
:1004D0008A0382E00E946816181619064CF481E01F
:1004E00080938903809183038F5F8093830302C08D
:1004F0001092890383E00E946816181619064CF4BE
:1005000081E080938803809183038F5F80938303CE
:1005100002C01092880384E00E946816181619061B
:100520004CF481E080938703809183038F5F8093F5
:10053000830302C01092870380918303811103C05B
:1005400081E080938A0380E197E20E94F60860E0F0
:1005500086E00E94091664EF76E080E090E00E9459
:100560007D0122E538EB4EE55FE30E941C1D6B0127
:100570007C0120E030E044EB52E40E94181D181684
:1005800024F481E08093860302C010928603809158
:1005900086038823C9F0CAE0D0E061E086E00E94CB
:1005A000091668EC70E080E090E00E943A1560E087
:1005B00086E00E9409166CE271E080E090E00E9403
:1005C0003A15219751F714C068EE73E080E090E08F
:1005D0000E943A1561E086E00E94091660ED77E01E
:1005E00080E090E00E943A1560E086E00E940916E3
:1005F00061E083E10E94091664E670E080E090E02B
:100600000E943A1586ED93E00E94F81260E086EDB4
:1006100093E00E94601386ED93E00E947111873091
:1006200008F086E08093A503C0E08091A503C81779
:1006300070F488E0C89FB00111246A557C4F89EEA0
:1006400093E00E94BD10882311F0CF5FEECF64EFDE
:1006500071E080E090E00E943A1560E083E10E9442
:1006600009168091A503811103C01092840303C071
:1006700081E08093840381E0809385036DE571E0E0
:100680008FEC95E00E94F31722E030E04DEC5CEC3B
:1006900065EB72E48FEC95E00E94FD1967E671E06E
:1006A0008FEC95E00E94F31722E030E04DEC5CEC1B
:1006B00065EB72E48FEC95E00E94FD1961E771E053
:1006C0008FEC95E00E94F31722E030E04DEC5CECFB
:1006D00065EB72E48FEC95E00E94FD196BE771E029
:1006E0008FEC95E00E94F31722E030E049E25CE5F0
:1006F00065E871E48FEC95E00E94FD1968EE73E007
:1007000080E090E00E943A1565E871E08FEC95E09A
:100710000E94F31720E030E0B701A6018FEC95E0CE
:100720000E94FB196AE271E08FEC95E00E941018BC
:10073000809186038823D9F161EA71E08FEC95E01E
:100740000E9410186DEC71E08FEC95E00E9410187B
:100750008091F703882331F065EF71E08FEC95E02D
:100760000E94101865E072E08FEC95E00E94F3178C
:1007700040910701509108016091090170910A01AF
:1007800022E030E08FEC95E00E94FD196CE072E011
:100790008FEC95E00E94F31722E030E04AE959E936
:1007A00069ED7FE38FEC95E00E94FD191FC06AE1BF
:1007B00072E08FEC95E00E9410186CE472E08FEC10
:1007C00095E00E94F3174AE050E066EE8FEC95E06A
:1007D0000E94F2186AE271E08FEC95E00E94101816
:1007E0006CE572E08FEC95E00E9410188091830315
:1007F000811103C063E972E024C080918A038823D9
:1008000031F064EA72E08FEC95E00E94101880915C
:100810008903882331F062EB72E08FEC95E00E944F
:10082000101880918803882331F060EC72E08FEC1F
:1008300095E00E94101880918703882331F06EECB8
:1008400072E08FEC95E00E94101880918403882359
:1008500079F06CED72E08FEC95E00E94F3174AE0BE
:1008600050E06091A5038FEC95E00E94F91806C056
:1008700065EF72E08FEC95E00E9410186DE271E078
:100880008FEC95E00E9410186BE073E08FEC95E020
:100890000E94F3174AE050E0609106018FEC95E06A
:1008A0000E94F21862E173E08FEC95E00E94F3176A
:1008B0006AE173E08FEC95E00E94F31761E273E068
:1008C0008FEC95E00E94F3174AE050E062ED70E093
:1008D0008FEC95E00E94CD186CE273E08FEC95E010
:1008E0000E94F31780918403882371F06CE473E015
:1008F0008FEC95E00E94F3174AE050E06091A50369
:100900008FEC95E00E94F21863EF72E08FEC95E0B7
:100910000E94101864EF71E080E090E00E943A15A8
:1009200080918A03882351F02DEC3CEC45EB52E496
:1009300061E070E08CE095E00E947D0B809189037E
:10094000882351F02DEC3CEC45EB52E462E070E082
:1009500080EB94E00E947D0B80918803882351F006
:100960002DEC3CEC45EB52E463E070E084E594E070
:100970000E947D0B80918703882351F029E23CE59A
:1009800045E851E464E070E088EF93E00E947D0B5D
:1009900080918603882309F460C080918A038823AC
:1009A000A1F0209107013091080140910901509177
:1009B0000A011AE9E12E19E9F12E09ED1FE360E0C1
:1009C00070E08CE095E00E94610B809189038823A0
:1009D000A1F0209107013091080140910901509147
:1009E0000A011AE9E12E19E9F12E09ED1FE360E091
:1009F00070E080EB94E00E94610B80918803882373
:100A0000A1F0209107013091080140910901509116
:100A10000A011AE9E12E19E9F12E09ED1FE360E060
:100A200070E084E594E00E94610B80918703882345
:100A3000A1F02091070130910801409109015091E6
:100A40000A011AE9E12E19E9F12E09ED1FE360E030
:100A500070E088EF93E00E94610B42E050E06FE1AC
:100A600071E081E00E94861688EB9BE090939603EC
:100A700080939503909398038093970390939A03A0
:100A80008093990390939C0380939B0390939E0380
:100A900080939D039093A00380939F03DF91CF9158
:100AA0001F910F91FF90EF90DF90CF900895CF921C
:100AB000DF92EF92FF9298E0899FB00111246A556E
:100AC0007C4F86ED93E00E9491146B017C0120E045
:100AD00030E04AEF52E40E94C91B87FF16C020E0B5
:100AE00030E04CE552ECC701B6010E94181D181603
:100AF00064F420E030E040E251E4C701B6010E9416
:100B00001C1D0E94351CCB0100C0FF90EF90DF90B0
:100B1000CF900895CF92DF92EF92FF920F931F93A1
:100B2000CF93DF930E940B156B017C0180918603AC
:100B3000882351F068EC70E080E090E00E943A1564
:100B4000109294031092930380918A03882309F4EE
:100B500041C080918603882359F140ED57E06EE152
:100B600070E08CE095E00E94B40B60910C057091F0
:100B70000D0580910E0590910F050E94351C709314
:100B80008C0360938B0320E030E048EC52E46091EA
:100B900018057091190580911A0590911B050E9406
:100BA0001C1D0E94351C709394036093930312C024
:100BB0006EE776E08CE095E00E94850E20E030E064
:100BC00046E653E40E941C1D0E94351C70938C0362
:100BD00060938B0380918903882309F441C080913D
:100BE0008603882359F140ED57E06EE170E080EB19
:100BF00094E00E94B40B6091B0047091B1048091B4
:100C0000B2049091B3040E94351C70938E036093DC
:100C10008D0320E030E048EC52E46091BC04709118
:100C2000BD048091BE049091BF040E941C1D0E94CF
:100C3000351C709394036093930312C06EE776E0C3
:100C400080EB94E00E94850E20E030E046E653E41D
:100C50000E941C1D0E94351C70938E0360938D03AF
:100C600080918803882309F441C0809186038823FA
:100C700059F140ED57E06EE170E084E594E00E94A8
:100C8000B40B609154047091550480915604909176
:100C900057040E94351C7093900360938F0320E0EB
:100CA00030E048EC52E460916004709161048091FE
:100CB0006204909163040E941C1D0E94351C709375
:100CC00094036093930312C06EE776E084E594E0AA
:100CD0000E94850E20E030E046E653E40E941C1D91
:100CE0000E94351C7093900360938F03809187035B
:100CF000882309F441C080918603882359F140ED8F
:100D000057E06EE170E088EF93E00E94B40B6091D1
:100D1000F8037091F9038091FA039091FB030E940C
:100D2000351C709392036093910320E030E048EC0F
:100D300052E460910404709105048091060490913E
:100D400007040E941C1D0E94351C7093940360933D
:100D5000930312C06EE776E088EF93E00E94850E61
:100D600020E030E046E653E40E941C1D0E94351C42
:100D7000709392036093910380918603811116C052
:100D800087E00E946816BC01882777FD8095982F20
:100D90000E94681C2BE23BE64EE25FE30E941C1DB2
:100DA0000E94351C70939403609393038091840395
:100DB0008823D1F161E083E10E94091682E390E08B
:100DC0000E94F60806EA13E0C0E0D0E08091A50397
:100DD00090E0C817D90754F44BE0B80186ED93E0D2
:100DE0000E9482122196085F1F4FF0CF86ED93E09C
:100DF0000E94CD1387E791E00E94F608C0E0809141
:100E0000A503C81768F48C2F0E945705EC2FF0E05B
:100E1000EE0FFF1FEB56FC4F91838083CF5FEFCF28
:100E200060E083E10E940916809182038823D1F05B
:100E3000F894209182038091A1039091A203A09144
:100E4000A303B091A403820F911DA11DB11D809336
:100E5000A1039093A203A093A303B093A4031092C1
:100E60008203789480918503882309F490C060916F
:100E70008B0370918C034AE050E08FEC95E00E9468
:100E8000C51863EF72E08FEC95E00E94F317609154
:100E90008D0370918E034AE050E08FEC95E00E9444
:100EA000C51863EF72E08FEC95E00E94F317609134
:100EB0008F03709190034AE050E08FEC95E00E9420
:100EC000C51863EF72E08FEC95E00E94F317609114
:100ED0009103709192034AE050E08FEC95E00E94FC
:100EE000C51863EF72E08FEC95E00E94F3176091F4
:100EF0009303709194034AE050E08FEC95E00E94D8
:100F0000C51863EF72E08FEC95E00E94F3174091F3
:100F1000A1035091A2036091A3037091A4032AE05E
:100F200030E08FEC95E00E94E51863EF72E08FEC03
:100F300095E00E94F3178091840381110DC064EF46
:100F400072E08FEC95E00E94101862E370E080E0A0
:100F500090E00E943A151BC0C0E08091A503C8171D
:100F600070F7EC2FF0E0EE0FFF1FEB56FC4F6081A7
:100F700071814AE050E08FEC95E00E94C51863EF64
:100F800072E08FEC95E00E94F317CF5FE6CF80917F
:100F90008603882371F061E086E00E94091668EC00
:100FA00070E080E090E00E943A1560E086E00E94E8
:100FB00009160E946A010E940B15A7019601261BC3
:100FC000370B480B590BCA01B9016455794D8F4F46
:100FD0009F4F20918603222351F0DF91CF911F91E3
:100FE0000F91FF90EF90DF90CF900C943A15CB01CA
:100FF000845F9140DF91CF911F910F91FF90EF900F
:10100000DF90CF900C94F60865E089EE93E00E94A3
:101010009A1069EE73E086ED93E00C946211CF9222
:10102000DF92EF92FF921F93CF93DF93C82F162F7B
:10103000D42FF901AFEFA60FA33028F4B0E0A45AE3
:10104000BC4FAC9101C0A0E0B0E020E836E948E92F
:1010500050E00E94391E6B017C01212F30E0A4EC8E
:10106000B9E00E94231EDF019B01AC010E94391EE2
:10107000C60ED71EE81EF91EC701B6010E949109CF
:10108000D093BD058C2F8F718093BC0564E170E017
:1010900080E090E00E943A158091BC05882341F0E1
:1010A00043E050E060E07BE080E00E94861603C0F1
:1010B00080E00E94A6160E94D109C09368058C2F7B
:1010C000DF91CF911F91FF90EF90DF90CF90089527
:1010D00089E695E00E942A0A9093B2058093B105B3
:1010E0002091B1053091B20581E02F3F3F4F09F4C7
:1010F00080E00895EF92FF921F93CF93DF931F92AA
:10110000CDB7DEB7182F7B0149830E94AE09498114
:10111000811105C049830E9468084981F5CFB70154
:10112000812F0F90DF91CF911F91FF90EF900C9442
:101130008C0ACF93C82F0E94BF098823B9F0CC2313
:10114000D1F383B7817FC33021F0C23021F49CE01A
:1011500003C094E001C090E0892B83BF83B7816016
:1011600083BF889583B78E7F83BFE5CFCF910895E6
:1011700091E0811190E0892F0C94C60983FF02C091
:1011800098E2892787FD06C0806490916000909363
:10119000B30502C08091B30594B7977F94BFF894CC
:1011A00090916000986190936000809360007894C3
:1011B0000895EAE7F0E0908180818F77808383B79C
:1011C000817F846083BFF89483B7816083BF85B7D4
:1011D000806685BF85B78F79806485BF7894889550
:1011E00083B78E7F83BF90937A000895DF92EF924A
:1011F000FF920F931F93CF93DF938C01EC0128E0B4
:10120000E22EF12CC031D10538F19E01D12C2032D3
:10121000310538F0D39489E0D81619F03695279522
:10122000F6CF1092B4058D2D0E94BE080E94D908F9
:101230008FEF0E94BE08C70102C0880F991FDA9481
:10124000E2F7C81BD90B2091B405222319F0C81B63
:10125000D90BD8CF80E001C081E04091C305509107
:10126000C4056091C5057091C6050C1B1D0B400F90
:10127000511F611D711D4093C3055093C4056093B8
:10128000C5057093C605DF91CF911F910F91FF9017
:10129000EF90DF9008958091B4058F5F8093B4053F
:1012A00008958627682F62956827062E66956695AD
:1012B0006025062E669560256770082E892F669535
:1012C00007946795902D8627069467959025862725
:1012D0000895E8982A988EBD0DB407FEFDCF8EB50F
:1012E0006EBD0DB407FEFDCF8EB52A9AE89A08951B
:1012F00060E00C94690988E20E947809807521F009
:1013000080E00E947809F7CF0895CF93C82F81E03D
:101310000E947809682F637E6C2B81E8CF910C9432
:10132000690922E0660F771F881F991F2A95D1F758
:1013300029E03DE340E050E00E94DA1D66E0220F24
:10134000331F441F551F6A95D1F72093BE05309374
:10135000BF054093C0055093C10508958091B7051E
:10136000853021F48091B805882311F080E008953C
:1013700084E08093B7050E94850981E008959091EB
:10138000B70581E094300CF080E00895882311F0D7
:1013900080E001C084E00E94850984E08093B70565
:1013A0000895CF93DF932A9A229A2A9A84B18C6265
:1013B00084B980E58CBD8DB581608DBD6AEA8FEA08
:1013C0000E9469098FE20E9478098A3AB9F765E5B7
:1013D0008FEA0E9469098FE20E9478098535B9F782
:1013E000C8E6D0E0FE018491882339F031966491FB
:1013F00080680E9469092296F5CF6091BD0580EB57
:101400000E9469098091BE059091BF05A091C00519
:10141000B091C105BD018827992787E80E94690915
:101420008091BE059091BF05A091C005B091C10506
:10143000692F7A2F8B2F992788E80E94690960917C
:10144000BE0589E80E94690984E08093B705DF91B1
:10145000CF910895CF93DF93EC018091B70584304D
:1014600019F0853021F14DC010926B051092B8052E
:101470006091BD058FEF9FEF0E9451099093BB05CE
:101480008093BA05D093B605C093B50585E08093E7
:10149000B7050E947B0960E885EA0E94690980E13E
:1014A0000E94850962E08EE90E9469092AC0809144
:1014B0006B052091B80590E0049630E08217930701
:1014C00024F08091B8058834E0F084E08093B7057B
:1014D0000E94850980916B058334B0F48091BA0530
:1014E0009091BB05892B81F480916A0586FF0FC01E
:1014F0009091BC059F3159F080916A058F718917D1
:1015000031F08FEF9FEF05C081E090E002C080E0F6
:1015100090E0DF91CF910895CF9340936B05FB014D
:1015200020E030E050E02417350744F4D901A459F5
:10153000BA4F91919C932F5F3F4FF5CF86FD04C02A
:10154000807E9091BC05890F80936A056091BD05EE
:101550008FEF9FEF0E9451099093BB058093BA05CE
:1015600090916B058EEF891B8093B7050E947B09D4
:101570008CE00E94850960E085EA0E9469098091FB
:10158000B7058330DCF588E20E94780987FDF7CF44
:101590008091B70587FF1BC090916B058091B705BF
:1015A000E091B505F091B605E90FF11DE80FF11DC9
:1015B00087FDFA95C3816C2F8091BA059091BB0588
:1015C0000E9451099093BB058093BA050DC080918C
:1015D000B705882329F0813031F4C091BB0504C0E0
:1015E000C091BA0501C0CAEA6C2F80E80E9469095F
:1015F0008091B7058F5F8093B705C1CFCF910895D4
:101600008091B705853009F04DC060E485EA0E94FD
:10161000690984E20E9478098093B905789488E288
:101620000E9478098075D9F38091B80581110FC0A7
:10163000E091B505F091B6058091B80591E0980F5D
:101640009093B8059091BD05E80FF11D908380E05F
:101650000E947809E091B505F091B6059091B80522
:1016600021E0290F2093B805E90FF11D8083682F31
:101670008091BA059091BB050E9451099093BB05DA
:101680008093BA0580916B052091B80590E004968F
:1016900030E082179307A4F08091B805883408F4ED
:1016A000BECF089588E20E94780983FF09C084E0D4
:1016B0008093B7050E94850960E885EA0C94690962
:1016C0000895EF92FF920F931F93FC01758B648B2B
:1016D000208F318F428F538FE0A2F1A202A313A378
:1016E00040E050E060E074E444AB55AB66AB77ABF0
:1016F0001F910F91FF90EF900895FC01778B668BFF
:10170000248F358F468F578F40E050E060E074E4BF
:1017100040AF51AF62AF73AF08958EE480937C0009
:1017200062E070E080E090E00E943A1580917A00DB
:10173000806480937A0080917A0086FDFCCF80914E
:1017400078002091790030E0322F2227442737FD9E
:101750004095542F282B60E070E381E190E00E94D7
:10176000FC1DCA01B90108952F923F924F925F92DA
:101770006F927F928F929F92AF92BF92CF92DF92A1
:10178000EF92FF920F931F93CF93DF93CDB7DEB706
:10179000A8970FB6F894DEBF0FBECDBF98A78FA352
:1017A0007E8F6D8F8A010E948D0B6D8B7E8B8F8B50
:1017B000988F0E940B154B015C016FA078A428E55F
:1017C000620E711CC801A0E0B0E0898B9A8BAB8BD4
:1017D000BC8BAFA1B8A554968C910E946816F301FA
:1017E00091838083BC01882777FD8095982F0E9484
:1017F000681C6B017C012DEC3CEC4CE054E40E9435
:10180000C91B87FF0BC011E026E636E646EE53E41F
:10181000C701B6010E94181D18160CF010E00E94B6
:101820000B15681979098A099B0929893A894B8915
:101830005C89261737074807590708F040C00E94FF
:101840000B15698F7A8F8B8F9C8F00E010E01A82C6
:1018500019824FA158A5405C5F4F58A34F8F8FA1AD
:1018600098A58C5B9F4F9C878B87AFA1B8A5A85B81
:10187000BF4FBAA3A9A3EFA1F8A5E45BFF4FFE8772
:10188000ED872FA138A5205B3F4F3CA32BA34FA191
:1018900058A54C5A5F4F588B4F878FA198A5865AF1
:1018A0009F4F9E838D832FA038A49BE5290E311C6A
:1018B000AFA1B8A5A85ABF4FBEA3ADA344C1112381
:1018C00009F487CFBCCF0E940B15298D3A8D4B8D23
:1018D0005C8D621B730B840B950B29893A894B89AC
:1018E0005C89621773078407950708F034C10F5F9E
:1018F0001F4FEFA1F8A584A595A5A6A5B7A580A71C
:1019000091A7A2A7B3A784890E946816AFA1B8A522
:1019100095969C938E93949756968C910E946816F8
:101920003C01EFA1F8A597A386A324A135A13A878E
:101930002987B901882777FD8095982F0E94681C18
:101940006B017C01AFA1B8A5D4968D909D90AD9010
:10195000BC90D797A50194010E94641B20E030E061
:1019600040E85AE30E941C1D9B01AC01C501B40173
:101970000E94651B9B01AC01EFA1F8A564AB75ABA0
:1019800086AB97ABC701B6010E94641B4B015C019B
:10199000AFA1B8A59C966D937D938D939C939F97D3
:1019A000B301882777FD8095982F0E94681C6B01F2
:1019B0007C01EFA1F8A540AC51AC62AC73ACA301C3
:1019C00092010E94641B20E030E040E85AE30E944C
:1019D0001C1D9B01AC01C301B2010E94651B9B0150
:1019E000AC01AFA1B8A5D8966D937D938D939C93D0
:1019F000DB97C701B6010E94641B6B017C01EFA15C
:101A0000F8A560AB71AB82AB93ABA5019401C501A6
:101A1000B4010E941C1D9B01AC01AF8DB8A16D9358
:101A20007D938D939C931397EB85FC8560817181E9
:101A3000828193810E94651BAB85BC856D937D93EC
:101A40008D939C931397A7019601C701B6010E943D
:101A50001C1D9B01AC01E9A1FAA160837183828303
:101A60009383AD85BE856D917D918D919C910E94F2
:101A7000651BED85FE856083718382839383AFA1AF
:101A8000B8A598964D905D906D907C909B97A30122
:101A90009201C501B4010E94641BEFA1F8A520A129
:101AA00031A142A153A10E941C1D9B01AC01C301A5
:101AB000B2010E94651BAFA1B8A5DC966D937D9322
:101AC0008D939C93DF97A70196010E941C1D9B019B
:101AD000AC01EBA1FCA16083718382839383AF850A
:101AE000B8896D917D918D919C910E94651BEF85C8
:101AF000F8896083718382839383D1018C91ED8116
:101B0000FE818083ADA1BEA18D919C91E985FA856E
:101B10008E179F070CF0F6C021E0F1012083013001
:101B2000110529F4F1018081AD81BE818C93ED8195
:101B3000FE819081D1018C91981729F0E981FA8179
:101B40003196FA83E98329813A814D8D5E8D241780
:101B5000350708F4B8CEAD89BE89BD01882777FD69
:101B60008095982F0E94681C20E030E04AE754E4FA
:101B70000E94CD1B20E030E040E85AE30E941C1D8B
:101B80002B013C01EFA1F8A5208D318D428D538DA5
:101B90000E941C1D4B015C01B80180E090E00E9496
:101BA000661C6B017C012FA038A4F4E42F0E311CBD
:101BB0009B01AC01D1016D917D918D919C910E9411
:101BC000CD1B0E94831D9B01AC01C501B4010E9485
:101BD0001C1D69837A838B839C83EFA1F8A564879E
:101BE000758786879787248D358D468D578DC301E0
:101BF000B2010E941C1D2B013C010FA118A5045B22
:101C00001F4FA7019601D8016D917D918D919C91F7
:101C10000E94CD1B0E94831D9B01AC01C301B20138
:101C20000E941C1D6D837E838F839887EFA1F8A58A
:101C3000608B718B828B938BA3019201C501B401E0
:101C40000E941C1DAFA0B8A4F4E5AF0EB11CD501D5
:101C50002D913D914D915C910E941C1DA701960113
:101C60000E94CD1B6B017C01EFA1F8A560837183FD
:101C7000828393832D813E814F81588569817A814A
:101C80008B819C810E941C1D9B01AC01AFA1B8A55A
:101C900014966D937D938D939C931797C701B6010E
:101CA0000E94CD1BEFA1F8A560877187828793877B
:101CB000D1011D921D921D921C921397F801108262
:101CC000118212821382D5011D921D921D921C92C7
:101CD0001397A8960FB6F894DEBF0FBECDBFDF9165
:101CE000CF911F910F91FF90EF90DF90CF90BF9019
:101CF000AF909F908F907F906F905F904F903F90AC
:101D00002F900895D1011C920ACF2F923F924F92AB
:101D10005F926F927F928F929F92AF92BF92CF927B
:101D2000DF92EF92FF920F931F93CF93DF9300D038
:101D300000D000D0CDB7DEB79E838D837A836983D0
:101D40000E948D0B2B013C0100E010E08D819E81F3
:101D5000845B9F4F1C01ED81FE81E85BFF4FFC839C
:101D6000EB8389819A810817190709F455C0ED8121
:101D7000FE8186890E946816ED81FE8197A386A365
:101D8000BC01882777FD8095982F0E94681C6B0105
:101D90007C01ED81FE8180AC91ACA2ACB3ACA5011D
:101DA00094010E94641B20E030E040E85AE30E9466
:101DB0001C1D9B01AC01C501B4010E94651B9B0168
:101DC000AC01ED81FE8160AF71AF82AF93AFC7010F
:101DD000B6010E94641BED81FE8160AB71AB82ABEA
:101DE00093AB9B01AC010E941C1D9B01AC01EB81DC
:101DF000FC816083718382839383F10160817181AF
:101E0000828193810E94651BF101608371838283CB
:101E100093830F5F1F4FA5CFB80180E090E00E9431
:101E2000661C9B01AC01F10160817181828193810B
:101E30000E94CD1B0E94831D6B017C01B20188278B
:101E400077FD8095982F0E94681C20E030E04AE7DB
:101E500054E40E94CD1B20E030E040E85AE30E94A9
:101E60001C1DED81FE81248D358D468D578D0E9480
:101E70001C1DA70196010E941C1DED81FE81608B37
:101E8000718B828B938BF1011082118212821382EB
:101E900026960FB6F894DEBF0FBECDBFDF91CF916F
:101EA0001F910F91FF90EF90DF90CF90BF90AF9078
:101EB0009F908F907F906F905F904F903F902F906A
:101EC0000895FF920F931F93CF93DF93FC0100813E
:101ED000C181D281F8948981F02EF0948F21898379
:101EE00078941DE7115029F182E090E00E9462157C
:101EF00088818023B9F3F8948A818F218A8389812C
:101F0000802B8983789480EE91E00E946215F8948A
:101F100089818F21898386E490E00E9462158881FF
:101F2000802311E009F010E078948AE991E00E94A2
:101F30006215812FDF91CF911F910F91FF9008952E
:101F40001F93CF93DF93FC011081C181D281912F28
:101F5000909560FF12C0F8948A8189238A838981D1
:101F6000812B89838AE090E00E9462158A81812B0F
:101F70008A83789487E390E011C0F8948A8189235A
:101F80008A838981812B898381E490E00E94621594
:101F90008A81812B8A83789485E090E0DF91CF91CC
:101FA0001F910C9462150F931F93CF93DF93FC0145
:101FB0001081C181D281F8948981812B89838A81A2
:101FC000012F009580238A8383E090E00E946215B0
:101FD0008981802389838AE090E00E946215C8810C
:101FE000789485E390E00E9462151C2381E009F457
:101FF00080E0DF91CF911F910F910895CF92DF92F2
:10200000EF92FF920F931F93CF93DF931F92CDB761
:10201000DEB76C01E62E08E010E0FF24F39461E0E7
:102020009F2D9E2109F460E0C60149830E94A00F04
:10203000FF0C0150110949810115110581F741116A
:1020400015C0F894D6011196ED91FC9112979181EB
:102050008C918095892381831196ED91FC91129743
:1020600092818C9180958923828378940F90DF915F
:10207000CF911F910F91FF90EF90DF90CF90089537
:10208000EF92FF920F931F93CF93DF938C01C8E0E1
:10209000D0E0F12CEE24E394C8010E94D30F81110B
:1020A000FE28EE0C2197C1F78F2DDF91CF911F9164
:1020B0000F91FF90EF900895CF92DF92FF920F93D0
:1020C0001F93CF93DF931F92CDB7DEB78C01F62E0F
:1020D00040E065E579830E94FE0FCF2C7981D72EF1
:1020E00088E0F82EF60161916F0140E0C8010E947E
:1020F000FE0FFA94B9F70F90DF91CF911F910F91D6
:10210000FF90DF90CF90089540E06CEC0C94FE0FB0
:10211000FC0113861586148627E030E0DF01A20F4C
:10212000B31F13961C922115310519F02150310966
:10213000F5CF08951F93CF93DF93EC01162F60E046
:10214000812F0E94D015612F70E0FB01E156FE4FF8
:10215000E491E883FB01ED54FE4FE491F0E0EE0FD3
:10216000FF1FE953FE4F859194919A838983CE0195
:10217000DF91CF911F910C948810AF92BF92CF92B4
:10218000DF92EF92FF920F931F93CF93DF931F92F3
:10219000CDB7DEB75C01E62ED72EFC018585811117
:1021A0005DC0C5010E94610F811105C0F501138654
:1021B000158614866EC040E060EFC5010E94FE0FD8
:1021C00001E0F12CC12C11E0C5010E94D30F682F52
:1021D000C50169830E94D30F6981613019F4813090
:1021E000B9F433C02F2D30E068131BC0F50183858F
:1021F000181730F4E20FF31F8381802349F402C0E3
:10220000181731F060E0193058F4F501148708C050
:10221000F501EF0DF11D8381802B838361E009C0FF
:10222000C12EF501E20FF31F8381902F9095892332
:102230008383C5010E94A00F1F5F000F11F4F39468
:1022400001E0F7E0FF1508F0BFCF113438F0F501D9
:10225000C386C11018C081E0858715C0F5011386BB
:102260001586148680E0EE2DFD2D20E030E0D501AE
:10227000A20FB31F13969C9191932F5F3F4F28306D
:102280003105A9F706C0F5018381882339F381E080
:10229000EACF0F90DF91CF911F910F91FF90EF90B8
:1022A000DF90CF90BF90AF900895DC0180E0615047
:1022B00038F0ED91E827F0E0E557FF4F8491F7CF34
:1022C00008950895FC0181E691E1928B818B7683DC
:1022D00065831482108289E0818381E08283838315
:1022E0000895FC0184810895CF93DF93EB0167E0AB
:1022F000CE010E94551191E02F81821390E0892F29
:10230000DF91CF910895EF92FF920F931F93CF9398
:10231000DF9300D0CDB7DEB77C018A01FC01858157
:10232000968169837A830E94610F69817A81F701BE
:10233000858196810E945C1040E06EEBF7018581FB
:1023400096810E94FE0FF701858196810E944010C0
:10235000F8018083F701858196810E944010F80181
:102360008183F701858196810E944010F801828364
:10237000F701858196810E944010F8018383F7015F
:10238000858196810E944010F8018483F701858140
:1023900096810E944010F8018583F701858196811E
:1023A0000E944010F8018683F701858196810E9482
:1023B0004010F8018783F701858196810E944010C3
:1023C000F8018087F701858196810F900F90DF914A
:1023D000CF911F910F91FF90EF900C94610FCF93CD
:1023E000DF93EA010E94831168E0CE010E9455113B
:1023F00091E02885821390E0892FDF91CF91089595
:10240000EF92FF920F931F93CF93DF93EC017B0129
:102410008A018D819E810E94610FB7018D819E810D
:102420000E945C1040E06EE48D819E810E94FE0F50
:1024300040E0F80162818D819E810E94FE0F40E0A4
:10244000F80163818D819E810E94FE0FF7018081DA
:10245000803139F040E0F80164818D819E810E94D5
:10246000FE0F8D819E810E94610F488168E48D81FD
:102470009E810E94FE0F8881882331F06AE070E01F
:1024800080E090E00E943A158D819E81DF91CF918E
:102490001F910F91FF90EF900C94610FEF92FF92BC
:1024A0001F93CF93DF9300D0CDB7DEB77C01FC0143
:1024B0008581968169837A830E94610F69817A811F
:1024C000F701858196810E945C1040E064EBF70182
:1024D000858196810E94FE0FF701858196810E9479
:1024E000D30F182FF701858196810E94610F81E03B
:1024F000111180E00F900F90DF91CF911F91FF900D
:10250000EF900895EF92FF920F931F93CF93DF9375
:10251000CDB7DEB72A970FB6F894DEBF0FBECDBF9A
:102520007C018B01242FAE014F5F5F4F2A870E94F1
:10253000EF112A858823D1F0F80180818031C1F024
:102540002B3041F02C3021F02A3031F48FE305C0DC
:102550008FE703C08FE501C08FE18D83AE014F5F30
:102560005F4FB801C7010E94001202C080E001C0A5
:1025700081E02A960FB6F894DEBF0FBECDBFDF9183
:10258000CF911F910F91FF90EF900895CF93DF931C
:10259000CDB7DEB729970FB6F894DEBF0FBECDBF1B
:1025A000FB0120812031D1F0AE014F5F5F4F0E94CF
:1025B000EF11882379F08D818F3351F018F48F312A
:1025C00069F008C08F3541F08F3721F48CE007C0E7
:1025D0008AE005C080E003C08BE001C089E0299655
:1025E0000FB6F894DEBF0FBECDBFDF91CF91089537
:1025F000EF92FF920F931F93CF93DF93CDB7DEB788
:1026000061970FB6F894DEBF0FBECDBF8C01FC0101
:10261000858196810E948810F8011482FF24F3942A
:10262000BE01665F7F4FF801858196810E94BD10D3
:102630008823C9F1BE01665F7F4FC8010E947411F3
:10264000882371F3F8018081811108C0BE01665FA3
:102650007F4FC8010E944E12811122C0AE014F5F10
:102660005F4FBE01665F7F4FC8010E948311F80172
:10267000E180BE01665F7F4FC8010E94C6128E15C1
:1026800018F4F801818106C0BE01665F7F4FC80162
:102690000E94C612F801818384818F5F8483C0CF3A
:1026A000F801F082DBCF61960FB6F894DEBF0FBE63
:1026B000CDBFDF91CF911F910F91FF90EF900895C3
:1026C000FC0162830895CF93DF93CDB7DEB72997DE
:1026D0000FB6F894DEBF0FBECDBFAE014F5F5F4FA8
:1026E0000E94831181E09981911101C080E02996B7
:1026F0000FB6F894DEBF0FBECDBFDF91CF91089526
:10270000CF92DF92EF92FF920F931F93CF93DF93BD
:10271000EC018B01452BE1F08B818823C9F0888186
:10272000811116C00E940B156B017C0160E070E006
:10273000CE010E94631381110BC00E940B156C190E
:102740007D098E099F096E3E72408105910570F3E7
:10275000F80180818A3049F08B3061F0893079F45A
:102760006EE570E080E090E00EC06CEB70E080E021
:1027700090E009C067E771E080E090E004C06EEE91
:1027800072E080E090E0DF91CF911F910F91FF9078
:10279000EF90DF90CF900C943A15CF93DF93EC013C
:1027A0008D819E810E94610F8D819E810E94841087
:1027B000488164E48D819E810E94FE0F8A81882376
:1027C00051F0BE016F5F7F4F40E050E0CE01DF91DE
:1027D000CF910C948013DF91CF9108958F929F92A7
:1027E000AF92BF92CF92DF92EF92FF921F93CF935F
:1027F000DF93FB01EA01698170E0762F662788810B
:10280000682B80818232B1F18832A1F1803109F0E8
:1028100078C01F8175956795882777FD8095982FDB
:102820000E94681C20E030E040E85EE30E94641BE8
:102830006B017C01612F70E08E81681B7109882714
:1028400077FD8095982F0E94681C4B015C01612FD9
:1028500070E080E090E00E94661C9B01AC01C50125
:10286000B4010E94CD1B9B01AC01C701B6010E94BF
:10287000651B43C08C818F3381F198F48F3109F04F
:1028800040C093E0759567959A95E1F7882777FDA5
:102890008095982F0E94681C20E030E040E05FE3C4
:1028A0002AC08F3569F08F3761F5882777FD8095CD
:1028B000982F0E94681C20E030E040E85DE31BC0D8
:1028C00075956795882777FD8095982F0E94681CDD
:1028D00020E030E040E05EE30EC0759567957595A9
:1028E0006795882777FD8095982F0E94681C20E0C7
:1028F00030E040E85EE30E941C1D562F472F382F22
:10290000292F652F742F832F922FDF91CF911F9145
:10291000FF90EF90DF90CF90BF90AF909F908F90FF
:102920000895EF92FF920F931F93CF93DF93CDB74C
:10293000DEB729970FB6F894DEBF0FBECDBF8C016E
:102940007B01AE014F5F5F4F0E94EF11882341F082
:10295000AE014F5F5F4FB701C8010E94EE1304C084
:1029600060E070E08EEF92EC29960FB6F894DEBF2F
:102970000FBECDBFDF91CF911F910F91FF90EF90D0
:1029800008951F920F920FB60F9211242F933F9329
:102990008F939F93AF93BF938091C3059091C4058C
:1029A000A091C505B091C6053091C20523E0230F63
:1029B0002D3720F40196A11DB11D05C026E8230F77
:1029C0000296A11DB11D2093C2058093C30590936B
:1029D000C405A093C505B093C6058091C705909125
:1029E000C805A091C905B091CA050196A11DB11DE8
:1029F0008093C7059093C805A093C905B093CA05F5
:102A0000BF91AF919F918F913F912F910F900FBEEA
:102A10000F901F9018952FB7F8946091C30570918F
:102A2000C4058091C5059091C6052FBF08953FB795
:102A3000F8948091C7059091C805A091C905B091FF
:102A4000CA0526B5A89B05C02F3F19F00196A11D08
:102A5000B11D3FBF6627782F892F9A2F620F711DF6
:102A6000811D911D42E0660F771F881F991F4A95AF
:102A7000D1F70895CF92DF92EF92FF92CF93DF9339
:102A80006B017C010E941715EB01C114D104E10414
:102A9000F10489F00E9485160E9417156C1B7D0BAE
:102AA000683E734090F381E0C81AD108E108F1084C
:102AB000C851DC4FEACFDF91CF91FF90EF90DF90CC
:102AC000CF900895019739F0880F991F880F991FAB
:102AD00002970197F1F70895789484B5826084BDD8
:102AE00084B5816084BD85B5826085BD85B5816012
:102AF00085BDEEE6F0E0808181608083E1E8F0E072
:102B00001082808182608083808181608083E0E8A0
:102B1000F0E0808181608083E1EBF0E0808184607F
:102B20008083E0EBF0E0808181608083EAE7F0E081
:102B300080818460808380818260808380818160E5
:102B400080838081806880831092C10008958330E3
:102B500081F028F4813099F08230A1F00895873017
:102B6000A9F08830B9F08430D1F4809180008F7D55
:102B700003C0809180008F7780938000089584B592
:102B80008F7702C084B58F7D84BD08958091B00099
:102B90008F7703C08091B0008F7D8093B00008953F
:102BA000CF93DF9390E0FC01E156FE4F2491FC01AE
:102BB000ED54FE4F8491882349F190E0880F991FCE
:102BC000FC01E552FE4FA591B4918F529E4FFC013E
:102BD000C591D4919FB7611108C0F8948C9120954C
:102BE00082238C93888182230AC0623051F4F89446
:102BF0008C91322F309583238C938881822B88830C
:102C000004C0F8948C91822B8C939FBFDF91CF915D
:102C100008950F931F93CF93DF931F92CDB7DEB725
:102C2000282F30E0F901E557FE4F8491F901E15674
:102C3000FE4F1491F901ED54FE4F04910023C9F0A9
:102C4000882321F069830E94A7156981E02FF0E0B5
:102C5000EE0FFF1FEF52FE4FA591B4919FB7F8946E
:102C60008C91611103C01095812301C0812B8C933D
:102C70009FBF0F90DF91CF911F910F910895CF9338
:102C8000DF93282F30E0F901E557FE4F8491F901D9
:102C9000E156FE4FD491F901ED54FE4FC491CC237F
:102CA00091F081110E94A715EC2FF0E0EE0FFF1FAD
:102CB000E953FE4FA591B4912C912D2381E090E032
:102CC00021F480E002C080E090E0DF91CF91089590
:102CD0008E3008F08E50877020910B0190E4299F70
:102CE00090011124822B80937C0080917A00806473
:102CF00080937A0080917A0086FDFCCF80917800E5
:102D00002091790090E0922B089508958230E8F4A4
:102D1000E82FF0E0EE0FFF1FE553FA4F7183608359
:102D2000813041F0809169008C7F842B8093690011
:102D3000E89A089580916900440F551F440F551F6C
:102D4000837F842B80936900E99A0895823068F428
:102D5000813011F0E89801C0E998E82FF0E0EE0F1B
:102D6000FF1FE553FA4F1182108208951F920F92B0
:102D70000FB60F9211242F933F934F935F936F934E
:102D80007F938F939F93AF93BF93EF93FF93809124
:102D9000CB059091CC05892B29F0E091CB05F091E2
:102DA000CC050995FF91EF91BF91AF919F918F91C4
:102DB0007F916F915F914F913F912F910F900FBE37
:102DC0000F901F9018951F920F920FB60F9211241B
:102DD0002F933F934F935F936F937F938F939F9323
:102DE000AF93BF93EF93FF938091CD059091CE0564
:102DF000892B29F0E091CD05F091CE050995FF9141
:102E0000EF91BF91AF919F918F917F916F915F9162
:102E10004F913F912F910F900FBE0F901F901895DB
:102E20001F920F920FB60F9211242F938F939F939F
:102E3000EF93FF93E091DF05F091E0058081E09151
:102E4000E505F091E60582FD12C090818091E805CC
:102E50008F5F8F732091E905821751F0E091E805AB
:102E6000F0E0E153FA4F958F8093E80501C080812F
:102E7000FF91EF919F918F912F910F900FBE0F9027
:102E80001F9018951F920F920FB60F9211242F9337
:102E90003F934F935F936F937F938F939F93AF93E2
:102EA000BF93EF93FF938FEC95E00E945A1AFF9126
:102EB000EF91BF91AF919F918F917F916F915F91B2
:102EC0004F913F912F910F900FBE0F901F9018952B
:102ED0008FEC95E00E941F1A21E0892B09F420E075
:102EE000822F08951092D2051092D10588EE93E0BA
:102EF000A0E0B0E08093D3059093D405A093D505CE
:102F0000B093D60581E793E09093D0058093CF05E9
:102F100085EC90E09093DC058093DB0584EC90E0F9
:102F20009093DE058093DD0580EC90E09093E005C2
:102F30008093DF0581EC90E09093E2058093E105BA
:102F400082EC90E09093E4058093E30586EC90E0BA
:102F50009093E6058093E5051092E8051092E90547
:102F60001092EA051092EB050895CF92DF92EF924E
:102F7000FF920F931F93CF93DF936C017A01EB01C4
:102F8000E60EF71E00E010E0CE15DF0561F0699156
:102F9000D601ED91FC910190F081E02DC6010995DB
:102FA000080F191FF1CFC801DF91CF911F910F9129
:102FB000FF90EF90DF90CF9008956115710581F03B
:102FC000DB010D900020E9F7AD0141505109461B8E
:102FD000570BDC01ED91FC910280F381E02D099407
:102FE00080E090E008950C94DD17DC01ED91FC91F8
:102FF0000190F081E02D09940F931F93CF93DF93FD
:10300000EC016DE00E94F5178C016AE0CE010E9490
:10301000F517800F911FDF91CF911F910F910895A8
:103020000F931F93CF93DF93EC010E94DD178C0168
:10303000CE010E94FC17800F911FDF91CF911F914D
:103040000F9108958F929F92AF92BF92CF92DF928D
:10305000EF92FF920F931F93CF93DF93CDB7DEB71D
:10306000A1970FB6F894DEBF0FBECDBF7C01C42E72
:10307000E52FCB01D22E19A221E02D1510F02AE068
:10308000D22E8E010F5D1F4F8D2C912CA12CB12CB7
:103090006C2D7E2FA50194010E94DA1D8C2DD29EED
:1030A00080191124015011098A3014F4805D01C087
:1030B000895CF8018083211531054105510521F016
:1030C000C22EE32FCA01E4CFB801C7010E94DD1769
:1030D000A1960FB6F894DEBF0FBECDBFDF91CF91A2
:1030E0001F910F91FF90EF90DF90CF90BF90AF9026
:1030F0009F908F900895CF92DF92EF92FF920F935F
:103100001F93CF93DF93EC016A017B0121153105F9
:1031100079F4E881F9810190F081E02D642FDF914D
:10312000CF911F910F91FF90EF90DF90CF90099476
:103130002A303105E9F477FF1AC06DE20E94F517D5
:103140008C0144275527BA014C195D096E097F0986
:103150002AE0CE010E942218800F911FDF91CF91AB
:103160001F910F91FF90EF90DF90CF9008952AE08C
:10317000B701A601CE01DF91CF911F910F91FF9072
:10318000EF90DF90CF900C9422189A01AB01662744
:1031900057FD6095762F0C947B180F931F93CF9358
:1031A000DF93EC019A01AB01662757FD6095762FFE
:1031B0000E947B188C01CE010E94FC17800F911F8A
:1031C000DF91CF911F910F9108952115310541F4A1
:1031D000DC01ED91FC910190F081E02D642F0994C8
:1031E0000C9422189A01462F50E060E070E00C9495
:1031F000E5180F931F93CF93DF93EC019A01462FAD
:1032000050E060E070E00E94E5188C01CE010E9461
:10321000FC17800F911FDF91CF911F910F9108959F
:103220004F925F926F927F928F929F92AF92BF92D6
:10323000CF92DF92EF92FF920F931F93CF93DF9382
:10324000EC016A017B01B22E9A01AB01C701B60104
:103250000E94C11D882319F06FE573E027C0260185
:103260003701E89477F82FEF3FEF4FE75FE7C301AF
:10327000B2010E94C11D81110DC02FEF3FEF4FE73A
:103280005FE7C301B2010E94C91B18161CF463E674
:1032900073E00CC02FEF3FEF4FE75FE4C701B601CB
:1032A0000E94181D1816ACF467E673E0CE01DF919A
:1032B000CF911F910F91FF90EF90DF90CF90BF9033
:1032C000AF909F908F907F906F905F904F900C94F5
:1032D000DD172FEF3FEF4FE75FECC701B6010E940C
:1032E000C91B87FDE1CF20E030E0A901C701B6018D
:1032F0000E94C91B87FF0AC06DE2CE010E94F5172C
:103300008C01F7FAF094F7F8F09402C000E010E0B6
:10331000A12C60E070E080E09FE3AB1441F020E07E
:1033200030E040E251E40E94CD1BA394F6CF9B0114
:10333000AC01C701B6010E94651B6B017C010E94B4
:103340003A1C2B013C010E94661C9B01AC01C70189
:10335000B6010E94641B6B017C012AE0B301A2014B
:10336000CE010E942218080F191FBB2039F06BE60E
:1033700073E0CE010E94DD17080F191F7B2C772008
:1033800041F120E030E040E251E4C701B6010E9483
:103390001C1D6B017C010E94351C4B01AA2497FC6B
:1033A000A094BA2C2AE030E0B501A401CE010E941D
:1033B0007B18080F191FC501B4010E94681C9B01EE
:1033C000AC01C701B6010E94641B6B017C017A94B9
:1033D000D6CFC801DF91CF911F910F91FF90EF9051
:1033E000DF90CF90BF90AF909F908F907F906F9025
:1033F0005F904F9008950C9410190F931F93CF93E3
:10340000DF93EC010E9410198C01CE010E94FC1781
:10341000800F911FDF91CF911F910F910895089513
:103420000E946C150E940F1A0E94BA01CCE4DAE1E6
:103430000E948A052097E1F30E944C1AF9CFFC0103
:10344000818D228D90E0805C9F4F821B91098F734C
:1034500099270895FC01918D828D981731F0828D06
:10346000E80FF11D858D90E008958FEF9FEF08958F
:10347000FC01918D828D981761F0828DDF01A80F7C
:10348000B11D5D968C91928D9F5F9F73928F90E09E
:1034900008958FEF9FEF089588E697E1892B49F013
:1034A00080E090E0892B29F00E94681781110C942C
:1034B00000000895FC01848DDF01A80FB11DA35AFF
:1034C000BF4F2C91848D90E001968F739927848F44
:1034D000A689B7892C93A089B1898C9180648C933B
:1034E000938D848D981306C00288F389E02D808126
:1034F0008F7D80830895CF93DF93EC01888D88239F
:10350000C9F0EA89FB89808185FD05C0A889B98950
:103510008C9186FD0FC00FB607FCF5CF808185FF2B
:10352000F2CFA889B9898C9185FFEDCFCE010E9499
:103530005A1AE7CFDF91CF910895CF92DF92FF9291
:103540000F931F93CF93DF931F92CDB7DEB76C011C
:10355000DC015B969C915B975C968C915C979813D1
:1035600007C05096ED91FC915197808185FD32C046
:10357000F601038D10E00F5F1F4F0F731127F02E20
:10358000F601848DF81211C00FB607FCF9CFD601F1
:103590005096ED91FC915197808185FFF1CFC60146
:1035A00069830E945A1A6981EBCF838DE80FF11D60
:1035B000E35AFF4F6083D6015B960C935B9752965C
:1035C000ED91FC91539780818062808381E05896D1
:1035D0008C930DC0D6015696ED91FC915797608360
:1035E0005096ED91FC91519780818064808381E0B9
:1035F00090E00F90DF91CF911F910F91FF90DF909E
:10360000CF900895BF92CF92DF92EF92FF92CF9327
:10361000DF93EC016A017B01B22EE889F98982E02F
:103620008083411581EE580761057105A1F060E0C6
:1036300079E08DE390E0A70196010E94DA1D215008
:103640003109410951095695479537952795211517
:1036500080E1380798F0E889F989108260E874E819
:103660008EE190E0A70196010E94DA1D21503109F8
:10367000410951095695479537952795EC85FD8564
:103680003083EE85FF852083188EEC89FD89B0821A
:10369000EA89FB89808180618083EA89FB89808156
:1036A00088608083EA89FB89808180688083EA89D9
:1036B000FB8980818F7D8083DF91CF91FF90EF9098
:1036C000DF90CF90BF9008955058BB27AA270ED007
:1036D00075C166D130F06BD120F031F49F3F11F409
:1036E0001EF45BC10EF4E095E7FB51C1E92F77D1E1
:1036F00080F3BA17620773078407950718F071F40F
:103700009EF58FC10EF4E0950B2EBA2FA02D0B0164
:10371000B90190010C01CA01A0011124FF27591B16
:1037200099F0593F50F4503E68F11A16F040A22F1C
:10373000232F342F4427585FF3CF4695379527958D
:10374000A795F0405395C9F77EF41F16BA0B620B8C
:10375000730B840BBAF09150A1F0FF0FBB1F661FD3
:10376000771F881FC2F70EC0BA0F621F731F841F16
:1037700048F4879577956795B795F7959E3F08F03C
:10378000B3CF9395880F08F09927EE0F97958795FB
:103790000895D9D008F481E008950CD00FC107D165
:1037A00040F0FED030F021F45F3F19F0F0C051112D
:1037B00039C1F3C014D198F39923C9F35523B1F358
:1037C000951B550BBB27AA2762177307840738F090
:1037D0009F5F5F4F220F331F441FAA1FA9F333D0EF
:1037E0000E2E3AF0E0E830D091505040E695001CA3
:1037F000CAF729D0FE2F27D0660F771F881FBB1F5F
:10380000261737074807AB07B0E809F0BB0B802D38
:10381000BF01FF2793585F4F2AF09E3F510568F084
:10382000B6C000C15F3FECF3983EDCF38695779518
:103830006795B795F7959F5FC9F7880F911D969586
:10384000879597F90895E1E0660F771F881FBB1FE2
:10385000621773078407BA0720F0621B730B840B8F
:10386000BA0BEE1F88F7E095089504D06894B11163
:10387000D9C00895BCD088F09F5790F0B92F9927F0
:10388000B751A0F0D1F0660F771F881F991F1AF06B
:10389000BA95C9F712C0B13081F0C3D0B1E0089534
:1038A000C0C0672F782F8827B85F39F0B93FCCF3B5
:1038B000869577956795B395D9F73EF49095809561
:1038C000709561957F4F8F4F9F4F0895E89409C081
:1038D00097FB3EF490958095709561957F4F8F4F43
:1038E0009F4F9923A9F0F92F96E9BB279395F69559
:1038F000879577956795B795F111F8CFFAF4BB0FD7
:1039000011F460FF1BC06F5F7F4F8F4F9F4F16C03A
:10391000882311F096E911C0772321F09EE8872FC4
:10392000762F05C0662371F096E8862F70E060E080
:103930002AF09A95660F771F881FDAF7880F9695F9
:10394000879597F90895990F0008550FAA0BE0E89D
:10395000FEEF16161706E807F907C0F01216130651
:10396000E407F50798F0621B730B840B950B39F491
:103970000A2661F0232B242B252B21F408950A26F7
:1039800009F4A140A6958FEF811D811D089597F937
:103990009F6780E870E060E008959FEF80EC0895F5
:1039A00000240A941616170618060906089500241E
:1039B0000A9412161306140605060895092E039498
:1039C000000C11F4882352F0BB0F40F4BF2B11F40C
:1039D00060FF04C06F5F7F4F8F4F9F4F089557FD6B
:1039E0009058440F551F59F05F3F71F04795880F6D
:1039F00097FB991F61F09F3F79F087950895121604
:103A000013061406551FF2CF4695F1DF08C01616AF
:103A100017061806991FF1CF869571056105089460
:103A20000895E894BB2766277727CB0197F9089577
:103A30008ADF08F48FEF08950BD0C0CFB1DF28F0F4
:103A4000B6DF18F0952309F0A2CFA7CF1124EACF53
:103A5000C6DFA0F3959FD1F3950F50E0551F629FED
:103A6000F001729FBB27F00DB11D639FAA27F00DD7
:103A7000B11DAA1F649F6627B00DA11D661F829FFE
:103A80002227B00DA11D621F739FB00DA11D621FE3
:103A9000839FA00D611D221F749F3327A00D611D00
:103AA000231F849F600D211D822F762F6A2F1124E2
:103AB0009F5750408AF0E1F088234AF0EE0FFF1F35
:103AC000BB1F661F771F881F91505040A9F79E3F6C
:103AD000510570F05CCFA6CF5F3FECF3983EDCF36E
:103AE000869577956795B795F795E7959F5FC1F7A9
:103AF000FE2B880F911D9695879597F9089511F4DF
:103B00000EF44BCF42C073DFD0F39923D9F3CEF339
:103B10009F57550B87FF47D00024A0E640EA90014D
:103B200080585695979528F4805C660F771F881FFC
:103B300020F026173707480730F4621B730B840BFD
:103B4000202931294A2BA695179407942025312541
:103B50004A2758F7660F771F881F20F02617370768
:103B6000480730F4620B730B840B200D311D411D8F
:103B7000A09581F7B901842F9158880F9695879564
:103B80000895E1DE880B990B08959F3F31F0915025
:103B900020F4879577956795B795880F911D969531
:103BA000879597F9089591505040660F771F881FA9
:103BB000D2F70895A1E21A2EAA1BBB1BFD010DC06E
:103BC000AA1FBB1FEE1FFF1FA217B307E407F507CD
:103BD00020F0A21BB30BE40BF50B661F771F881FA9
:103BE000991F1A9469F760957095809590959B013F
:103BF000AC01BD01CF010895052E97FB1EF4009482
:103C00000E94131E57FD07D00E94DA1D07FC03D047
:103C10004EF40C94131E50954095309521953F4FCE
:103C20004F4F5F4F089590958095709561957F4FA8
:103C30008F4F9F4F08950E94231E332312F48A1B37
:103C40009B0B0C94341EA29FB001B39FC001A39F95
:103C5000700D811D1124911DB29F700D811D1124C5
:103C6000911D08950E94231EB7FF0895821B930B98
:103C700008950E94231EA59F900DB49F900DA49FB0
:103C8000800D911D11240895EE0FFF1F0590F491F2
:083C9000E02D0994F894FFCF28
:103C980000006C06800008297C864301656D6F6E04
:103CA80054782056332E34204469736372657465E2
:103CB8002053616D706C696E672056002052464D26
:103CC80036394357004F70656E456E657267794D9A
:103CD8006F6E69746F722E6F726700504F53542E57
:103CE8002E2E2E2E776169742031307300435420B4
:103CF800312043616C2000435420322043616C2002
:103D080000435420332043616C2000435420342066
:103D180043616C2000524D5320566F6C7461676587
:103D2800206F6E2041432D4143202069733A207E45
:103D38000041432D414320646574656374656420C4
:103D48002D205265616C20506F776572206D65611A
:103D58007375726520656E61626C6564006173736A
:103D6800756D696E67207077722066726F6D20417D
:103D7800432D414320286A756D70657220636C6F0E
:103D88007365642900555341206D6F646520616334
:103D980074697665005663616C3A200050686173F7
:103DA800652053686966743A200041432D414320D9
:103DB8004E4F54206465746563746564202D2041FA
:103DC80070706172656E7420507772206D656173D2
:103DD80075726520656E61626C6564004173737508
:103DE8006D696E672056524D533A200041737375C2
:103DF8006D696E6720706F7765722066726F6D20CF
:103E080062617474202F20355620555342202D208E
:103E1800706F776572207361766520656E61626C7C
:103E28006564004E4F2043542773206465746563AE
:103E38007465640043542031206465746563746557
:103E480064004354203220646574656374656400BB
:103E58004354203320646574656374656400435477
:103E68002034206465746563746564004465746512
:103E7800637465642054656D702053656E736F724A
:103E8800733A2020004E6F2074656D7065726174FE
:103E98007572652073656E736F72004E6F64653A54
:103EA800200020467265713A20003433334D687A19
:103EB80000204E6574776F726B3A200043543120AE
:103EC80043543220435433204354342056524D53E4
:103ED8002F424154542050554C5345002054656D91
:103EE800706572617475726520312D002B565A6E9B
:103EF800616E00696E66006F7666002E0000000035
:0E3F0800009D1AB5171F1A381A2A1A7B1A00C4
:00000001FF
