:100000000C94E3000C94AD140C94DA140C940B01D2
:100010000C940B010C940B010C9434010C940B0107
:100020000C940B010C940B010C940B010C940B0120
:100030000C940B010C940B010C940B010C940B0110
:100040000C94E5150C940B010C94CB160C94FD1636
:100050000C940B010C940B010C940B010C940B01F0
:100060000C940B010C940B01005EBCE2613FDD833C
:10007000C29C7E20A3FD1F419DC3217FFCA2401E88
:100080005F01E3BD3E6082DC237D9FC1421CFEA078
:10009000E1BF5D0380DE3C62BEE0025CDF81633D68
:1000A0007C22C09E1D43A1FF4618FAA427799BC558
:1000B00084DA3866E5BB5907DB856739BAE4065848
:1000C0001947A5FB7826C49A653BD987045AB8E638
:1000D000A7F91B45C6987A24F8A6441A99C7257B28
:1000E0003A6486D85B05E7B98CD2306EEDB3510F18
:1000F0004E10F2AC2F7193CD114FADF3702ECC9208
:10010000D38D6F31B2EC0E50AFF1134DCE90722CF7
:100110006D33D18F0C52B0EE326C8ED0530DEFB1E7
:10012000F0AE4C1291CF2D73CA947628ABF51749D7
:100130000856B4EA6937D58B5709EBB536688AD4C7
:1001400095CB2977F4AA4816E9B7550B88D6346AB7
:100150002B7597C94A14F6A8742AC896154BA9F7A7
:10016000B6E80A54D7896B35000000080002010088
:100170000003040700000000000000000102040862
:100180001020408001020408102001020408102001
:10019000040404040404040402020202020203032D
:1001A00003030303000000002300260029000000D1
:1001B0000000250028002B0000000000240027007C
:1001C0002A00AA072D1711241FBECFEFD8E0DEBFEB
:1001D000CDBF13E0A0E0B1E0ECE0FCE302C005908D
:1001E0000D92AA37B107D9F726E0AAE7B3E001C01C
:1001F0001D92A336B207E1F711E0C6ECD1E004C0CE
:100200002297FE010E94F71DC23CD107C9F70E9448
:10021000CB190C94041E0C9400000F931F930E94A2
:100220002F1600917A0310917B0320917C0330916B
:100230007D03601B710B820B930B6F36710581057B
:10024000910578F080917E038F5F80937E030E94FA
:100250002F1660937A0370937B0380937C039093B3
:100260007D031F910F9108951F920F920FB60F9269
:1002700011242F933F934F935F936F937F938F93AB
:100280009F93AF93BF93EF93FF930E943D08FF911D
:10029000EF91BF91AF919F918F917F916F915F91FE
:1002A0004F913F912F910F900FBE0F901F90189577
:1002B0008FEF0E94010B48E167E873E080E00E9445
:1002C000490A82E00E94680A80918203811102C07B
:1002D0000C94010B0895CF92DF92EF92FF920F934F
:1002E0001F93CF93DF93EB0100E010E0C12CD12CE2
:1002F00076010C171D077CF480E00E940715DC01D5
:10030000B2509D010E94D71DC60ED71EE81EF91ED1
:100310000F5F1F4FEECFC701B6010E94221C6B0179
:100320007C01BE01882777FD8095982F0E94241CB0
:100330009B01AC01C701B6010E94891BDF91CF91DF
:100340001F910F91FF90EF90DF90CF900C943F1D85
:10035000CF92DF92EF92FF920F931F93CF93DF9391
:1003600061E086E00E944D1561E083E10E944D1539
:1003700060E083E00E944D1510929E0310929D0351
:1003800061E086E00E94861526E040E855E260E0E4
:1003900070E086EC95E00E94BD1A6DE071E086EC9D
:1003A00095E00E94AE1722E030E047E656E666EEA2
:1003B0007FE386EC95E00E94B6196DE271E086EC71
:1003C00095E00E94CB1765E371E086EC95E00E9412
:1003D000CB176BE471E086EC95E00E94CB1762E0EE
:1003E00088E00E944D1562E089E00E944D1588E08A
:1003F0000E94BC15892B29F48091060181508093BD
:10040000060189E00E94BC15892B19F481E08093D4
:10041000F1038091F103882361F080E090E0A2E095
:10042000B3E48093070190930801A0930901B0936E
:100430000A016AE070E080E090E00E945E1620E42D
:1004400036E042ED62E0809106010E94840ACAE033
:10045000D0E0D0938803C093870348E167E873E056
:1004600080E00E94490A64E670E080E090E00E942B
:100470005E16219770F782E00E94680A1092880346
:100480001092870381E00E940715181619064CF494
:1004900081E08093860380917F038F5F80937F0349
:1004A00002C01092860382E00E94071518161906F2
:1004B0004CF481E08093850380917F038F5F80936C
:1004C0007F0302C01092850383E00E94071518166F
:1004D00019064CF481E08093840380917F038F5F41
:1004E00080937F0302C01092840384E00E9407156A
:1004F000181619064CF481E08093830380917F03E2
:100500008F5F80937F0302C01092830380917F03EB
:10051000811103C081E08093860380E197E20E940D
:10052000E80760E086E00E94861564EF76E080E0F0
:1005300090E00E946B0122E538EB4EE55FE30E94FC
:10054000D81C6B017C0120E030E044EB52E40E94B7
:10055000D41C181624F481E08093820302C0109208
:100560008203809182038823C9F0CAE0D0E061E071
:1005700086E00E94861568EC70E080E090E00E94C2
:100580005E1660E086E00E9486156CE271E080E015
:1005900090E00E945E16219751F714C068EE73E058
:1005A00080E090E00E945E1661E086E00E94861581
:1005B00060ED77E080E090E00E945E1660E086E00B
:1005C0000E94861561E083E10E94861564E670E072
:1005D00080E090E00E945E1680ED93E00E94B412ED
:1005E00060E080ED93E00E941C1380ED93E00E9498
:1005F0002D11873008F086E080939F03C0E0809142
:100600009F03C81770F488E0C89FB001112460569A
:100610007C4F83EE93E00E947910882311F0CF5F26
:10062000EECF64EF71E080E090E00E945E1660E043
:1006300083E10E94861580919F03811103C010926F
:10064000800303C081E08093800381E08093810375
:100650006DE571E086EC95E00E94AE1722E030E097
:100660004DEC5CEC65EB72E486EC95E00E94B81909
:1006700067E671E086EC95E00E94AE1722E030E07C
:100680004DEC5CEC65EB72E486EC95E00E94B819E9
:1006900061E771E086EC95E00E94AE1722E030E061
:1006A0004DEC5CEC65EB72E486EC95E00E94B819C9
:1006B0006BE771E086EC95E00E94AE1722E030E037
:1006C00049E25CE565E871E486EC95E00E94B819C2
:1006D00068EE73E080E090E00E945E1665E871E0ED
:1006E00086EC95E00E94AE1720E030E0B701A6014D
:1006F00086EC95E00E94B6196BE271E086EC95E01D
:100700000E94CB17809182038823D9F161EA71E0BE
:1007100086EC95E00E94CB176DEC71E086EC95E0DD
:100720000E94CB178091F103882331F065EF71E0CF
:1007300086EC95E00E94CB1765E072E086EC95E0D0
:100740000E94AE1740910701509108016091090184
:1007500070910A0122E030E086EC95E00E94B81921
:100760006CE072E086EC95E00E94AE1722E030E08B
:100770004AE959E969ED7FE386EC95E00E94B819F2
:100780001FC06AE172E086EC95E00E94CB176CE432
:1007900072E086EC95E00E94AE174AE050E066EE0B
:1007A00086EC95E00E94AD186BE271E086EC95E076
:1007B0000E94CB176CE572E086EC95E00E94CB17A7
:1007C00080917F03811103C063E972E024C08091AE
:1007D0008603882331F064EA72E086EC95E00E949B
:1007E000CB1780918503882331F062EB72E086ECB1
:1007F00095E00E94CB1780918403882331F060EC50
:1008000072E086EC95E00E94CB17809183038823E9
:1008100031F06EEC72E086EC95E00E94CB1780918F
:100820008003882379F06CED72E086EC95E00E94FD
:10083000AE174AE050E060919F0386EC95E00E947D
:10084000B41806C065EF72E086EC95E00E94CB1705
:100850006EE271E086EC95E00E94CB176BE073E0EE
:1008600086EC95E00E94AE174AE050E060910601E8
:1008700086EC95E00E94AD1862E173E086EC95E0AD
:100880000E94AE176AE173E086EC95E00E94AE1715
:1008900061E273E086EC95E00E94AE174AE050E01A
:1008A00062ED70E086EC95E00E9488186CE273E0DF
:1008B00086EC95E00E94AE1780918003882371F04A
:1008C0006CE473E086EC95E00E94AE174AE050E0DD
:1008D00060919F0386EC95E00E94AD1863EF72E093
:1008E00086EC95E00E94CB1764EF71E080E090E029
:1008F0000E945E1680918603882351F02DEC3CEC1B
:1009000045EB52E461E070E086E095E00E94390B2F
:1009100080918503882351F02DEC3CEC45EB52E4AB
:1009200062E070E08AEA94E00E94390B80918403CF
:10093000882351F02DEC3CEC45EB52E463E070E091
:100940008EE494E00E94390B80918303882351F058
:1009500029E23CE545E851E464E070E082EF93E091
:100960000E94390B80918203882309F460C0809132
:1009700086038823A1F0209107013091080140915E
:10098000090150910A011AE9E12E19E9F12E09ED48
:100990001FE360E070E086E095E00E941D0B80910F
:1009A00085038823A1F0209107013091080140912F
:1009B000090150910A011AE9E12E19E9F12E09ED18
:1009C0001FE360E070E08AEA94E00E941D0B8091D2
:1009D00084038823A1F02091070130910801409100
:1009E000090150910A011AE9E12E19E9F12E09EDE8
:1009F0001FE360E070E08EE494E00E941D0B8091A4
:100A000083038823A1F020910701309108014091D0
:100A1000090150910A011AE9E12E19E9F12E09EDB7
:100A20001FE360E070E082EF93E00E941D0B42E064
:100A300050E06DE071E081E0DF91CF911F910F9167
:100A4000FF90EF90DF90CF900C947D14CF92DF92C7
:100A5000EF92FF9298E0899FB001112460567C4F7D
:100A600080ED93E00E944D146B017C0120E030E0AA
:100A70004AEF52E40E94851B87FF16C020E030E059
:100A80004CE552ECC701B6010E94D41C181664F460
:100A900020E030E040E251E4C701B6010E94D81CDA
:100AA0000E94F11BCB0100C0FF90EF90DF90CF9030
:100AB00008950F931F93CF93DF9380918203882330
:100AC00051F068EC70E080E090E00E945E161092B9
:100AD000900310928F0380918603882309F441C00C
:100AE00080918203882359F140ED57E064E170E082
:100AF00086E095E00E94700B6091060570910705F5
:100B000080910805909109050E94F11B709388035C
:100B10006093870320E030E048EC52E460911205D6
:100B20007091130580911405909115050E94D81CB1
:100B30000E94F11B7093900360938F0312C068ECC6
:100B400075E086E095E00E94410E20E030E046E648
:100B500053E40E94D81C0E94F11B70938803609399
:100B6000870380918503882309F441C08091820323
:100B7000882359F140ED57E064E170E08AEA94E09F
:100B80000E94700B6091AA047091AB048091AC0438
:100B90009091AD040E94F11B70938A0360938903C6
:100BA00020E030E048EC52E46091B6047091B70464
:100BB0008091B8049091B9040E94D81C0E94F11B46
:100BC0007093900360938F0312C068EC75E08AEA1B
:100BD00094E00E94410E20E030E046E653E40E949B
:100BE000D81C0E94F11B70938A0360938903809143
:100BF0008403882309F441C080918203882359F13A
:100C000040ED57E064E170E08EE494E00E94700BE8
:100C100060914E0470914F04809150049091510462
:100C20000E94F11B70938C0360938B0320E030E0F3
:100C300048EC52E460915A0470915B0480915C042A
:100C400090915D040E94D81C0E94F11B7093900348
:100C500060938F0312C068EC75E08EE494E00E940C
:100C6000410E20E030E046E653E40E94D81C0E948A
:100C7000F11B70938C0360938B0380918303882313
:100C800009F441C080918203882359F140ED57E077
:100C900064E170E082EF93E00E94700B6091F203D8
:100CA0007091F3038091F4039091F5030E94F11B7E
:100CB00070938E0360938D0320E030E048EC52E4A3
:100CC0006091FE037091FF038091000490910104F4
:100CD0000E94D81C0E94F11B7093900360938F03B5
:100CE00012C068EC75E082EF93E00E94410E20E0B4
:100CF00030E046E653E40E94D81C0E94F11B70933A
:100D00008E0360938D0380918203811116C087E06A
:100D10000E940715BC01882777FD8095982F0E94B7
:100D2000241C2BE23BE64EE25FE30E94D81C0E94AB
:100D3000F11B7093900360938F038091800388234D
:100D4000D1F161E083E10E94861582E390E00E9488
:100D5000E80700EA13E0C0E0D0E080919F0390E054
:100D6000C817D90754F44BE0B80180ED93E00E9416
:100D70003E122196085F1F4FF0CF80ED93E00E9456
:100D8000891387E791E00E94E807C0E080919F0304
:100D9000C81768F48C2F0E942605EC2FF0E0EE0FA8
:100DA000FF1FEF56FC4F91838083CF5FEFCF60E052
:100DB00083E10E94861580917E03882381F0F89458
:100DC00020917E0380919D0390919E03820F911D3F
:100DD00090939E0380939D0310927E03789480915C
:100DE0008103882309F48CC0609187037091880384
:100DF0004AE050E086EC95E00E94801863EF72E0D4
:100E000086EC95E00E94AE176091890370918A0389
:100E10004AE050E086EC95E00E94801863EF72E0B3
:100E200086EC95E00E94AE1760918B0370918C0365
:100E30004AE050E086EC95E00E94801863EF72E093
:100E400086EC95E00E94AE1760918D0370918E0341
:100E50004AE050E086EC95E00E94801863EF72E073
:100E600086EC95E00E94AE1760918F03709190031D
:100E70004AE050E086EC95E00E94801863EF72E053
:100E800086EC95E00E94AE1760919D0370919E03E1
:100E90004AE050E086EC95E00E94801863EF72E033
:100EA00086EC95E00E94AE178091800381110DC001
:100EB00063EF72E086EC95E00E94CB1762E370E08E
:100EC00080E090E00E945E161BC0C0E080919F030E
:100ED000C81770F7EC2FF0E0EE0FFF1FEF56FC4F36
:100EE000608171814AE050E086EC95E00E948018B4
:100EF00063EF72E086EC95E00E94AE17CF5FE6CF1D
:100F000080918203882371F061E086E00E9486155B
:100F100068EC70E080E090E00E945E1660E086E0A1
:100F20000E9486150E94580180918203882351F007
:100F300060E177E280E090E0DF91CF911F910F9127
:100F40000C945E1680E197E2DF91CF911F910F9193
:100F50000C94E80765E083EE93E00E94561063EE80
:100F600073E080ED93E00C941E1183FF02C098E2C1
:100F7000892787FD02C0806401C080E094B7977F15
:100F800094BFF89490916000986190936000809372
:100F9000600078940895EAE7F0E0908180818F778F
:100FA000808383B7817F846083BFF89483B7816037
:100FB00083BF85B7806685BF85B78F79806485BF1D
:100FC0007894889583B78E7F83BF90937A00089535
:100FD000DF92EF92FF920F931F93CF93DF938C01D9
:100FE000EC0128E0E22EF12CC031D10538F19E0150
:100FF000D12C2032310538F0D39489E0D81619F07D
:1010000036952795F6CF109262058D2D0E94B50773
:101010000E94CB078FEF0E94B507C70102C0880F5F
:10102000991FDA94E2F7C81BD90B2091620522239D
:1010300019F0C81BD90BD8CF80E001C081E04091E6
:10104000BE055091BF056091C0057091C1050C1B94
:101050001D0B400F511F611D711D4093BE05509324
:10106000BF056093C0057093C105DF91CF911F91BB
:101070000F91FF90EF90DF900895809162058F5F50
:101080008093620508958627682F62956827062E4B
:10109000669566956025062E669560256770082E14
:1010A000892F669507946795902D862706946795F6
:1010B0009025862708952CB521602CBD25B141E0EF
:1010C00050E060E070E000900B0104C0440F551F39
:1010D000661F771F0A94D2F74095422345B99EBDFB
:1010E0000DB407FEFDCF2EB530E0322F22278EBD86
:1010F0000DB407FEFDCF9EB585B141E050E060E044
:1011000070E000900B0104C0440F551F661F771F4D
:101110000A94D2F7842B85B98CB58E7F8CBDA9013A
:10112000492BCA010895CF9380E090E00E945B08AC
:101130008091B305853091F580E090EB0E945B08CB
:10114000682F8091B405811104C09091B705911169
:1011500075C0E091B40581E08E0F8093B405F0E096
:10116000E659FA4F60838091B1059091B2050E94D3
:1011700043089093B2058093B10580916C0520914E
:10118000B40590E0049630E0821793070CF461C038
:101190008091B405873408F05CC060C08091B305CD
:1011A00087FF1AC0E0916C058091B30591E0980F1C
:1011B0009093B305ED5FE80FF0E0E659FA4FC08178
:1011C0008091B1059091B2056C2F0E9443089093D5
:1011D000B2058093B1052EC08091B305833001F133
:1011E00054F48823B9F08130F9F48091B1059091DD
:1011F000B205C92F1AC0893059F08A30A9F4C091BC
:10120000B70590916C058DEF891B8093B3050DC0D8
:10121000CDE20BC08091B1059091B205C82F05C0F9
:101220008DE092E80E945B08CAEA8091B3058F5F67
:101230008093B3058C2F90E098540DC0E091B405D5
:1012400081E08E0F8093B405F0E0E659FA4F908369
:1012500080CF8DE092E8CF910C945B08CF910895F8
:1012600025B181E090E0A0E0B0E0AC01BD010090CC
:101270000B0104C0440F551F661F771F0A94D2F755
:10128000242B25B924B100900B0104C0880F991FAD
:10129000AA1FBB1F0A94D2F7282B24B961E08AE069
:1012A0000E94861561E08AE00E944D1561E08BE0A6
:1012B0000E944D1560E08CE00E944D1561E08DE0CC
:1012C0000E944D1580E58CBD8DB581608DBD60E0BF
:1012D00082E00E944D1561E082E00C948615E8984A
:1012E0000E945B08E89A08958091B305853091F5D6
:1012F00080916C052091B40590E0049630E082174F
:10130000930724F08091B405873420F184E0809322
:10131000B3058091B1059091B2059093B205809389
:10132000B10580916C05833430F081E090E09093BA
:10133000B2058093B10580916B0586FF3EC0909108
:10134000B805892F8F718F31C1F180916B05892785
:101350008F7199F18091B305843069F580916505AD
:10136000882351F080936C0510926B0510926A05EA
:1013700083E08093B40504C010926C051092B4050C
:101380008FEF9FEF9093B2058093B1056091B70501
:10139000662351F08091B1059091B2050E944308F7
:1013A0009093B2058093B10585E08093B3058DEDF0
:1013B00092E80E945B0880E008958091B1059091C9
:1013C000B205892B49F4E0916305F09164053097EB
:1013D00019F080E009950BC08FEF9FEFDC0180933F
:1013E000660590936705A0936805B093690581E051
:1013F00008958091B305853099F48091B4058111E9
:101400000FC080E090E00E946F0990FD09C08DE060
:1014100092E80E946F0984E08093B30581E008950B
:1014200080E0089586FD05C0807E9091B8059F718B
:10143000890F80936B05E0916305F0916405309707
:1014400011F081E009958FEF9FEF9093B2058093A3
:10145000B1058091B1059091B2056091B7050E94E8
:1014600043089093B2058093B10586E08093B3055D
:101470008DE392E80C945B08CF93C82F40936C05E2
:1014800050E08DE695E00E94FB1D8C2FCF910C94CF
:10149000120AEF92FF921F93CF93DF931F92CDB763
:1014A000DEB7182F7B0149830E94F9094981811118
:1014B00005C049830E9474094981F5CFB701812F86
:1014C0000F90DF91CF911F91FF90EF900C943C0A09
:1014D0009091B3059430B9F08823D1F393B7917FFD
:1014E000833021F0823021F42CE003C024E001C0DD
:1014F00020E0922B93BF93B7916093BF889593B7E9
:101500009E7F93BFE5CF0895CF93C62F8093B805F4
:101510004093B7053093B6052093B5050E94300976
:1015200080E090E00E945B0885E092E80E945B0802
:1015300080E098EB0E945B0882E00E94BC15892B3A
:1015400019F480E090E0F6CF20E1C29FC0011124A1
:10155000876C90680E945B088091B5059091B605F4
:1015600090560E945B0886E096EC0E945B0882EA37
:1015700094E90E945B088CEA92EC0E945B08C0919F
:10158000B705CC2341F083E89AEC0E945B088C2FCE
:1015900090E09E6C06C08BE89AEC0E945B088DE29E
:1015A0009EEC0E945B0883E894EC0E945B0880E557
:1015B00098E90E945B0887E79CEC0E945B0880E04A
:1015C00090EE0E945B0880E098EC0E945B0889E442
:1015D00090EC0E945B0884E08093B3058091B8058D
:1015E0008F7141F040E050E063E978E080E00E94D4
:1015F0007D1403C080E00E949D148091B805CF91B6
:101600000895CF93C82F87FF03C08DE092E80EC0E6
:10161000992787FD9095956E0E946F0985E092E865
:101620000E946F09CC2321F087E092E80E946F09A5
:1016300084E08093B305CF910895EF92FF920F93CA
:101640001F93FC01758B648B208F318F428F538FDA
:10165000E0A2F1A202A313A340E050E060E074E432
:1016600044AB55AB66AB77AB1F910F91FF90EF90FA
:101670000895FC01778B668B248F358F468F578FAB
:1016800040E050E060E074E440AF51AF62AF73AF50
:1016900008958EE480937C0062E070E080E090E04A
:1016A0000E945E1680917A00806480937A00809117
:1016B0007A0086FDFCCF809178002091790030E09F
:1016C000322F2227442737FD4095542F282B60E0E6
:1016D00070E381E190E00E94B81DCA01B90108954C
:1016E0002F923F924F925F926F927F928F929F9232
:1016F000AF92BF92CF92DF92EF92FF920F931F9320
:10170000CF93DF93CDB7DEB7A8970FB6F894DEBFBF
:101710000FBECDBF98A78FA37E8F6D8F8A010E94C9
:10172000490B6D8B7E8B8F8B988F0E942F164B01F0
:101730005C016FA078A428E5620E711CC801A0E0CE
:10174000B0E0898B9A8BAB8BBC8BAFA1B8A55496BC
:101750008C910E940715F30191838083BC01882737
:1017600077FD8095982F0E94241C6B017C012DEC45
:101770003CEC4CE054E40E94851B87FF0BC011E059
:1017800026E636E646EE53E4C701B6010E94D41CB5
:1017900018160CF010E00E942F16681979098A09B2
:1017A0009B0929893A894B895C892617370748079D
:1017B000590708F040C00E942F16698F7A8F8B8FCF
:1017C0009C8F00E010E01A8219824FA158A5405C5E
:1017D0005F4F58A34F8F8FA198A58C5B9F4F9C871D
:1017E0008B87AFA1B8A5A85BBF4FBAA3A9A3EFA1F0
:1017F000F8A5E45BFF4FFE87ED872FA138A5205B9E
:101800003F4F3CA32BA34FA158A54C5A5F4F588B79
:101810004F878FA198A5865A9F4F9E838D832FA0B7
:1018200038A49BE5290E311CAFA1B8A5A85ABF4F1B
:10183000BEA3ADA344C1112309F487CFBCCF0E943E
:101840002F16298D3A8D4B8D5C8D621B730B840B8B
:10185000950B29893A894B895C896217730784073C
:10186000950708F034C10F5F1F4FEFA1F8A584A5BD
:1018700095A5A6A5B7A580A791A7A2A7B3A7848978
:101880000E940715AFA1B8A595969C938E93949747
:1018900056968C910E9407153C01EFA1F8A597A3DD
:1018A00086A324A135A13A872987B901882777FD26
:1018B0008095982F0E94241C6B017C01AFA1B8A5D4
:1018C000D4968D909D90AD90BC90D797A501940132
:1018D0000E94201B20E030E040E85AE30E94D81C20
:1018E0009B01AC01C501B4010E94211B9B01AC010D
:1018F000EFA1F8A564AB75AB86AB97ABC701B6019A
:101900000E94201B4B015C01AFA1B8A59C966D9372
:101910007D938D939C939F97B301882777FD809546
:10192000982F0E94241C6B017C01EFA1F8A540AC0C
:1019300051AC62AC73ACA30192010E94201B20E069
:1019400030E040E85AE30E94D81C9B01AC01C3017F
:10195000B2010E94211B9B01AC01AFA1B8A5D89692
:101960006D937D938D939C93DB97C701B6010E9485
:10197000201B6B017C01EFA1F8A560AB71AB82ABC2
:1019800093ABA5019401C501B4010E94D81C9B0131
:10199000AC01AF8DB8A16D937D938D939C931397FC
:1019A000EB85FC8560817181828193810E94211B7E
:1019B000AB85BC856D937D938D939C931397A70105
:1019C0009601C701B6010E94D81C9B01AC01E9A198
:1019D000FAA16083718382839383AD85BE856D9107
:1019E0007D918D919C910E94211BED85FE856083E8
:1019F000718382839383AFA1B8A598964D905D9033
:101A00006D907C909B97A3019201C501B4010E9447
:101A1000201BEFA1F8A520A131A142A153A10E9452
:101A2000D81C9B01AC01C301B2010E94211BAFA1D4
:101A3000B8A5DC966D937D938D939C93DF97A7015A
:101A400096010E94D81C9B01AC01EBA1FCA1608314
:101A5000718382839383AF85B8896D917D918D91D8
:101A60009C910E94211BEF85F8896083718382839A
:101A70009383D1018C91ED81FE818083ADA1BEA1C4
:101A80008D919C91E985FA858E179F070CF0F6C021
:101A900021E0F10120830130110529F4F101808159
:101AA000AD81BE818C93ED81FE819081D1018C91BD
:101AB000981729F0E981FA813196FA83E98329811F
:101AC0003A814D8D5E8D2417350708F4B8CEAD8967
:101AD000BE89BD01882777FD8095982F0E94241C20
:101AE00020E030E04AE754E40E94891B20E030E027
:101AF00040E85AE30E94D81C2B013C01EFA1F8A555
:101B0000208D318D428D538D0E94D81C4B015C017C
:101B1000B80180E090E00E94221C6B017C012FA0A4
:101B200038A4F4E42F0E311C9B01AC01D1016D915E
:101B30007D918D919C910E94891B0E943F1D9B016C
:101B4000AC01C501B4010E94D81C69837A838B83E0
:101B50009C83EFA1F8A56487758786879787248D76
:101B6000358D468D578DC301B2010E94D81C2B01C3
:101B70003C010FA118A5045B1F4FA7019601D801D6
:101B80006D917D918D919C910E94891B0E943F1DBA
:101B90009B01AC01C301B2010E94D81C6D837E83FE
:101BA0008F839887EFA1F8A5608B718B828B938BC5
:101BB000A3019201C501B4010E94D81CAFA0B8A432
:101BC000F4E5AF0EB11CD5012D913D914D915C9185
:101BD0000E94D81CA70196010E94891B6B017C0101
:101BE000EFA1F8A560837183828393832D813E8169
:101BF0004F81588569817A818B819C810E94D81C94
:101C00009B01AC01AFA1B8A514966D937D938D9304
:101C10009C931797C701B6010E94891BEFA1F8A5F5
:101C20006087718782879387D1011D921D921D92D3
:101C30001C921397F8011082118212821382D5012F
:101C40001D921D921D921C921397A8960FB6F894A0
:101C5000DEBF0FBECDBFDF91CF911F910F91FF90DF
:101C6000EF90DF90CF90BF90AF909F908F907F903C
:101C70006F905F904F903F902F900895D1011C92EC
:101C80000ACF2F923F924F925F926F927F928F92E4
:101C90009F92AF92BF92CF92DF92EF92FF920F93FB
:101CA0001F93CF93DF9300D000D000D0CDB7DEB725
:101CB0009E838D837A8369830E94490B2B013C01AB
:101CC00000E010E08D819E81845B9F4F1C01ED81BF
:101CD000FE81E85BFF4FFC83EB8389819A810817C3
:101CE000190709F455C0ED81FE8186890E94071508
:101CF000ED81FE8197A386A3BC01882777FD80959F
:101D0000982F0E94241C6B017C01ED81FE8180AC28
:101D100091ACA2ACB3ACA50194010E94201B20E0C1
:101D200030E040E85AE30E94D81C9B01AC01C50199
:101D3000B4010E94211B9B01AC01ED81FE8160AFCB
:101D400071AF82AF93AFC701B6010E94201BED8136
:101D5000FE8160AB71AB82AB93AB9B01AC010E9487
:101D6000D81C9B01AC01EB81FC8160837183828371
:101D70009383F10160817181828193810E94211B93
:101D8000F10160837183828393830F5F1F4FA5CF1F
:101D9000B80180E090E00E94221C9B01AC01F1019F
:101DA00060817181828193810E94891B0E943F1D05
:101DB0006B017C01B201882777FD8095982F0E94E6
:101DC000241C20E030E04AE754E40E94891B20E014
:101DD00030E040E85AE30E94D81CED81FE81248D5A
:101DE000358D468D578D0E94D81CA70196010E9403
:101DF000D81CED81FE81608B718B828B938BF101FE
:101E0000108211821282138226960FB6F894DEBFDA
:101E10000FBECDBFDF91CF911F910F91FF90EF903B
:101E2000DF90CF90BF90AF909F908F907F906F90FA
:101E30005F904F903F902F900895FF920F931F93C4
:101E4000CF93DF93FC010081C181D281F894898115
:101E5000F02EF0948F21898378941DE7115029F199
:101E600082E090E00E94861688818023B9F3F8947E
:101E70008A818F218A838981802B8983789480EE5F
:101E800091E00E948616F89489818F21898386E4E7
:101E900090E00E9486168881802311E009F010E00E
:101EA00078948AE991E00E948616812FDF91CF9184
:101EB0001F910F91FF9008951F93CF93DF93FC0123
:101EC0001081C181D281912F909560FF12C0F8944A
:101ED0008A8189238A838981812B89838AE090E0A2
:101EE0000E9486168A81812B8A83789487E390E00A
:101EF00011C0F8948A8189238A838981812B8983FF
:101F000081E490E00E9486168A81812B8A837894EE
:101F100085E090E0DF91CF911F910C9486160F938E
:101F20001F93CF93DF93FC011081C181D281F8947C
:101F30008981812B89838A81012F009580238A835F
:101F400083E090E00E9486168981802389838AE05D
:101F500090E00E948616C881789485E390E00E9404
:101F600086161C2381E009F480E0DF91CF911F9158
:101F70000F910895CF92DF92EF92FF920F931F93EC
:101F8000CF93DF931F92CDB7DEB76C01E62E08E04A
:101F900010E0FF24F39461E09F2D9E2109F460E09E
:101FA000C60149830E945C0FFF0C01501109498151
:101FB0000115110581F7411115C0F894D60111964C
:101FC000ED91FC91129791818C9180958923818369
:101FD0001196ED91FC91129792818C9180958923B5
:101FE000828378940F90DF91CF911F910F91FF9092
:101FF000EF90DF90CF900895EF92FF920F931F9391
:10200000CF93DF938C01C8E0D0E0F12CEE24E39471
:10201000C8010E948F0F8111FE28EE0C2197C1F795
:102020008F2DDF91CF911F910F91FF90EF90089529
:10203000CF92DF92FF920F931F93CF93DF931F9264
:10204000CDB7DEB78C01F62E40E065E579830E94BE
:10205000BA0FCF2C7981D72E88E0F82EF601619146
:102060006F0140E0C8010E94BA0FFA94B9F70F90CF
:10207000DF91CF911F910F91FF90DF90CF90089546
:1020800040E06CEC0C94BA0FFC01138615861486A4
:1020900027E030E0DF01A20FB31F13961C92211539
:1020A000310519F021503109F5CF08951F93CF93D1
:1020B000DF93EC01162F60E0812F0E944D15612FF8
:1020C00070E0FB01E458FE4FE491E883FB01E05728
:1020D000FE4FE491F0E0EE0FFF1FEC55FE4F8591AF
:1020E00094919A838983CE01DF91CF911F910C94B3
:1020F0004410AF92BF92CF92DF92EF92FF920F9374
:102100001F93CF93DF931F92CDB7DEB75C01E62E0E
:10211000D72EFC01858581115DC0C5010E941D0F70
:10212000811105C0F5011386158614866EC040E046
:1021300060EFC5010E94BA0F01E0F12CC12C11E043
:10214000C5010E948F0F682FC50169830E948F0F00
:102150006981613019F48130B9F433C02F2D30E03A
:1021600068131BC0F5018385181730F4E20FF31FC5
:102170008381802349F402C0181731F060E01930E0
:1021800058F4F501148708C0F501EF0DF11D8381A6
:10219000802B838361E009C0C12EF501E20FF31F9C
:1021A0008381902F909589238383C5010E945C0FC2
:1021B0001F5F000F11F4F39401E0F7E0FF1508F042
:1021C000BFCF113438F0F501C386C11018C081E0CB
:1021D000858715C0F50113861586148680E0EE2DDF
:1021E000FD2D20E030E0D501A20FB31F13969C9186
:1021F00091932F5F3F4F28303105A9F706C0F501B5
:102200008381882339F381E0EACF0F90DF91CF916A
:102210001F910F91FF90EF90DF90CF90BF90AF9004
:102220000895DC0180E0615038F0ED91E827F0E09E
:10223000E859FF4F8491F7CF08950895FC018DE18F
:1022400091E1928B818B768365831482108289E081
:10225000818381E0828383830895FC0184810895D2
:10226000CF93DF93EB0167E0CE010E94111191E063
:102270002F81821390E0892FDF91CF910895EF9203
:10228000FF920F931F93CF93DF9300D0CDB7DEB7AC
:102290007C018A01FC018581968169837A830E9491
:1022A0001D0F69817A81F701858196810E9418103E
:1022B00040E06EEBF701858196810E94BA0FF7012D
:1022C000858196810E94FC0FF8018083F70185814A
:1022D00096810E94FC0FF8018183F7018581968128
:1022E0000E94FC0FF8018283F701858196810E948C
:1022F000FC0FF8018383F701858196810E94FC0F12
:10230000F8018483F701858196810E94FC0FF80112
:102310008583F701858196810E94FC0FF8018683F1
:10232000F701858196810E94FC0FF8018783F701F0
:10233000858196810E94FC0FF8018087F7018581D5
:1023400096810F900F90DF91CF911F910F91FF9089
:10235000EF900C941D0FCF93DF93EA010E943F1181
:1023600068E0CE010E94111191E02885821390E06F
:10237000892FDF91CF910895EF92FF920F931F93D2
:10238000CF93DF93EC017B018A018D819E810E94B6
:102390001D0FB7018D819E810E94181040E06EE4F0
:1023A0008D819E810E94BA0F40E0F80162818D818B
:1023B0009E810E94BA0F40E0F80163818D819E8169
:1023C0000E94BA0FF7018081803139F040E0F801B6
:1023D00064818D819E810E94BA0F8D819E810E94B1
:1023E0001D0F488168E48D819E810E94BA0F88810B
:1023F000882331F06AE070E080E090E00E945E1691
:102400008D819E81DF91CF911F910F91FF90EF9071
:102410000C941D0FEF92FF921F93CF93DF9300D088
:10242000CDB7DEB77C01FC018581968169837A8313
:102430000E941D0F69817A81F701858196810E9432
:10244000181040E064EBF701858196810E94BA0F75
:10245000F701858196810E948F0F182FF7018581E2
:1024600096810E941D0F81E0111180E00F900F9066
:10247000DF91CF911F91FF90EF900895EF92FF921F
:102480000F931F93CF93DF93CDB7DEB72A970FB685
:10249000F894DEBF0FBECDBF7C018B01242FAE01AF
:1024A0004F5F5F4F2A870E94AB112A858823D1F0A6
:1024B000F80180818031C1F02B3041F02C3021F0C7
:1024C0002A3031F48FE305C08FE703C08FE501C0E8
:1024D0008FE18D83AE014F5F5F4FB801C7010E944E
:1024E000BC1102C080E001C081E02A960FB6F894CA
:1024F000DEBF0FBECDBFDF91CF911F910F91FF9037
:10250000EF900895CF93DF93CDB7DEB729970FB63D
:10251000F894DEBF0FBECDBFFB0120812031D1F08A
:10252000AE014F5F5F4F0E94AB11882379F08D8120
:102530008F3351F018F48F3169F008C08F3541F0B6
:102540008F3721F48CE007C08AE005C080E003C02B
:102550008BE001C089E029960FB6F894DEBF0FBE6C
:10256000CDBFDF91CF910895EF92FF920F931F930C
:10257000CF93DF93CDB7DEB761970FB6F894DEBF88
:102580000FBECDBF8C01FC01858196810E94441055
:10259000F8011482FF24F394BE01665F7F4FF801B7
:1025A000858196810E9479108823C9F1BE01665FFA
:1025B0007F4FC8010E943011882371F3F801808198
:1025C000811108C0BE01665F7F4FC8010E940A12D8
:1025D000811122C0AE014F5F5F4FBE01665F7F4F2A
:1025E000C8010E943F11F801E180BE01665F7F4F84
:1025F000C8010E9482128E1518F4F801818106C06C
:10260000BE01665F7F4FC8010E948212F80181837C
:1026100084818F5F8483C0CFF801F082DBCF619625
:102620000FB6F894DEBF0FBECDBFDF91CF911F91E3
:102630000F91FF90EF900895FC0162830895CF936E
:10264000DF93CDB7DEB729970FB6F894DEBF0FBE84
:10265000CDBFAE014F5F5F4F0E943F1181E0998176
:10266000911101C080E029960FB6F894DEBF0FBE2D
:10267000CDBFDF91CF910895CF92DF92EF92FF927D
:102680000F931F93CF93DF93EC018B01452BE1F068
:102690008B818823C9F08881811116C00E942F1672
:1026A0006B017C0160E070E0CE010E941F1381117C
:1026B0000BC00E942F166C197D098E099F096E3E72
:1026C00072408105910570F3F80180818A3049F0EC
:1026D0008B3061F0893079F46EE570E080E090E055
:1026E0000EC06CEB70E080E090E009C067E771E03D
:1026F00080E090E004C06EEE72E080E090E0DF9158
:10270000CF911F910F91FF90EF90DF90CF900C949D
:102710005E16CF93DF93EC018D819E810E941D0F89
:102720008D819E810E944010488164E48D819E814C
:102730000E94BA0F8A81882351F0BE016F5F7F4FDC
:1027400040E050E0CE01DF91CF910C943C13DF913B
:10275000CF9108958F929F92AF92BF92CF92DF92C6
:10276000EF92FF921F93CF93DF93FB01EA01698100
:1027700070E0762F66278881682B80818232B1F1E4
:102780008832A1F1803109F078C01F817595679575
:10279000882777FD8095982F0E94241C20E030E048
:1027A00040E85EE30E94201B6B017C01612F70E01A
:1027B0008E81681B7109882777FD8095982F0E946C
:1027C000241C4B015C01612F70E080E090E00E94CE
:1027D000221C9B01AC01C501B4010E94891B9B0115
:1027E000AC01C701B6010E94211B43C08C818F330D
:1027F00081F198F48F3109F040C093E075956795A9
:102800009A95E1F7882777FD8095982F0E94241CE0
:1028100020E030E040E05FE32AC08F3569F08F3779
:1028200061F5882777FD8095982F0E94241C20E071
:1028300030E040E85DE31BC075956795882777FD1C
:102840008095982F0E94241C20E030E040E05EE359
:102850000EC07595679575956795882777FD809566
:10286000982F0E94241C20E030E040E85EE30E94A4
:10287000D81C562F472F382F292F652F742F832FC1
:10288000922FDF91CF911F91FF90EF90DF90CF902B
:10289000BF90AF909F908F900895EF92FF920F930B
:1028A0001F93CF93DF93CDB7DEB729970FB6F89478
:1028B000DEBF0FBECDBF8C017B01AE014F5F5F4F0E
:1028C0000E94AB11882341F0AE014F5F5F4FB7010B
:1028D000C8010E94AA1304C060E070E08EEF92EC81
:1028E00029960FB6F894DEBF0FBECDBFDF91CF9112
:1028F0001F910F91FF90EF9008958230E8F4E82F38
:10290000F0E0EE0FFF1FE754FA4F718360838130D0
:1029100041F0809169008C7F842B80936900E89A54
:10292000089580916900440F551F440F551F837F00
:10293000842B80936900E99A0895823068F481308D
:1029400011F0E89801C0E998E82FF0E0EE0FFF1FC2
:10295000E754FA4F1182108208951F920F920FB61A
:102960000F9211242F933F934F935F936F937F9315
:102970008F939F93AF93BF93EF93FF938091B9058C
:102980009091BA05892B29F0E091B905F091BA052B
:102990000995FF91EF91BF91AF919F918F917F9199
:1029A0006F915F914F913F912F910F900FBE0F90BC
:1029B0001F9018951F920F920FB60F9211242F930C
:1029C0003F934F935F936F937F938F939F93AF93B7
:1029D000BF93EF93FF938091BB059091BC05892B2A
:1029E00029F0E091BB05F091BC050995FF91EF91AD
:1029F000BF91AF919F918F917F916F915F914F9117
:102A00003F912F910F900FBE0F901F9018958E3011
:102A100008F08E50877020910C0190E4299F90015E
:102A20001124822B80937C0080917A0080648093B3
:102A30007A0080917A0086FDFCCF80917800209109
:102A4000790090E0922B0895833081F028F4813052
:102A500099F08230A1F008958730A9F08830B9F05C
:102A60008430D1F4809180008F7D03C080918000FC
:102A70008F7780938000089584B58F7702C084B5E6
:102A80008F7D84BD08958091B0008F7703C08091C1
:102A9000B0008F7D8093B0000895CF93DF9390E0D6
:102AA000FC01E458FE4F2491FC01E057FE4F849155
:102AB000882349F190E0880F991FFC01E854FE4FEC
:102AC000A591B49182559E4FFC01C591D4919FB7B9
:102AD000611108C0F8948C91209582238C93888191
:102AE00082230AC0623051F4F8948C91322F3095D1
:102AF00083238C938881822B888304C0F8948C91E3
:102B0000822B8C939FBFDF91CF9108950F931F93DA
:102B1000CF93DF931F92CDB7DEB7282F30E0F901B6
:102B2000E859FE4F8491F901E458FE4F1491F901E0
:102B3000E057FE4F04910023C9F0882321F06983F8
:102B40000E9424156981E02FF0E0EE0FFF1FE2558F
:102B5000FE4FA591B4919FB7F8948C91611103C079
:102B60001095812301C0812B8C939FBF0F90DF9123
:102B7000CF911F910F910895CF93DF93282F30E0CD
:102B8000F901E859FE4F8491F901E458FE4FD491C0
:102B9000F901E057FE4FC491CC2391F081110E94BE
:102BA0002415EC2FF0E0EE0FFF1FEC55FE4FA59122
:102BB000B4912C912D2381E090E021F480E002C0BB
:102BC00080E090E0DF91CF9108951F920F920FB6B1
:102BD0000F9211242F933F938F939F93AF93BF93A3
:102BE0008091BE059091BF05A091C005B091C1052F
:102BF0003091BD0523E0230F2D3720F40196A11D50
:102C0000B11D05C026E8230F0296A11DB11D20931A
:102C1000BD058093BE059093BF05A093C005B093FA
:102C2000C1058091C2059091C305A091C405B091E2
:102C3000C5050196A11DB11D8093C2059093C305E2
:102C4000A093C405B093C505BF91AF919F918F919B
:102C50003F912F910F900FBE0F901F9018952FB797
:102C6000F8946091BE057091BF058091C005909168
:102C7000C1052FBF08953FB7F8948091C205909188
:102C8000C305A091C405B091C50526B5A89B05C094
:102C90002F3F19F00196A11DB11D3FBF6627782F68
:102CA000892F9A2F620F711D811D911D42E0660FC1
:102CB000771F881F991F4A95D1F70895CF92DF9209
:102CC000EF92FF92CF93DF936B017C010E943B1642
:102CD000EB01C114D104E104F10489F00E941F1B2F
:102CE0000E943B166C1B7D0B683E734090F381E0A5
:102CF000C81AD108E108F108C851DC4FEACFDF91CA
:102D0000CF91FF90EF90DF90CF900895019739F029
:102D1000880F991F880F991F02970197F1F708955F
:102D2000789484B5826084BD84B5816084BD85B5A6
:102D3000826085BD85B5816085BDEEE6F0E080816D
:102D400081608083E1E8F0E010828081826080838E
:102D5000808181608083E0E8F0E080818160808311
:102D6000E1EBF0E0808184608083E0EBF0E0808143
:102D700081608083EAE7F0E08081846080838081E5
:102D8000826080838081816080838081806880838D
:102D90001092C10008951F920F920FB60F92112446
:102DA0002F938F939F93EF93FF93E091D605F0912C
:102DB000D7058081E091DC05F091DD0582FD12C030
:102DC00090818091DF058F5F8F732091E0058217DE
:102DD00051F0E091DF05F0E0EA53FA4F958F8093D0
:102DE000DF0501C08081FF91EF919F918F912F911D
:102DF0000F900FBE0F901F9018951F920F920FB655
:102E00000F9211242F933F934F935F936F937F9370
:102E10008F939F93AF93BF93EF93FF9386EC95E0CF
:102E20000E94151AFF91EF91BF91AF919F918F91E1
:102E30007F916F915F914F913F912F910F900FBEB6
:102E40000F901F90189586EC95E00E94DA1921E00A
:102E5000892B09F420E0822F08951092C905109261
:102E6000C80588EE93E0A0E0B0E08093CA05909397
:102E7000CB05A093CC05B093CD058EE693E090935F
:102E8000C7058093C60585EC90E09093D3058093A9
:102E9000D20584EC90E09093D5058093D40580EC26
:102EA00090E09093D7058093D60581EC90E09093C5
:102EB000D9058093D80582EC90E09093DB05809350
:102EC000DA0586EC90E09093DD058093DC051092A6
:102ED000DF051092E0051092E1051092E2050895D9
:102EE000CF92DF92EF92FF920F931F93CF93DF93D6
:102EF0006C017A01EB01E60EF71E00E010E0CE1542
:102F0000DF0561F06991D601ED91FC910190F081AE
:102F1000E02DC6010995080F191FF1CFC801DF91F7
:102F2000CF911F910F91FF90EF90DF90CF90089578
:102F30006115710581F0DB010D900020E9F7AD010D
:102F400041505109461B570BDC01ED91FC91028069
:102F5000F381E02D099480E090E008950C94981797
:102F6000DC01ED91FC910190F081E02D09940F932B
:102F70001F93CF93DF93EC016DE00E94B0178C019B
:102F80006AE0CE010E94B017800F911FDF91CF91B0
:102F90001F910F9108950F931F93CF93DF93EC012F
:102FA0000E9498178C01CE010E94B717800F911FC5
:102FB000DF91CF911F910F9108958F929F92AF92C1
:102FC000BF92CF92DF92EF92FF920F931F93CF9316
:102FD000DF93CDB7DEB7A1970FB6F894DEBF0FBE73
:102FE000CDBF7C01C42EE52FCB01D22E19A221E04A
:102FF0002D1510F02AE0D22E8E010F5D1F4F8D2C63
:10300000912CA12CB12C6C2D7E2FA50194010E9436
:10301000961D8C2DD29E80191124015011098A30E1
:1030200014F4805D01C0895CF801808321153105AD
:103030004105510521F0C22EE32FCA01E4CFB801AA
:10304000C7010E949817A1960FB6F894DEBF0FBE75
:10305000CDBFDF91CF911F910F91FF90EF90DF9047
:10306000CF90BF90AF909F908F900895CF92DF92B6
:10307000EF92FF920F931F93CF93DF93EC016A01BE
:103080007B012115310579F4E881F9810190F08106
:10309000E02D642FDF91CF911F910F91FF90EF9062
:1030A000DF90CF9009942A303105E9F477FF1AC0F8
:1030B0006DE20E94B0178C0144275527BA014C19C4
:1030C0005D096E097F092AE0CE010E94DD17800F9D
:1030D000911FDF91CF911F910F91FF90EF90DF90A3
:1030E000CF9008952AE0B701A601CE01DF91CF91DC
:1030F0001F910F91FF90EF90DF90CF900C94DD1710
:103100009A01AB01662757FD6095762F0C9436180F
:103110000F931F93CF93DF93EC019A01AB016627C6
:1031200057FD6095762F0E9436188C01CE010E94C3
:10313000B717800F911FDF91CF911F910F910895C5
:103140002115310541F4DC01ED91FC910190F081F4
:10315000E02D642F09940C94DD179A01462F50E05E
:1031600060E070E00C94A0180F931F93CF93DF934F
:10317000EC019A01462F50E060E070E00E94A01838
:103180008C01CE010E94B717800F911FDF91CF9164
:103190001F910F9108954F925F926F927F928F923D
:1031A0009F92AF92BF92CF92DF92EF92FF920F93D6
:1031B0001F93CF93DF93EC016A017B01B22E9A013A
:1031C000AB01C701B6010E947D1D882319F06CE593
:1031D00073E027C026013701E89477F82FEF3FEF1F
:1031E0004FE75FE7C301B2010E947D1D81110DC051
:1031F0002FEF3FEF4FE75FE7C301B2010E94851B4E
:1032000018161CF460E673E00CC02FEF3FEF4FE799
:103210005FE4C701B6010E94D41C1816ACF464E642
:1032200073E0CE01DF91CF911F910F91FF90EF904E
:10323000DF90CF90BF90AF909F908F907F906F90D6
:103240005F904F900C9498172FEF3FEF4FE75FEC94
:10325000C701B6010E94851B87FDE1CF20E030E069
:10326000A901C701B6010E94851B87FF0AC06DE254
:10327000CE010E94B0178C01F7FAF094F7F8F094A1
:1032800002C000E010E0A12C60E070E080E09FE36D
:10329000AB1441F020E030E040E251E40E94891B91
:1032A000A394F6CF9B01AC01C701B6010E94211B7C
:1032B0006B017C010E94F61B2B013C010E94221C29
:1032C0009B01AC01C701B6010E94201B6B017C0170
:1032D0002AE0B301A201CE010E94DD17080F191FD9
:1032E000BB2039F068E673E0CE010E949817080F02
:1032F000191F7B2C772041F120E030E040E251E4BF
:10330000C701B6010E94D81C6B017C010E94F11B11
:103310004B01AA2497FCA094BA2C2AE030E0B50116
:10332000A401CE010E943618080F191FC501B4016F
:103330000E94241C9B01AC01C701B6010E94201B06
:103340006B017C017A94D6CFC801DF91CF911F9198
:103350000F91FF90EF90DF90CF90BF90AF909F9034
:103360008F907F906F905F904F9008950C94CB1842
:103370000F931F93CF93DF93EC010E94CB188C0126
:10338000CE010E94B717800F911FDF91CF911F913F
:103390000F91089508950E9490160E94CA190E94E4
:1033A000A801C7E0DAE10E9459052097E1F30E94E5
:1033B000071AF9CFFC01818D228D90E0805C9F4F30
:1033C000821B91098F7399270895FC01918D828D3D
:1033D000981731F0828DE80FF11D858D90E00895EA
:1033E0008FEF9FEF0895FC01918D828D981761F00A
:1033F000828DDF01A80FB11D5D968C91928D9F5F2C
:103400009F73928F90E008958FEF9FEF089583E26E
:1034100097E1892B49F080E090E0892B29F00E9408
:10342000231781110C9400000895FC01848DDF01A5
:10343000A80FB11DA35ABF4F2C91848D90E0019627
:103440008F739927848FA689B7892C93A089B18916
:103450008C9180648C93938D848D981306C0028820
:10346000F389E02D80818F7D80830895CF93DF9352
:10347000EC01888D8823C9F0EA89FB89808185FD6C
:1034800005C0A889B9898C9186FD0FC00FB607FCCD
:10349000F5CF808185FFF2CFA889B9898C9185FF0E
:1034A000EDCFCE010E94151AE7CFDF91CF9108959D
:1034B000CF92DF92FF920F931F93CF93DF931F92D0
:1034C000CDB7DEB76C01DC015B969C915B975C9697
:1034D0008C915C97981307C05096ED91FC91519791
:1034E000808185FD32C0F601038D10E00F5F1F4F14
:1034F0000F731127F02EF601848DF81211C00FB64C
:1035000007FCF9CFD6015096ED91FC91519780813F
:1035100085FFF1CFC60169830E94151A6981EBCF3F
:10352000838DE80FF11DE35AFF4F6083D6015B9650
:103530000C935B975296ED91FC915397808180623A
:10354000808381E058968C930DC0D6015696ED91FC
:10355000FC91579760835096ED91FC915197808133
:103560008064808381E090E00F90DF91CF911F9184
:103570000F91FF90DF90CF900895BF92CF92DF928E
:10358000EF92FF92CF93DF93EC016A017B01B22EA1
:10359000E889F98982E08083411581EE5807610549
:1035A0007105A1F060E079E08DE390E0A70196015C
:1035B0000E94961D215031094109510956954795A0
:1035C00037952795211580E1380798F0E889F98922
:1035D000108260E874E88EE190E0A70196010E94F5
:1035E000961D215031094109510956954795379546
:1035F0002795EC85FD853083EE85FF852083188E29
:10360000EC89FD89B082EA89FB89808180618083B1
:10361000EA89FB89808188608083EA89FB898081CF
:1036200080688083EA89FB8980818F7D8083DF9138
:10363000CF91FF90EF90DF90CF90BF9008950895C5
:103640005058BB27AA270ED075C166D130F06BD178
:1036500020F031F49F3F11F41EF45BC10EF4E095AD
:10366000E7FB51C1E92F77D180F3BA1762077307DF
:103670008407950718F071F49EF58FC10EF4E0955C
:103680000B2EBA2FA02D0B01B90190010C01CA011C
:10369000A0011124FF27591B99F0593F50F4503EC7
:1036A00068F11A16F040A22F232F342F4427585FB9
:1036B000F3CF469537952795A795F0405395C9F7D1
:1036C0007EF41F16BA0B620B730B840BBAF0915089
:1036D000A1F0FF0FBB1F661F771F881FC2F70EC028
:1036E000BA0F621F731F841F48F4879577956795FB
:1036F000B795F7959E3F08F0B3CF9395880F08F0E4
:103700009927EE0F979587950895D9D008F481E011
:1037100008950CD00FC107D140F0FED030F021F455
:103720005F3F19F0F0C0511139C1F3C014D198F3C3
:103730009923C9F35523B1F3951B550BBB27AA2732
:1037400062177307840738F09F5F5F4F220F331FA4
:10375000441FAA1FA9F333D00E2E3AF0E0E830D070
:1037600091505040E695001CCAF729D0FE2F27D073
:10377000660F771F881FBB1F261737074807AB0741
:10378000B0E809F0BB0B802DBF01FF2793585F4FB6
:103790002AF09E3F510568F0B6C000C15F3FECF3D0
:1037A000983EDCF3869577956795B795F7959F5F7B
:1037B000C9F7880F911D9695879597F90895E1E0CF
:1037C000660F771F881FBB1F621773078407BA072E
:1037D00020F0621B730B840BBA0BEE1F88F7E09589
:1037E000089504D06894B111D9C00895BCD088F070
:1037F0009F5790F0B92F9927B751A0F0D1F0660FDD
:10380000771F881F991F1AF0BA95C9F712C0B130F7
:1038100081F0C3D0B1E00895C0C0672F782F88270A
:10382000B85F39F0B93FCCF3869577956795B39536
:10383000D9F73EF490958095709561957F4F8F4FA5
:103840009F4F0895E89409C097FB3EF490958095AA
:10385000709561957F4F8F4F9F4F9923A9F0F92F56
:1038600096E9BB279395F695879577956795B795D4
:10387000F111F8CFFAF4BB0F11F460FF1BC06F5FBA
:103880007F4F8F4F9F4F16C0882311F096E911C0CC
:10389000772321F09EE8872F762F05C0662371F0ED
:1038A00096E8862F70E060E02AF09A95660F771F01
:1038B000881FDAF7880F9695879597F90895990FDD
:1038C0000008550FAA0BE0E8FEEF16161706E807EA
:1038D000F907C0F012161306E407F50798F0621B0B
:1038E000730B840B950B39F40A2661F0232B242BE0
:1038F000252B21F408950A2609F4A140A6958FEFFF
:10390000811D811D089597F99F6780E870E060E050
:1039100008959FEF80EC089500240A941616170668
:1039200018060906089500240A94121613061406B0
:1039300005060895092E0394000C11F4882352F013
:10394000BB0F40F4BF2B11F460FF04C06F5F7F4FCB
:103950008F4F9F4F089557FD9058440F551F59F0B2
:103960005F3F71F04795880F97FB991F61F09F3F6C
:1039700079F087950895121613061406551FF2CF95
:103980004695F1DF08C0161617061806991FF1CFE5
:1039900086957105610508940895E894BB2766270C
:1039A0007727CB0197F908958ADF08F48FEF089500
:1039B0000BD0C0CFB1DF28F0B6DF18F0952309F0A7
:1039C000A2CFA7CF1124EACFC6DFA0F3959FD1F3F2
:1039D000950F50E0551F629FF001729FBB27F00DBD
:1039E000B11D639FAA27F00DB11DAA1F649F662712
:1039F000B00DA11D661F829F2227B00DA11D621F61
:103A0000739FB00DA11D621F839FA00D611D221F1A
:103A1000749F3327A00D611D231F849F600D211DFE
:103A2000822F762F6A2F11249F5750408AF0E1F0A1
:103A300088234AF0EE0FFF1FBB1F661F771F881FEA
:103A400091505040A9F79E3F510570F05CCFA6CF32
:103A50005F3FECF3983EDCF3869577956795B795D5
:103A6000F795E7959F5FC1F7FE2B880F911D9695FF
:103A7000879597F9089511F40EF44BCF42C073DF88
:103A8000D0F39923D9F3CEF39F57550B87FF47D037
:103A90000024A0E640EA900180585695979528F4B6
:103AA000805C660F771F881F20F0261737074807AE
:103AB00030F4621B730B840B202931294A2BA69505
:103AC00017940794202531254A2758F7660F771F4A
:103AD000881F20F026173707480730F4620B730B56
:103AE000840B200D311D411DA09581F7B901842F54
:103AF0009158880F969587950895E1DE880B990B6C
:103B000008959F3F31F0915020F487957795679500
:103B1000B795880F911D9695879597F908959150BF
:103B20005040660F771F881FD2F70895A1E21A2E22
:103B3000AA1BBB1BFD010DC0AA1FBB1FEE1FFF1F51
:103B4000A217B307E407F50720F0A21BB30BE40BA1
:103B5000F50B661F771F881F991F1A9469F76095E8
:103B60007095809590959B01AC01BD01CF010895A2
:103B7000052E97FB1EF400940E94CF1D57FD07D021
:103B80000E94961D07FC03D04EF40C94CF1D509557
:103B90004095309521953F4F4F4F5F4F0895909539
:103BA0008095709561957F4F8F4F9F4F08950E942C
:103BB000DF1D332312F48A1B9B0B0C94F01DA29F74
:103BC000B001B39FC001A39F700D811D1124911DF1
:103BD000B29F700D811D1124911D08950E94DF1D5B
:103BE000B7FF0895821B930B0895EE0FFF1F0590FA
:103BF000F491E02D0994FB01DC0102C001900D92CB
:0C3C000041505040D8F70895F894FFCFD1
:103C0C000000630680000A297C86430201656D6F03
:103C1C006E54782056332E34204469736372657465
:103C2C00652053616D706C696E672056002052469A
:103C3C004D313242004F70656E456E657267794D3D
:103C4C006F6E69746F722E6F726700504F53542EE3
:103C5C002E2E2E2E77616974203130730043542040
:103C6C00312043616C2000435420322043616C208E
:103C7C0000435420332043616C20004354203420F3
:103C8C0043616C2000524D5320566F6C7461676514
:103C9C00206F6E2041432D4143202069733A207ED2
:103CAC000041432D41432064657465637465642051
:103CBC002D205265616C20506F776572206D6561A7
:103CCC007375726520656E61626C656400617373F7
:103CDC00756D696E67207077722066726F6D20410A
:103CEC00432D414320286A756D70657220636C6F9B
:103CFC007365642900555341206D6F6465206163C1
:103D0C0074697665005663616C3A20005068617383
:103D1C00652053686966743A200041432D41432065
:103D2C004E4F54206465746563746564202D204186
:103D3C0070706172656E7420507772206D6561735E
:103D4C0075726520656E61626C6564004173737594
:103D5C006D696E672056524D533A2000417373754E
:103D6C006D696E6720706F7765722066726F6D205B
:103D7C0062617474202F20355620555342202D201B
:103D8C00706F776572207361766520656E61626C09
:103D9C006564004E4F20435427732064657465633B
:103DAC0074656400435420312064657465637465E4
:103DBC006400435420322064657465637465640048
:103DCC004354203320646574656374656400435404
:103DDC00203420646574656374656400446574659F
:103DEC00637465642054656D702053656E736F72D7
:103DFC00733A2020004E6F2074656D70657261748B
:103E0C007572652073656E736F72004E6F64653AE0
:103E1C00200020467265713A20003836384D687A99
:103E2C0000204E6574776F726B3A2000435431203A
:103E3C0043543220435433204354342056524D5370
:103E4C002F424154542050554C5345002054656D1D
:103E5C00706572617475726520312D006E616E0033
:103E6C00696E66006F7666002E0000000000581A1E
:0A3E7C007017DA19F319E519361A68
:00000001FF
