:200000000C94F5000C9457180C9484180C941D010C941D010C941D010C942E080C941D0132
:200020000C941D010C941D010C941D010C941D010C941D010C941D010C941D010C941D01D0
:200040000C9425160C941D010C942E1B0C947C1B0C941D010C941D010C941D010C941D01EF
:200060000C941D010C941D01010402000302048A050506C30B2019421E2C25802E882F2D10
:20008000370038003C8F3D106F2000005EBCE2613FDD83C29C7E20A3FD1F419DC3217FFC56
:2000A000A2401E5F01E3BD3E6082DC237D9FC1421CFEA0E1BF5D0380DE3C62BEE0025CDF71
:2000C00081633D7C22C09E1D43A1FF4618FAA427799BC584DA3866E5BB5907DB856739BA51
:2000E000E406581947A5FB7826C49A653BD987045AB8E6A7F91B45C6987A24F8A6441A9935
:20010000C7257B3A6486D85B05E7B98CD2306EEDB3510F4E10F2AC2F7193CD114FADF37014
:200120002ECC92D38D6F31B2EC0E50AFF1134DCE90722C6D33D18F0C52B0EE326C8ED053F0
:200140000DEFB1F0AE4C1291CF2D73CA947628ABF517490856B4EA6937D58B5709EBB536C8
:20016000688AD495CB2977F4AA4816E9B7550B88D6346A2B7597C94A14F6A8742AC89615B4
:200180004BA9F7B6E80A54D7896B3500000000240027002A0000000000250028002B00008B
:2001A000000000230026002900040404040404040402020202020203030303030301020488
:2001C000081020408001020408102001020408102000000007000201000003040600000092
:2001E0000000000000001F01501D11241FBECFEFD8E0DEBFCDBF14E0A0E0B1E0ECE1F1E41A
:2002000002C005900D92AE32B107D9F717E0AEE2B4E001C01D92AE30B107E1F711E0CAEEDE
:20022000D1E004C02297FE010E948820C63ED107C9F70E941E1B0C948C200C9400000F9342
:200240001F9307EA15E0C80165E00E947D1285EB95E0B8010E94B3121F910F910895CF9274
:20026000DF92EF92FF920F931F93CF93DF936B01EE24FF248701C0E0D0E013C080E00E9485
:20028000FF179C0120503240442737FD4095542FCA01B9010E942A20E60EF71E081F191FF9
:2002A0002196CC15DD0554F3C801B7010E94A81E7B018C01B601882777FD8095982F0E9433
:2002C000AA1E9B01AC01C801B7010E940F1E0E94C51FDF91CF911F910F91FF90EF90DF909A
:2002E000CF90089528EE33E0AC01429FC001439F900D529F900D11240E94410908958FEF41
:200300000E94520880E068EC75E04CE00E948C0882E00E945A088091D805882311F40E94D0
:2003200052080895EF92FF920F931F938091D805882351F068EC70E080E090E00E947B16DF
:200340001092D1051092D0058091D405882309F45BC08091D805882359F18EE294E064E1F5
:2003600070E040ED57E00E94D30D60912E0470912F0480913004909131040E94771E70931B
:20038000C9056093C80560913A0470913B0480913C0490913D0420E030E048EC52E40E9491
:2003A0005E1F0E94771E7093D1056093D00512C08EE294E068EC75E00E94000D20E030E0CA
:2003C00046E653E40E945E1F0E94771E7093C9056093C8058091D9058130B1F46091C805D0
:2003E0007091C9058CEE96E04AE050E00E94DC198CEE96E060E071E00E940E1A65E070E06D
:2004000080E090E00E947B168091D505882309F45BC08091D805882359F18CE894E064E11B
:2004200070E040ED57E00E94D30D60918C0470918D0480918E0490918F040E94771E7093E2
:20044000CB056093CA05609198047091990480919A0490919B0420E030E048EC52E40E9454
:200460005E1F0E94771E7093D1056093D00512C08CE894E068EC75E00E94000D20E030E005
:2004800046E653E40E945E1F0E94771E7093CB056093CA058091D9058130B1F46091CA0509
:2004A0007091CB058CEE96E04AE050E00E94DC198CEE96E060E071E00E940E1A65E070E0AA
:2004C00080E090E00E947B168091D605882309F45BC08091D805882359F18AEE94E064E156
:2004E00070E040ED57E00E94D30D6091EA047091EB048091EC049091ED040E94771E7093AA
:20050000CD056093CC056091F6047091F7048091F8049091F90420E030E048EC52E40E9417
:200520005E1F0E94771E7093D1056093D00512C08AEE94E068EC75E00E94000D20E030E040
:2005400046E653E40E945E1F0E94771E7093CD056093CC058091D9058130B1F46091CC0542
:200560007091CD058CEE96E04AE050E00E94DC198CEE96E060E071E00E940E1A65E070E0E7
:2005800080E090E00E947B168091D705882309F45BC08091D805882359F188E495E064E19F
:2005A00070E040ED57E00E94D30D609148057091490580914A0590914B050E94771E70936D
:2005C000CF056093CE056091540570915505809156059091570520E030E048EC52E40E94D7
:2005E0005E1F0E94771E7093D1056093D00512C088E495E068EC75E00E94000D20E030E08B
:2006000046E653E40E945E1F0E94771E7093CF056093CE058091D9058130B1F46091CE057B
:200620007091CF058CEE96E04AE050E00E94DC198CEE96E060E071E00E940E1A65E070E024
:2006400080E090E00E947B168091D8058823C1F08091D9058130A1F48091DB05882381F00B
:200660006091D0057091D1058CEE96E04AE050E00E94DC1965E070E080E090E00E947B1664
:200680008091D905813071F48091DB05882351F08CEE96E00E94DB1864E170E080E090E08E
:2006A0000E947B168091DA05813009F07FC083E161E00E94581782E390E00E94410900E0D7
:2006C00010E00FC0B80183E0660F771F8A95E1F762527A4F85EB95E04BE00E9468150F5F23
:2006E0001F4F8091DC059091DD050817190754F385EB95E00E94CD1487E791E00E944109DE
:2007000085EB95E06EED75E00E94FE147B018C0183E160E00E945817C801B70120E030E041
:200720004AEF52E40E940B1E8823C4F4C801B70120E030E040E252EC0E945A1F181674F47A
:20074000C801B70120E030E040E251E40E945E1F0E94771E7093D3056093D2058091D905C7
:20076000813021F58CEE96E062E071E00E940E1A6091D2057091D305882777FD8095982FC5
:200780000E94AA1E2DEC3CEC4CEC5DE30E945E1FAB01BC018CEE96E022E030E00E94F81AF8
:2007A00064E170E080E090E00E947B168091D805882331F587E00E94FF17AA2797FDA09529
:2007C000BA2FBC01CD010E94AA1E2BE23BE64EE25FE30E945E1F0E94771E9B01AC017093F9
:2007E000D1056093D0058CEE96E0B9014AE050E00E94EF1965E070E080E090E00E947B1615
:200800000E947F018091D8058823A9F060E177E280E090E00E947B1686E061E00E9458172F
:2008200068EC70E080E090E00E947B1686E060E00E94581704C08AE090E00E9472011F91F7
:200840000F91FF90EF900895CF92DF92EF92FF920F931F9386E061E00E94191783E161E0F7
:200860000E94191786E061E00E9458178CEE96E040E855E260E070E00E94B71B8CEE96E0AB
:2008800060E171E00E940B1B8CEE96E069E371E00E940B1B8CEE96E06FE471E00E940B1B4D
:2008A00088E062E00E94191789E062E00E94191788E00E94AC17892B29F480911B048150A0
:2008C00080931B0489E00E94AC17892B19F481E08093A6058091A605813061F480E090E0A6
:2008E000A2E0B3E48093170490931804A0931904B0931A046AE070E080E090E00E947B1624
:2009000080911B0461E042ED20E436E00E94A4080AE010E01093C9050093C80580E068EC70
:2009200075E04CE00E948C0864E670E080E090E00E947B16015010408FEF0F3F180751F78F
:2009400082E00E945A081092C9051092C80581E00E94FF17181619064CF481E08093D4055F
:200960008091DB058F5F8093DB0502C01092D40582E00E94FF17181619064CF481E080934D
:20098000D5058091DB058F5F8093DB0502C01092D50583E00E94FF17181619064CF481E064
:2009A0008093D6058091DB058F5F8093DB0502C01092D60584E00E94FF17181619064CF48F
:2009C00081E08093D7058091DB058F5F8093DB0502C01092D7058091DB05882319F481E0AB
:2009E0008093D40580E197E20E94410986E060E00E94581780E090E064EF76E00E942F0143
:200A000022E538EB4EE55FE30E945E1F6B017C0120E030E044EB52E40E945A1F181624F459
:200A200081E08093D80502C01092D8058091D8058823E1F000E010E086E061E00E94581732
:200A400068EC70E080E090E00E947B1686E060E00E9458176CE271E080E090E00E947B1696
:200A60000F5F1F4F0A30110539F714C068EE73E080E090E00E947B1686E061E00E945817E2
:200A800060ED77E080E090E00E947B1686E060E00E94581783E161E00E94581762E370E0AD
:200AA00080E090E00E947B1685EB95E00E94BC1585EB95E060E00E94C51285EB95E00E94B6
:200AC000C2128093DC051092DD0510E0612F70E08091DC059091DD05681779070CF0ABC29D
:200AE00093E0660F771F9A95E1F762527A4F87EA95E00E94E711882309F49DC21F5FE6CF3A
:200B00001092DA0503C081E08093DA058CEE96E00E944E1D882321F081E08093D90502C071
:200B20001092D9058091D905813009F03DC18CEE96E061E671E00E940E1A8CEE96E04DEC23
:200B40005CEC65EB72E422E030E00E94F81A8CEE96E064E771E00E940E1A8CEE96E04DEC62
:200B60005CEC65EB72E422E030E00E94F81A8CEE96E067E871E00E940E1A8CEE96E04DEC3E
:200B80005CEC65EB72E422E030E00E94F81A8CEE96E06AE971E00E940E1A8CEE96E049E228
:200BA0005CE565E871E422E030E00E94F81A68EE73E080E090E00E947B168CEE96E06DEA99
:200BC00071E00E940E1A8CEE96E0B701A60120E030E00E94F51A8CEE96E066ED71E00E94B4
:200BE0000B1B8091D8058823D9F18CEE96E068ED71E00E940B1B8CEE96E061E172E00E94E8
:200C00000B1B8091A605813031F48CEE96E066E472E00E940B1B8CEE96E069E572E00E9496
:200C20000E1A40911704509118046091190470911A048CEE96E022E030E00E94F81A8CEE46
:200C400096E060E672E00E940E1A8CEE96E04AE959E969ED7FE322E030E00E94F81A1FC0FA
:200C60008CEE96E06EE672E00E940B1B8CEE96E06FEA72E00E940E1A8CEE96E066EE4AE043
:200C800050E00E948A198CEE96E066ED71E00E940B1B8CEE96E064EC72E00E940B1B809118
:200CA000DB05882329F48CEE96E06AE073E026C08091D405882331F08CEE96E069E373E0D4
:200CC0000E940B1B8091D505882331F08CEE96E067E473E00E940B1B8091D605882331F087
:200CE0008CEE96E065E573E00E940B1B8091D705882331F08CEE96E063E673E00E940B1B92
:200D00008091DA058130A9F48CEE96E061E773E00E940E1A6091DC057091DD058CEE96E09B
:200D20004AE050E00E94DC198CEE96E06BE773E004C08CEE96E068EA73E00E940B1B8CEE92
:200D400096E064ED73E00E940B1B8CEE96E068EE73E00E940E1A8CEE96E060911B044AE024
:200D600050E00E948A198CEE96E06FEE73E00E940E1A8CEE96E067EF73E00E940E1A8CEEB7
:200D800096E06EEF73E00E940E1A8CEE96E062ED70E04AE050E00E94EF1964EF71E080E0CC
:200DA00090E00E947B1604C08CEE96E00E943E1C8091D405882351F08EE294E061E070E095
:200DC0002DEC3CEC45EB52E40E94CC0C8091D505882351F08CE894E062E070E02DEC3CEC60
:200DE00045EB52E40E94CC0C8091D605882351F08AEE94E063E070E02DEC3CEC45EB52E415
:200E00000E94CC0C8091D705882351F088E495E064E070E029E23CE545E851E40E94CC0C02
:200E20008091D805882309F470C08091D4058823C1F020911704309118044091190450912E
:200E40001A048EE294E060E070E00F2EFAE9EF2EF9E9FF2EF9ED0F2FFFE31F2FF02D0E94A1
:200E6000B80C8091D5058823C1F020911704309118044091190450911A048CE894E060E0A9
:200E800070E00F2EFAE9EF2EF9E9FF2EF9ED0F2FFFE31F2FF02D0E94B80C8091D605882348
:200EA000C1F020911704309118044091190450911A048AEE94E060E070E00F2EFAE9EF2E32
:200EC000F9E9FF2EF9ED0F2FFFE31F2FF02D0E94B80C8091D7058823C1F020911704309156
:200EE00018044091190450911A0488E495E060E070E00F2EFAE9EF2EF9E9FF2EF9ED0F2F08
:200F0000FFE31F2FF02D0E94B80C8091D8059091D405882309F44CC0992379F000E010E08D
:200F20008EE294E064E170E040ED57E00E94D30D0F5F1F4F0530110599F78091D505882305
:200F400079F000E010E08CE894E064E170E040ED57E00E94D30D0F5F1F4F0530110599F73E
:200F60008091D605882379F000E010E08AEE94E064E170E040ED57E00E94D30D0F5F1F4F5E
:200F80000530110599F78091D705882309F45FC000E010E088E495E064E170E040ED57E018
:200FA0000E94D30D0F5F1F4F0530110599F74FC0992369F000E010E08EE294E068EC75E077
:200FC0000E94000D0F5F1F4F05301105A9F78091D505882369F000E010E08CE894E068ECA0
:200FE00075E00E94000D0F5F1F4F05301105A9F78091D605882369F000E010E08AEE94E07A
:2010000068EC75E00E94000D0F5F1F4F05301105A9F78091D7058823D1F000E010E088E41C
:2010200095E068EC75E00E94000D0F5F1F4F05301105A9F70CC083E160E00E94581780918A
:20104000DC059091DD05892B09F45ACD5CCD1F910F91FF90EF90DF90CF9008951F920F9290
:201060000FB60F9211242F933F934F935F936F937F938F939F93AF93BF93EF93FF930E94BB
:201080009909FF91EF91BF91AF919F918F917F916F915F914F913F912F910F900FBE0F9043
:2010A0001F90189590E0882309F491E0892F0E94180A08951F93182F16C01123A1F093B754
:2010C000133011F484E005C0123011F080E001C08CE0917F892B83BF83B7816083BF88954F
:2010E00083B78E7F83BF0E94100A882331F71F91089580E096E00E94DA0A9093FF058093F5
:20110000FE058091FE059091FF0520E08F5F9F4F09F021E0822F08950F931F93CF93DF9347
:20112000182FEB01042F02C00E9479080E94FF098823D1F3812FBE01402F0E944C0BDF9104
:20114000CF911F910F910895BF92CF92DF92EF92FF920F931F93CF93DF93C82ED62EB42E09
:20116000E90182E0681751F083E0681749F081E0681711F060E005C06BE203C066E501C046
:201180006AE570E080E090E020E836E948E950E00E942A207B018C016D2D70E080E090E0A9
:2011A00024EC39E040E050E00E942A209E0140E050E00E942A20E60EF71E081F191FC801BE
:2011C000B7010E94E209B0924E068C2D8F7180934F0664E170E080E090E00E947B1680916A
:2011E0004F06882341F080E06FE07CE043E050E00E94211803C080E00E9444180E94230A95
:20120000C09248068C2DDF91CF911F910F91FF90EF90DF90CF90BF900895982F83FF02C082
:2012200088E2982797FF02C090E001C0906484B7877F84BFF894809160008861809360002B
:201240009093600078940895EAE7F0E0908180818F77808383B7817F846083BFF89483B780
:20126000816083BF85B7806685BF85B78F79806485BF7894889583B78E7F83BF90937A002A
:201280000895CF92DF92EF92FF921F93CF93DF937C01EC0158E0C52ED12C20C01F5F19300E
:2012A00029F09695879580329105C0F710924906812F0E940D090E9424098FEF0E940D0971
:2012C000960102C0220F331F1A95E2F7C21BD30B80914906882351F0C21BD30BC031D10521
:2012E00010F461E004C0CE0110E0DDCF60E020915B0630915C0640915D0650915E06EC1A86
:20130000FD0AC701A0E0B0E0820F931FA41FB51F80935B0690935C06A0935D06B0935E06DE
:20132000862FDF91CF911F91FF90EF90DF90CF900895809149068F5F80934906089598E238
:201340000EC0E8982A981EBC0DB407FEFDCF8EB51EBC0DB407FEFDCF8EB52A9AE89AE89859
:201360002A989EBD0DB407FEFDCF8EB51EBC0DB407FEFDCF8EB52A9AE89A807511F70895EC
:20138000282FE8982A9881E08EBD0DB407FEFDCF8EB51EBC0DB407FEFDCF9EB52A9AE89A2E
:2013A000E8982A9881E88EBD0DB407FEFDCF8EB5937E922B9EBD0DB407FEFDCF8EB52A9AA0
:2013C000E89A089522E0660F771F881F991F2A95D1F729E03DE340E050E00E94492086E011
:2013E000220F331F441F551F8A95D1F720934A0630934B0640934C0650934D06089580918C
:201400005506853059F480915606882339F484E0809355060E94C00981E0089580E00895F2
:201420008091550690E084300CF491E0892F0895882311F484E001C080E00E94C00984E052
:201440008093550608952A9A229A2A9A84B18C6284B980E58CBD8DB581608DBD3FEA2AEA85
:201460009FE2E8982A983EBD0DB407FEFDCF8EB52EBD0DB407FEFDCF8EB52A9AE89AE89853
:201480002A989EBD0DB407FEFDCF8EB51EBC0DB407FEFDCF8EB52A9AE89A8A3A11F73FEA70
:2014A00025E59FE2E8982A983EBD0DB407FEFDCF8EB52EBD0DB407FEFDCF8EB52A9AE89A89
:2014C000E8982A989EBD0DB407FEFDCF8EB51EBC0DB407FEFDCF8EB52A9AE89A853511F7E3
:2014E000E8E6F0E084918823A1F03196949131978068E8982A988EBD0DB407FEFDCF8EB5FF
:201500009EBD0DB407FEFDCF8EB52A9AE89A3296E9CF90914E06E8982A9880EB8EBD0DB4A7
:2015200007FEFDCF8EB59EBD0DB407FEFDCF8EB52A9AE89A20914A0630914B0640914C06EB
:2015400050914D06E8982A9887E88EBD0DB407FEFDCF8EB5CA01AA27BB278EBD0DB407FEF7
:20156000FDCF8EB52A9AE89AE8982A9888E88EBD0DB407FEFDCF8EB5BB27A52F942F832F19
:201580008EBD0DB407FEFDCF8EB52A9AE89AE8982A9889E88EBD0DB407FEFDCF8EB52EBD27
:2015A0000DB407FEFDCF8EB52A9AE89A84E0809355060895AC0180915506843021F085300E
:2015C00009F066C032C010920206809102068093560620914E068FEF9FEF8227282F229500
:2015E0002827022E269526952025022E269520252770082E892F269507942795902D822784
:2016000006942795902582279093510680935006509354064093530685E0809355060E9455
:201620009F0980E10E94C00933C0809102062091560690E0049630E08217930724F08091AB
:201640005606883428F184E0809355060E94C00980910206833430F081E090E090935106E1
:20166000809350068091010686FF0DC020914F062F3149F08091010690E08F71907030E060
:201680008217930729F4209150063091510602C02FEF3FEFC9010895982F4093020620E0C4
:2016A00030E050E00AC0F901ED5FF94FDB01A20FB31F8C9180832F5F3F4F241735079CF3F1
:2016C00096FD04C0907E80914F06980F9093010620914E068FEF9FEF8227282F2295282757
:2016E000022E269526952025022E269520252770082E892F269507942795902D8227069438
:201700002795902582279093FF058093FE05909102068EEF891B809355060E949F098CE004
:201720000E94C009E8982A9885EA8EBD0DB407FEFDCF8EB51EBC0DB407FEFDCF8EB52A9AFA
:20174000E89A409153065091540668E230E861C0E8982A986EBD0DB407FEFDCF8EB51EBC03
:201760000DB407FEFDCF8EB52A9AE89A87FD51C08091550687FF2DC02091020680915506B5
:20178000992787FD9095FA01E20FF11DE80FF91F238180915006909151068227782F7295FD
:2017A0007827072E769576957025072E769570257770082E892F769507947795902D8727E3
:2017C000069477959025872790935106809350060DC080915506882321F0813029F02AEA4A
:2017E00005C02091500602C020915106E8982A983EBD0DB407FEFDCF8EB52EBD0DB407FE90
:20180000FDCF8EB52A9AE89A809155068F5F809355068091550683300CF49ACF0895809175
:201820005506853009F07DC0E8982A9884E28EBD0DB407FEFDCF8EB51EBC0DB407FEFDCF2E
:201840008EB52A9AE89A80935206789448E2E8982A984EBD0DB407FEFDCF8EB51EBC0DB4A1
:2018600007FEFDCF8EB52A9AE89A807581F380915606882371F480915606E0915306F09170
:201880005406E80FF11D90914E0690838F5F80935606E8982A981EBC0DB407FEFDCF8EB513
:2018A0001EBC0DB407FEFDCF2EB52A9AE89A80915606E0915306F0915406E80FF11D2083D9
:2018C0008F5F8093560680915006909151068227282F22952827022E269526952025022EAB
:2018E000269520252770082E892F269507942795902D8227069427959025822790935106BD
:2019000080935006809102062091560690E0049630E0821793075CF180915606883438F548
:2019200096CFE8982A9888E28EBD0DB407FEFDCF8EB51EBC0DB407FEFDCF8EB52A9AE89A81
:2019400083FF15C084E0809355060E94C009E8982A9885EA8EBD0DB407FEFDCF8EB580E8BA
:201960008EBD0DB407FEFDCF8EB52A9AE89A0895EF92FF920F931F93FC01758B648B208F63
:20198000318F428F538FE0A2F1A202A313A31F910F91FF90EF900895FC01778B668B248FC6
:2019A000358F468F578F08958EE480937C0062E070E080E090E00E947B1680917A00806406
:2019C00080937A0080917A0086FDFCCF8091780090E0A0E0B0E060917900362F20E044275E
:2019E00037FD4095542F282B392B4A2B5B2B60E070E381E190E00E946B20CA01B9010895F5
:201A00002F923F924F925F926F927F928F929F92AF92BF92CF92DF92EF92FF920F931F9334
:201A2000CF93DF93EC012B010E94D40C3B014C01CC24DD249CE4A92EB12CAC0EBD1E88E488
:201A4000282E312C2C0E3D1E53C08AA59BA599A788A78E890E94FF179BA78AA7E8ACF9ACD2
:201A60000AAD1BADECAAFDAA0EAB1FABAA2797FDA095BA2FBC01CD010E94AA1E9B01AC0166
:201A8000C801B7010E94A71D7B018C0168A579A5882777FD8095982F0E94AA1E9B01AC0179
:201AA000C801B7010E94A61D2BED39EF4EE75FE30E945E1F9B01AC0168AF79AF8AAF9BAF5F
:201AC0000E945E1F9B01AC01F1016083718382839383F50160817181828193810E94A71D74
:201AE000F50160837183828393830894C11CD11CC414D5040CF4A9CFB201882777FD809584
:201B0000982F0E94AA1E9B01AC01F50160817181828193810E940F1E0E94C51F7B018C010D
:201B2000B301882777FD8095982F0E94AA1E20E030E04AE754E40E940F1E20E030EC4FE7EE
:201B400054E40E940F1E2C8D3D8D4E8D5F8D0E945E1FA80197010E945E1F688B798B8A8BA9
:201B60009B8B80E090E0A0E0B0E0F50180839183A283B383288939894A895B89B901CA0148
:201B8000DF91CF911F910F91FF90EF90DF90CF90BF90AF909F908F907F906F905F904F9091
:201BA0003F902F9008952F923F924F925F926F927F928F929F92AF92BF92CF92DF92EF924D
:201BC000FF920F931F93DF93CF93CDB7DEB7AC970FB6F894DEBF0FBECDBF9C878B877E876F
:201BE0006D878A010E94D40C6F83788789879A870E946D166B017C01AB84BC8428E530E028
:201C0000A20EB31EC801AA2797FDA095BA2F8FA398A7A9A7BAA7AB85BC8554968C910E94BB
:201C2000FF178C01F501918380830E946D166C197D098E099F092FA138A549A55AA52617AE
:201C400037074807590728F0095B11400D36110510F70E946D1669837A838B839C831E828F
:201C60001D82222433244B855C85405C5F4F588F4F8B8B859C858C5B9F4F9A8F898FAB85F5
:201C8000BC85A85BBF4FBC8FAB8FEB85FC85E45BFF4FFE8FED8F2B853C85205B3F4F38A391
:201CA0002F8F4B855C854C5A5F4F5AA349A38B859C85865A9F4F9CA38BA3AB85BC85A55A9C
:201CC000BF4FBCA7ABA7EB85FC85E85AFF4FFEA3EDA31FC0E1E0ABA5BCA5EC9303C0ABA5AC
:201CE000BCA51C92B1E02B16310431F4EBA5FCA58081ABA1BCA18C93EBA1FCA19081ABA525
:201D0000BCA58C91981729F0ED81FE813196FE83ED832D813E814D855E85241735070CF043
:201D20001CC10E946D1629813A814B815C81621B730B840B950B2FA138A549A55AA5621756
:201D400073078407950708F008C10894211C311CAB85BC8596968D919C91979795969C938B
:201D60008E9394979A968D919C919B9799969C938E939897FD0180A991A9A2A9B3A984A789
:201D800095A7A6A7B7A780AD91ADA2ADB3AD84AB95ABA6ABB7AB84890E94FF17AB85BC85EA
:201DA00097969C938E93969756968C910E94FF177C01EB85FC8593A782A746A057A084A1E5
:201DC00095A1B201681B790B882777FD8095982F0E94AA1EAB85BC859C962D913D914D919D
:201DE0005C919F970E94A71D2BED39EF4EE75FE30E945E1F3B014C01EB85FC8560AB71ABE3
:201E000082AB93AB80A591A5E81AF90A0027F7FC0095102FC801B7010E94AA1EAB85BC85AD
:201E2000D4962D913D914D915C91D7970E94A71D2BED39EF4EE75FE30E945E1F5B016C016E
:201E4000EB85FC8560AF71AF82AF93AFC401B301A40193010E945E1F9B01AC01AF89B88D58
:201E60006D937D938D939C931397E98DFA8D60817181828193810E94A71DA98DBA8D6D938F
:201E80007D938D939C931397C601B501A60195010E945E1F9B01AC01EB8DFC8D608371833F
:201EA00082839383AD8DBE8D6D917D918D919C910E94A71DED8DFE8D6083718382839383CE
:201EC000AB85BC859C96ED90FD900D911C919F97C401B301A80197010E94A61DEB85FC85C4
:201EE00020A131A142A153A10E945E1F9B01AC01C801B7010E94A71DAB85BC85DC966D9346
:201F00007D938D939C93DF97A60195010E945E1F9B01AC01EF8DF8A1608371838283938340
:201F2000A9A1BAA16D917D918D919C910E94A71DE9A1FAA16083718382839383ABA5BCA577
:201F40008C91EBA1FCA18083ADA1BEA18D919C91841595050CF4BECEC2CEEF81F885BF0144
:201F6000882777FD8095982F0E94AA1E20E030E04AE754E40E940F1E20E030EC4FE754E426
:201F80000E940F1E7B018C01AB85BC8558962D913D914D915C915B970E945E1F6F87788BA9
:201FA000898B9A8BB101882777FD8095982F0E94AA1E5B016C01EB85FC85EC5BFF4FFC8BF7
:201FC000EB8B6081718182819381A60195010E940F1E0E94C51F9B01AC016F8578898989BF
:201FE0009A890E945E1F1B012C01AB85BC851C966D937D938D939C931F97C801B7015C96AB
:202000002D913D914D915C915F970E945E1F7B018C01EB85FC85E45BFF4FFE8BED8B6081EB
:20202000718182819381A60195010E940F1E0E94C51F9B01AC01C801B7010E945E1F3B01E0
:202040004C01AB85BC8550966D937D938D939C9353976F85788989899A89A80197010E9486
:202060005E1FEB85FC85EC5AFF4FFCA7EBA720813181428153810E945E1FA60195010E9441
:202080000F1E7B018C01AB85BC856D937D938D939C931397C201B101A40193010E945E1FC3
:2020A0009B01AC01EB85FC856483758386839783C801B7010E940F1EAB85BC8518966D9375
:2020C0007D938D939C931B9780E090E0A0E0B0E0EB89FC8980839183A283B383ED89FE89A7
:2020E00080839183A283B383EBA5FCA580839183A283B383AC960FB6F894DEBF0FBECDBF42
:20210000CF91DF911F910F91FF90EF90DF90CF90BF90AF909F908F907F906F905F904F900B
:202120003F902F900895FC0113861586148687E090E012863197009711F00197FACF0895DC
:20214000DC0180E00BC0E82FF0E08D9190E0E827F927E557FF4FE49161508E2F662399F74D
:202160000895DF92EF92FF920F931F93FC01E08001811281F894F80181818E298183828134
:20218000DE2CD0948D21828383E090E00E94D416F80181818D2181838AE090E00E94D416AC
:2021A000F8010081789485E390E00E94D41680E010E0FF240E211F21012B09F081E01F911D
:2021C0000F91FF90EF90DF900895EF92FF920F931F93CF93DF937C0101E010E0C0E0D0E06D
:2021E000C7010E94B1108111102B000F2196C830D105B1F7812FDF91CF911F910F91FF904C
:20220000EF9008951F93CF93DF93FC011081C181D281912F909560FF12C0F8948A818923A0
:202220008A838981812B89838AE090E00E94D4168A81812B8A83789487E390E011C0F89462
:202240008A8189238A838981812B898381E490E00E94D4168A81812B8A83789485E090E0F2
:202260000E94D416DF91CF911F910895CF92DF92EF92FF920F931F93CF93DF938C01E42E0A
:20228000FF24F394C0E0D0E0C62EDD2460E08F2D90E08C219D21892B09F061E0C8010E941F
:2022A0000211FF0C2196C830D10581F7EE20A9F4F894D8011196ED91FC91129791818C9169
:2022C0008095982391831196ED91FC91129792818C918095982392837894DF91CF911F911E
:2022E0000F91FF90EF90DF90CF9008956CEC40E00E9436110895EF92FF920F931F93CF93FF
:20230000DF938C017B0165E540E00E943611C0E0D0E0F701EC0FFD1FC801608140E00E9424
:2023200036112196C830D105A1F7DF91CF911F910F91FF90EF900895DF92EF92FF920F9349
:202340001F93CF93DF93FC010081C181D281F8948981D02ED0948D21898378941DE7E02E14
:20236000FF24115059F182E090E00E94D416888190E08E219F21892BA1F3F8948A818D21BC
:202380008A838981802B8983789480EE91E00E94D416F89489818D21898386E490E00E942C
:2023A000D416888110E090E0E822F922EF2809F411E078948AE991E00E94D416812FDF9104
:2023C000CF911F910F91FF90EF90DF900895AF92BF92DF92EF92FF920F931F93CF93DF93F6
:2023E000EC015B018D85882309F061C0CE010E949C11882329F41B861D861C8690E06BC056
:20240000CE0160EF40E00E94361101E0DD24EE24FF24F394CE010E94B110182FCE010E940D
:20242000B110113019F48130E1F439C0181709F58B85081770F460E0FE01EE0DF11D838102
:2024400090E02F2D30E082239323181619064CF003C060E0081729F0093008F04CC00C87B1
:202460004AC0FE01EE0DF11D83818F29838361E009C0612FFE01EE0DF11D9F2D90958381F1
:2024800089238383CE010E9402110F5FFF0C19F4E394FF24F39487E08E1508F0BBCF01349E
:2024A00030F0DB86DD2011F581E08D871FC01B861D861C8690E0DE0120E030E0F501E20F18
:2024C000F31F13968C91139780832F5F3F4F11962830310599F7892FDF91CF911F910F91BE
:2024E000FF90EF90DF90BF90AF9008958B818823F1F291E0E0CFD02EBDCFFF920F931F930B
:202500008C01F62E862F60E00E9419178F2D90E0FC01E354FE4FE491D801EC9387559E4F00
:20252000FC016491E62FF0E0EE0FFF1FE156FE4F8591949112969C938E9311971B961C92EB
:202540001B971D961C921D971C961C92F80187E090E012863197009711F00197FACF1F917B
:202560000F91FF900895FC018FE793E1928B818B768365831482108289E0818381E08283A3
:2025800083830895FC0184810895FC01628308956F927F928F929F92AF92BF92CF92DF92B2
:2025A000EF92FF920F931F93CF93DF93FB01EA01998180E0288130E0282B392BE081E2329B
:2025C00031F0E83221F0E03109F084C04BC04C814F3329F1403420F44F3109F07BC02FC0C2
:2025E0004F3579F04F3709F075C0B901882777FD8095982F0E94AA1E20E030E040E85DE39F
:202600002EC035952795B901882777FD8095982F0E94AA1E20E030E040E05EE320C0359508
:20262000279535952795B901882777FD8095982F0E94AA1E20E030E040E85EE310C093E079
:20264000359527959A95E1F7B901882777FD8095982F0E94AA1E20E030E040E05FE30E94B6
:202660005E1F32C0EF8035952795B901882777FD8095982F0E94AA1E20E030E040E85EE35A
:202680000E94A61D3B014C016E2D70E02E81621B7109882777FD8095982F0E94AA1E5B01F6
:2026A0006C01FF2400E010E0C801B7010E94A81E9B01AC01C601B5010E940F1E9B01AC01F3
:2026C000C401B3010E94A71D9B01AC01832F942F752F00C0262F382F492F572FB901CA01BA
:2026E000DF91CF911F910F91FF90EF90DF90CF90BF90AF909F908F907F906F9008950895BA
:20270000EF92FF920F931F938C017B01FC01858196810E949C11F80185819681B7010E9471
:202720007B11F8018581968164EB40E00E943611F801858196810E94B110F82EF801858101
:2027400096810E949C1180E0FF2009F481E01F910F91FF90EF900895EF92FF920F931F93D5
:20276000CF93DF93EC018B017A018D819E810E949C118D819E81B8010E947B118D819E81D4
:202780006EE440E00E9436118D819E81F701628140E00E9436118D819E81F701638140E0A4
:2027A0000E943611F8018081803139F08D819E81F701648140E00E9436118D819E810E947A
:2027C0009C118D819E8168E448810E9436118881882331F06AE070E080E090E00E947B16AF
:2027E0008D819E810E949C11DF91CF911F910F91FF90EF900895CF92DF92EF92FF920F930C
:202800001F938C016B017A01FC01858196810E949C11F80185819681B6010E947B11F80135
:20282000858196816EEB40E00E943611F801858196810E94E510F7018083F801858196815B
:202840000E94E510F7018183F801858196810E94E510F7018283F801858196810E94E5108E
:20286000F7018383F801858196810E94E510F7018483F801858196810E94E510F701858301
:20288000F801858196810E94E510F7018683F801858196810E94E510F7018783F8018581DC
:2028A00096810E94E510F7018087F801858196810E949C111F910F91FF90EF90DF90CF90DA
:2028C0000895DF93CF93CDB7DEB729970FB6F894DEBF0FBECDBFAE014F5F5F4F0E94FB13AC
:2028E0008981811181E029960FB6F894DEBF0FBECDBFCF91DF910895CF92DF92EF92FF9284
:202900000F931F93CF93DF93EC016B01452BE1F08B818823C9F088818823B1F40E946D1607
:202920007B018C01CE0160E070E00E946114882359F40E946D166E197F09800B910B6E5EF9
:2029400072408040904070F3F6016081693039F06930A0F06A3041F06B3081F40AC06EE517
:2029600070E080E090E00EC06CEB70E080E090E009C067E771E080E090E004C06EEE72E048
:2029800080E090E00E947B16DF91CF911F910F91FF90EF90DF90CF900895CF93DF93EC01DA
:2029A0008D819E810E949C118D819E810E9476118D819E8164E448810E9436118A81882368
:2029C00039F0CE012196BE0140E050E00E947C14DF91CF9108950F931F938A010E94FB130B
:2029E000C80168E00E94A01020E0F8019085891709F421E0822F1F910F910895CF92DF9258
:202A0000EF92FF920F931F93DF93CF93CDB7DEB729970FB6F894DEBF0FBECDBF8C017B0153
:202A20006E010894C11CD11CA6010E94EB14882329F460E070E08EEF92EC05C0C801B701E0
:202A4000A6010E94C81229960FB6F894DEBF0FBECDBFCF91DF911F910F91FF90EF90DF90B0
:202A6000CF900895DF93CF93CDB7DEB729970FB6F894DEBF0FBECDBF9C01FB01808180311B
:202A8000D9F0C901AE014F5F5F4F0E94EB148823A9F08D818F3371F0803418F48F3171F49D
:202AA0000BC08F3519F08F3749F402C08BE007C08CE005C08AE003C089E001C080E02996E0
:202AC0000FB6F894DEBF0FBECDBFCF91DF910895CF92DF92EF92FF921F93DF93CF93CDB754
:202AE000DEB729970FB6F894DEBF0FBECDBF6C017B01142FAE014F5F5F4F0E94EB148823B7
:202B0000E1F0F70180818031B9F01A3051F01A3050F01B3021F01C3031F48FE705C08FE500
:202B200003C08FE301C08FE18D83C601B701AE014F5F5F4F0E94AC1381E029960FB6F894C3
:202B4000DEBF0FBECDBFCF91DF911F91FF90EF90DF90CF9008950F931F938B01CB0167E093
:202B60000E94A01020E0F8019781891709F421E0822F1F910F910895AF92BF92CF92DF9252
:202B8000EF92FF920F931F93DF93CF93CDB7DEB761970FB6F894DEBF0FBECDBF7C01FC0129
:202BA000858196810E949310F70114826E010894C11CD11C79E0A72EB12CAC0EBD1E01E0CF
:202BC0002BC0C701B6010E94AB15882329F1F7018081882341F4C701B6010E94801388232C
:202BE00011F0F7010083C701B601A5010E94FB13F7011181C701B6010E943215811718F4EE
:202C0000F701818104C0C701B6010E943215F701818384818F5F8483F70185819681B601CC
:202C20000E94E711882369F661960FB6F894DEBF0FBECDBFCF91DF911F910F91FF90EF9084
:202C4000DF90CF90BF90AF9008951F920F920FB60F9211242F933F938F939F93AF93BF9312
:202C600080915B0690915C06A0915D06B0915E0630915F060196A11DB11D232F2D5F2D379B
:202C800020F02D570196A11DB11D20935F0680935B0690935C06A0935D06B0935E0680911E
:202CA000570690915806A0915906B0915A060196A11DB11D8093570690935806A093590661
:202CC000B0935A06BF91AF919F918F913F912F910F900FBE0F901F9018958FB7F8942091F7
:202CE0005B0630915C0640915D0650915E068FBFB901CA0108959B01AC017FB7F89480914B
:202D0000570690915806A0915906B0915A0666B5A89B05C06F3F19F00196A11DB11D7FBF6B
:202D2000BA2FA92F982F8827860F911DA11DB11D62E0880F991FAA1FBB1F6A95D1F7BC01D5
:202D40002DC0FFB7F8948091570690915806A0915906B0915A06E6B5A89B05C0EF3F19F04C
:202D60000196A11DB11DFFBFBA2FA92F982F88278E0F911DA11DB11DE2E0880F991FAA1F8A
:202D8000BB1FEA95D1F7861B970B885E9340C8F2215030404040504068517C4F211531057B
:202DA0004105510571F60895019739F0880F991F880F991F02970197F1F70895789484B519
:202DC000826084BD84B5816084BD85B5826085BD85B5816085BDEEE6F0E080818160808331
:202DE000E1E8F0E01082808182608083808181608083E0E8F0E0808181608083E1EBF0E0C4
:202E0000808184608083E0EBF0E0808181608083EAE7F0E0808184608083808182608083DB
:202E20008081816080838081806880831092C1000895CF93DF93482F50E0CA0183549E4FB7
:202E4000FC01349147555E4FFA018491882369F190E0880F991FFC01E557FE4FA591B49192
:202E6000FC01EB56FE4FC591D491662351F42FB7F8948C91932F909589238C938881892348
:202E80000BC0623061F42FB7F8948C91932F909589238C938881832B88832FBF06C09FB773
:202EA000F8948C91832B8C939FBFDF91CF910895482F50E0CA018F529E4FFC012491CA0114
:202EC00083549E4FFC01949147555E4FFA013491332309F440C0222351F1233071F0243021
:202EE00028F42130A1F0223011F514C02630B1F02730C1F02430D9F404C0809180008F772D
:202F000003C0809180008F7D8093800010C084B58F7702C084B58F7D84BD09C08091B000DD
:202F20008F7703C08091B0008F7D8093B000E32FF0E0EE0FFF1FEB56FE4FA591B4912FB74C
:202F4000F894662321F48C919095892302C08C91892B8C932FBF0895682F70E0CB018F5288
:202F60009E4FFC012491CB0183549E4FFC01449167557E4FFB019491992319F420E030E0CD
:202F80003CC0222351F1233071F0243028F42130A1F0223011F514C02630B1F02730C1F07D
:202FA0002430D9F404C0809180008F7703C0809180008F7D8093800010C084B58F7702C0D1
:202FC00084B58F7D84BD09C08091B0008F7703C08091B0008F7D8093B000892F90E0880FC9
:202FE000991F81569E4FFC01A591B4918C9120E030E0842311F021E030E0C9010895982FC9
:203000008E3008F09E50977080911C048295880F880F807C892B80937C0080917A008064E1
:2030200080937A0080917A0086FDFCCF2091780040917900942F80E030E0282B392BC90103
:203040000895823000F5E82FF0E0EE0FFF1FE05AF94F71836083882319F08130A1F408C00F
:20306000809169008C7F842B80936900E89A089580916900440F551F440F551F837F842BC8
:2030800080936900E99A0895823080F4882319F0813021F402C0E89801C0E998E82FF0E089
:2030A000EE0FFF1FE05AF94F1182108208951F920F920FB60F9211242F933F934F935F935C
:2030C0006F937F938F939F93AF93BF93EF93FF938091600690916106892B29F0E09160063D
:2030E000F09161060995FF91EF91BF91AF919F918F917F916F915F914F913F912F910F904B
:203100000FBE0F901F9018951F920F920FB60F9211242F933F934F935F936F937F938F935C
:203120009F93AF93BF93EF93FF938091620690916306892B29F0E0916206F0916306099584
:20314000FF91EF91BF91AF919F918F917F916F915F914F913F912F910F900FBE0F901F9055
:203160001895CF92DF92EF92FF920F931F93CF93DF937C016B018A01C0E0D0E00FC0D6012C
:203180006D916D01D701ED91FC910190F081E02DC7010995C80FD91F0150104001151105CF
:2031A00071F7CE01DF91CF911F910F91FF90EF90DF90CF900895EF92FF920F931F938C014C
:2031C000DC01ED91FC910190F081E02D6DE009957C01D801ED91FC910190F081E02DC801D4
:2031E0006AE009959C012E0D3F1DC9011F910F91FF90EF900895CF93DF93EC016115710541
:2032000019F420E030E00FC0DB010D900020E9F71197A61BB70BE881F9810280F381E02D38
:20322000AD0109959C01C901DF91CF9108954F925F927F928F929F92AF92BF92CF92DF92D5
:20324000EF92FF920F931F93DF93CF93CDB7DEB7A1970FB6F894DEBF0FBECDBF2C01742ECD
:20326000CB01223008F42AE019A231E2C32ED12CCC0EDD1E822E9924AA24BB24672D752F47
:20328000A50194010E94492079018A01C801B701A50194010E942A20472D461B0894C10801
:2032A000D1084A3014F4405D01C0495CF6014083E114F1040105110521F07E2C5F2DC801E0
:2032C000DDCFC201B6010E94FB18A1960FB6F894DEBF0FBECDBFCF91DF911F910F91FF90E6
:2032E000EF90DF90CF90BF90AF909F908F907F905F904F900895DC012115310541F4ED912F
:20330000FC910190F081E02D642F099508950E9417190895EF92FF920F931F939A01E62EBF
:20332000FF2400E010E0B801A7010E947B191F910F91FF90EF900895CF92DF92EF92FF9224
:203340000F931F93CF93DF93EC016A017B012115310541F4E881F9810190F081E02D642F4B
:2033600009951FC02A303105D1F477FF17C0E881F9810190F081E02D6DE209958C01442757
:203380005527BA014C195D096E097F09CE012AE00E9417199801280F391F04C02AE00E94E9
:2033A00017199C01C901DF91CF911F910F91FF90EF90DF90CF900895EF92FF920F931F9377
:2033C0007B019A010027F7FC0095102FB801A7010E949C191F910F91FF90EF900895CF92D4
:2033E000DF92EF92FF920F931F936C017B019A010027F7FC0095102FB801A7010E949C19CC
:203400008C01C6010E94DB18080F191FC8011F910F91FF90EF90DF90CF9008950E94FB182D
:2034200008957F928F929F92AF92BF92CF92DF92EF92FF920F931F93CF93DF934C017A0126
:203440008B01722ECB01BA01A80197010E940F20882321F0C40169E074E021C0C0E0D0E058
:2034600057016801E894D7F8C601B5012FEF3FEF4FE75FE70E940F20882351F4C601B501BD
:203480002FEF3FEF4FE75FE70E940B1E181614F0C1E0D0E0219739F0C4016DE074E00E942D
:2034A000FB18EC0193C0C801B7012FEF3FEF4FE75FE40E945A1F181654F0C801B7012FEF47
:2034C0003FEF4FE75FEC0E940B1E882324F4C40161E174E0E4CFC801B70120E030E040E0F0
:2034E00050E00E940B1E87FD03C0C0E0D0E00EC0D401ED91FC910190F081E02DC4016DE269
:203500000995EC0117FB109517F9109520E030E040E05FE3DD240BC0CA01B90120E030E0E1
:2035200040E251E40E940F1E9B01AC01D394D71498F3C801B7010E94A71D5B016C010E94ED
:203540007C1E7B018C01C401B801A7012AE030E00E947B19C80FD91F772039F0C40165E1B8
:2035600074E00E94FB18C80FD91FC801B7010E94A81E9B01AC01C601B5010E94A61D24C07B
:2035800020E030E040E251E40E945E1F7B018C010E94771E5B016C01CC24B7FCC094DC2C9D
:2035A000C401B601A5012AE030E00E949C19C80FD91FC601B5010E94AA1E9B01AC01C801B0
:2035C000B7010E94A61D7A947720D1F6CE01DF91CF911F910F91FF90EF90DF90CF90BF9048
:2035E000AF909F908F907F9008950E94111A0895EF92FF920F931F937C010E94111A8C01EB
:20360000C7010E94DB18080F191FC8011F910F91FF90EF900895EF92FF920F931F937C0157
:203620000E94FB188C01C7010E94DB18080F191FC8011F910F91FF90EF900895CF93DF9304
:203640000E94DE160E942404C9E6DBE10E9492012097E1F30E94691BF9CF08951F920F9202
:203660000FB60F9211242F933F934F938F939F93EF93FF938091C00082FD1DC04091C6000D
:203680002091A4063091A5062F5F3F4F2F7330708091A6069091A7062817390771F0E09129
:2036A000A406F091A506EC59F94F40833093A5062093A40602C08091C600FF91EF919F9140
:2036C0008F914F913F912F910F900FBE0F901F901895E091F806F091F906E05CFF4F819168
:2036E000919120813181821B930B8F739070892B11F00E942D1B08951F920F920FB60F9224
:2037000011242F933F938F939F93EF93FF932091E8063091E9068091EA069091EB062817D7
:20372000390731F48091C1008F7D8093C10014C0E091EA06F091EB06E855F94F2081809194
:20374000EA069091EB0601968F7390709093EB068093EA062093C600FF91EF919F918F91DE
:203760003F912F910F900FBE0F901F901895AF92BF92DF92EF92FF920F931F93CF93DF9315
:20378000EC017A018B01DD24403081EE580780E0680780E0780711F0DD24D39491E0A92E97
:2037A000B12CEC89FD89DD2069F0C50108A002C0880F991F0A94E2F7808360E079E08DE3D9
:2037C00090E005C0108260E874E88EE190E0A80197010E9449202150304040405040569577
:2037E00047953795279580E12030380720F0DD2011F0DD24D6CFE889F9893083EA89FB8924
:20380000208319A2EE89FF89408121E030E0C9010C8C02C0880F991F0A94E2F7482B408359
:20382000EE89FF894081C9010D8C02C0880F991F0A94E2F7482B4083EE89FF894081C9011D
:203840000E8C02C0880F991F0A94E2F7482B4083EE89FF8980810F8C02C0220F331F0A9492
:20386000E2F7209528232083DF91CF911F910F91FF90EF90DF90BF90AF900895CF93DF9330
:20388000DC011E968D919C911F97EC01C05CDF4FFC01EE5BFF4F2881398180819181281716
:2038A0003907C9F75696ED91FC915797408121E030E0C9015C960C905C9702C0880F991FF5
:2038C0000A94E2F78095842380835696ED91FC9157974081C9015D960C905D9702C0880F66
:2038E000991F0A94E2F78095842380835696ED91FC9157974081C9015E960C905E9702C023
:20390000880F991F0A94E2F78095842380835696ED91FC91579780815F960C905F9702C0F3
:20392000220F331F0A94E2F72095282320831C96ED91FC911D97EE5BFF4F808191819293AA
:203940008293DF91CF910895DC011C96ED91FC911D97E05CFF4F2191319180819181281B43
:20396000390B2F733070C9010895DC011C96ED91FC911D97E05CFF4F20813181E054F040CB
:20398000DF01AE5BBF4F8D919C9111972817390719F42FEF3FEF07C08D919C91E80FF91F44
:2039A0008081282F30E0C9010895DC011C96ED91FC911D97E05CFF4F20813181E054F040A9
:2039C000DF01AE5BBF4F8D919C9111972817390719F42FEF3FEF10C08D919C911197E80F6B
:2039E000F91F20818D919C91119701968F73907011969C938E9330E0C9010895DC01919610
:203A00008C919197882339F05496ED91FC915597808186FFF9CF91961C920895CF93DF9318
:203A2000EC01EE85FF85E05CFF4F20813181E054F0402F5F3F4F2F733070DF01AE5BBF4F0C
:203A40008D919C91119728173907D1F3E05CFF4F80819181E054F040E80FF91F6083EE85CA
:203A6000FF85E05CFF4F31832083EE89FF89208181E090E00F8C02C0880F991F0A94E2F74D
:203A8000282B208381E089A3EC89FD8980818064808381E090E0DF91CF91089581E0089584
:203AA0001092EF061092EE0688EE93E0A0E0B0E08093F0069093F106A093F206B093F30656
:203AC00081E294E09093ED068093EC0684E696E09093F9068093F80688EA96E09093FB06D5
:203AE0008093FA0685EC90E09093FD068093FC0684EC90E09093FF068093FE0680EC90E09C
:203B0000909301078093000781EC90E0909303078093020782EC90E090930507809304070F
:203B200086EC90E0909307078093060784E08093080783E08093090787E080930A0785E056
:203B400080930B0781E080930C0708955058BB27AA270ED075C166D130F06BD120F031F4E5
:203B60009F3F11F41EF45BC10EF4E095E7FB51C1E92F77D180F3BA1762077307840795071B
:203B800018F071F49EF58FC10EF4E0950B2EBA2FA02D0B01B90190010C01CA01A00111246A
:203BA000FF27591B99F0593F50F4503E68F11A16F040A22F232F342F4427585FF3CF46957A
:203BC00037952795A795F0405395C9F77EF41F16BA0B620B730B840BBAF09150A1F0FF0F39
:203BE000BB1F661F771F881FC2F70EC0BA0F621F731F841F48F4879577956795B795F795EB
:203C00009E3F08F0B3CF9395880F08F09927EE0F979587950895D9D008F481E008950CD075
:203C20000FC107D140F0FED030F021F45F3F19F0F0C0511139C1F3C014D198F39923C9F35B
:203C40005523B1F3951B550BBB27AA2762177307840738F09F5F5F4F220F331F441FAA1F84
:203C6000A9F333D00E2E3AF0E0E830D091505040E695001CCAF729D0FE2F27D0660F771F86
:203C8000881FBB1F261737074807AB07B0E809F0BB0B802DBF01FF2793585F4F2AF09E3FAD
:203CA000510568F0B6C000C15F3FECF3983EDCF3869577956795B795F7959F5FC9F7880FAD
:203CC000911D9695879597F90895E1E0660F771F881FBB1F621773078407BA0720F0621BA9
:203CE000730B840BBA0BEE1F88F7E095089504D06894B111D9C00895BCD088F09F5790F012
:203D0000B92F9927B751A0F0D1F0660F771F881F991F1AF0BA95C9F712C0B13081F0C3D068
:203D2000B1E00895C0C0672F782F8827B85F39F0B93FCCF3869577956795B395D9F73EF485
:203D400090958095709561957F4F8F4F9F4F0895E89409C097FB3EF49095809570956195B9
:203D60007F4F8F4F9F4F9923A9F0F92F96E9BB279395F695879577956795B795F111F8CFDF
:203D8000FAF4BB0F11F460FF1BC06F5F7F4F8F4F9F4F16C0882311F096E911C0772321F047
:203DA0009EE8872F762F05C0662371F096E8862F70E060E02AF09A95660F771F881FDAF7E4
:203DC000880F9695879597F90895990F0008550FAA0BE0E8FEEF16161706E807F907C0F072
:203DE00012161306E407F50798F0621B730B840B950B39F40A2661F0232B242B252B21F439
:203E000008950A2609F4A140A6958FEF811D811D089597F99F6780E870E060E008959FEFAC
:203E200080EC089500240A941616170618060906089500240A9412161306140605060895DF
:203E4000092E0394000C11F4882352F0BB0F40F4BF2B11F460FF04C06F5F7F4F8F4F9F4F1E
:203E6000089557FD9058440F551F59F05F3F71F04795880F97FB991F61F09F3F79F08795E9
:203E80000895121613061406551FF2CF4695F1DF08C0161617061806991FF1CF8695710512
:203EA000610508940895E894BB2766277727CB0197F908958ADF08F48FEF08950BD0C0CFF7
:203EC000B1DF28F0B6DF18F0952309F0A2CFA7CF1124EACFC6DFA0F3959FD1F3950F50E013
:203EE000551F629FF001729FBB27F00DB11D639FAA27F00DB11DAA1F649F6627B00DA11D2C
:203F0000661F829F2227B00DA11D621F739FB00DA11D621F839FA00D611D221F749F3327AD
:203F2000A00D611D231F849F600D211D822F762F6A2F11249F5750408AF0E1F088234AF06C
:203F4000EE0FFF1FBB1F661F771F881F91505040A9F79E3F510570F05CCFA6CF5F3FECF3E9
:203F6000983EDCF3869577956795B795F795E7959F5FC1F7FE2B880F911D9695879597F92A
:203F8000089511F40EF44BCF4EC073DFD0F39923D9F3CEF39F57550B87FF55D056959795DF
:203FA000B0E020F4660F771F881FBB1F1F930F9300249001A0018001F001A0E80E0F1F1FD2
:203FC0000A1E511D601B710B8009B50B48F4600F711F801DB51F0E1B1F0B0A0A510907C0D7
:203FE0002E0F3F1F4A1F0E0F1F1F0A1E511D660F771F881FBB1FA695F795E795F8F60617F2
:20400000170708065B07211D311D411D0F911F91B901842F9158880F969587950895D5DE54
:20402000880B990B08959F3F49F0915028F4869577956795B7959F5F80389F4F880F9695C3
:20404000879597F9089591505040660F771F881FD2F70895629FD001739FF001829FE00DAB
:20406000F11D649FE00DF11D929FF00D839FF00D749FF00D659FF00D9927729FB00DE11D4A
:20408000F91F639FB00DE11DF91FBD01CF0111240895A1E21A2EAA1BBB1BFD010DC0AA1FD9
:2040A000BB1FEE1FFF1FA217B307E407F50720F0A21BB30BE40BF50B661F771F881F991FAD
:2040C0001A9469F760957095809590959B01AC01BD01CF01089597FB092E05260ED057FD04
:2040E00004D0D7DF0AD0001C38F450954095309521953F4F4F4F5F4F0895F6F79095809541
:20410000709561957F4F8F4F9F4F0895EE0FFF1F0590F491E02D0994F894FFCF200074653B
:204120006D70657261747572653A2000656D6F6E5478205633204469736372657465205366
:20414000616D706C696E672056312E342052464D36394357004F70656E456E657267794D17
:204160006F6E69746F722E6F726700504F53542E2E2E2E2E776169742031307300435420A2
:20418000312043616C6962726174696F6E3A2000435420322043616C6962726174696F6E9B
:2041A0003A2000435420332043616C6962726174696F6E3A2000435420342043616C6962F3
:2041C000726174696F6E3A2000524D5320566F6C74616765206F6E2041432D4143204164FD
:2041E000617074657220696E7075742069733A207E00560041432D41432061646170746565
:2042000072206465746563746564202D205265616C20506F776572206D6561737572656D2D
:20422000656E747320656E61626C656400617373756D696E6720706F776572696E67206661
:20424000726F6D2041432D4143206164617074657220286A756D70657220636C6F73656445
:204260002900555341206D6F646520616374697661746564005663616C3A20005068617326
:20428000652053686966743A200041432D41432061646170746572204E4F54206465746538
:2042A00063746564202D204170706172656E7420506F776572206D6561737572656D656E37
:2042C000747320656E61626C656400417373756D696E672056524D5320746F206265200053
:2042E000417373756D696E6720706F776572696E672066726F6D2062617474657269657335
:20430000202F20355620555342202D20706F77657220736176696E67206D6F646520656E9F
:2043200061626C6564004E4F20435427732064657465637465642C2073616D706C696E678E
:204340002066726F6D204354312062792064656661756C7400435420312064657465637420
:2043600065640043542032206465746563746564004354203320646574656374656400439A
:20438000542034206465746563746564004465746563746564200020445331384232302EDF
:2043A0002E7573696E67207468697320666F722074656D70657261747572652072656164E0
:2043C000696E6700556E61626C6520746F2064657465637420445331384232302074656D82
:2043E00070657261747572652073656E736F720052464D3639435720496E69746961746556
:20440000643A20004E6F64653A200020467265713A20003433334D687A00204E6574776F00
:20442000726B3A20006E616E00696E66006F7666002E00297C86430A01000000000E1DB1FD
:2044400018A41CD51CB51CFE1C0020746F2064657465637420445331384232302074656DE2
:2044600070657261747572652073656E736F720052464D3639435720496E697469617465D5
:204480006E697469617465643A20004E6F64653A200020467265713A20003433334D687ABF
:2044A00000204E6574776F726B3A20006E616E00696E66006F7666002E00297C86430A012C
:2044C000000000003B1DDE18D11C021DE21C2B1D6520746F2064657465637420445331381B
:2044E0004232302074656D70657261747572652073656E736F720052464D36394357204939
:20450000FFFFFFFFFFFFFFFFFFFFFFFFFFFFFFFFFFFFFFFFFFFFFFFFFFFFFFFFFFFFFFFFBB
:20452000FFFFFFFFFFFFFFFFFFFFFFFFFFFFFFFFFFFFFFFFFFFFFFFFFFFFFFFFFFFFFFFF9B
:20454000FFFFFFFFFFFFFFFFFFFFFFFFFFFFFFFFFFFFFFFFFFFFFFFFFFFFFFFFFFFFFFFF7B
:20456000FFFFFFFFFFFFFFFFFFFFFFFFFFFFFFFFFFFFFFFFFFFFFFFFFFFFFFFFFFFFFFFF5B
:207E0000112484B714BE81FFF0D085E08093810082E08093C00088E18093C10086E08093FC
:207E2000C20080E18093C4008EE0C9D0259A86E020E33CEF91E0309385002093840096BBAD
:207E4000B09BFECF1D9AA8958150A9F7CC24DD2488248394B5E0AB2EA1E19A2EF3E0BF2E79
:207E6000A2D0813461F49FD0082FAFD0023811F0013811F484E001C083E08DD089C0823404
:207E800011F484E103C0853419F485E0A6D080C0853579F488D0E82EFF2485D0082F10E0A0
:207EA000102F00270E291F29000F111F8ED068016FC0863521F484E090D080E0DECF84364D
:207EC00009F040C070D06FD0082F6DD080E0C81680E7D80618F4F601B7BEE895C0E0D1E0ED
:207EE00062D089930C17E1F7F0E0CF16F0E7DF0618F0F601B7BEE89568D007B600FCFDCF1A
:207F0000A601A0E0B1E02C9130E011968C91119790E0982F8827822B932B1296FA010C016F
:207F200087BEE89511244E5F5F4FF1E0A038BF0751F7F601A7BEE89507B600FCFDCF97BE85
:207F4000E89526C08437B1F42ED02DD0F82E2BD03CD0F601EF2C8F010F5F1F4F84911BD0B8
:207F6000EA94F801C1F70894C11CD11CFA94CF0CD11C0EC0853739F428D08EE10CD085E9AE
:207F80000AD08FE07ACF813511F488E018D01DD080E101D065CF982F8091C00085FFFCCF0A
:207FA0009093C60008958091C00087FFFCCF8091C00084FD01C0A8958091C6000895E0E68F
:207FC000F0E098E1908380830895EDDF803219F088E0F5DFFFCF84E1DECF1F93182FE3DF47
:207FE0001150E9F7F2DF1F91089580E0E8DFEE27FF270994FFFFFFFFFFFFFFFFFFFF040425
:00000001FF
