:100000000C9462000C9450080C947D080C948A00A7
:100010000C948A000C948A000C9484020C948A003C
:100020000C948A000C948A000C948A000C948A0028
:100030000C948A000C948A000C948A000C948A0018
:100040000C94AA080C948A000C94B7090C94050A25
:100050000C948A000C948A000C948A000C948A00F8
:100060000C948A000C948A000000000024002700F1
:100070002A0000000000250028002B0000000000DE
:1000800023002600290004040404040404040202DA
:100090000202020203030303030301020408102007
:1000A0004080010204081020010204081020000012
:1000B0000007000201000003040600000000000029
:1000C0000000730B11241FBECFEFD8E0DEBFCDBF01
:1000D00011E0A0E0B1E0E4E5F2E202C005900D928B
:1000E000AC3EB107D9F714E0ACEEB1E001C01D920F
:1000F000AD37B107E1F710E0C4ECD0E004C02297BF
:10010000FE010E942411C23CD107C9F70E94C90B0D
:100110000C9428110C940000FB01DC0102C001903A
:100120000D9241505040D8F7089528EE33E0AC01CD
:10013000429FC001439F900D529F900D11240E9439
:10014000CF0508958FEF0E94A70480E064E673E076
:1001500048E00E94D20482E00E948A0480E00E946B
:10016000A704089580916D038823F9F08CEE91E047
:1001700068EC75E00E94610620E030E040E753E45F
:100180000E94FA0F0E94130F9B01AC01709365034C
:100190006093640380917103813039F48BE594E0BE
:1001A000B9014AE050E00E94030D80916E0388235C
:1001B000F9F08AE492E068EC75E00E94610620E0C4
:1001C00030E040E753E40E94FA0F0E94130F9B01B6
:1001D000AC01709367036093660380917103813073
:1001E00039F48BE594E0B9014AE050E00E94030D38
:1001F00080916F038823F9F088EA92E068EC75E05B
:100200000E94610620E030E040E753E40E94FA0FCC
:100210000E94130F9B01AC01709369036093680304
:1002200080917103813039F48BE594E0B9014AE0A3
:1002300050E00E94030D809170038823F9F086E05E
:1002400093E068EC75E00E94610620E030E040E752
:1002500053E40E94FA0F0E94130F9B01AC017093AC
:100260006B0360936A0380917103813039F48BE5ED
:1002700094E0B9014AE050E00E94030D80917103BF
:10028000813051F48BE594E00E94020C64E170E04F
:1002900080E090E00E94000980916C03882351F473
:1002A0000E94F208695873418040904018F081E044
:1002B00080936C0380916C03882331F00E94A2002C
:1002C0008AE090E00E949500089586E061E00E9437
:1002D000340786E061E00E9473078AE061E042ED46
:1002E0000E941F0580E00E94A70481E00E949409FB
:1002F000181619061CF481E080936D0382E00E94B9
:100300009409181619061CF481E080936E0383E0AB
:100310000E949409181619061CF481E080936F035B
:1003200084E00E949409181619061CF481E0809359
:1003300070038BE594E00E94710B882321F081E02B
:100340008093710302C01092710380917103813018
:1003500009F097C08BE594E040E855E260E070E07A
:100360000E94400A8BE594E060E071E00E942F0E4D
:100370008BE594E06FE171E00E942F0E8BE594E035
:1003800065E371E00E94350D8BE594E060EF4AE093
:1003900050E00E94B10C8BE594E069E471E00E94AA
:1003A0002F0E8BE594E06BE471E00E94350D8BE538
:1003B00094E049E155E86BEA72E422E030E00E9403
:1003C0001C0E8BE594E060E671E00E94350D8BE534
:1003D00094E04EEA57E465E871E422E030E00E94E0
:1003E0001C0E80916D03882331F08BE594E063E768
:1003F00071E00E942F0E80916E03882331F08BE50F
:1004000094E061E871E00E942F0E80916F038823D1
:1004100031F08BE594E06FE871E00E942F0E80913F
:100420007003882331F08BE594E06DE971E00E9460
:100430002F0E8BE594E06BEA71E00E94350D8BE5A1
:1004400094E06AE070E04AE050E00E94030D8BE522
:1004500094E062EB71E00E94350D8BE594E06AEB6D
:1004600071E00E94350D8BE594E061EC71E00E9433
:10047000350D8BE594E062ED70E04AE050E00E94BB
:10048000160D80916D03882351F08CEE91E061E0B0
:1004900070E029E135E84BEA52E40E942D06809194
:1004A0006E03882351F08AE492E062E070E029E173
:1004B00035E84BEA52E40E942D0680916F038823B1
:1004C00051F088EA92E063E070E029E135E84BEA18
:1004D00052E40E942D0680917003882351F086E03B
:1004E00093E064E070E02EEA37E445E851E40E94CE
:1004F0002D0668E873E180E090E00E94000986E044
:1005000060E00E94730708951F920F920FB60F923A
:1005100011242F933F934F935F936F937F938F9308
:100520009F93AF93BF93EF93FF930E942706FF9192
:10053000EF91BF91AF919F918F917F916F915F915B
:100540004F913F912F910F900FBE0F901F901895D4
:10055000782F8CB581608CBD6BB121E030E040E03C
:1005600050E00090DA0104C0220F331F441F551FD2
:100570000A94D2F7522F822F809586238BB99EBD85
:100580000DB407FEFDCF8EB57EBD0DB407FEFDCFC9
:100590004EB5382F20E08BB1582B5BB98CB58E7FD0
:1005A0008CBD50E0422B532BCA010895E9980E945C
:1005B000A802E99A089580E090E00E94A802809144
:1005C000C203853009F054C080E090EB0E94A8027D
:1005D000282F8091C403882371F49091C303992339
:1005E00051F08091C403E82FF0E0EC58FC4F908369
:1005F0008F5F8093C4038091C403E82FF0E0EC5830
:10060000FC4F20838F5F8093C4038091720390918D
:1006100073038227282F22952827022E26952695B8
:100620002025022E269520252770082E892F269515
:1006300007942795902D8227069427959025822749
:100640009093730380937203809176032091C40387
:1006500090E0049630E0821793072CF08091C40359
:10066000873408F46DC08DE092E80E94A8020895D6
:100670008091C20387FF2EC0E09176038091C20370
:100680008F5F8093C2038150ED5FE80FF0E0EC587C
:10069000FC4FE08180917203909173038E27282F85
:1006A00022952827022E269526952025022E26956E
:1006B00020252770082E892F269507942795902DA1
:1006C0008227069427959025822790937303809321
:1006D000720330C08091C2038F5F8093C203815048
:1006E000833019F184302CF4882399F0813009F596
:1006F00016C0893019F08A30E1F402C0EDE21AC068
:10070000E091C303909176038EEF891B8093C2031F
:1007100011C08091720390917303E82F0BC08091F8
:10072000720390917303E92F05C08DE092E80E9457
:10073000A802EAEA8E2F90E0805098440E94A80216
:1007400008958091C203853009F042C080917603FC
:100750002091C40390E0049630E08217930724F0C0
:100760008091C4038734A0F184E08093C203809118
:100770007603833430F081E090E0909373038093AC
:1007800072038091750386FF12C08091C103282FE8
:1007900030E0C9018F7190704F9749F080917503D7
:1007A00090E0822793278F719070892B89F4809134
:1007B000720390917303892B09F044C0E091BF0349
:1007C000F091C003309709F43DC080E0099546C020
:1007D0008091C203843011F080E008951092760376
:1007E000809176038093C4038FEF9FEF9093730300
:1007F000809372032091C3032223D9F08227282FEC
:1008000022952827022E269526952025022E26950C
:1008100020252770082E892F269507942795902D3F
:1008200082270694279590258227909373038093BF
:10083000720385E08093C2038DED92E80E94A802C6
:1008400080E008958FEF9FEFAFEFBFEF8093BB0382
:100850009093BC03A093BD03B093BE0381E00895C1
:100860008091C203853099F48091C403882379F480
:1008700080E090E00E94D60290FD09C08DE092E8F1
:100880000E94D60284E08093C20381E0089580E054
:100890000895982F86FD05C0907E8091C1038F71C9
:1008A000980F90937503E091BF03F091C0033097C8
:1008B00011F081E009958FEF9FEF90937303809380
:1008C000720380917203909173032091C303822776
:1008D000282F22952827022E269526952025022EA0
:1008E000269520252770082E892F26950794279571
:1008F000902D822706942795902582279093730345
:100900008093720386E08093C2038DE392E80E9495
:10091000A8020895282F16C02223A1F093B72330F0
:1009200011F484E005C0223011F080E001C08CE0B9
:10093000917F892B83BF83B7816083BF889583B7FD
:100940008E7F83BF8091C203843031F708951F9357
:10095000182F87FF03C08DE092E80EC0992787FD0E
:100960009095956E0E94D60285E092E80E94D6028C
:10097000112321F087E092E80E94D60284E0809360
:10098000C2031F9108951F93182F4093760327E702
:1009900033E0C90150E00E948C00812F0E9449047D
:1009A0001F9108950F931F93CF93DF93182FEB019F
:1009B000042F02C00E94A1030E9430048823D1F3B7
:1009C000812FBE01402F0E94C304DF91CF911F9160
:1009D0000F9108952BB181E090E0A0E0B0E000908D
:1009E000DA0104C0880F991FAA1FBB1F0A94D2F70F
:1009F000282B2BB92AB1822B8AB98AE061E00E94A8
:100A000073078AE061E00E9434078BE061E00E9496
:100A100034078CE060E00E9434078DE061E00E94C2
:100A2000340780E58CBD8DB581608DBD83E060E0CD
:100A30000E94340783E061E00E94730708951F93CA
:100A4000162F8093C1034093C3030E94EA0480E001
:100A500090E00E94A80285E092E80E94A80280E04F
:100A600098EB02C080E090E00E94A80283E00E9420
:100A7000C707892BB9F3812F90E074E0880F991F85
:100A80007A95E1F7876C90680E94A80280E496EA64
:100A90000E94A80286E096EC0E94A80282EA90E9F1
:100AA0000E94A8028CEA92EC0E94A8021091C30353
:100AB000112341F083E89AEC0E94A802812F90E074
:100AC0009E6C06C08BE89AEC0E94A8028DE29EEC18
:100AD0000E94A80283E894EC0E94A80280E598E9AD
:100AE0000E94A80287E79CEC0E94A80280E090EE9A
:100AF0000E94A80280E098EC0E94A80289E490EC91
:100B00000E94A80284E08093C2038091C10390E018
:100B10008F719070892B41F081E06BED72E040E0C5
:100B200050E00E941A0803C081E00E943D088091B5
:100B3000C1031F910895982F83FF02C088E2982770
:100B400097FF02C090E001C0906484B7877F84BFA4
:100B5000F8948091600088618093600090936000B9
:100B600078940895EAE7F0E0908180818F77808320
:100B700083B7817F846083BFF89483B7816083BF2C
:100B800085B7806685BF85B78F79806485BF789487
:100B9000889583B78E7F83BF90937A000895CF9214
:100BA000DF92EF92FF921F93CF93DF937C01EC01D2
:100BB00058E0C52ED12C20C01F5F193029F0969522
:100BC000879580329105C0F71092C503812F0E944E
:100BD0009B050E94B2058FEF0E949B05960102C003
:100BE000220F331F1A95E2F7C21BD30B8091C50366
:100BF000882351F0C21BD30BC031D10510F461E042
:100C000004C0CE0110E0DDCF60E02091CE03309132
:100C1000CF034091D0035091D103EC1AFD0AC701D4
:100C2000A0E0B0E0820F931FA41FB51F8093CE03F6
:100C30009093CF03A093D003B093D103862FDF917D
:100C4000CF911F91FF90EF90DF90CF90089580910A
:100C5000C5038F5F8093C5030895FC01778B668B76
:100C6000248F358F468F578F08958EE480937C00B4
:100C700062E070E080E090E00E94000980917A00DC
:100C8000806480937A0080917A0086FDFCCF809109
:100C9000780090E0A0E0B0E060917900362F20E08D
:100CA000442737FD4095542F282B392B4A2B5B2B9B
:100CB00060E070E381E190E00E940711CA01B90190
:100CC00008952F923F924F925F926F927F928F92F0
:100CD0009F92AF92BF92CF92DF92EF92FF920F93CB
:100CE0001F93CF93DF93EC012B010E9435063B014C
:100CF0004C01CC24DD249CE4A92EB12CAC0EBD1EED
:100D000088E4282E312C2C0E3D1E53C08AA59BA5AD
:100D100099A788A78E890E9494099BA78AA7E8AC07
:100D2000F9AC0AAD1BADECAAFDAA0EAB1FABAA270E
:100D300097FDA095BA2FBC01CD010E94460F9B01E3
:100D4000AC01C801B7010E94430E7B018C0168A56C
:100D500079A5882777FD8095982F0E94460F9B01E3
:100D6000AC01C801B7010E94420E2BED39EF4EE7EE
:100D70005FE30E94FA0F9B01AC0168AF79AF8AAFC5
:100D80009BAF0E94FA0F9B01AC01F101608371835C
:100D900082839383F50160817181828193810E94B6
:100DA000430EF50160837183828393830894C11C91
:100DB000D11CC414D5040CF4A9CFB201882777FD47
:100DC0008095982F0E94460F9B01AC01F501608130
:100DD0007181828193810E94AB0E0E9461107B0120
:100DE0008C01B301882777FD8095982F0E94460FCC
:100DF00020E030E04AE754E40E94AB0E20E030EC03
:100E00004FE754E40E94AB0E2C8D3D8D4E8D5F8DCF
:100E10000E94FA0FA80197010E94FA0F688B798B44
:100E20008A8B9B8B80E090E0A0E0B0E0F5018083AE
:100E30009183A283B383288939894A895B89B9015F
:100E4000CA01DF91CF911F910F91FF90EF90DF903A
:100E5000CF90BF90AF909F908F907F906F905F905A
:100E60004F903F902F900895CF93DF93482F50E0FD
:100E7000CA0186569F4FFC0134914A575F4FFA01D1
:100E80008491882369F190E0880F991FFC01E8594B
:100E9000FF4FA591B491FC01EE58FF4FC591D4913D
:100EA000662351F42FB7F8948C91932F9095892352
:100EB0008C93888189230BC0623061F42FB7F8943A
:100EC0008C91932F909589238C938881832B888391
:100ED0002FBF06C09FB7F8948C91832B8C939FBF34
:100EE000DF91CF910895482F50E0CA0182559F4F5E
:100EF000FC012491CA0186569F4FFC0194914A57E8
:100F00005F4FFA013491332309F440C0222351F199
:100F1000233071F0243028F42130A1F0223011F573
:100F200014C02630B1F02730C1F02430D9F404C009
:100F3000809180008F7703C0809180008F7D8093A7
:100F4000800010C084B58F7702C084B58F7D84BDCA
:100F500009C08091B0008F7703C08091B0008F7D71
:100F60008093B000E32FF0E0EE0FFF1FEE58FF4F2D
:100F7000A591B4912FB7F894662321F48C919095A4
:100F8000892302C08C91892B8C932FBF0895682FE1
:100F900070E0CB0182559F4FFC012491CB01865616
:100FA0009F4FFC0144916A577F4FFB019491992315
:100FB00019F420E030E03CC0222351F1233071F0DD
:100FC000243028F42130A1F0223011F514C026304D
:100FD000B1F02730C1F02430D9F404C080918000F2
:100FE0008F7703C0809180008F7D8093800010C038
:100FF00084B58F7702C084B58F7D84BD09C0809190
:10100000B0008F7703C08091B0008F7D8093B000D7
:10101000892F90E0880F991F84589F4FFC01A5915C
:10102000B4918C9120E030E0842311F021E030E095
:10103000C9010895823000F5E82FF0E0EE0FFF1FA0
:10104000EA53FC4F71836083882319F08130A1F447
:1010500008C0809169008C7F842B80936900E89A96
:10106000089580916900440F551F440F551F837FD9
:10107000842B80936900E99A0895823080F4882354
:1010800019F0813021F402C0E89801C0E998E82FF6
:10109000F0E0EE0FFF1FEA53FC4F1182108208951B
:1010A0001F920F920FB60F9211242F933F934F93DD
:1010B0005F936F937F938F939F93AF93BF93EF93C0
:1010C000FF938091C6039091C703892B29F0E0918B
:1010D000C603F091C7030995FF91EF91BF91AF91BE
:1010E0009F918F917F916F915F914F913F912F9140
:1010F0000F900FBE0F901F9018951F920F920FB672
:101100000F9211242F933F934F935F936F937F938D
:101110008F939F93AF93BF93EF93FF938091C803F7
:101120009091C903892B29F0E091C803F091C9037C
:101130000995FF91EF91BF91AF919F918F917F9111
:101140006F915F914F913F912F910F900FBE0F9034
:101150001F9018951F920F920FB60F9211242F9384
:101160003F938F939F93AF93BF938091CE039091C2
:10117000CF03A091D003B091D1033091D203019657
:10118000A11DB11D232F2D5F2D3720F02D57019666
:10119000A11DB11D2093D2038093CE039093CF0362
:1011A000A093D003B093D1038091CA039091CB0355
:1011B000A091CC03B091CD030196A11DB11D8093E8
:1011C000CA039093CB03A093CC03B093CD03BF91FC
:1011D000AF919F918F913F912F910F900FBE0F90E4
:1011E0001F9018958FB7F8942091CE033091CF03BC
:1011F0004091D0035091D1038FBFB901CA01089526
:101200009B01AC017FB7F8948091CA039091CB0306
:10121000A091CC03B091CD0366B5A89B05C06F3FEC
:1012200019F00196A11DB11D7FBFBA2FA92F982FCC
:101230008827860F911DA11DB11D62E0880F991F9F
:10124000AA1FBB1F6A95D1F7BC012DC0FFB7F89448
:101250008091CA039091CB03A091CC03B091CD03B0
:10126000E6B5A89B05C0EF3F19F00196A11DB11D81
:10127000FFBFBA2FA92F982F88278E0F911DA11D70
:10128000B11DE2E0880F991FAA1FBB1FEA95D1F795
:10129000861B970B885E9340C8F221503040404037
:1012A000504068517C4F211531054105510571F6BB
:1012B0000895789484B5826084BD84B5816084BDCE
:1012C00085B5826085BD85B5816085BDEEE6F0E0BF
:1012D000808181608083E1E8F0E01082808182601B
:1012E0008083808181608083E0E8F0E0808181609C
:1012F0008083E1EBF0E0808184608083E0EBF0E0CC
:10130000808181608083EAE7F0E08081846080836F
:101310008081826080838081816080838081806819
:1013200080831092C1000895982F8E3008F09E504F
:1013300097708091DB018295880F880F807C892BC4
:1013400080937C0080917A00806480937A00809101
:101350007A0086FDFCCF2091780040917900942F8F
:1013600080E030E0282B392BC901089508951F92A1
:101370000F920FB60F9211242F933F934F938F9399
:101380009F93EF93FF938091C00082FD1DC0409119
:10139000C60020911304309114042F5F3F4F2F7328
:1013A000307080911504909116042817390771F058
:1013B000E0911304F0911404ED52FC4F40833093FC
:1013C00014042093130402C08091C600FF91EF9192
:1013D0009F918F914F913F912F910F900FBE0F9042
:1013E0001F901895E0916704F0916804E05CFF4F4E
:1013F0008191919120813181821B930B8F73907029
:10140000892B11F00E94B60908951F920F920FB612
:101410000F9211242F933F938F939F93EF93FF93FA
:1014200020915704309158048091590490915A04A6
:101430002817390731F48091C1008F7D8093C10056
:1014400014C0E0915904F0915A04E95EFB4F2081E9
:101450008091590490915A0401968F7390709093E3
:101460005A04809359042093C600FF91EF919F91F5
:101470008F913F912F910F900FBE0F901F90189555
:10148000AF92BF92DF92EF92FF920F931F93CF9391
:10149000DF93EC017A018B01DD24403081EE5807A7
:1014A00080E0680780E0780711F0DD24D39491E0B4
:1014B000A92EB12CEC89FD89DD2069F0C50108A0B9
:1014C00002C0880F991F0A94E2F7808360E079E0F8
:1014D0008DE390E005C0108260E874E88EE190E052
:1014E000A80197010E94E510215030404040504033
:1014F000569547953795279580E12030380720F09D
:10150000DD2011F0DD24D6CFE889F9893083EA891E
:10151000FB89208319A2EE89FF89408121E030E018
:10152000C9010C8C02C0880F991F0A94E2F7482B5E
:101530004083EE89FF894081C9010D8C02C0880F6C
:10154000991F0A94E2F7482B4083EE89FF89408176
:10155000C9010E8C02C0880F991F0A94E2F7482B2C
:101560004083EE89FF8980810F8C02C0220F331FD8
:101570000A94E2F7209528232083DF91CF911F91D1
:101580000F91FF90EF90DF90BF90AF900895DC0136
:101590001C96ED91FC911D97E05CFF4F21913191DC
:1015A00080819181281B390B2F733070C9010895F8
:1015B000DC011C96ED91FC911D97E05CFF4F2081B2
:1015C0003181E054F040DF01AE5BBF4F8D919C91C3
:1015D00011972817390719F42FEF3FEF07C08D91A6
:1015E0009C91E80FF91F8081282F30E0C9010895F0
:1015F000DC011C96ED91FC911D97E05CFF4F208172
:101600003181E054F040DF01AE5BBF4F8D919C9182
:1016100011972817390719F42FEF3FEF10C08D915C
:101620009C911197E80FF91F20818D919C91119742
:1016300001968F73907011969C938E9330E0C90140
:101640000895DC0191968C919197882339F05496F6
:10165000ED91FC915597808186FFF9CF91961C9270
:101660000895CF93DF93EC01EE85FF85E05CFF4F9B
:1016700020813181E054F0402F5F3F4F2F73307055
:10168000DF01AE5BBF4F8D919C91119728173907F1
:10169000D1F3E05CFF4F80819181E054F040E80F8E
:1016A000F91F6083EE85FF85E05CFF4F3183208367
:1016B000EE89FF89208181E090E00F8C02C0880FC5
:1016C000991F0A94E2F7282B208381E089A3EC89F3
:1016D000FD8980818064808381E090E0DF91CF91FB
:1016E000089581E0089510925E0410925D0488EEE2
:1016F00093E0A0E0B0E080935F0490936004A09337
:101700006104B093620480EE91E090935C04809356
:101710005B0483ED93E0909368048093670487E112
:1017200094E090936A048093690485EC90E0909330
:101730006C0480936B0484EC90E090936E0480932F
:101740006D0480EC90E09093700480936F0481ECC2
:1017500090E0909372048093710482EC90E09093F7
:1017600074048093730486EC90E0909376048093E5
:10177000750484E08093770483E08093780487E0A5
:101780008093790485E080937A0481E080937B04E0
:101790000895CF93DF930E9459090E946501C2EF1B
:1017A000D9E00E94B2002097E1F30E94F209F9CF3C
:1017B000CF92DF92EF92FF920F931F93CF93DF931D
:1017C0007C016B018A01C0E0D0E00FC0D6016D91B1
:1017D0006D01D701ED91FC910190F081E02DC701E1
:1017E0000995C80FD91F015010400115110571F757
:1017F000CE01DF91CF911F910F91FF90EF90DF907D
:10180000CF900895EF92FF920F931F938C01DC010C
:10181000ED91FC910190F081E02D6DE009957C0146
:10182000D801ED91FC910190F081E02DC8016AE0B2
:1018300009959C012E0D3F1DC9011F910F91FF902D
:10184000EF900895CF93DF93EC016115710519F4C2
:1018500020E030E00FC0DB010D900020E9F7119788
:10186000A61BB70BE881F9810280F381E02DAD0161
:1018700009959C01C901DF91CF9108954F925F9224
:101880007F928F929F92AF92BF92CF92DF92EF9210
:10189000FF920F931F93DF93CF93CDB7DEB7A1973E
:1018A0000FB6F894DEBF0FBECDBF2C01742ECB0156
:1018B000223008F42AE019A231E2C32ED12CCC0E3A
:1018C000DD1E822E9924AA24BB24672D752FA50125
:1018D00094010E94E51079018A01C801B701A501B0
:1018E00094010E94C610472D461B0894C108D108D8
:1018F0004A3014F4405D01C0495CF6014083E114B4
:10190000F1040105110521F07E2C5F2DC801DDCF0A
:10191000C201B6010E94220CA1960FB6F894DEBF58
:101920000FBECDBFCF91DF911F910F91FF90EF9030
:10193000DF90CF90BF90AF909F908F907F905F90FF
:101940004F900895DC012115310541F4ED91FC9192
:101950000190F081E02D642F099508950E943E0CBE
:101960000895EF92FF920F931F939A01E62EFF24A2
:1019700000E010E0B801A7010E94A20C1F910F9196
:10198000FF90EF900895CF92DF92EF92FF920F9326
:101990001F93CF93DF93EC016A017B012115310581
:1019A00041F4E881F9810190F081E02D642F0995DF
:1019B0001FC02A303105D1F477FF17C0E881F981C3
:1019C0000190F081E02D6DE209958C0144275527A7
:1019D000BA014C195D096E097F09CE012AE00E9407
:1019E0003E0C9801280F391F04C02AE00E943E0CCB
:1019F0009C01C901DF91CF911F910F91FF90EF9052
:101A0000DF90CF900895EF92FF920F931F937B0189
:101A10009A010027F7FC0095102FB801A7010E943A
:101A2000C30C1F910F91FF90EF900895CF92DF921A
:101A3000EF92FF920F931F936C017B019A01002795
:101A4000F7FC0095102FB801A7010E94C30C8C0170
:101A5000C6010E94020C080F191FC8011F910F91A7
:101A6000FF90EF90DF90CF9008950E94220C089590
:101A70007F928F929F92AF92BF92CF92DF92EF921E
:101A8000FF920F931F93CF93DF934C017A018B0149
:101A9000722ECB01BA01A80197010E94AB108823D6
:101AA00021F0C4016CEC71E021C0C0E0D0E057012E
:101AB0006801E894D7F8C601B5012FEF3FEF4FE773
:101AC0005FE70E94AB10882351F4C601B5012FEFE8
:101AD0003FEF4FE75FE70E94A70E181614F0C1E032
:101AE000D0E0219739F0C40160ED71E00E94220C32
:101AF000EC0193C0C801B7012FEF3FEF4FE75FE460
:101B00000E94F60F181654F0C801B7012FEF3FEFEF
:101B10004FE75FEC0E94A70E882324F4C40164ED14
:101B200071E0E4CFC801B70120E030E040E050E0D0
:101B30000E94A70E87FD03C0C0E0D0E00EC0D40114
:101B4000ED91FC910190F081E02DC4016DE20995C9
:101B5000EC0117FB109517F9109520E030E040E0FC
:101B60005FE3DD240BC0CA01B90120E030E040E2B0
:101B700051E40E94AB0E9B01AC01D394D71498F3AF
:101B8000C801B7010E94430E5B016C010E94180F4F
:101B90007B018C01C401B801A7012AE030E00E945A
:101BA000A20CC80FD91F772039F0C40168ED71E08D
:101BB0000E94220CC80FD91FC801B7010E94440F10
:101BC0009B01AC01C601B5010E94420E24C020E079
:101BD00030E040E251E40E94FA0F7B018C010E9448
:101BE000130F5B016C01CC24B7FCC094DC2CC40146
:101BF000B601A5012AE030E00E94C30CC80FD91F2E
:101C0000C601B5010E94460F9B01AC01C801B70196
:101C10000E94420E7A947720D1F6CE01DF91CF91C7
:101C20001F910F91FF90EF90DF90CF90BF90AF90FA
:101C30009F908F907F900895EF92FF920F931F9344
:101C40007C010E94380D8C01C7010E94020C080F14
:101C5000191FC8011F910F91FF90EF900895EF9207
:101C6000FF920F931F937C010E94220C8C01C701ED
:101C70000E94020C080F191FC8011F910F91FF90BD
:101C8000EF9008955058BB27AA270ED075C166D192
:101C900030F06BD120F031F49F3F11F41EF45BC1A2
:101CA0000EF4E095E7FB51C1E92F77D180F3BA1725
:101CB000620773078407950718F071F49EF58FC1CA
:101CC0000EF4E0950B2EBA2FA02D0B01B901900157
:101CD0000C01CA01A0011124FF27591B99F0593F9B
:101CE00050F4503E68F11A16F040A22F232F342FE3
:101CF0004427585FF3CF469537952795A795F04031
:101D00005395C9F77EF41F16BA0B620B730B840B45
:101D1000BAF09150A1F0FF0FBB1F661F771F881FFD
:101D2000C2F70EC0BA0F621F731F841F48F4879555
:101D300077956795B795F7959E3F08F0B3CF939544
:101D4000880F08F09927EE0F979587950895D9D0B9
:101D500008F481E008950CD00FC107D140F0FED007
:101D600030F021F45F3F19F0F0C0511139C1F3C0D8
:101D700014D198F39923C9F35523B1F3951B550B4F
:101D8000BB27AA2762177307840738F09F5F5F4F4E
:101D9000220F331F441FAA1FA9F333D00E2E3AF08F
:101DA000E0E830D091505040E695001CCAF729D0A9
:101DB000FE2F27D0660F771F881FBB1F26173707F8
:101DC0004807AB07B0E809F0BB0B802DBF01FF2728
:101DD00093585F4F2AF09E3F510568F0B6C000C18E
:101DE0005F3FECF3983EDCF3869577956795B79562
:101DF000F7959F5FC9F7880F911D9695879597F97D
:101E00000895E1E0660F771F881FBB1F62177307F5
:101E10008407BA0720F0621B730B840BBA0BEE1F0A
:101E200088F7E095089504D06894B111D9C0089559
:101E3000BCD088F09F5790F0B92F9927B751A0F0E8
:101E4000D1F0660F771F881F991F1AF0BA95C9F74E
:101E500012C0B13081F0C3D0B1E00895C0C0672F87
:101E6000782F8827B85F39F0B93FCCF386957795FE
:101E70006795B395D9F73EF49095809570956195E7
:101E80007F4F8F4F9F4F0895E89409C097FB3EF412
:101E900090958095709561957F4F8F4F9F4F9923B7
:101EA000A9F0F92F96E9BB279395F6958795779535
:101EB0006795B795F111F8CFFAF4BB0F11F460FFF5
:101EC0001BC06F5F7F4F8F4F9F4F16C0882311F04D
:101ED00096E911C0772321F09EE8872F762F05C061
:101EE000662371F096E8862F70E060E02AF09A95FC
:101EF000660F771F881FDAF7880F9695879597F9F1
:101F00000895990F0008550FAA0BE0E8FEEF16168A
:101F10001706E807F907C0F012161306E407F507DD
:101F200098F0621B730B840B950B39F40A2661F051
:101F3000232B242B252B21F408950A2609F4A140F4
:101F4000A6958FEF811D811D089597F99F6780E801
:101F500070E060E008959FEF80EC089500240A94FB
:101F60001616170618060906089500240A94121674
:101F70001306140605060895092E0394000C11F4A7
:101F8000882352F0BB0F40F4BF2B11F460FF04C054
:101F90006F5F7F4F8F4F9F4F089557FD9058440FAD
:101FA000551F59F05F3F71F04795880F97FB991FB8
:101FB00061F09F3F79F08795089512161306140675
:101FC000551FF2CF4695F1DF08C016161706180602
:101FD000991FF1CF86957105610508940895E894DD
:101FE000BB2766277727CB0197F908958ADF08F486
:101FF0008FEF08950BD0C0CFB1DF28F0B6DF18F017
:10200000952309F0A2CFA7CF1124EACFC6DFA0F312
:10201000959FD1F3950F50E0551F629FF001729F7D
:10202000BB27F00DB11D639FAA27F00DB11DAA1F9C
:10203000649F6627B00DA11D661F829F2227B00DE9
:10204000A11D621F739FB00DA11D621F839FA00D74
:10205000611D221F749F3327A00D611D231F849FC4
:10206000600D211D822F762F6A2F11249F5750401B
:102070008AF0E1F088234AF0EE0FFF1FBB1F661FB6
:10208000771F881F91505040A9F79E3F510570F06F
:102090005CCFA6CF5F3FECF3983EDCF38695779557
:1020A0006795B795F795E7959F5FC1F7FE2B880F6A
:1020B000911D9695879597F9089511F40EF44BCFDD
:1020C0004EC073DFD0F39923D9F3CEF39F57550B4E
:1020D00087FF55D056959795B0E020F4660F771F8F
:1020E000881FBB1F1F930F9300249001A001800144
:1020F000F001A0E80E0F1F1F0A1E511D601B710B7F
:102100008009B50B48F4600F711F801DB51F0E1BB1
:102110001F0B0A0A510907C02E0F3F1F4A1F0E0F3F
:102120001F1F0A1E511D660F771F881FBB1FA69514
:10213000F795E795F8F60617170708065B07211DC0
:10214000311D411D0F911F91B901842F9158880FA6
:10215000969587950895D5DE880B990B08959F3F36
:1021600049F0915028F4869577956795B7959F5FCC
:1021700080389F4F880F9695879597F908959150CD
:102180005040660F771F881FD2F70895629FD001D5
:10219000739FF001829FE00DF11D649FE00DF11D22
:1021A000929FF00D839FF00D749FF00D659FF00DD1
:1021B0009927729FB00DE11DF91F639FB00DE11DBE
:1021C000F91FBD01CF0111240895A1E21A2EAA1B07
:1021D000BB1BFD010DC0AA1FBB1FEE1FFF1FA217D7
:1021E000B307E407F50720F0A21BB30BE40BF50BD4
:1021F000661F771F881F991F1A9469F7609570955D
:10220000809590959B01AC01BD01CF01089597FB8E
:10221000092E05260ED057FD04D0D7DF0AD0001CAA
:1022200038F450954095309521953F4F4F4F5F4F73
:102230000895F6F790958095709561957F4F8F4F33
:102240009F4F0895EE0FFF1F0590F491E02D099424
:04225000F894FFCF30
:10225400656D6F6E54782056332043757272656EC7
:1022640074204F6E6C79204578616D706C65004FF9
:1022740070656E456E657267794D6F6E69746F72C5
:102284002E6F72670056726D7320617373756D657E
:102294006420746F20626520005600435420312D61
:1022A400332043616C6962726174696F6E3A200015
:1022B400435420342043616C6962726174696F6EA7
:1022C4003A20004354203120646574656374656466
:1022D400004354203220646574656374656400436C
:1022E400542033206465746563746564004354202A
:1022F40034206465746563746564004E6F64653A84
:10230400200020467265713A20003433334D687AD8
:1023140000204E6574776F726B3A20006E616E0018
:10232400696E66006F7666002E00040100000000EE
:0C233400310BD80BC70AF80AD80A210B9D
:00000001FF
