:100000000C94E3000C94E2130C940F140C940B0169
:100010000C940B010C940B010C9434010C940B0107
:100020000C940B010C940B010C940B010C940B0120
:100030000C940B010C940B010C940B010C940B0110
:100040000C941A150C940B010C9400160C94321697
:100050000C940B010C940B010C940B010C940B01F0
:100060000C940B010C940B01005EBCE2613FDD833C
:10007000C29C7E20A3FD1F419DC3217FFCA2401E88
:100080005F01E3BD3E6082DC237D9FC1421CFEA078
:10009000E1BF5D0380DE3C62BEE0025CDF81633D68
:1000A0007C22C09E1D43A1FF4618FAA427799BC558
:1000B00084DA3866E5BB5907DB856739BAE4065848
:1000C0001947A5FB7826C49A653BD987045AB8E638
:1000D000A7F91B45C6987A24F8A6441A99C7257B28
:1000E0003A6486D85B05E7B98CD2306EEDB3510F18
:1000F0004E10F2AC2F7193CD114FADF3702ECC9208
:10010000D38D6F31B2EC0E50AFF1134DCE90722CF7
:100110006D33D18F0C52B0EE326C8ED0530DEFB1E7
:10012000F0AE4C1291CF2D73CA947628ABF51749D7
:100130000856B4EA6937D58B5709EBB536688AD4C7
:1001400095CB2977F4AA4816E9B7550B88D6346AB7
:100150002B7597C94A14F6A8742AC896154BA9F7A7
:10016000B6E80A54D7896B35000000080002010088
:100170000003040700000000000000000102040862
:100180001020408001020408102001020408102001
:10019000040404040404040402020202020203032D
:1001A00003030303000000002300260029000000D1
:1001B0000000250028002B0000000000240027007C
:1001C0002A000107621611241FBECFEFD8E0DEBF60
:1001D000CDBF13E0A0E0B1E0E8E4FAE302C005908F
:1001E0000D92A43AB107D9F726E0A4EAB3E001C022
:1001F0001D92A938B207E1F711E0C6ECD1E004C0C6
:100200002297FE010E94151DC23CD107C9F70E942A
:10021000E9180C94221D0C9400000F931F930E9468
:1002200064150091A4031091A5032091A6033091B9
:10023000A703601B710B820B930B6F367105810551
:10024000910578F08091A8038F5F8093A8030E94A6
:1002500064156093A4037093A5038093A603909301
:10026000A7031F910F9108951F920F920FB60F923F
:1002700011242F933F934F935F936F937F938F93AB
:100280009F93AF93BF93EF93FF930E944C0AFF910C
:10029000EF91BF91AF919F918F917F916F915F91FE
:1002A0004F913F912F910F900FBE0F901F90189577
:1002B0008FEF0E94A80948E161EB73E080E00E94A3
:1002C000F70882E00E94160980E00C94A809CF92FA
:1002D000DF92EF92FF920F931F93CF93DF93EB0187
:1002E00000E010E0C12CD12C76010C171D077CF426
:1002F00080E00E943C14DC01B2509D010E94F51C7C
:10030000C60ED71EE81EF91E0F5F1F4FEECFC701A6
:10031000B6010E94401B6B017C01BE01882777FD5E
:100320008095982F0E94421B9B01AC01C701B6012A
:100330000E94A71ADF91CF911F910F91FF90EF902C
:10034000DF90CF900C945D1CCF92DF92EF92FF92E2
:100350000F931F93CF93DF9361E086E00E94821496
:1003600061E083E10E94821461E086E00E94BB1498
:1003700060E082E00E9482141092C8031092C703CA
:1003800026E040E855E260E070E08CEE95E00E94E7
:10039000DB1968E071E08CEE95E00E94001722E026
:1003A00030E040E050E060E070E48CEE95E00E94C8
:1003B000D41866E271E08CEE95E00E9400176CE3C1
:1003C00071E08CEE95E00E9400176AE070E080E03A
:1003D00090E00E94931542ED62E08AE00E943209AB
:1003E000CAE0D0E0D093B203C093B10348E161EB1F
:1003F00073E080E00E94F70864E670E080E090E03F
:100400000E949315219770F782E00E9416091092BE
:10041000B2031092B10380E00E94A80981E00E941B
:100420003C14181619064CF481E08093B0038091B7
:10043000A9038F5F8093A90302C01092B00382E0EA
:100440000E943C14181619064CF481E08093AF0307
:100450008091A9038F5F8093A90302C01092AF031C
:1004600083E00E943C14181619064CF481E0809336
:10047000AE038091A9038F5F8093A90302C01092FD
:10048000AE0384E00E943C14181619064CF481E077
:100490008093AD038091A9038F5F8093A90302C06D
:1004A0001092AD038091A903811103C081E0809374
:1004B000B00380E197E20E94F70960E086E00E94C5
:1004C000BB1464EF76E080E090E00E94670122E5D3
:1004D00038EB4EE55FE30E94F61B6B017C0120E0E8
:1004E00030E044EB52E40E94F21B181624F481E041
:1004F0008093AC0302C01092AC038091AC038823BC
:10050000C9F0CAE0D0E061E086E00E94BB1468EC6C
:1005100070E080E090E00E94931560E086E00E9429
:10052000BB146CE271E080E090E00E94931521978B
:1005300051F714C068EE73E080E090E00E949315DC
:1005400061E086E00E94BB1460ED77E080E090E01F
:100550000E94931560E086E00E94BB1461E083E195
:100560000E94BB1464E670E080E090E00E94931566
:100570008AEF93E00E94E91160E08AEF93E00E9425
:1005800051128AEF93E00E9462108093C903C0E089
:100590008091C903C81760F488E0C89FB001112496
:1005A00066537C4F8DE094E00E94AE0F8111DAC15A
:1005B00064EF71E080E090E00E94931560E083E1D9
:1005C0000E94BB148091C903811103C01092AA0339
:1005D00003C081E08093AA0381E08093AB036EE4C3
:1005E00071E08CEE95E00E94E31622E030E04DECE5
:1005F0005CEC65EB72E48CEE95E00E94D61861E647
:1006000071E08CEE95E00E94E31622E030E04DECC4
:100610005CEC65EB72E48CEE95E00E94D61864E722
:1006200071E08CEE95E00E94E31622E030E04DECA4
:100630005CEC65EB72E48CEE95E00E94D61867E8FE
:1006400071E08CEE95E00E94E31622E030E04DEC84
:100650005CEC64E871E48CEE95E00E94D61868EEDC
:1006600073E080E090E00E9493156AE971E08CEEFF
:1006700095E00E94E31620E030E0B701A6018CEE81
:1006800095E00E94D41864E271E08CEE95E00E943F
:1006900000178091AC03882369F163EC71E08CEE64
:1006A00095E00E9400176CEF71E08CEE95E00E94DF
:1006B000001761E372E08CEE95E00E94E31622E001
:1006C00030E043E353E76AE873E48CEE95E00E9480
:1006D000D61868E372E08CEE95E00E94E31622E003
:1006E00030E04AE959E969ED7FE38CEE95E00E943C
:1006F000D6181FC066E472E08CEE95E00E940017E9
:1007000068E772E08CEE95E00E94E3164AE050E064
:1007100066EE8CEE95E00E94E21764E271E08CEEEA
:1007200095E00E94001768E872E08CEE95E00E9468
:1007300000178091A903811103C06BEB72E024C004
:100740008091B003882331F06CEC72E08CEE95E080
:100750000E9400178091AF03882331F06AED72E0A8
:100760008CEE95E00E9400178091AE03882331F053
:1007700068EE72E08CEE95E00E9400178091AD0368
:10078000882331F066EF72E08CEE95E00E9400174E
:100790008091AA03882389F064E073E08CEE95E0F1
:1007A0000E94E3164AE050E06091C9038CEE95E0A8
:1007B0000E94E2176EE073E002C06BE373E08CEE20
:1007C00095E00E94001761E573E08CEE95E00E94D1
:1007D000001764E673E08CEE95E00E94E3164AE0B1
:1007E00050E06AE08CEE95E00E94E2176BE673E061
:1007F0008CEE95E00E94E31663E773E08CEE95E0E3
:100800000E94E3166AE773E08CEE95E00E94E3161F
:100810004AE050E062ED70E08CEE95E00E94BD177A
:1008200064EF71E080E090E00E9493158091B00346
:10083000882351F02DEC3CEC45EB52E461E070E094
:100840008FE295E00E946E0A8091AF03882351F0F9
:100850002DEC3CEC45EB52E462E070E083ED94E07B
:100860000E946E0A8091AE03882351F02DEC3CEC7F
:1008700045EB52E463E070E087E794E00E946E0A83
:100880008091AD03882351F02DEC3CEC44E851E419
:1008900064E070E08BE194E00E946E0A8091AC030A
:1008A000882309F450C08091B003882381F01AE9AD
:1008B000E12E19E9F12E09ED1FE323E333E74AE8BE
:1008C00053E460E070E08FE295E00E94520A80916C
:1008D000AF03882381F01AE9E12E19E9F12E09ED21
:1008E0001FE323E333E74AE853E460E070E083ED7D
:1008F00094E00E94520A8091AE03882381F01AE9A5
:10090000E12E19E9F12E09ED1FE323E333E74AE86D
:1009100053E460E070E087E794E00E94520A80911F
:10092000AD03882381F01AE9E12E19E9F12E09EDD2
:100930001FE323E333E74AE853E460E070E08BE130
:1009400094E00E94520A42E050E06DE071E080E0E5
:10095000DF91CF911F910F91FF90EF90DF90CF909B
:100960000C94B213CF5F14CECF92DF92EF92FF922E
:1009700098E0899FB001112466537C4F8AEF93E081
:100980000E9482136B017C0120E030E04AEF52E4C8
:100990000E94A31A87FF16C020E030E04CE552EC1D
:1009A000C701B6010E94F21B181664F420E030E083
:1009B00040E251E4C701B6010E94F61B0E940F1BE2
:1009C000CB0100C0FF90EF90DF90CF9008950F9380
:1009D0001F93CF93DF938091AC03882351F068EC91
:1009E00070E080E090E00E9493151092BA0310929C
:1009F000B9038091B003882309F455C08091AC03FA
:100A0000882359F140ED57E064E170E08FE295E012
:100A10000E94A50A60912F057091300580913105E3
:100A2000909132050E940F1B7093B2036093B10343
:100A300020E030E048EC52E460913B0570913C05C9
:100A400080913D0590913E050E94F61B0E940F1B70
:100A50007093BA036093B90312C068EC75E08FE23B
:100A600095E00E94760D20E030E046E653E40E94D7
:100A7000F61B0E940F1B7093B2036093B103809129
:100A8000AB03882381F06091B1037091B2034AE017
:100A900050E08CEE95E00E94B51766E872E08CEEAF
:100AA00095E00E94E3168091AF03882309F455C0B6
:100AB0008091AC03882359F140ED57E064E170E088
:100AC00083ED94E00E94A50A6091D3047091D40450
:100AD0008091D5049091D6040E940F1B7093B403AB
:100AE0006093B30320E030E048EC52E46091DF040F
:100AF0007091E0048091E1049091E2040E94F61B61
:100B00000E940F1B7093BA036093B90312C068EC84
:100B100075E083ED94E00E94760D20E030E046E63B
:100B200053E40E94F61B0E940F1B7093B403609362
:100B3000B3038091AB03882381F06091B30370917C
:100B4000B4034AE050E08CEE95E00E94B51766E8E9
:100B500072E08CEE95E00E94E3168091AE0388234C
:100B600009F455C08091AC03882359F140ED57E05A
:100B700064E170E087E794E00E94A50A6091770441
:100B8000709178048091790490917A040E940F1BEF
:100B90007093B6036093B50320E030E048EC52E474
:100BA00060918304709184048091850490918604FF
:100BB0000E94F61B0E940F1B7093BA036093B90347
:100BC00012C068EC75E087E794E00E94760D20E0A3
:100BD00030E046E653E40E94F61B0E940F1B709320
:100BE000B6036093B5038091AB03882381F06091D5
:100BF000B5037091B6034AE050E08CEE95E00E9498
:100C0000B51766E872E08CEE95E00E94E3168091DD
:100C1000AD03882309F455C08091AC03882359F1B2
:100C200040ED57E064E170E08BE194E00E94A50A9A
:100C300060911B0470911C0480911D0490911E040E
:100C40000E940F1B7093B8036093B70320E030E05D
:100C500048EC52E4609127047091280480912904A3
:100C600090912A040E94F61B0E940F1B7093BA03F6
:100C70006093B90312C068EC75E08BE194E00E94C8
:100C8000760D20E030E046E653E40E94F61B0E9419
:100C90000F1B7093B8036093B7038091AB03882355
:100CA00081F06091B7037091B8034AE050E08CEE98
:100CB00095E00E94B51766E872E08CEE95E00E9420
:100CC000E3168091AC03882391F08091AB038823D5
:100CD00071F08091A903882351F06091B90370915C
:100CE000BA034AE050E08CEE95E00E94B51780917F
:100CF000AB03882371F08091A903882351F08CEE17
:100D000095E00E94EC1662E370E080E090E00E94C3
:100D100093158091AA038823D1F161E083E10E94B9
:100D2000BB1482E390E00E94F7090AEC13E0C0E0F4
:100D3000D0E08091C90390E0C817D90754F44BE084
:100D4000B8018AEF93E00E9473112196085F1F4F4C
:100D5000F0CF8AEF93E00E94BE1287E791E00E94F5
:100D6000F709C0E08091C903C81768F48C2F0E946E
:100D7000B404EC2FF0E0EE0FFF1FE554FC4F91831D
:100D80008083CF5FEFCF60E083E10E94BB1480914E
:100D9000A803882381F0F8942091A8038091C703C9
:100DA0009091C803820F911D9093C8038093C7034D
:100DB0001092A80378940E9458018091AC03882374
:100DC000C1F060E177E280E090E00E94931561E07D
:100DD00086E00E94BB1468EC70E080E090E00E9426
:100DE000931560E086E0DF91CF911F910F910C94F5
:100DF000BB1480E197E2DF91CF911F910F910C948A
:100E0000F70965E08DE094E00E948B0F6DE074E0DF
:100E10008AEF93E00C9453108627682F6295682719
:100E2000062E669566956025062E66956025677088
:100E3000082E892F669507946795902D862706942E
:100E400067959025862708952CB521602CBD2BB180
:100E500041E050E060E070E00090060104C0440F03
:100E6000551F661F771F0A94D2F7409542234BB94E
:100E70009EBD0DB407FEFDCF2EB530E0322F2227E8
:100E80008EBD0DB407FEFDCF9EB58BB141E050E0A5
:100E900060E070E00090060104C0440F551F661F1B
:100EA000771F0A94D2F7842B8BB98CB58E7F8CBDBB
:100EB000A901492BCA010895CF9380E090E00E94D8
:100EC00024078091DA05853091F580E090EB0E944F
:100ED0002407682F8091DB05811104C09091DC0507
:100EE000911174C0E091DB0581E08E0F8093DB05EA
:100EF000F0E0EF56FA4F60838091D8059091D905C4
:100F00000E940C079093D9058093D8058091930592
:100F10002091DB0590E0049630E0821793070CF4F3
:100F200060C08091DB05873408F05BC05FC08091B2
:100F3000DA0587FF1AC0E09193058091DA0591E008
:100F4000980F9093DA05ED5FE80FF0E0EF56FA4F57
:100F5000C0818091D8059091D9056C2F0E940C0713
:100F60009093D9058093D8052DC08091DA0591E042
:100F7000980F9093DA05833001F154F48823B9F087
:100F80008130F9F48091D8059091D905C92F1AC004
:100F9000893059F08A30A9F4C091DC05909193050D
:100FA0008EEF891B8093DA050DC0CDE20BC08091D6
:100FB000D8059091D905C82F05C08DE092E80E9410
:100FC0002407CAEA8C2F90E098540DC0E091DB050D
:100FD00081E08E0F8093DB05F0E0EF56FA4F9083AF
:100FE00081CF8DE092E8CF910C942407CF910895A2
:100FF0002BB181E090E0A0E0B0E0AC01BD01009039
:10100000060104C0440F551F661F771F0A94D2F7CC
:10101000242B2BB92AB10090060104C0880F991F18
:10102000AA1FBB1F0A94D2F7282B2AB961E08AE0D5
:101030000E94BB1461E08AE00E94821461E08BE0B0
:101040000E94821460E08CE00E94821461E08DE0D6
:101050000E94821480E58CBD8DB581608DBD60E0FD
:1010600083E00E94821461E083E00C94BB14E99851
:101070000E942407E99A08958091DA05853051F598
:10108000809193052091DB0590E0049630E0821773
:10109000930724F08091DB058734E0F084E08093AF
:1010A000DA0580919305833430F081E090E09093ED
:1010B000D9058093D8058091920586FF2CC0909128
:1010C000DD05892F8F718F3131F18091920589274C
:1010D0008F7109F18091DA058430D9F4109293056B
:1010E0001092DB058FEF9FEF9093D9058093D80581
:1010F0006091DC05662331F00E940C079093D905BE
:101100008093D80585E08093DA058DED92E80E9402
:10111000240780E008958091D8059091D905892B06
:1011200049F4E0918B05F0918C05309719F080E03F
:1011300009950BC08FEF9FEFDC0180938D05909395
:101140008E05A0938F05B093900581E0089580915E
:10115000DA05853099F48091DB0581110FC080E0BC
:1011600090E00E94370890FD09C08DE092E80E944F
:10117000370884E08093DA0581E0089580E00895DF
:1011800086FD05C0807E9091DD059F71890F80935B
:101190009205E0918B05F0918C05309711F081E07C
:1011A00009958FEF9FEF9093D9058093D805809193
:1011B000D8059091D9056091DC050E940C079093A9
:1011C000D9058093D80586E08093DA058DE392E80F
:1011D0000C942407CF93C82F4093930550E084E9E3
:1011E00095E00E94191D8C2FCF910C94C008EF92AE
:1011F000FF921F93CF93DF931F92CDB7DEB7182FC7
:101200007B0149830E94A7084981811105C0498358
:101210000E943C084981F5CFB701812F0F90DF91E3
:10122000CF911F91FF90EF900C94EA089091DA050E
:101230009430B9F08823D1F393B7917F833021F0B4
:10124000823021F42CE003C024E001C020E0922B86
:1012500093BF93B7916093BF889593B79E7F93BFD9
:10126000E5CF0895CF93C62F8093DD054093DC052D
:101270000E94F80780E090E00E94240785E092E851
:101280000E94240780E098EB0E94240783E00E94DC
:10129000F114892B19F480E090E0F6CF20E1C29F91
:1012A000C0011124876C90680E94240780E496EAAC
:1012B0000E94240786E096EC0E94240782EA90E9C7
:1012C0000E9424078CEA92EC0E942407C091DC055E
:1012D000CC2341F083E89AEC0E9424078C2F90E005
:1012E0009E6C06C08BE89AEC0E9424078DE29EEC6F
:1012F0000E94240783E894EC0E94240780E598E983
:101300000E94240787E79CEC0E94240780E090EE6F
:101310000E94240780E098EC0E94240789E490EC66
:101320000E94240784E08093DA058091DD058F71A7
:1013300041F040E050E06CE577E081E00E94B213BC
:1013400003C081E00E94D2138091DD05CF91089502
:10135000CF93C82F87FF03C08DE092E80EC0992776
:1013600087FD9095956E0E94370885E092E80E946F
:101370003708CC2321F087E092E80E94370884E008
:101380008093DA05CF91089583FF02C098E2892700
:1013900087FD02C0806401C080E094B7977F94BF4E
:1013A000F894909160009861909360008093600041
:1013B00078940895EAE7F0E0908180818F778083C8
:1013C00083B7817F846083BFF89483B7816083BFD4
:1013D00085B7806685BF85B78F79806485BF78942F
:1013E000889583B78E7F83BF90937A000895DF92AC
:1013F000EF92FF920F931F93CF93DF938C01EC0139
:1014000098E0E92EF12CC031D10538F19E01D12CA4
:101410002032310538F0D39489E0D81619F036958A
:101420002795F6CF1092DE058D2D0E94C4090E94EB
:10143000DA098FEF0E94C409C70102C0880F991F03
:10144000DA94E2F7C81BD90B2091DE05222319F0AC
:10145000C81BD90BD8CF80E001C081E04091E405E2
:101460005091E5056091E6057091E7050C1B1D0B99
:10147000400F511F611D711D4093E4055093E50518
:101480006093E6057093E705DF91CF911F910F916F
:10149000FF90EF90DF9008958091DE058F5F80933D
:1014A000DE050895EF92FF920F931F93FC01758B59
:1014B000648B208F318F428F538FE0A2F1A202A361
:1014C00013A340E050E060E074E444AB55AB66AB7E
:1014D00077AB1F910F91FF90EF900895FC01778BF0
:1014E000668B248F358F468F578F40E050E060E049
:1014F00074E440AF51AF62AF73AF08958EE4809350
:101500007C0062E070E080E090E00E9493158091A2
:101510007A00806480937A0080917A0086FDFCCF07
:10152000809178002091790030E0322F22274427E3
:1015300037FD4095542F282B60E070E381E190E067
:101540000E94D61CCA01B90108952F923F924F9272
:101550005F926F927F928F929F92AF92BF92CF9243
:10156000DF92EF92FF920F931F93CF93DF93CDB74C
:10157000DEB7A8970FB6F894DEBF0FBECDBF98A711
:101580008FA37E8F6D8F8A010E947E0A6D8B7E8B6A
:101590008F8B988F0E9464154B015C016FA078A41B
:1015A00028E5620E711CC801A0E0B0E0898B9A8B1F
:1015B000AB8BBC8BAFA1B8A554968C910E943C1408
:1015C000F30191838083BC01882777FD8095982F54
:1015D0000E94421B6B017C012DEC3CEC4CE054E47E
:1015E0000E94A31A87FF0BC011E026E636E646EEFE
:1015F00053E4C701B6010E94F21B18160CF010E06C
:101600000E946415681979098A099B0929893A8910
:101610004B895C89261737074807590708F040C0EF
:101620000E946415698F7A8F8B8F9C8F00E010E089
:101630001A8219824FA158A5405C5F4F58A34F8F63
:101640008FA198A58C5B9F4F9C878B87AFA1B8A576
:10165000A85BBF4FBAA3A9A3EFA1F8A5E45BFF4F16
:10166000FE87ED872FA138A5205B3F4F3CA32BA31E
:101670004FA158A54C5A5F4F588B4F878FA198A503
:10168000865A9F4F9E838D832FA038A49BE5290EF9
:10169000311CAFA1B8A5A85ABF4FBEA3ADA344C18A
:1016A000112309F487CFBCCF0E946415298D3A8D90
:1016B0004B8D5C8D621B730B840B950B29893A89CA
:1016C0004B895C89621773078407950708F034C15A
:1016D0000F5F1F4FEFA1F8A584A595A5A6A5B7A5F7
:1016E00080A791A7A2A7B3A784890E943C14AFA1A9
:1016F000B8A595969C938E93949756968C910E943C
:101700003C143C01EFA1F8A597A386A324A135A121
:101710003A872987B901882777FD8095982F0E94FD
:10172000421B6B017C01AFA1B8A5D4968D909D9012
:10173000AD90BC90D797A50194010E943E1A20E07D
:1017400030E040E85AE30E94F61B9B01AC01C50162
:10175000B4010E943F1A9B01AC01EFA1F8A564AB54
:1017600075AB86AB97ABC701B6010E943E1A4B0121
:101770005C01AFA1B8A59C966D937D938D939C93CE
:101780009F97B301882777FD8095982F0E94421B71
:101790006B017C01EFA1F8A540AC51AC62AC73AC1D
:1017A000A30192010E943E1A20E030E040E85AE393
:1017B0000E94F61B9B01AC01C301B2010E943F1ABB
:1017C0009B01AC01AFA1B8A5D8966D937D938D9385
:1017D0009C93DB97C701B6010E943E1A6B017C0106
:1017E000EFA1F8A560AB71AB82AB93ABA5019401FF
:1017F000C501B4010E94F61B9B01AC01AF8DB8A1DD
:101800006D937D938D939C931397EB85FC856081FD
:101810007181828193810E943F1AAB85BC856D9353
:101820007D938D939C931397A7019601C701B601F1
:101830000E94F61B9B01AC01E9A1FAA160837183B0
:1018400082839383AD85BE856D917D918D919C91B1
:101850000E943F1AED85FE856083718382839383A6
:10186000AFA1B8A598964D905D906D907C909B9798
:10187000A3019201C501B4010E943E1AEFA1F8A58F
:1018800020A131A142A153A10E94F61B9B01AC01F2
:10189000C301B2010E943F1AAFA1B8A5DC966D93B7
:1018A0007D938D939C93DF97A70196010E94F61B71
:1018B0009B01AC01EBA1FCA16083718382839383C4
:1018C000AF85B8896D917D918D919C910E943F1A51
:1018D000EF85F8896083718382839383D1018C9132
:1018E000ED81FE818083ADA1BEA18D919C91E985A2
:1018F000FA858E179F070CF0F6C021E0F1012083D6
:101900000130110529F4F1018081AD81BE818C93F4
:10191000ED81FE819081D1018C91981729F0E981A8
:10192000FA813196FA83E98329813A814D8D5E8D62
:101930002417350708F4B8CEAD89BE89BD018827C4
:1019400077FD8095982F0E94421B20E030E04AE707
:1019500054E40E94A71A20E030E040E85AE30E94D5
:10196000F61B2B013C01EFA1F8A5208D318D428D96
:10197000538D0E94F61B4B015C01B80180E090E0A2
:101980000E94401B6B017C012FA038A4F4E42F0EB1
:10199000311C9B01AC01D1016D917D918D919C9188
:1019A0000E94A71A0E945D1C9B01AC01C501B401F5
:1019B0000E94F61B69837A838B839C83EFA1F8A531
:1019C0006487758786879787248D358D468D578DDB
:1019D000C301B2010E94F61B2B013C010FA118A507
:1019E000045B1F4FA7019601D8016D917D918D91E8
:1019F0009C910E94A71A0E945D1C9B01AC01C3012F
:101A0000B2010E94F61B6D837E838F839887EFA1BE
:101A1000F8A5608B718B828B938BA3019201C5011A
:101A2000B4010E94F61BAFA0B8A4F4E5AF0EB11C40
:101A3000D5012D913D914D915C910E94F61BA7011E
:101A400096010E94A71A6B017C01EFA1F8A56083A3
:101A50007183828393832D813E814F815885698173
:101A60007A818B819C810E94F61B9B01AC01AFA106
:101A7000B8A514966D937D938D939C931797C7018A
:101A8000B6010E94A71AEFA1F8A560877187828727
:101A90009387D1011D921D921D921C921397F801FC
:101AA0001082118212821382D5011D921D921D9205
:101AB0001C921397A8960FB6F894DEBF0FBECDBF49
:101AC000DF91CF911F910F91FF90EF90DF90CF901A
:101AD000BF90AF909F908F907F906F905F904F904E
:101AE0003F902F900895D1011C920ACF2F923F92E0
:101AF0004F925F926F927F928F929F92AF92BF921E
:101B0000CF92DF92EF92FF920F931F93CF93DF93C9
:101B100000D000D000D0CDB7DEB79E838D837A830E
:101B200069830E947E0A2B013C0100E010E08D8158
:101B30009E81845B9F4F1C01ED81FE81E85BFF4F1E
:101B4000FC83EB8389819A810817190709F455C032
:101B5000ED81FE8186890E943C14ED81FE8197A370
:101B600086A3BC01882777FD8095982F0E94421B91
:101B70006B017C01ED81FE8180AC91ACA2ACB3AC79
:101B8000A50194010E943E1A20E030E040E85AE3AB
:101B90000E94F61B9B01AC01C501B4010E943F1AD3
:101BA0009B01AC01ED81FE8160AF71AF82AF93AF5D
:101BB000C701B6010E943E1AED81FE8160AB71AB98
:101BC00082AB93AB9B01AC010E94F61B9B01AC0165
:101BD000EB81FC816083718382839383F101608157
:101BE0007181828193810E943F1AF1016083718328
:101BF000828393830F5F1F4FA5CFB80180E090E0F1
:101C00000E94401B9B01AC01F101608171818281C6
:101C100093810E94A71A0E945D1C6B017C01B20196
:101C2000882777FD8095982F0E94421B20E030E0A6
:101C30004AE754E40E94A71A20E030E040E85AE363
:101C40000E94F61BED81FE81248D358D468D578DCA
:101C50000E94F61BA70196010E94F61BED81FE81F2
:101C6000608B718B828B938BF101108211821282B7
:101C7000138226960FB6F894DEBF0FBECDBFDF915C
:101C8000CF911F910F91FF90EF90DF90CF90BF9079
:101C9000AF909F908F907F906F905F904F903F900C
:101CA0002F900895FF920F931F93CF93DF93FC0122
:101CB0000081C181D281F8948981F02EF0948F2126
:101CC000898378941DE7115029F182E090E00E9409
:101CD000BB1588818023B9F3F8948A818F218A8388
:101CE0008981802B8983789480EE91E00E94BB15D6
:101CF000F89489818F21898386E490E00E94BB1546
:101D00008881802311E009F010E078948AE991E05D
:101D10000E94BB15812FDF91CF911F910F91FF90F2
:101D200008951F93CF93DF93FC011081C181D2816D
:101D3000912F909560FF12C0F8948A8189238A833D
:101D40008981812B89838AE090E00E94BB158A817A
:101D5000812B8A83789487E390E011C0F8948A817C
:101D600089238A838981812B898381E490E00E9481
:101D7000BB158A81812B8A83789485E090E0DF917E
:101D8000CF911F910C94BB150F931F93CF93DF93AB
:101D9000FC011081C181D281F8948981812B8983D2
:101DA0008A81012F009580238A8383E090E00E943E
:101DB000BB158981802389838AE090E00E94BB154E
:101DC000C881789485E390E00E94BB151C2381E0D4
:101DD00009F480E0DF91CF911F910F910895CF9288
:101DE000DF92EF92FF920F931F93CF93DF931F9297
:101DF000CDB7DEB76C01E62E08E010E0FF24F394C7
:101E000061E09F2D9E2109F460E0C60149830E9494
:101E1000910EFF0C0150110949810115110581F73F
:101E2000411115C0F894D6011196ED91FC911297CD
:101E300091818C918095892381831196ED91FC91FC
:101E4000129792818C9180958923828378940F9048
:101E5000DF91CF911F910F91FF90EF90DF90CF9086
:101E60000895EF92FF920F931F93CF93DF938C010E
:101E7000C8E0D0E0F12CEE24E394C8010E94C40E27
:101E80008111FE28EE0C2197C1F78F2DDF91CF91A4
:101E90001F910F91FF90EF900895CF92DF92FF92E4
:101EA0000F931F93CF93DF931F92CDB7DEB78C01B3
:101EB000F62E40E065E579830E94EF0ECF2C798104
:101EC000D72E88E0F82EF60161916F0140E0C8013D
:101ED0000E94EF0EFA94B9F70F90DF91CF911F9106
:101EE0000F91FF90DF90CF90089540E06CEC0C9440
:101EF000EF0EFC0113861586148627E030E0DF0123
:101F0000A20FB31F13961C922115310519F0215011
:101F10003109F5CF08951F93CF93DF93EC01162F6E
:101F200060E0812F0E948214612F70E0FB01E45871
:101F3000FE4FE491E883FB01E057FE4FE491F0E0AF
:101F4000EE0FFF1FEC55FE4F859194919A83898384
:101F5000CE01DF91CF911F910C94790FAF92BF9278
:101F6000CF92DF92EF92FF920F931F93CF93DF9365
:101F70001F92CDB7DEB75C01E62ED72EFC0185851A
:101F800081115DC0C5010E94520E811105C0F5018D
:101F90001386158614866EC040E060EFC5010E946E
:101FA000EF0E01E0F12CC12C11E0C5010E94C40E1E
:101FB000682FC50169830E94C40E6981613019F4DC
:101FC0008130B9F433C02F2D30E068131BC0F50108
:101FD0008385181730F4E20FF31F8381802349F4BF
:101FE00002C0181731F060E0193058F4F501148779
:101FF00008C0F501EF0DF11D8381802B838361E023
:1020000009C0C12EF501E20FF31F8381902F909537
:1020100089238383C5010E94910E1F5F000F11F475
:10202000F39401E0F7E0FF1508F0BFCF113438F06A
:10203000F501C386C11018C081E0858715C0F50180
:1020400013861586148680E0EE2DFD2D20E030E00D
:10205000D501A20FB31F13969C9191932F5F3F4F11
:1020600028303105A9F706C0F5018381882339F3AB
:1020700081E0EACF0F90DF91CF911F910F91FF90F8
:10208000EF90DF90CF90BF90AF900895DC0180E09B
:10209000615038F0ED91E827F0E0E859FF4F849166
:1020A000F7CF08950895FC0182E590E1928B818B32
:1020B000768365831482108289E0818381E0828344
:1020C00083830895FC0184810895CF93DF93EB010E
:1020D00067E0CE010E94461091E02F81821390E0CC
:1020E000892FDF91CF910895EF92FF920F931F9365
:1020F000CF93DF9300D0CDB7DEB77C018A01FC011E
:102100008581968169837A830E94520E69817A81E2
:10211000F701858196810E944D0F40E06EEBF7013B
:10212000858196810E94EF0EF701858196810E943C
:10213000310FF8018083F701858196810E94310F6C
:10214000F8018183F701858196810E94310FF801A2
:102150008283F701858196810E94310FF801838384
:10216000F701858196810E94310FF8018483F70180
:10217000858196810E94310FF8018583F701858161
:1021800096810E94310FF8018683F701858196813F
:102190000E94310FF8018783F701858196810E94A3
:1021A000310FF8018087F701858196810F900F909C
:1021B000DF91CF911F910F91FF90EF900C94520EF1
:1021C000CF93DF93EA010E94741068E0CE010E9471
:1021D000461091E02885821390E0892FDF91CF91FE
:1021E0000895EF92FF920F931F93CF93DF93EC012B
:1021F0007B018A018D819E810E94520EB7018D81E3
:102200009E810E944D0F40E06EE48D819E810E9470
:10221000EF0E40E0F80162818D819E810E94EF0EF9
:1022200040E0F80163818D819E810E94EF0EF701ED
:102230008081803139F040E0F80164818D819E8198
:102240000E94EF0E8D819E810E94520E488168E4AB
:102250008D819E810E94EF0E8881882331F06AE093
:1022600070E080E090E00E9493158D819E81DF9167
:10227000CF911F910F91FF90EF900C94520EEF921F
:10228000FF921F93CF93DF9300D0CDB7DEB77C01D1
:10229000FC018581968169837A830E94520E69814F
:1022A0007A81F701858196810E944D0F40E064EBB1
:1022B000F701858196810E94EF0EF7018581968155
:1022C0000E94C40E182FF701858196810E94520E3C
:1022D00081E0111180E00F900F90DF91CF911F915D
:1022E000FF90EF900895EF92FF920F931F93CF937B
:1022F000DF93CDB7DEB72A970FB6F894DEBF0FBED7
:10230000CDBF7C018B01242FAE014F5F5F4F2A8729
:102310000E94E0102A858823D1F0F8018081803165
:10232000C1F02B3041F02C3021F02A3031F48FE312
:1023300005C08FE703C08FE501C08FE18D83AE013B
:102340004F5F5F4FB801C7010E94F11002C080E0EB
:1023500001C081E02A960FB6F894DEBF0FBECDBF54
:10236000DF91CF911F910F91FF90EF900895CF9340
:10237000DF93CDB7DEB729970FB6F894DEBF0FBE57
:10238000CDBFFB0120812031D1F0AE014F5F5F4F07
:102390000E94E010882379F08D818F3351F018F47A
:1023A0008F3169F008C08F3541F08F3721F48CE010
:1023B00007C08AE005C080E003C08BE001C089E06F
:1023C00029960FB6F894DEBF0FBECDBFDF91CF9137
:1023D0000895EF92FF920F931F93CF93DF93CDB7A2
:1023E000DEB761970FB6F894DEBF0FBECDBF8C018C
:1023F000FC01858196810E94790FF8011482FF24E7
:10240000F394BE01665F7F4FF801858196810E943B
:10241000AE0F8823C9F1BE01665F7F4FC8010E94DD
:102420006510882371F3F8018081811108C0BE0115
:10243000665F7F4FC8010E943F11811122C0AE012B
:102440004F5F5F4FBE01665F7F4FC8010E947410EF
:10245000F801E180BE01665F7F4FC8010E94B7119D
:102460008E1518F4F801818106C0BE01665F7F4FAA
:10247000C8010E94B711F801818384818F5F848332
:10248000C0CFF801F082DBCF61960FB6F894DEBFC3
:102490000FBECDBFDF91CF911F910F91FF90EF90B5
:1024A0000895FC0162830895CF93DF93CDB7DEB723
:1024B00029970FB6F894DEBF0FBECDBFAE014F5FB8
:1024C0005F4F0E94741081E09981911101C080E0FA
:1024D00029960FB6F894DEBF0FBECDBFDF91CF9126
:1024E0000895CF92DF92EF92FF920F931F93CF93B5
:1024F000DF93EC018B01452BE1F08B818823C9F040
:102500008881811116C00E9464156B017C0160E016
:1025100070E0CE010E94541281110BC00E9464151C
:102520006C197D098E099F096E3E724081059105E7
:1025300070F3F80180818A3049F08B3061F0893086
:1025400079F46EE570E080E090E00EC06CEB70E036
:1025500080E090E009C067E771E080E090E004C0AF
:102560006EEE72E080E090E0DF91CF911F910F91CD
:10257000FF90EF90DF90CF900C949315CF93DF9363
:10258000EC018D819E810E94520E8D819E810E9460
:10259000750F488164E48D819E810E94EF0E8A81CF
:1025A000882351F0BE016F5F7F4F40E050E0CE01C5
:1025B000DF91CF910C947112DF91CF9108958F929A
:1025C0009F92AF92BF92CF92DF92EF92FF921F93B2
:1025D000CF93DF93FB01EA01698170E0762F6627D4
:1025E0008881682B80818232B1F18832A1F18031FB
:1025F00009F078C01F8175956795882777FD8095CC
:10260000982F0E94421B20E030E040E85EE30E94E9
:102610003E1A6B017C01612F70E08E81681B71098D
:10262000882777FD8095982F0E94421B4B015C0103
:10263000612F70E080E090E00E94401B9B01AC01A4
:10264000C501B4010E94A71A9B01AC01C701B601E4
:102650000E943F1A43C08C818F3381F198F48F31EF
:1026600009F040C093E0759567959A95E1F7882742
:1026700077FD8095982F0E94421B20E030E040E0DB
:102680005FE32AC08F3569F08F3761F5882777FDC2
:102690008095982F0E94421B20E030E040E85DE3E7
:1026A0001BC075956795882777FD8095982F0E94A8
:1026B000421B20E030E040E05EE30EC07595679578
:1026C00075956795882777FD8095982F0E94421B06
:1026D00020E030E040E85EE30E94F61B562F472FD3
:1026E000382F292F652F742F832F922FDF91CF91B1
:1026F0001F91FF90EF90DF90CF90BF90AF909F9091
:102700008F900895EF92FF920F931F93CF93DF93D3
:10271000CDB7DEB729970FB6F894DEBF0FBECDBF99
:102720008C017B01AE014F5F5F4F0E94E010882358
:1027300041F0AE014F5F5F4FB701C8010E94DF1249
:1027400004C060E070E08EEF92EC29960FB6F8942A
:10275000DEBF0FBECDBFDF91CF911F910F91FF90D4
:10276000EF9008958230E8F4E82FF0E0EE0FFF1FBD
:10277000E152FA4F71836083813041F080916900AA
:102780008C7F842B80936900E89A0895809169007A
:10279000440F551F440F551F837F842B809369007E
:1027A000E99A0895823068F4813011F0E89801C008
:1027B000E998E82FF0E0EE0FFF1FE152FA4F118287
:1027C000108208951F920F920FB60F9211242F932B
:1027D0003F934F935F936F937F938F939F93AF93A9
:1027E000BF93EF93FF938091DF059091E005892BD4
:1027F00029F0E091DF05F091E0050995FF91EF9157
:10280000BF91AF919F918F917F916F915F914F9108
:102810003F912F910F900FBE0F901F9018951F9210
:102820000F920FB60F9211242F933F934F935F9304
:102830006F937F938F939F93AF93BF93EF93FF9388
:102840008091E1059091E205892B29F0E091E10565
:10285000F091E2050995FF91EF91BF91AF919F91A2
:102860008F917F916F915F914F913F912F910F9039
:102870000FBE0F901F9018958E3008F08E50877005
:102880002091070190E4299F90011124822B8093CD
:102890007C0080917A00806480937A0080917A0035
:1028A00086FDFCCF809178002091790090E0922BFA
:1028B0000895833081F028F4813099F08230A1F0BE
:1028C00008958730A9F08830B9F08430D1F4809130
:1028D00080008F7D03C0809180008F77809380007F
:1028E000089584B58F7702C084B58F7D84BD089527
:1028F0008091B0008F7703C08091B0008F7D80936E
:10290000B0000895CF93DF9390E0FC01E458FE4FB0
:102910002491FC01E057FE4F8491882349F190E017
:10292000880F991FFC01E854FE4FA591B491825580
:102930009E4FFC01C591D4919FB7611108C0F894D6
:102940008C91209582238C93888182230AC06230E7
:1029500051F4F8948C91322F309583238C93888195
:10296000822B888304C0F8948C91822B8C939FBF18
:10297000DF91CF9108950F931F93CF93DF931F9211
:10298000CDB7DEB7282F30E0F901E859FE4F84912A
:10299000F901E458FE4F1491F901E057FE4F0491FC
:1029A0000023C9F0882321F069830E9459146981AA
:1029B000E02FF0E0EE0FFF1FE255FE4FA591B4911E
:1029C0009FB7F8948C91611103C01095812301C0C9
:1029D000812B8C939FBF0F90DF91CF911F910F910F
:1029E0000895CF93DF93282F30E0F901E859FE4F87
:1029F0008491F901E458FE4FD491F901E057FE4F5C
:102A0000C491CC2391F081110E945914EC2FF0E075
:102A1000EE0FFF1FEC55FE4FA591B4912C912D2385
:102A200081E090E021F480E002C080E090E0DF915E
:102A3000CF9108951F920F920FB60F9211242F93EA
:102A40003F938F939F93AF93BF938091E4059091B1
:102A5000E505A091E605B091E7053091E30523E097
:102A6000230F2D3720F40196A11DB11D05C026E8C6
:102A7000230F0296A11DB11D2093E3058093E40569
:102A80009093E505A093E605B093E7058091E805EE
:102A90009091E905A091EA05B091EB050196A11D81
:102AA000B11D8093E8059093E905A093EA05B093E2
:102AB000EB05BF91AF919F918F913F912F910F9017
:102AC0000FBE0F901F9018952FB7F8946091E405F2
:102AD0007091E5058091E6059091E7052FBF089577
:102AE0003FB7F8948091E8059091E905A091EA0537
:102AF000B091EB0526B5A89B05C02F3F19F00196B4
:102B0000A11DB11D3FBF6627782F892F9A2F620F15
:102B1000711D811D911D42E0660F771F881F991F4F
:102B20004A95D1F70895CF92DF92EF92FF92CF931B
:102B3000DF936B017C010E947015EB01C114D1047D
:102B4000E104F10489F00E943D1A0E9470156C1B8B
:102B50007D0B683E734090F381E0C81AD108E1080C
:102B6000F108C851DC4FEACFDF91CF91FF90EF9091
:102B7000DF90CF900895019739F0880F991F880F43
:102B8000991F02970197F1F70895789484B58260B0
:102B900084BD84B5816084BD85B5826085BD85B501
:102BA000816085BDEEE6F0E0808181608083E1E8B0
:102BB000F0E01082808182608083808181608083E8
:102BC000E0E8F0E0808181608083E1EBF0E08081EB
:102BD00084608083E0EBF0E0808181608083EAE7BD
:102BE000F0E0808184608083808182608083808146
:102BF000816080838081806880831092C100089505
:102C00001F920F920FB60F9211242F938F939F93C1
:102C1000EF93FF93E091FC05F091FD058081E09139
:102C20000206F091030682FD12C090818091050694
:102C30008F5F8F7320910606821751F0E091050691
:102C4000F0E0E451FA4F958F8093050601C0808132
:102C5000FF91EF919F918F912F910F900FBE0F9049
:102C60001F9018951F920F920FB60F9211242F9359
:102C70003F934F935F936F937F938F939F93AF9304
:102C8000BF93EF93FF938CEE95E00E943319FF9171
:102C9000EF91BF91AF919F918F917F916F915F91D4
:102CA0004F913F912F910F900FBE0F901F9018954D
:102CB0008CEE95E00E94F81821E0892B09F420E0C1
:102CC000822F08951092EF051092EE0588EE93E0A2
:102CD000A0E0B0E08093F0059093F105A093F20599
:102CE000B093F30587E993E09093ED058093EC05AD
:102CF00085EC90E09093F9058093F80584EC90E0E2
:102D00009093FB058093FA0580EC90E09093FD058D
:102D10008093FC0581EC90E09093FF058093FE0585
:102D200082EC90E0909301068093000686EC90E0A0
:102D300090930306809302061092050610920606F1
:102D400010920706109208060895CF92DF92EF9234
:102D5000FF920F931F93CF93DF936C017A01EB01E6
:102D6000E60EF71E00E010E0CE15DF0561F0699178
:102D7000D601ED91FC910190F081E02DC6010995FD
:102D8000080F191FF1CFC801DF91CF911F910F914B
:102D9000FF90EF90DF90CF9008956115710581F05D
:102DA000DB010D900020E9F7AD0141505109461BB0
:102DB000570BDC01ED91FC910280F381E02D099429
:102DC00080E090E008950C94CD16DC01ED91FC912B
:102DD0000190F081E02D09940F931F93CF93DF931F
:102DE000EC016DE00E94E5168C016AE0CE010E94C4
:102DF000E516800F911FDF91CF911F910F910895DC
:102E00000F931F93CF93DF93EC010E94CD168C019B
:102E1000CE010E94EC16800F911FDF91CF911F9180
:102E20000F9108958F929F92AF92BF92CF92DF92AF
:102E3000EF92FF920F931F93CF93DF93CDB7DEB73F
:102E4000A1970FB6F894DEBF0FBECDBF7C01C42E94
:102E5000E52FCB01D22E19A221E02D1510F02AE08A
:102E6000D22E8E010F5D1F4F8D2C912CA12CB12CD9
:102E70006C2D7E2FA50194010E94B41C8C2DD29E36
:102E800080191124015011098A3014F4805D01C0A9
:102E9000895CF8018083211531054105510521F038
:102EA000C22EE32FCA01E4CFB801C7010E94CD169C
:102EB000A1960FB6F894DEBF0FBECDBFDF91CF91C4
:102EC0001F910F91FF90EF90DF90CF90BF90AF9048
:102ED0009F908F900895CF92DF92EF92FF920F9381
:102EE0001F93CF93DF93EC016A017B01211531051C
:102EF00079F4E881F9810190F081E02D642FDF9170
:102F0000CF911F910F91FF90EF90DF90CF90099498
:102F10002A303105E9F477FF1AC06DE20E94E51608
:102F20008C0144275527BA014C195D096E097F09A8
:102F30002AE0CE010E941217800F911FDF91CF91DE
:102F40001F910F91FF90EF90DF90CF9008952AE0AE
:102F5000B701A601CE01DF91CF911F910F91FF9094
:102F6000EF90DF90CF900C9412179A01AB01662777
:102F700057FD6095762F0C946B170F931F93CF938B
:102F8000DF93EC019A01AB01662757FD6095762F20
:102F90000E946B178C01CE010E94EC16800F911FCE
:102FA000DF91CF911F910F9108952115310541F4C3
:102FB000DC01ED91FC910190F081E02D642F0994EA
:102FC0000C9412179A01462F50E060E070E00C94C8
:102FD000D5174F925F926F927F928F929F92AF928E
:102FE000BF92CF92DF92EF92FF920F931F93CF93F6
:102FF000DF93EC016A017B01B22E9A01AB01C7019C
:10300000B6010E949B1C882319F065E873E027C075
:1030100026013701E89477F82FEF3FEF4FE75FE79E
:10302000C301B2010E949B1C81110DC02FEF3FEF25
:103030004FE75FE7C301B2010E94A31A18161CF400
:1030400069E873E00CC02FEF3FEF4FE75FE4C70183
:10305000B6010E94F21B1816ACF46DE873E0CE01C5
:10306000DF91CF911F910F91FF90EF90DF90CF9064
:10307000BF90AF909F908F907F906F905F904F9098
:103080000C94CD162FEF3FEF4FE75FECC701B60171
:103090000E94A31A87FDE1CF20E030E0A901C7011B
:1030A000B6010E94A31A87FF0AC06DE2CE010E94FA
:1030B000E5168C01F7FAF094F7F8F09402C000E0FE
:1030C00010E0A12C60E070E080E09FE3AB1441F0E1
:1030D00020E030E040E251E40E94A71AA394F6CF2A
:1030E0009B01AC01C701B6010E943F1A6B017C0134
:1030F0000E94141B2B013C010E94401B9B01AC0150
:10310000C701B6010E943E1A6B017C012AE0B3019F
:10311000A201CE010E941217080F191FBB2039F01F
:1031200061E973E0CE010E94CD16080F191F7B2CB8
:10313000772041F120E030E040E251E4C701B601E0
:103140000E94F61B6B017C010E940F1B4B01AA24FD
:1031500097FCA094BA2C2AE030E0B501A401CE017E
:103160000E946B17080F191FC501B4010E94421B72
:103170009B01AC01C701B6010E943E1A6B017C01A4
:103180007A94D6CFC801DF91CF911F910F91FF9014
:10319000EF90DF90CF90BF90AF909F908F907F90F7
:1031A0006F905F904F9008950C94E9170F931F93C1
:1031B000CF93DF93EC010E94E9178C01CE010E94AE
:1031C000EC16800F911FDF91CF911F910F91089501
:1031D00008950E94C5150E94E8180E94A401C5E246
:1031E000D9E10E94E7042097E1F30E942519F9CF65
:1031F000FC01818D228D90E0805C9F4F821B9109A4
:103200008F7399270895FC01918D828D981731F065
:10321000828DE80FF11D858D90E008958FEF9FEF6F
:103220000895FC01918D828D981761F0828DDF01E8
:10323000A80FB11D5D968C91928D9F5F9F73928FA9
:1032400090E008958FEF9FEF089588E596E1892B30
:1032500049F080E090E0892B29F00E9458168111F6
:103260000C9400000895FC01848DDF01A80FB11DAE
:10327000A35ABF4F2C91848D90E001968F739927AC
:10328000848FA689B7892C93A089B1898C91806499
:103290008C93938D848D981306C00288F389E02D5A
:1032A00080818F7D80830895CF93DF93EC01888D9B
:1032B0008823C9F0EA89FB89808185FD05C0A8893A
:1032C000B9898C9186FD0FC00FB607FCF5CF8081C0
:1032D00085FFF2CFA889B9898C9185FFEDCFCE010A
:1032E0000E943319E7CFDF91CF910895CF92DF92FB
:1032F000FF920F931F93CF93DF931F92CDB7DEB74B
:103300006C01DC015B969C915B975C968C915C9761
:10331000981307C05096ED91FC915197808185FDDF
:1033200032C0F601038D10E00F5F1F4F0F7311279E
:10333000F02EF601848DF81211C00FB607FCF9CFFC
:10334000D6015096ED91FC915197808185FFF1CF88
:10335000C60169830E9433196981EBCF838DE80F21
:10336000F11DE35AFF4F6083D6015B960C935B9788
:103370005296ED91FC91539780818062808381E029
:1033800058968C930DC0D6015696ED91FC915797A7
:1033900060835096ED91FC91519780818064808389
:1033A00081E090E00F90DF91CF911F910F91FF90FE
:1033B000DF90CF900895BF92CF92DF92EF92FF926D
:1033C000CF93DF93EC016A017B01B22EE889F98982
:1033D00082E08083411581EE580761057105A1F0F7
:1033E00060E079E08DE390E0A70196010E94B41CB3
:1033F000215031094109510956954795379527952F
:10340000211580E1380798F0E889F989108260E891
:1034100074E88EE190E0A70196010E94B41C21504F
:103420003109410951095695479537952795EC85FE
:10343000FD853083EE85FF852083188EEC89FD891C
:10344000B082EA89FB89808180618083EA89FB8977
:10345000808188608083EA89FB898081806880839D
:10346000EA89FB8980818F7D8083DF91CF91FF90F6
:10347000EF90DF90CF90BF90089508955058BB27EC
:10348000AA270ED075C166D130F06BD120F031F48F
:103490009F3F11F41EF45BC10EF4E095E7FB51C1B0
:1034A000E92F77D180F3BA1762077307840795076E
:1034B00018F071F49EF58FC10EF4E0950B2EBA2F23
:1034C000A02D0B01B90190010C01CA01A00111242A
:1034D000FF27591B99F0593F50F4503E68F11A16D6
:1034E000F040A22F232F342F4427585FF3CF469567
:1034F00037952795A795F0405395C9F77EF41F1689
:10350000BA0B620B730B840BBAF09150A1F0FF0F52
:10351000BB1F661F771F881FC2F70EC0BA0F621F3E
:10352000731F841F48F4879577956795B795F7952E
:103530009E3F08F0B3CF9395880F08F09927EE0FC0
:10354000979587950895D9D008F481E008950CD017
:103550000FC107D140F0FED030F021F45F3F19F0E9
:10356000F0C0511139C1F3C014D198F39923C9F3B4
:103570005523B1F3951B550BBB27AA276217730779
:10358000840738F09F5F5F4F220F331F441FAA1F2D
:10359000A9F333D00E2E3AF0E0E830D091505040ED
:1035A000E695001CCAF729D0FE2F27D0660F771F9B
:1035B000881FBB1F261737074807AB07B0E809F07D
:1035C000BB0B802DBF01FF2793585F4F2AF09E3F12
:1035D000510568F0B6C000C15F3FECF3983EDCF3E4
:1035E000869577956795B795F7959F5FC9F7880F8B
:1035F000911D9695879597F90895E1E0660F771FDD
:10360000881FBB1F621773078407BA0720F0621B6D
:10361000730B840BBA0BEE1F88F7E095089504D066
:103620006894B111D9C00895BCD088F09F5790F02C
:10363000B92F9927B751A0F0D1F0660F771F881FD7
:10364000991F1AF0BA95C9F712C0B13081F0C3D0F2
:10365000B1E00895C0C0672F782F8827B85F39F090
:10366000B93FCCF3869577956795B395D9F73EF436
:1036700090958095709561957F4F8F4F9F4F0895DE
:10368000E89409C097FB3EF49095809570956195FC
:103690007F4F8F4F9F4F9923A9F0F92F96E9BB27B2
:1036A0009395F695879577956795B795F111F8CF2E
:1036B000FAF4BB0F11F460FF1BC06F5F7F4F8F4F99
:1036C0009F4F16C0882311F096E911C0772321F08F
:1036D0009EE8872F762F05C0662371F096E8862F27
:1036E00070E060E02AF09A95660F771F881FDAF77E
:1036F000880F9695879597F90895990F0008550FAB
:10370000AA0BE0E8FEEF16161706E807F907C0F067
:1037100012161306E407F50798F0621B730B840B6F
:10372000950B39F40A2661F0232B242B252B21F449
:1037300008950A2609F4A140A6958FEF811D811DE9
:10374000089597F99F6780E870E060E008959FEF23
:1037500080EC089500240A94161617061806090628
:10376000089500240A9412161306140605060895F7
:10377000092E0394000C11F4882352F0BB0F40F47F
:10378000BF2B11F460FF04C06F5F7F4F8F4F9F4FBF
:10379000089557FD9058440F551F59F05F3F71F041
:1037A0004795880F97FB991F61F09F3F79F08795A8
:1037B0000895121613061406551FF2CF4695F1DF31
:1037C00008C0161617061806991FF1CF86957105C1
:1037D000610508940895E894BB2766277727CB01F5
:1037E00097F908958ADF08F48FEF08950BD0C0CFC2
:1037F000B1DF28F0B6DF18F0952309F0A2CFA7CFEC
:103800001124EACFC6DFA0F3959FD1F3950F50E0C6
:10381000551F629FF001729FBB27F00DB11D639F82
:10382000AA27F00DB11DAA1F649F6627B00DA11D28
:10383000661F829F2227B00DA11D621F739FB00DCE
:10384000A11D621F839FA00D611D221F749F33273E
:10385000A00D611D231F849F600D211D822F762FD7
:103860006A2F11249F5750408AF0E1F088234AF0D4
:10387000EE0FFF1FBB1F661F771F881F9150504020
:10388000A9F79E3F510570F05CCFA6CF5F3FECF3E8
:10389000983EDCF3869577956795B795F795E7950C
:1038A0009F5FC1F7FE2B880F911D9695879597F91D
:1038B000089511F40EF44BCF42C073DFD0F3992377
:1038C000D9F3CEF39F57550B87FF47D00024A0E6CE
:1038D00040EA900180585695979528F4805C660FD1
:1038E000771F881F20F026173707480730F4621B20
:1038F000730B840B202931294A2BA6951794079422
:10390000202531254A2758F7660F771F881F20F09A
:1039100026173707480730F4620B730B840B200D12
:10392000311D411DA09581F7B901842F9158880F51
:10393000969587950895E1DE880B990B08959F3F32
:1039400031F0915020F4879577956795B795880F5A
:10395000911D9695879597F9089591505040660F5F
:10396000771F881FD2F70895A1E21A2EAA1BBB1B4E
:10397000FD010DC0AA1FBB1FEE1FFF1FA217B3073B
:10398000E407F50720F0A21BB30BE40BF50B661F51
:10399000771F881F991F1A9469F760957095809515
:1039A00090959B01AC01BD01CF010895052E97FBB9
:1039B0001EF400940E94ED1C57FD07D00E94B41C19
:1039C00007FC03D04EF40C94ED1C509540953095B7
:1039D00021953F4F4F4F5F4F08959095809570957B
:1039E00061957F4F8F4F9F4F08950E94FD1C332399
:1039F00012F48A1B9B0B0C940E1DA29FB001B39F67
:103A0000C001A39F700D811D1124911DB29F700DE7
:103A1000811D1124911D08950E94FD1CB7FF08957A
:103A2000821B930B0895EE0FFF1F0590F491E02D7C
:103A30000994FB01DC0102C001900D9241505040FD
:083A4000D8F70895F894FFCFB8
:103A48000000890680000401656D6F6E5478205669
:103A5800332044697363726574652053616D706CBB
:103A6800696E672056004F70656E456E657267799E
:103A78004D6F6E69746F722E6F726700504F53549A
:103A88002E2E2E2E2E776169742031307300435408
:103A980020312043616C6962726174696F6E3A20EB
:103AA80000435420322043616C6962726174696F0B
:103AB8006E3A2000435420332043616C696272617E
:103AC80074696F6E3A2000435420342043616C6956
:103AD80062726174696F6E3A2000524D5320566FBE
:103AE8006C74616765206F6E2041432D414320410E
:103AF80064617074657220696E7075742069733AB8
:103B0800207E0041432D41432061646170746572D9
:103B1800206465746563746564202D205265616C4A
:103B280020506F776572206D6561737572656D657C
:103B38006E747320656E61626C6564006173737581
:103B48006D696E6720706F776572696E672066723F
:103B58006F6D2041432D414320616461707465722B
:103B680020286A756D70657220636C6F73656429AF
:103B7800005663616C3A2000506861736520536891
:103B88006966743A200041432D4143204E4F54202A
:103B98006465746563746564202D2041707061727A
:103BA800656E7420507772206D656173757265203B
:103BB800656E61626C656400417373756D696E67EB
:103BC8002056524D533A2000417373756D696E67E4
:103BD800207077722066726F6D2062617474202F76
:103BE80020355620555342202D207077722073615E
:103BF800766520656E61626C6564004E4F204354A3
:103C080027732064657465637465640043542031C8
:103C180020646574656374656400435420322064CD
:103C28006574656374656400435420332064657467
:103C38006563746564004354203420646574656367
:103C48007465640044657465637465642000204489
:103C58005331384232302E2E7573696E672074687E
:103C6800697320666F722074656D70657261747512
:103C780072652072656164696E67004E6F207465B5
:103C88006D70657261747572652073656E736F729D
:103C98000052464D31324220496E6974696174653B
:103CA800643A20004E6F64653A20002046726571C0
:103CB8003A20003836384D687A00204E6574776FA0
:103CC800726B3A20006E616E00696E66006F7666F0
:103CD800002E00000000007619A516F81811190327
:043CE8001954190052
:00000001FF
