:100000000C94E3000C9467140C9494140C940B015E
:100010000C940B010C940B010C9483060C940B01B3
:100020000C940B010C940B010C940B010C940B0120
:100030000C940B010C940B010C940B010C940B0110
:100040000C94C1140C940B010C9432180C9480186D
:100050000C940B010C940B010C940B010C940B01F0
:100060000C940B010C940B01005EBCE2613FDD833C
:10007000C29C7E20A3FD1F419DC3217FFCA2401E88
:100080005F01E3BD3E6082DC237D9FC1421CFEA078
:10009000E1BF5D0380DE3C62BEE0025CDF81633D68
:1000A0007C22C09E1D43A1FF4618FAA427799BC558
:1000B00084DA3866E5BB5907DB856739BAE4065848
:1000C0001947A5FB7826C49A653BD987045AB8E638
:1000D000A7F91B45C6987A24F8A6441A99C7257B28
:1000E0003A6486D85B05E7B98CD2306EEDB3510F18
:1000F0004E10F2AC2F7193CD114FADF3702ECC9208
:10010000D38D6F31B2EC0E50AFF1134DCE90722CF7
:100110006D33D18F0C52B0EE326C8ED0530DEFB1E7
:10012000F0AE4C1291CF2D73CA947628ABF51749D7
:100130000856B4EA6937D58B5709EBB536688AD4C7
:1001400095CB2977F4AA4816E9B7550B88D6346AB7
:100150002B7597C94A14F6A8742AC896154BA9F7A7
:10016000B6E80A54D7896B35000000002400270048
:100170002A0000000000250028002B0000000000DD
:1001800023002600290004040404040404040202D9
:100190000202020203030303030301020408102006
:1001A0004080010204081020010204081020000011
:1001B0000007000201000003040600000000000028
:1001C00000001601EE1911241FBECFEFD8E0DEBFEC
:1001D000CDBF13E0A0E0B1E0E8E5FAE302C005908E
:1001E0000D92A43BB107D9F716E0A4EBB3E001C030
:1001F0001D92AF38B107E1F711E0C6ECD1E004C0C1
:100200002297FE010E94261DC23CD107C9F70E9419
:1002100022180C942A1D0C940000FB01DC0102C082
:1002200001900D9241505040D8F708950F931F93BD
:100230000CE215E0C80163E10E940F108AE395E02B
:10024000B8010E9445101F910F910895CF92DF923F
:10025000EF92FF920F931F93CF93DF936B01EE24E6
:10026000FF248701C0E0D0E016C080E00E9429137F
:10027000805092409C01229FC001239F900D329F8D
:10028000900D1124AA2797FDA095BA2FE80EF91E0C
:100290000A1F1B1F2196CC15DD053CF3C801B701D1
:1002A0000E94461B7B018C01B601882777FD809553
:1002B000982F0E94481B9B01AC01C801B7010E9406
:1002C000AD1A0E94631CDF91CF911F910F91FF9097
:1002D000EF90DF90CF90089528EE33E0AC01429F7D
:1002E000C001439F900D529F900D11240E94DB0688
:1002F00008958FEF0E94380980E06DE475E04CE0CE
:100300000E94630982E00E941B0980E00E94380974
:100310000895EF92FF920F931F9380915E058823BB
:1003200031F068EC70E080E090E00E941715809159
:100330005A058823D9F180915E05882389F084EBE2
:1003400093E064E170E040ED57E00E94470B60915C
:10035000B4037091B5038091B6039091B7030CC0BC
:1003600084EB93E068EC75E00E94740A20E030E0D2
:1003700046E653E40E94FC1B0E94151B70934E0539
:1003800060934D0580915F05813081F460914D054A
:1003900070914E058DE696E04AE050E00E94E0162E
:1003A0008DE696E060E071E00E94121780915B0597
:1003B0008823D9F180915E05882389F082E194E059
:1003C00064E170E040ED57E00E94470B6091120439
:1003D0007091130480911404909115040CC082E173
:1003E00094E068EC75E00E94740A20E030E046E694
:1003F00053E40E94FC1B0E94151B709350056093F0
:100400004F0580915F05813081F460914F057091B7
:1004100050058DE696E04AE050E00E94E0168DE639
:1004200096E060E071E00E94121780915C058823DD
:10043000D9F180915E05882389F080E794E064E13A
:1004400070E040ED57E00E94470B6091700470919E
:10045000710480917204909173040CC080E794E061
:1004600068EC75E00E94740A20E030E046E653E450
:100470000E94FC1B0E94151B70935205609351054E
:1004800080915F05813081F4609151057091520532
:100490008DE696E04AE050E00E94E0168DE696E098
:1004A00060E071E00E94121780915D058823D9F108
:1004B00080915E05882389F08EEC94E064E170E021
:1004C00040ED57E00E94470B6091CE047091CF043D
:1004D0008091D0049091D1040CC08EEC94E068EC33
:1004E00075E00E94740A20E030E046E653E40E9482
:1004F000FC1B0E94151B709354056093530580915B
:100500005F05813081F460915305709154058DE64B
:1005100096E04AE050E00E94E0168DE696E060E04A
:1005200071E00E94121780915E05882331F1E090FE
:10053000C003F090C1030091C2031091C303C8012E
:10054000B70120E030E048EC52E40E94FC1B0E941E
:10055000151B709356056093550580915F0581309A
:1005600061F480916105882341F08DE696E0B80141
:10057000A70122E030E00E94F91780915F058130E9
:1005800071F480916105882351F08DE696E00E9418
:10059000DF1564E170E080E090E00E941715809123
:1005A0005905882351F40E94091569587341804008
:1005B000904018F081E0809359058091600581306A
:1005C00009F07FC085E061E00E948A1382E390E039
:1005D0000E94DB0600E010E00FC0B80183E0660F68
:1005E000771F8A95E1F76C597A4F8AE395E04BE0E3
:1005F0000E946C120F5F1F4F8091620590916305FE
:100600000817190754F38AE395E00E94A81187E7B9
:1006100091E00E94DB068AE395E064E675E00E94C3
:1006200014127B018C0185E060E00E948A13C801EE
:10063000B70120E030E04AEF52E40E94A91A882373
:10064000C4F4C801B70120E030E040E252EC0E945F
:10065000F81B181674F4C801B70120E030E040E23E
:1006600051E40E94FC1B0E94151B70935805609377
:10067000570580915F05813021F58DE696E062E0B7
:1006800071E00E94121760915705709158058827F4
:1006900077FD8095982F0E94481B2DEC3CEC4CEC8C
:1006A0005DE30E94FC1BAB01BC018DE696E022E0FD
:1006B00030E00E94FC1764E170E080E090E00E946E
:1006C0001715809159058823F9F00E9479018091CE
:1006D0005E058823A9F060E177E280E090E00E9467
:1006E000171586E061E00E948A1368EC70E080E0F4
:1006F00090E00E94171586E060E00E948A1304C013
:100700008AE090E00E946C011F910F91FF90EF90A2
:100710000895CF92DF92EF92FF920F931F9386E09E
:1007200061E00E944B1385E061E00E944B1386E07C
:1007300061E00E948A138AE062E042ED0E94B00903
:1007400000E010E010934E0500934D0580E06DE44D
:1007500075E04CE00E94630964E670E080E090E0A0
:100760000E9417150F5F1F4F0A30110559F782E0DD
:100770000E941B0910924E0510924D0580E00E94C8
:10078000380981E00E942913181619064CF481E0FB
:1007900080935A05809161058F5F8093610502C047
:1007A00010925A0582E00E942913181619064CF47B
:1007B00081E080935B05809161058F5F8093610587
:1007C00002C010925B0583E00E94291318161906D7
:1007D0004CF481E080935C05809161058F5F80938C
:1007E000610502C010925C0584E00E94291318166E
:1007F00019064CF481E080935D05809161058F5F5F
:100800008093610502C010925D0580E197E20E942D
:10081000DB0686E060E00E948A1380E090E064EFEF
:1008200076E00E94260120E030E040E350E40E94A0
:10083000FC1B6B017C0120E030E044EB52E40E94A1
:10084000F81B181624F481E080935E0502C0109214
:100850005E0580915E058823E1F000E010E086E00F
:1008600061E00E948A1368EC70E080E090E00E94F2
:10087000171586E060E00E948A136CE271E080E068
:1008800090E00E9417150F5F1F4F0A30110539F7CE
:1008900014C068EE73E080E090E00E94171586E0D7
:1008A00061E00E948A1360ED77E080E090E00E94B2
:1008B000171586E060E00E948A1385E061E00E94DF
:1008C0008A1362E370E080E090E00E9417158AE3EB
:1008D00095E00E94C0128AE395E060E00E94571004
:1008E0008AE395E00E94541080936205109263059C
:1008F00010E0612F70E080916205909163056817A8
:1009000079070CF0EDC193E0660F771F9A95E1F738
:100910006C597A4F8CE295E00E94790F882309F494
:10092000DFC11F5FE6CF1092600503C081E08093B6
:1009300060058DE696E00E94EC19882321F081E0A5
:1009400080935F0502C010925F0580915F05813042
:1009500009F028C18DE696E040E855E260E070E0DD
:100960000E94BB188DE696E060E171E00E940F18CE
:100970008DE696E06CE271E00E940F1868EE73E07D
:1009800080E090E00E9417158DE696E062E471E049
:100990000E9412178DE696E049E155E86BEA72E491
:1009A00022E030E00E94FC178DE696E067E571E0FA
:1009B0000E9412178DE696E04EEA57E465E871E46E
:1009C00022E030E00E94FC1768EE73E080E090E0E7
:1009D0000E9417158DE696E06AE671E00E941217F4
:1009E0008DE696E0B701A60120E030E00E94F917FD
:1009F0008DE696E063E971E00E940F1880915E0534
:100A0000882369F18DE696E065E971E00E940F1890
:100A10008DE696E06EEC71E00E940F188DE696E090
:100A200063E072E00E9412178DE696E04DEB5BE703
:100A30006EE873E422E030E00E94FC178DE696E059
:100A40006AE072E00E9412178DE696E04AE959E9E1
:100A500069ED7FE322E030E00E94FC171FC08DE6C5
:100A600096E068E172E00E940F188DE696E069E575
:100A700072E00E9412178DE696E066EE4AE050E0C2
:100A80000E948E168DE696E063E971E00E940F18D1
:100A90008DE696E06EE672E00E940F188091610587
:100AA000882329F48DE696E064EB72E026C08091FD
:100AB0005A05882331F08DE696E065EC72E00E94DD
:100AC0000F1880915B05882331F08DE696E063ED89
:100AD00072E00E940F1880915C05882331F08DE64A
:100AE00096E061EE72E00E940F1880915D05882308
:100AF00031F08DE696E06FEE72E00E940F18809163
:100B000060058130A9F48DE696E06DEF72E00E94F9
:100B1000121760916205709163058DE696E04AE0D8
:100B200050E00E94E0168DE696E067E073E004C0B6
:100B30008DE696E064E373E00E940F188DE696E080
:100B400060E673E00E940F188DE696E063E773E0BD
:100B50000E9412178DE696E06AE070E04AE050E0ED
:100B60000E94E0168DE696E06AE773E00E94121795
:100B70008DE696E062E873E00E9412178DE696E03B
:100B800069E873E00E9412178DE696E062ED70E06E
:100B90004AE050E00E94F31664EF71E080E090E0DC
:100BA0000E94171580915A05882351F084EB93E039
:100BB00061E070E029E135E84BEA52E40E94400A26
:100BC00080915B05882351F082E194E062E070E05F
:100BD00029E135E84BEA52E40E94400A80915C0525
:100BE000882351F080E794E063E070E029E135E884
:100BF0004BEA52E40E94400A80915D05882351F03F
:100C00008EEC94E064E070E02EEA37E445E851E4CD
:100C10000E94400A80915E05882309F46DC080918E
:100C20005A058823A1F084EB93E060E070E02DEB9F
:100C30003BE74EE853E40F2EFAE9EF2EF9E9FF2ED9
:100C4000F9ED0F2FFFE31F2FF02D0E942C0A80914A
:100C50005B058823A1F082E194E060E070E02DEB79
:100C60003BE74EE853E40F2EFAE9EF2EF9E9FF2EA9
:100C7000F9ED0F2FFFE31F2FF02D0E942C0A80911A
:100C80005C058823A1F080E794E060E070E02DEB44
:100C90003BE74EE853E40F2EFAE9EF2EF9E9FF2E79
:100CA000F9ED0F2FFFE31F2FF02D0E942C0A8091EA
:100CB0005D05882309F18EEC94E060E070E02DEB97
:100CC0003BE74EE853E40F2EFAE9EF2EF9E9FF2E49
:100CD000F9ED0F2FFFE31F2FF02D0E942C0A0CC0FF
:100CE00085E060E00E948A1380916205909163051F
:100CF000892B09F418CE1ACE1F910F91FF90EF9017
:100D0000DF90CF9008951F920F920FB60F9211248B
:100D10002F933F934F935F936F937F938F939F9303
:100D2000AF93BF93EF93FF930E943307FF91EF912F
:100D3000BF91AF919F918F917F916F915F914F91F3
:100D40003F912F910F900FBE0F901F901895982FE5
:100D500083FF02C088E2982797FF02C090E001C09D
:100D6000906484B7877F84BFF89480916000886125
:100D7000809360009093600078940895EAE7F0E033
:100D8000908180818F77808383B7817F846083BFE8
:100D9000F89483B7816083BF85B7806685BF85B7C8
:100DA0008F79806485BF7894889583B78E7F83BF61
:100DB00090937A000895CF92DF92EF92FF921F9363
:100DC000CF93DF937C01EC0158E0C52ED12C20C0DD
:100DD0001F5F193029F09695879580329105C0F7ED
:100DE00010928405812F0E94A7060E94BE068FEFF5
:100DF0000E94A706960102C0220F331F1A95E2F740
:100E0000C21BD30B80918405882351F0C21BD30BE6
:100E1000C031D10510F461E004C0CE0110E0DDCF97
:100E200060E02091E0053091E1054091E2055091AC
:100E3000E305EC1AFD0AC701A0E0B0E0820F931FA2
:100E4000A41FB51F8093E0059093E105A093E205F0
:100E5000B093E305862FDF91CF911F91FF90EF9024
:100E6000DF90CF900895809184058F5F80938405F3
:100E70000895782F8CB581608CBD6BB121E030E096
:100E800040E050E00090A20304C0220F331F441F33
:100E9000551F0A94D2F7522F822F809586238BB943
:100EA0009EBD0DB407FEFDCF8EB57EBD0DB407FE11
:100EB000FDCF4EB5382F20E08BB1582B5BB98CB5E8
:100EC0008E7F8CBD50E0422B532BCA010895E998C8
:100ED0000E943907E99A089580E090E00E9439075E
:100EE0008091D505853009F054C080E090EB0E94D8
:100EF0003907282F8091D705882371F49091D60562
:100F0000992351F08091D705E82FF0E0E957FA4F87
:100F100090838F5F8093D7058091D705E82FF0E00D
:100F2000E957FA4F20838F5F8093D705809185051D
:100F3000909186058227282F22952827022E269514
:100F400026952025022E269520252770082E892FEC
:100F5000269507942795902D82270694279590250E
:100F6000822790938605809385058091890520913D
:100F7000D70590E0049630E0821793072CF080911B
:100F8000D705873408F46DC08DE092E80E943907D8
:100F900008958091D50587FF2EC0E0918905809145
:100FA000D5058F5F8093D5058150ED5FE80FF0E0A8
:100FB000E957FA4FE08180918505909186058E274B
:100FC000282F22952827022E269526952025022EA9
:100FD000269520252770082E892F2695079427957A
:100FE000902D822706942795902582279093860539
:100FF0008093850530C08091D5058F5F8093D5059E
:101000008150833019F184302CF4882399F0813099
:1010100009F516C0893019F08A30E1F402C0EDE21A
:101020001AC0E091D605909189058EEF891B8093B7
:10103000D50511C08091850590918605E82F0BC0DC
:101040008091850590918605E92F05C08DE092E895
:101050000E943907EAEA8E2F90E0805098440E945F
:10106000390708958091D505853009F042C08091F7
:1010700089052091D70590E0049630E08217930708
:1010800024F08091D7058734A0F184E08093D505C2
:1010900080918905833430F081E090E0909386055B
:1010A000809385058091880586FF12C08091D405C4
:1010B000282F30E0C9018F7190704F9749F08091CF
:1010C000880590E0822793278F719070892B89F48F
:1010D0008091850590918605892B09F044C0E091A7
:1010E000D205F091D305309709F43DC080E0099511
:1010F00046C08091D505843011F080E008951092AB
:101100008905809189058093D7058FEF9FEF909394
:101110008605809385052091D6052223D9F0822764
:10112000282F22952827022E269526952025022E47
:10113000269520252770082E892F26950794279518
:10114000902D8227069427959025822790938605D7
:101150008093850585E08093D5058DED92E80E940A
:10116000390780E008958FEF9FEFAFEFBFEF8093D7
:10117000CE059093CF05A093D005B093D10581E023
:1011800008958091D505853099F48091D7058823FD
:1011900079F480E090E00E94670790FD09C08DE03F
:1011A00092E80E94670784E08093D50581E0089566
:1011B00080E00895982F86FD05C0907E8091D4052B
:1011C0008F71980F90938805E091D205F091D30527
:1011D000309711F081E009958FEF9FEF909386058E
:1011E0008093850580918505909186052091D6058F
:1011F0008227282F22952827022E269526952025FE
:10120000022E269520252770082E892F26950794D3
:101210002795902D822706942795902582279093D5
:1012200086058093850586E08093D5058DE392E859
:101230000E9439070895282F16C02223A1F093B7E2
:10124000233011F484E005C0223011F080E001C0A9
:101250008CE0917F892B83BF83B7816083BF8895A2
:1012600083B78E7F83BF8091D505843031F7089591
:101270001F93182F87FF03C08DE092E80EC09927B7
:1012800087FD9095956E0E94670785E092E80E9421
:101290006707112321F087E092E80E94670784E046
:1012A0008093D5051F9108951F93182F40938905AA
:1012B0002AE835E0C90150E00E940D01812F0E940B
:1012C000DA081F9108950F931F93CF93DF93182F80
:1012D000EB01042F02C00E9432080E94C10888233B
:1012E000D1F3812FBE01402F0E945409DF91CF918D
:1012F0001F910F9108952BB181E090E0A0E0B0E044
:101300000090A20304C0880F991FAA1FBB1F0A9454
:10131000D2F7282B2BB92AB1822B8AB98AE061E057
:101320000E948A138AE061E00E944B138BE061E027
:101330000E944B138CE060E00E944B138DE061E053
:101340000E944B1380E58CBD8DB581608DBD83E01F
:1013500060E00E944B1383E061E00E948A130895CD
:101360001F93162F8093D4054093D6050E947B09C6
:1013700080E090E00E94390785E092E80E943907FA
:1013800080E098EB02C080E090E00E94390783E0A3
:101390000E94DE13892BB9F3812F90E074E0880F4F
:1013A000991F7A95E1F7876C90680E94390780E46D
:1013B00096EA0E94390786E096EC0E94390782EA95
:1013C00090E90E9439078CEA92EC0E94390710914B
:1013D000D605112341F083E89AEC0E943907812F4A
:1013E00090E09E6C06C08BE89AEC0E9439078DE273
:1013F0009EEC0E94390783E894EC0E94390780E54F
:1014000098E90E94390787E79CEC0E94390780E041
:1014100090EE0E94390780E098EC0E94390789E439
:1014200090EC0E94390784E08093D5058091D40523
:1014300090E08F719070892B41F081E06CE677E04D
:1014400040E050E00E94311403C081E00E94541437
:101450008091D4051F910895EF92FF920F931F93EF
:10146000FC01758B648B208F318F428F538FE0A2EC
:10147000F1A202A313A31F910F91FF90EF90089583
:10148000FC01778B668B248F358F468F578F08959D
:101490008EE480937C0062E070E080E090E00E9447
:1014A000171580917A00806480937A0080917A0089
:1014B00086FDFCCF8091780090E0A0E0B0E06091E4
:1014C0007900362F20E0442737FD4095542F282BF4
:1014D000392B4A2B5B2B60E070E381E190E00E94A6
:1014E000091DCA01B90108952F923F924F925F9250
:1014F0006F927F928F929F92AF92BF92CF92DF9224
:10150000EF92FF920F931F93CF93DF93EC012B0188
:101510000E94480A3B014C01CC24DD249CE4A92E06
:10152000B12CAC0EBD1E88E4282E312C2C0E3D1E95
:1015300053C08AA59BA599A788A78E890E942913C5
:101540009BA78AA7E8ACF9AC0AAD1BADECAAFDAA33
:101550000EAB1FABAA2797FDA095BA2FBC01CD01FA
:101560000E94481B9B01AC01C801B7010E94451AAB
:101570007B018C0168A579A5882777FD8095982F38
:101580000E94481B9B01AC01C801B7010E94441A8C
:101590002BED39EF4EE75FE30E94FC1B9B01AC0192
:1015A00068AF79AF8AAF9BAF0E94FC1B9B01AC0177
:1015B000F1016083718382839383F501608171817E
:1015C000828193810E94451AF50160837183828331
:1015D00093830894C11CD11CC414D5040CF4A9CF66
:1015E000B201882777FD8095982F0E94481B9B01A8
:1015F000AC01F50160817181828193810E94AD1AF5
:101600000E94631C7B018C01B301882777FD8095C4
:10161000982F0E94481B20E030E04AE754E40E94E3
:10162000AD1A20E030EC4FE754E40E94AD1A2C8D47
:101630003D8D4E8D5F8D0E94FC1BA80197010E947D
:10164000FC1B688B798B8A8B9B8B80E090E0A0E001
:10165000B0E0F50180839183A283B383288939891F
:101660004A895B89B901CA01DF91CF911F910F911E
:10167000FF90EF90DF90CF90BF90AF909F908F90B2
:101680007F906F905F904F903F902F9008952F9292
:101690003F924F925F926F927F928F929F92AF9202
:1016A000BF92CF92DF92EF92FF920F931F93DF933F
:1016B000CF93CDB7DEB7AC970FB6F894DEBF0FBEB1
:1016C000CDBF9C878B877E876D878A010E94480AE1
:1016D0006F83788789879A870E9409156B017C013F
:1016E000AB84BC8428E530E0A20EB31EC801AA2753
:1016F00097FDA095BA2F8FA398A7A9A7BAA7AB85E6
:10170000BC8554968C910E9429138C01F50191831C
:1017100080830E9409156C197D098E099F092FA1EC
:1017200038A549A55AA5261737074807590728F0AD
:10173000095B11400D36110510F70E9409156983E8
:101740007A838B839C831E821D82222433244B85C3
:101750005C85405C5F4F588F4F8B8B859C858C5B85
:101760009F4F9A8F898FAB85BC85A85BBF4FBC8F7D
:10177000AB8FEB85FC85E45BFF4FFE8FED8F2B85F8
:101780003C85205B3F4F38A32F8F4B855C854C5A9F
:101790005F4F5AA349A38B859C85865A9F4F9CA374
:1017A0008BA3AB85BC85A55ABF4FBCA7ABA7EB8568
:1017B000FC85E85AFF4FFEA3EDA31FC0E1E0ABA5F7
:1017C000BCA5EC9303C0ABA5BCA51C92B1E02B1645
:1017D000310431F4EBA5FCA58081ABA1BCA18C93B5
:1017E000EBA1FCA19081ABA5BCA58C91981729F029
:1017F000ED81FE813196FE83ED832D813E814D8505
:101800005E85241735070CF03AC10E94091529811D
:101810003A814B815C81621B730B840B950B2FA16A
:1018200038A549A55AA5621773078407950708F0DC
:1018300026C10894211C311CAB85BC8596968D91E0
:101840009C91979795969C938E9394979A968D9149
:101850009C919B9799969C938E939897FD0180A954
:1018600091A9A2A9B3A984A795A7A6A7B7A780AD58
:1018700091ADA2ADB3AD84AB95ABA6ABB7AB84894C
:101880000E942913AB85BC8597969C938E9396975F
:1018900056968C910E9429137C01EB85FC8593A7B9
:1018A00082A746A057A0B201882777FD8095982F80
:1018B0000E94481BAB85BC859C962D913D914D9116
:1018C0005C919F970E94451A5B016C01EB85FC853A
:1018D00064A175A1882777FD8095982F0E94481BE9
:1018E0009B01AC01C601B5010E94441A2BED39EFF2
:1018F0004EE75FE30E94FC1B3B014C01AB85BC85BE
:10190000D0966D937D938D939C93D3970027F7FC8E
:101910000095102FC801B7010E94481BEB85FC857C
:1019200024A935A946A957A90E94451A7B018C0113
:10193000AB85BC8598966D917C919997882777FDAA
:101940008095982F0E94481B9B01AC01C801B701EC
:101950000E94441A2BED39EF4EE75FE30E94FC1B17
:101960005B016C01EB85FC8560AF71AF82AF93AF1B
:10197000C401B301A40193010E94FC1B9B01AC01B3
:10198000AF89B88D6D937D938D939C931397E98D5B
:10199000FA8D60817181828193810E94451AA98D9F
:1019A000BA8D6D937D938D939C931397C601B5016A
:1019B000A60195010E94FC1B9B01AC01EB8DFC8DE7
:1019C0006083718382839383AD8DBE8D6D917D9194
:1019D0008D919C910E94451AED8DFE8D60837183DF
:1019E00082839383AB85BC859C96ED90FD900D9191
:1019F0001C919F97C401B301A80197010E94441A4A
:101A0000EB85FC8520A131A142A153A10E94FC1BC2
:101A10009B01AC01C801B7010E94451AAB85BC858A
:101A2000DC966D937D938D939C93DF97A601950132
:101A30000E94FC1B9B01AC01EF8DF8A160837183B8
:101A400082839383A9A1BAA16D917D918D919C917F
:101A50000E94451AE9A1FAA160837183828393836E
:101A6000ABA5BCA58C91EBA1FCA18083ADA1BEA1CF
:101A70008D919C91841595050CF4A0CEA4CEEF8198
:101A8000F885BF01882777FD8095982F0E94481B15
:101A900020E030E04AE754E40E94AD1A20E030EC48
:101AA0004FE754E40E94AD1A7B018C01AB85BC85E5
:101AB00058962D913D914D915C915B970E94FC1B36
:101AC0006F87788B898B9A8BB101882777FD8095FA
:101AD000982F0E94481B5B016C01EB85FC85EC5B39
:101AE000FF4FFC8BEB8B6081718182819381A6011A
:101AF00095010E94AD1A0E94631C9B01AC016F8589
:101B0000788989899A890E94FC1B1B012C01AB856D
:101B1000BC851C966D937D938D939C931F97C801F4
:101B2000B7015C962D913D914D915C915F970E941C
:101B3000FC1B7B018C01EB85FC85E45BFF4FFE8B7E
:101B4000ED8B6081718182819381A60195010E9454
:101B5000AD1A0E94631C9B01AC01C801B7010E9431
:101B6000FC1B3B014C01AB85BC8550966D937D936E
:101B70008D939C9353976F85788989899A89A80159
:101B800097010E94FC1BEB85FC85EC5AFF4FFCA7DC
:101B9000EBA720813181428153810E94FC1BA60169
:101BA00095010E94AD1A7B018C01AB85BC856D93BC
:101BB0007D938D939C931397C201B101A40193016E
:101BC0000E94FC1B9B01AC01EB85FC856483758343
:101BD00086839783C801B7010E94AD1AAB85BC8587
:101BE00018966D937D938D939C931B9780E090E066
:101BF000A0E0B0E0EB89FC8980839183A283B3836A
:101C0000ED89FE8980839183A283B383EBA5FCA534
:101C100080839183A283B383AC960FB6F894DEBF22
:101C20000FBECDBFCF91DF911F910F91FF90EF902D
:101C3000DF90CF90BF90AF909F908F907F906F90EC
:101C40005F904F903F902F900895FC01138615866A
:101C5000148687E090E012863197009711F0019783
:101C6000FACF0895DC0180E00BC0E82FF0E08D9101
:101C700090E0E827F927E859FF4FE49161508E2F53
:101C8000662399F70895DF92EF92FF920F931F93C7
:101C9000FC01E08001811281F894F80181818E2994
:101CA00081838281DE2CD0948D21828383E090E039
:101CB0000E947015F80181818D2181838AE090E076
:101CC0000E947015F8010081789485E390E00E94ED
:101CD000701580E010E0FF240E211F21012B09F078
:101CE00081E01F910F91FF90EF90DF900895EF92A8
:101CF000FF920F931F93CF93DF937C0101E010E0DD
:101D0000C0E0D0E0C7010E94430E8111102B000FEC
:101D10002196C830D105B1F7812FDF91CF911F9166
:101D20000F91FF90EF9008951F93CF93DF93FC01E5
:101D30001081C181D281912F909560FF12C0F894DB
:101D40008A8189238A838981812B89838AE090E033
:101D50000E9470158A81812B8A83789487E390E0B2
:101D600011C0F8948A8189238A838981812B898390
:101D700081E490E00E9470158A81812B8A83789497
:101D800085E090E00E947015DF91CF911F9108953A
:101D9000CF92DF92EF92FF920F931F93CF93DF9337
:101DA0008C01E42EFF24F394C0E0D0E0C62EDD24A5
:101DB00060E08F2D90E08C219D21892B09F061E05E
:101DC000C8010E94940EFF0C2196C830D10581F7FE
:101DD000EE20A9F4F894D8011196ED91FC91129798
:101DE00091818C918095982391831196ED91FC912E
:101DF000129792818C918095982392837894DF91A9
:101E0000CF911F910F91FF90EF90DF90CF900895A9
:101E10006CEC40E00E94C80E0895EF92FF920F9381
:101E20001F93CF93DF938C017B0165E540E00E9417
:101E3000C80EC0E0D0E0F701EC0FFD1FC8016081C3
:101E400040E00E94C80E2196C830D105A1F7DF916D
:101E5000CF911F910F91FF90EF900895DF92EF9235
:101E6000FF920F931F93CF93DF93FC010081C181F9
:101E7000D281F8948981D02ED0948D218983789451
:101E80001DE7E02EFF24115059F182E090E00E94FE
:101E90007015888190E08E219F21892BA1F3F89401
:101EA0008A818D218A838981802B8983789484EF2C
:101EB00091E00E947015F89489818D21898380E5D5
:101EC00090E00E947015888110E090E0E822F922ED
:101ED000EF2809F411E0789484EA91E00E947015EB
:101EE000812FDF91CF911F910F91FF90EF90DF90A5
:101EF0000895AF92BF92DF92EF92FF920F931F93DC
:101F0000CF93DF93EC015B018D85882309F061C0DD
:101F1000CE010E942E0F882329F41B861D861C8665
:101F200090E06BC0CE0160EF40E00E94C80E01E07F
:101F3000DD24EE24FF24F394CE010E94430E182FDB
:101F4000CE010E94430E113019F48130E1F439C002
:101F5000181709F58B85081770F460E0FE01EE0D87
:101F6000F11D838190E02F2D30E0822393231816FA
:101F700019064CF003C060E0081729F0093008F09A
:101F80004CC00C874AC0FE01EE0DF11D83818F29E4
:101F9000838361E009C0612FFE01EE0DF11D9F2DCD
:101FA0009095838189238383CE010E94940E0F5FD5
:101FB000FF0C19F4E394FF24F39487E08E1508F0E6
:101FC000BBCF013430F0DB86DD2011F581E08D8759
:101FD0001FC01B861D861C8690E0DE0120E030E0DD
:101FE000F501E20FF31F13968C91139780832F5FF7
:101FF0003F4F11962830310599F7892FDF91CF9106
:102000001F910F91FF90EF90DF90BF90AF900895D8
:102010008B818823F1F291E0E0CFD02EBDCFFF92EB
:102020000F931F938C01F62E862F60E00E944B13B6
:102030008F2D90E0FC01E656FE4FE491D801EC9321
:102040008A579E4FFC016491E62FF0E0EE0FFF1FD0
:10205000E458FE4F8591949112969C938E9311971C
:102060001B961C921B971D961C921D971C961C92EA
:10207000F80187E090E012863197009711F0019700
:10208000FACF1F910F91FF900895FC018AE590E12E
:10209000928B818B768365831482108289E08183A1
:1020A00081E0828383830895FC0184810895FC018B
:1020B000628308950895EF92FF920F931F938C010E
:1020C0007B01FC01858196810E942E0FF80185819C
:1020D0009681B7010E940D0FF8018581968164EB0E
:1020E00040E00E94C80EF801858196810E94430E4F
:1020F000F82EF801858196810E942E0F80E0FF2046
:1021000009F481E01F910F91FF90EF900895EF92F5
:10211000FF920F931F93CF93DF93EC018B017A0112
:102120008D819E810E942E0F8D819E81B8010E941B
:102130000D0F8D819E816EE440E00E94C80E8D815E
:102140009E81F701628140E00E94C80E8D819E81D0
:10215000F701638140E00E94C80EF8018081803160
:1021600039F08D819E81F701648140E00E94C80EA4
:102170008D819E810E942E0F8D819E8168E4488111
:102180000E94C80E8881882331F06AE070E080E008
:1021900090E00E9417158D819E810E942E0FDF9185
:1021A000CF911F910F91FF90EF900895CF92DF9202
:1021B000EF92FF920F931F938C016B017A01FC0148
:1021C000858196810E942E0FF80185819681B60146
:1021D0000E940D0FF801858196816EEB40E00E9410
:1021E000C80EF801858196810E94770EF7018083E1
:1021F000F801858196810E94770EF7018183F801AD
:10220000858196810E94770EF7018283F80185818E
:1022100096810E94770EF7018383F801858196816C
:102220000E94770EF7018483F801858196810E94D0
:10223000770EF7018583F801858196810E94770EDC
:10224000F7018683F801858196810E94770EF70158
:102250008783F801858196810E94770EF701808738
:10226000F801858196810E942E0F1F910F91FF909A
:10227000EF90DF90CF900895DF93CF93CDB7DEB787
:1022800029970FB6F894DEBF0FBECDBFAE014F5FEA
:102290005F4F0E94D6108981811181E029960FB687
:1022A000F894DEBF0FBECDBFCF91DF910895CF92DE
:1022B000DF92EF92FF920F931F93CF93DF93EC0186
:1022C0006B01452BE1F08B818823C9F0888188233D
:1022D000B1F40E9409157B018C01CE0160E070E031
:1022E0000E943C11882359F40E9409156E197F0938
:1022F000800B910B6E5E72408040904070F3F6014F
:102300006081693039F06930A0F06A3041F06B309B
:1023100081F40AC06EE570E080E090E00EC06CEBE6
:1023200070E080E090E009C067E771E080E090E055
:1023300004C06EEE72E080E090E00E941715DF911D
:10234000CF911F910F91FF90EF90DF90CF90089564
:10235000CF93DF93EC018D819E810E942E0F8D81A2
:102360009E810E94080F8D819E8164E448810E94B5
:10237000C80E8A81882339F0CE012196BE0140E043
:1023800050E00E945711DF91CF9108950F931F9352
:102390008A010E94D610C80168E00E94320E20E037
:1023A000F8019085891709F421E0822F1F910F9180
:1023B00008950F931F93DF93CF93CDB7DEB729977F
:1023C0000FB6F894DEBF0FBECDBF8B01AE014F5FDD
:1023D0005F4F0E94C611882319F440E158EF18C0DE
:1023E0009A8180E02981422F50E0482B592BF80137
:1023F0008081803169F42F818CE090E0821B91090B
:102400004E7F73E0440F551F7A95E1F7480F591F2F
:10241000CA0129960FB6F894DEBF0FBECDBFCF918B
:10242000DF911F910F9108950E94D9119C0188EFAF
:10243000213138072CF4E0E070E08EEF62EC0FC041
:10244000B901882777FD8095982F0E94481B20E0CE
:1024500030E040E85DE30E94FC1BE62F692F2E2F41
:10246000372F482F562FB901CA010895DF93CF9314
:10247000CDB7DEB729970FB6F894DEBF0FBECDBF3C
:102480009C01FB0180818031D9F0C901AE014F5F11
:102490005F4F0E94C6118823A9F08D818F3361F0B0
:1024A000803418F48F3171F409C08F3519F08F37EB
:1024B00049F406C08BE007C08AE005C089E003C08C
:1024C0008CE001C080E029960FB6F894DEBF0FBE05
:1024D000CDBFCF91DF910895CF92DF92EF92FF921F
:1024E0001F93DF93CF93CDB7DEB729970FB6F8943C
:1024F000DEBF0FBECDBF6C017B01142FAE014F5F5D
:102500005F4F0E94C6118823E1F0F701808180317E
:10251000B9F01A3051F01A3050F01B3021F01C3055
:1025200031F48FE705C08FE503C08FE301C08FE171
:102530008D83C601B701AE014F5F5F4F0E948710C8
:1025400081E029960FB6F894DEBF0FBECDBFCF91C4
:10255000DF911F91FF90EF90DF90CF9008950F9340
:102560001F938B01CB0167E00E94320E20E0F8013F
:102570009781891709F421E0822F1F910F91089507
:10258000AF92BF92CF92DF92EF92FF920F931F9381
:10259000DF93CF93CDB7DEB761970FB6F894DEBF68
:1025A0000FBECDBF7C01FC01858196810E94250E66
:1025B000F70114826E010894C11CD11CE9E0AE2E13
:1025C000B12CAC0EBD1E01E02BC0C701B6010E94AC
:1025D000AF12882329F1F7018081882341F4C701D4
:1025E000B6010E945B10882311F0F7010083C70138
:1025F000B601A5010E94D610F7011181C701B601ED
:102600000E943612811718F4F701818104C0C701B6
:10261000B6010E943612F701818384818F5F848323
:10262000F70185819681B6010E94790F882369F6AA
:1026300061960FB6F894DEBF0FBECDBFCF91DF918C
:102640001F910F91FF90EF90DF90CF90BF90AF90D0
:102650000895982F8E3008F09E5097708091A303B4
:102660008295880F880F807C892B80937C008091D5
:102670007A00806480937A0080917A0086FDFCCF96
:102680002091780040917900942F80E030E0282B51
:10269000392BC9010895CF93DF93482F50E0CA0129
:1026A00086569E4FFC0134914A575E4FFA01849141
:1026B000882369F190E0880F991FFC01E859FE4FCB
:1026C000A591B491FC01EE58FE4FC591D4916623BB
:1026D00051F42FB7F8948C91932F909589238C9374
:1026E000888189230BC0623061F42FB7F8948C91F4
:1026F000932F909589238C938881832B88832FBF78
:1027000006C09FB7F8948C91832B8C939FBFDF9169
:10271000CF910895482F50E0CA0182559E4FFC0189
:102720002491CA0186569E4FFC0194914A575E4FF0
:10273000FA013491332309F440C0222351F12330AC
:1027400071F0243028F42130A1F0223011F514C0AA
:102750002630B1F02730C1F02430D9F404C0809184
:1027600080008F7703C0809180008F7D80938000F0
:1027700010C084B58F7702C084B58F7D84BD09C039
:102780008091B0008F7703C08091B0008F7D8093DF
:10279000B000E32FF0E0EE0FFF1FEE58FE4FA591C3
:1027A000B4912FB7F894662321F48C9190958923E6
:1027B00002C08C91892B8C932FBF0895682F70E0F5
:1027C000CB0182559E4FFC012491CB0186569E4F32
:1027D000FC0144916A577E4FFB019491992319F4AF
:1027E00020E030E03CC0222351F1233071F024304E
:1027F00028F42130A1F0223011F514C02630B1F0B8
:102800002730C1F02430D9F404C0809180008F7744
:1028100003C0809180008F7D8093800010C084B5BC
:102820008F7702C084B58F7D84BD09C08091B000D0
:102830008F7703C08091B0008F7D8093B000892F87
:1028400090E0880F991F84589E4FFC01A591B49188
:102850008C9120E030E0842311F021E030E0C901C8
:102860000895823000F5E82FF0E0EE0FFF1FE852E8
:10287000FA4F71836083882319F08130A1F408C076
:10288000809169008C7F842B80936900E89A089579
:1028900080916900440F551F440F551F837F842B7F
:1028A00080936900E99A0895823080F4882319F0B2
:1028B000813021F402C0E89801C0E998E82FF0E0E7
:1028C000EE0FFF1FE852FA4F1182108208951F92F7
:1028D0000F920FB60F9211242F933F934F935F9354
:1028E0006F937F938F939F93AF93BF93EF93FF93D8
:1028F0008091D8059091D905892B29F0E091D805D0
:10290000F091D9050995FF91EF91BF91AF919F91FA
:102910008F917F916F915F914F913F912F910F9088
:102920000FBE0F901F9018951F920F920FB60F9227
:1029300011242F933F934F935F936F937F938F93C4
:102940009F93AF93BF93EF93FF938091DA0590919C
:10295000DB05892B29F0E091DA05F091DB0509957B
:10296000FF91EF91BF91AF919F918F917F916F9167
:102970005F914F913F912F910F900FBE0F901F903D
:1029800018951F920F920FB60F9211242F933F9319
:102990008F939F93AF93BF938091E0059091E10552
:1029A000A091E205B091E3053091E4050196A11DE7
:1029B000B11D232F2D5F2D3720F02D570196A11D1E
:1029C000B11D2093E4058093E0059093E105A09369
:1029D000E205B093E3058091DC059091DD05A091BF
:1029E000DE05B091DF050196A11DB11D8093DC05C8
:1029F0009093DD05A093DE05B093DF05BF91AF9105
:102A00009F918F913F912F910F900FBE0F901F902C
:102A100018958FB7F8942091E0053091E105409129
:102A2000E2055091E3058FBFB901CA0108959B01EA
:102A3000AC017FB7F8948091DC059091DD05A09101
:102A4000DE05B091DF0566B5A89B05C06F3F19F0A4
:102A50000196A11DB11D7FBFBA2FA92F982F8827DE
:102A6000860F911DA11DB11D62E0880F991FAA1F3D
:102A7000BB1F6A95D1F7BC012DC0FFB7F8948091B8
:102A8000DC059091DD05A091DE05B091DF05E6B58E
:102A9000A89B05C0EF3F19F00196A11DB11DFFBF16
:102AA000BA2FA92F982F88278E0F911DA11DB11D18
:102AB000E2E0880F991FAA1FBB1FEA95D1F7861B7A
:102AC000970B885E9340C8F2215030404040504000
:102AD00068517C4F211531054105510571F6089566
:102AE000019739F0880F991F880F991F0297019756
:102AF000F1F70895789484B5826084BD84B58160CF
:102B000084BD85B5826085BD85B5816085BDEEE6F5
:102B1000F0E0808181608083E1E8F0E010828081D4
:102B200082608083808181608083E0E8F0E0808142
:102B300081608083E1EBF0E0808184608083E0EB62
:102B4000F0E0808181608083EAE7F0E0808184604A
:102B500080838081826080838081816080838081A6
:102B6000806880831092C1000895CF92DF92EF9227
:102B7000FF920F931F93CF93DF937C016B018A0128
:102B8000C0E0D0E00FC0D6016D916D01D701ED918D
:102B9000FC910190F081E02DC7010995C80FD91F64
:102BA000015010400115110571F7CE01DF91CF9151
:102BB0001F910F91FF90EF90DF90CF900895EF92CB
:102BC000FF920F931F938C01DC01ED91FC9101901A
:102BD000F081E02D6DE009957C01D801ED91FC912B
:102BE0000190F081E02DC8016AE009959C012E0D4D
:102BF0003F1DC9011F910F91FF90EF900895CF9352
:102C0000DF93EC016115710519F420E030E00FC08D
:102C1000DB010D900020E9F71197A61BB70BE881A7
:102C2000F9810280F381E02DAD0109959C01C90174
:102C3000DF91CF9108954F925F927F928F929F92F2
:102C4000AF92BF92CF92DF92EF92FF920F931F93BA
:102C5000DF93CF93CDB7DEB7A1970FB6F894DEBF61
:102C60000FBECDBF2C01742ECB01223008F42AE018
:102C700019A231E2C32ED12CCC0EDD1E822E992456
:102C8000AA24BB24672D752FA50194010E94E71C7F
:102C900079018A01C801B701A50194010E94C81CED
:102CA000472D461B0894C108D1084A3014F4405DF2
:102CB00001C0495CF6014083E114F10401051105EE
:102CC00021F07E2C5F2DC801DDCFC201B6010E942C
:102CD000FF15A1960FB6F894DEBF0FBECDBFCF9102
:102CE000DF911F910F91FF90EF90DF90CF90BF90F9
:102CF000AF909F908F907F905F904F900895DC01F0
:102D00002115310541F4ED91FC910190F081E02D08
:102D1000642F099508950E941B160895EF92FF9263
:102D20000F931F939A01E62EFF2400E010E0B801F4
:102D3000A7010E947F161F910F91FF90EF900895B9
:102D4000CF92DF92EF92FF920F931F93CF93DF9377
:102D5000EC016A017B012115310541F4E881F9811B
:102D60000190F081E02D642F09951FC02A303105B4
:102D7000D1F477FF17C0E881F9810190F081E02D4F
:102D80006DE209958C0144275527BA014C195D095C
:102D90006E097F09CE012AE00E941B169801280FB8
:102DA000391F04C02AE00E941B169C01C901DF9153
:102DB000CF911F910F91FF90EF90DF90CF900895EA
:102DC000EF92FF920F931F937B019A010027F7FC6C
:102DD0000095102FB801A7010E94A0161F910F9116
:102DE000FF90EF900895CF92DF92EF92FF920F93B2
:102DF0001F936C017B019A010027F7FC0095102FAF
:102E0000B801A7010E94A0168C01C6010E94DF151F
:102E1000080F191FC8011F910F91FF90EF90DF90CD
:102E2000CF9008950E94FF1508957F928F929F92F0
:102E3000AF92BF92CF92DF92EF92FF920F931F93C8
:102E4000CF93DF934C017A018B01722ECB01BA0133
:102E5000A80197010E94AD1C882321F0C40164E9F8
:102E600073E021C0C0E0D0E057016801E894D7F8D2
:102E7000C601B5012FEF3FEF4FE75FE70E94AD1CA2
:102E8000882351F4C601B5012FEF3FEF4FE75FE70D
:102E90000E94A91A181614F0C1E0D0E0219739F069
:102EA000C40168E973E00E94FF15EC0193C0C801FA
:102EB000B7012FEF3FEF4FE75FE40E94F81B1816B2
:102EC00054F0C801B7012FEF3FEF4FE75FEC0E94CE
:102ED000A91A882324F4C4016CE973E0E4CFC80183
:102EE000B70120E030E040E050E00E94A91A87FDE1
:102EF00003C0C0E0D0E00EC0D401ED91FC91019080
:102F0000F081E02DC4016DE20995EC0117FB1095ED
:102F100017F9109520E030E040E05FE3DD240BC0BE
:102F2000CA01B90120E030E040E251E40E94AD1A4C
:102F30009B01AC01D394D71498F3C801B7010E9448
:102F4000451A5B016C010E941A1B7B018C01C401B4
:102F5000B801A7012AE030E00E947F16C80FD91FF0
:102F6000772039F0C40160EA73E00E94FF15C80FB2
:102F7000D91FC801B7010E94461B9B01AC01C601C5
:102F8000B5010E94441A24C020E030E040E251E440
:102F90000E94FC1B7B018C010E94151B5B016C01D4
:102FA000CC24B7FCC094DC2CC401B601A5012AE0F6
:102FB00030E00E94A016C80FD91FC601B5010E94BB
:102FC000481B9B01AC01C801B7010E94441A7A94C6
:102FD0007720D1F6CE01DF91CF911F910F91FF9015
:102FE000EF90DF90CF90BF90AF909F908F907F90A9
:102FF00008950E9415170895EF92FF920F931F9363
:103000007C010E9415178C01C7010E94DF15080F73
:10301000191FC8011F910F91FF90EF900895EF9233
:10302000FF920F931F937C010E94FF158C01C70133
:103030000E94DF15080F191FC8011F910F91FF9003
:10304000EF900895CF93DF930E947A150E94890331
:10305000CDE6D8E10E9489012097E1F30E946D1826
:10306000F9CF08951F920F920FB60F9211242F934C
:103070003F934F938F939F93EF93FF938091C00063
:1030800082FD1DC04091C600209125063091260684
:103090002F5F3F4F2F733070809127069091280645
:1030A0002817390771F0E0912506F0912606EB51BB
:1030B000FA4F4083309326062093250602C0809164
:1030C000C600FF91EF919F918F914F913F912F916A
:1030D0000F900FBE0F901F901895E0917906F09118
:1030E0007A06E05CFF4F8191919120813181821BB2
:1030F000930B8F739070892B11F00E9431180895F3
:103100001F920F920FB60F9211242F933F938F931C
:103110009F93EF93FF932091690630916A06809107
:103120006B0690916C062817390731F48091C10025
:103130008F7D8093C10014C0E0916B06F0916C0606
:10314000E75DF94F208180916B0690916C060196A6
:103150008F73907090936C0680936B062093C600DB
:10316000FF91EF919F918F913F912F910F900FBE03
:103170000F901F901895AF92BF92DF92EF92FF923F
:103180000F931F93CF93DF93EC017A018B01DD2422
:10319000403081EE580780E0680780E0780711F042
:1031A000DD24D39491E0A92EB12CEC89FD89DD209A
:1031B00069F0C50108A002C0880F991F0A94E2F7C0
:1031C000808360E079E08DE390E005C0108260E8E4
:1031D00074E88EE190E0A80197010E94E71C21505D
:1031E000304040405040569547953795279580E1AF
:1031F0002030380720F0DD2011F0DD24D6CFE8891B
:10320000F9893083EA89FB89208319A2EE89FF8935
:10321000408121E030E0C9010C8C02C0880F991F69
:103220000A94E2F7482B4083EE89FF894081C90167
:103230000D8C02C0880F991F0A94E2F7482B408337
:10324000EE89FF894081C9010E8C02C0880F991F49
:103250000A94E2F7482B4083EE89FF8980810F8C26
:1032600002C0220F331F0A94E2F7209528232083FF
:10327000DF91CF911F910F91FF90EF90DF90BF9062
:10328000AF900895DC011C96ED91FC911D97E05CD8
:10329000FF4F2191319180819181281B390B2F7330
:1032A0003070C9010895DC011C96ED91FC911D97C9
:1032B000E05CFF4F20813181E054F040DF01AE5BE4
:1032C000BF4F8D919C9111972817390719F42FEF53
:1032D0003FEF07C08D919C91E80FF91F8081282F47
:1032E00030E0C9010895DC011C96ED91FC911D9719
:1032F000E05CFF4F20813181E054F040DF01AE5BA4
:10330000BF4F8D919C9111972817390719F42FEF12
:103310003FEF10C08D919C911197E80FF91F20810C
:103320008D919C91119701968F73907011969C933B
:103330008E9330E0C9010895DC0191968C919197AC
:10334000882339F05496ED91FC915597808186FF42
:10335000F9CF91961C920895CF93DF93EC01EE85FF
:10336000FF85E05CFF4F20813181E054F0402F5F0A
:103370003F4F2F733070DF01AE5BBF4F8D919C913B
:10338000119728173907D1F3E05CFF4F80819181B5
:10339000E054F040E80FF91F6083EE85FF85E05CA4
:1033A000FF4F31832083EE89FF89208181E090E007
:1033B0000F8C02C0880F991F0A94E2F7282B2083F4
:1033C00081E089A3EC89FD8980818064808381E02C
:1033D00090E0DF91CF91089581E0089510927006FA
:1033E00010926F0688EE93E0A0E0B0E08093710643
:1033F00090937206A0937306B093740688EA93E0E4
:1034000090936E0680936D0685EE95E090937A0614
:103410008093790689E296E090937C0680937B0600
:1034200085EC90E090937E0680937D0684EC90E09E
:103430009093800680937F0680EC90E090938206C4
:103440008093810681EC90E09093840680938306BC
:1034500082EC90E0909386068093850686EC90E05F
:10346000909388068093870684E08093890683E0A2
:1034700080938A0687E080938B0685E080938C0694
:1034800081E080938D0608955058BB27AA270ED05F
:1034900075C166D130F06BD120F031F49F3F11F44B
:1034A0001EF45BC10EF4E095E7FB51C1E92F77D123
:1034B00080F3BA17620773078407950718F071F451
:1034C0009EF58FC10EF4E0950B2EBA2FA02D0B01A7
:1034D000B90190010C01CA01A0011124FF27591B59
:1034E00099F0593F50F4503E68F11A16F040A22F5F
:1034F000232F342F4427585FF3CF469537952795D0
:10350000A795F0405395C9F77EF41F16BA0B620BCE
:10351000730B840BBAF09150A1F0FF0FBB1F661F15
:10352000771F881FC2F70EC0BA0F621F731F841F58
:1035300048F4879577956795B795F7959E3F08F07E
:10354000B3CF9395880F08F09927EE0F979587953D
:103550000895D9D008F481E008950CD00FC107D1A7
:1035600040F0FED030F021F45F3F19F0F0C051116F
:1035700039C1F3C014D198F39923C9F35523B1F39A
:10358000951B550BBB27AA2762177307840738F0D2
:103590009F5F5F4F220F331F441FAA1FA9F333D031
:1035A0000E2E3AF0E0E830D091505040E695001CE5
:1035B000CAF729D0FE2F27D0660F771F881FBB1FA1
:1035C000261737074807AB07B0E809F0BB0B802D7B
:1035D000BF01FF2793585F4F2AF09E3F510568F0C7
:1035E000B6C000C15F3FECF3983EDCF3869577955B
:1035F0006795B795F7959F5FC9F7880F911D9695C9
:10360000879597F90895E1E0660F771F881FBB1F24
:10361000621773078407BA0720F0621B730B840BD1
:10362000BA0BEE1F88F7E095089504D06894B111A5
:10363000D9C00895BCD088F09F5790F0B92F992732
:10364000B751A0F0D1F0660F771F881F991F1AF0AD
:10365000BA95C9F712C0B13081F0C3D0B1E0089576
:10366000C0C0672F782F8827B85F39F0B93FCCF3F7
:10367000869577956795B395D9F73EF490958095A3
:10368000709561957F4F8F4F9F4F0895E89409C0C3
:1036900097FB3EF490958095709561957F4F8F4F85
:1036A0009F4F9923A9F0F92F96E9BB279395F6959B
:1036B000879577956795B795F111F8CFFAF4BB0F19
:1036C00011F460FF1BC06F5F7F4F8F4F9F4F16C07D
:1036D000882311F096E911C0772321F09EE8872F07
:1036E000762F05C0662371F096E8862F70E060E0C3
:1036F0002AF09A95660F771F881FDAF7880F96953C
:10370000879597F90895990F0008550FAA0BE0E8DF
:10371000FEEF16161706E807F907C0F01216130693
:10372000E407F50798F0621B730B840B950B39F4D3
:103730000A2661F0232B242B252B21F408950A2639
:1037400009F4A140A6958FEF811D811D089597F979
:103750009F6780E870E060E008959FEF80EC089537
:1037600000240A9416161706180609060895002460
:103770000A9412161306140605060895092E0394DA
:10378000000C11F4882352F0BB0F40F4BF2B11F44E
:1037900060FF04C06F5F7F4F8F4F9F4F089557FDAD
:1037A0009058440F551F59F05F3F71F04795880FAF
:1037B00097FB991F61F09F3F79F087950895121646
:1037C00013061406551FF2CF4695F1DF08C01616F2
:1037D00017061806991FF1CF8695710561050894A3
:1037E0000895E894BB2766277727CB0197F90895BA
:1037F0008ADF08F48FEF08950BD0C0CFB1DF28F037
:10380000B6DF18F0952309F0A2CFA7CF1124EACF95
:10381000C6DFA0F3959FD1F3950F50E0551F629F2F
:10382000F001729FBB27F00DB11D639FAA27F00D19
:10383000B11DAA1F649F6627B00DA11D661F829F40
:103840002227B00DA11D621F739FB00DA11D621F25
:10385000839FA00D611D221F749F3327A00D611D42
:10386000231F849F600D211D822F762F6A2F112424
:103870009F5750408AF0E1F088234AF0EE0FFF1F77
:10388000BB1F661F771F881F91505040A9F79E3FAE
:10389000510570F05CCFA6CF5F3FECF3983EDCF3B0
:1038A000869577956795B795F795E7959F5FC1F7EB
:1038B000FE2B880F911D9695879597F9089511F421
:1038C0000EF44BCF4EC073DFD0F39923D9F3CEF370
:1038D0009F57550B87FF55D056959795B0E020F42C
:1038E000660F771F881FBB1F1F930F930024900143
:1038F000A0018001F001A0E80E0F1F1F0A1E511D3C
:10390000601B710B8009B50B48F4600F711F801D9F
:10391000B51F0E1B1F0B0A0A510907C02E0F3F1FB0
:103920004A1F0E0F1F1F0A1E511D660F771F881F8B
:10393000BB1FA695F795E795F8F606171707080633
:103940005B07211D311D411D0F911F91B901842F6E
:103950009158880F969587950895D5DE880B990B19
:1039600008959F3F49F0915028F486957795679583
:10397000B7959F5F80389F4F880F9695879597F9E9
:10398000089591505040660F771F881FD2F7089511
:10399000629FD001739FF001829FE00DF11D649F33
:1039A000E00DF11D929FF00D839FF00D749FF00DBF
:1039B000659FF00D9927729FB00DE11DF91F639F60
:1039C000B00DE11DF91FBD01CF0111240895A1E241
:1039D0001A2EAA1BBB1BFD010DC0AA1FBB1FEE1F89
:1039E000FF1FA217B307E407F50720F0A21BB30BD4
:1039F000E40BF50B661F771F881F991F1A9469F750
:103A000060957095809590959B01AC01BD01CF01AB
:103A1000089597FB092E05260ED057FD04D0D7DF59
:103A20000AD0001C38F450954095309521953F4FB1
:103A30004F4F5F4F0895F6F790958095709561957B
:103A40007F4F8F4F9F4F0895EE0FFF1F0590F4910A
:083A5000E02D0994F894FFCF6A
:103A5800200074656D70657261747572653A200036
:103A6800656D6F6E547820563320446973637265B0
:103A780074652053616D706C696E67004F70656E78
:103A8800456E657267794D6F6E69746F722E6F72CD
:103A98006700435420312D332043616C69627261A1
:103AA80074696F6E3A2000435420342043616C6976
:103AB80062726174696F6E3A2000524D5320566FDE
:103AC8006C74616765206F6E2041432D414320412E
:103AD80064617074657220696E7075742069733AD8
:103AE800207E00560041432D41432061646170747B
:103AF8006572206465746563746564202D20526561
:103B0800616C20506F776572206D656173757265A1
:103B18006D656E747320656E61626C6564006173B7
:103B280073756D696E6720706F776572696E67204F
:103B380066726F6D2041432D41432061646170744A
:103B4800657220286A756D70657220636C6F736585
:103B58006429005663616C3A2000506861736520DF
:103B680053686966743A200041432D4143206164DB
:103B78006170746572204E4F542064657465637477
:103B88006564202D204170706172656E7420506FDD
:103B9800776572206D6561737572656D656E747396
:103BA80020656E61626C656400417373756D696E42
:103BB800672056524D5320746F2062652000417370
:103BC80073756D696E6720706F776572696E6720AF
:103BD80066726F6D20626174746572696573202FF7
:103BE80020355620555342202D20706F776572205E
:103BF800736176696E67206D6F646520656E6162BA
:103C08006C6564004E4F20435427732064657465C7
:103C1800637465640043542031206465746563747B
:103C28006564004354203220646574656374656478
:103C380000435420332064657465637465640043ED
:103C48005420342064657465637465640044657445
:103C58006563746564200020445331384232302E45
:103C68002E7573696E67207468697320666F722099
:103C780074656D70657261747572652072656164D2
:103C8800696E6700556E61626C6520746F206465AB
:103C98007465637420445331384232302074656D42
:103CA80070657261747572652073656E736F7200EA
:103CB80052464D31324220496E69746961746564B7
:103CC8003A20004E6F64653A200020467265713ACA
:103CD80020003836384D687A00204E6574776F7248
:103CE8006B3A20006E616E00696E66006F76660042
:103CF8002E00040100000000AC19B5154219731913
:043D080053199C1996
:00000001FF
