:100000000C94E3000C94D5140C9402150C940B0181
:100010000C940B010C940B010C94A3060C940B0193
:100020000C940B010C940B010C940B010C940B0120
:100030000C940B010C940B010C940B010C940B0110
:100040000C942F150C940B010C9446160C949416DA
:100050000C940B010C940B010C940B010C940B01F0
:100060000C940B010C940B01005EBCE2613FDD833C
:10007000C29C7E20A3FD1F419DC3217FFCA2401E88
:100080005F01E3BD3E6082DC237D9FC1421CFEA078
:10009000E1BF5D0380DE3C62BEE0025CDF81633D68
:1000A0007C22C09E1D43A1FF4618FAA427799BC558
:1000B00084DA3866E5BB5907DB856739BAE4065848
:1000C0001947A5FB7826C49A653BD987045AB8E638
:1000D000A7F91B45C6987A24F8A6441A99C7257B28
:1000E0003A6486D85B05E7B98CD2306EEDB3510F18
:1000F0004E10F2AC2F7193CD114FADF3702ECC9208
:10010000D38D6F31B2EC0E50AFF1134DCE90722CF7
:100110006D33D18F0C52B0EE326C8ED0530DEFB1E7
:10012000F0AE4C1291CF2D73CA947628ABF51749D7
:100130000856B4EA6937D58B5709EBB536688AD4C7
:1001400095CB2977F4AA4816E9B7550B88D6346AB7
:100150002B7597C94A14F6A8742AC896154BA9F7A7
:10016000B6E80A54D7896B35000000002400270048
:100170002A0000000000250028002B0000000000DD
:1001800023002600290004040404040404040202D9
:100190000202020203030303030301020408102006
:1001A0004080010204081020010204081020000011
:1001B0000007000201000003040600000000000028
:1001C00000001601021811241FBECFEFD8E0DEBFD9
:1001D000CDBF13E0A0E0B1E0E8E7FBE302C005908B
:1001E0000D92A83DB107D9F716E0A8EDB3E001C024
:1001F0001D92A33BB107E1F711E0C6ECD1E004C0CA
:100200002297FE010E94B61DC23CD107C9F70E9489
:1002100058180C94BA1D0C940000FB01DC0102C0BC
:1002200001900D9241505040D8F708950F931F93BD
:1002300000E515E0C80165E00E9411108EE595E02B
:10024000B8010E9447101F910F910895CF92DF923D
:10025000EF92FF920F931F93CF93DF936B01EE24E6
:10026000FF248701C0E0D0E016C080E00E94231682
:10027000805092409C01229FC001239F900D329F8D
:10028000900D1124AA2797FDA095BA2FE80EF91E0C
:100290000A1F1B1F2196CC15DD053CF3C801B701D1
:1002A0000E94D61B7B018C01B601882777FD8095C3
:1002B000982F0E94D81B9B01AC01C801B7010E9476
:1002C0003D1B0E94F31CDF91CF911F910F91FF9076
:1002D000EF90DF90CF90089528EE33E0AC01429F7D
:1002E000C001439F900D529F900D11240E94EE0972
:1002F00008958FEF0E94C60880E061E775E04CE04A
:100300000E94F10882E00E94A90880E00E94C608CD
:100310000895EF92FF920F931F9380918205882397
:1003200031F068EC70E080E090E00E9485158091EB
:100330007E058823D9F180918205882389F088ED94
:1003400093E064E170E040ED57E00E94670B60913C
:10035000D8037091D9038091DA039091DB030CC02C
:1003600088ED93E068EC75E00E94940A20E030E0AC
:1003700046E653E40E948C1C0E94A51B70937205F4
:100380006093710580918305813081F460917105DE
:100390007091720581E996E04AE050E00E9492195E
:1003A00081E996E060E071E00E94C41980917F05C8
:1003B0008823D9F180918205882389F086E394E02F
:1003C00064E170E040ED57E00E94670B60913604F5
:1003D0007091370480913804909139040CC086E301
:1003E00094E068EC75E00E94940A20E030E046E674
:1003F00053E40E948C1C0E94A51B709374056093AB
:10040000730580918305813081F46091730570914B
:10041000740581E996E04AE050E00E94921981E972
:1004200096E060E071E00E94C41980918005882305
:10043000D9F180918205882389F084E994E064E110
:1004400070E040ED57E00E94670B6091940470915A
:10045000950480919604909197040CC084E994E0EF
:1004600068EC75E00E94940A20E030E046E653E430
:100470000E948C1C0E94A51B7093760560937505E5
:1004800080918305813081F46091750570917605C6
:1004900081E996E04AE050E00E94921981E996E0F5
:1004A00060E071E00E94C419809181058823D9F130
:1004B00080918205882389F082EF94E064E170E006
:1004C00040ED57E00E94670B6091F2047091F304D5
:1004D0008091F4049091F5040CC082EF94E068ECF4
:1004E00075E00E94940A20E030E046E653E40E9462
:1004F0008C1C0E94A51B70937805609377058091F2
:100500008305813081F4609177057091780581E9E8
:1005100096E04AE050E00E94921981E996E060E09E
:1005200071E00E94C41980918205882331F1E09026
:10053000E403F090E5030091E6031091E703C8019E
:10054000B70120E030E048EC52E40E948C1C0E948D
:10055000A51B70937A05609379058091830581309E
:1005600061F480918505882341F081E996E0B80126
:10057000A70122E030E00E94AB1A80918305813010
:1005800071F480918505882351F081E996E00E94FD
:10059000911864E170E080E090E00E948515809100
:1005A0007D05882351F40E94771569587341804076
:1005B000904018F081E080937D0580918405813022
:1005C00009F07FC083E161E00E94F81382E390E0CC
:1005D0000E94EE0900E010E00FC0B80183E0660F52
:1005E000771F8A95E1F768577A4F8EE595E04BE0E3
:1005F0000E94FC120F5F1F4F809186059091870526
:100600000817190754F38EE595E00E94611287E7F9
:1006100091E00E94EE098EE595E068E875E00E94A1
:1006200092127B018C0183E160E00E94F813C80103
:10063000B70120E030E04AEF52E40E94391B8823E2
:10064000C4F4C801B70120E030E040E252EC0E945F
:10065000881C181674F4C801B70120E030E040E2AD
:1006600051E40E948C1C0E94A51B70937C05609332
:100670007B0580918305813021F581E996E062E078
:1006800071E00E94C41960917B0570917C058827F8
:1006900077FD8095982F0E94D81B2DEC3CEC4CECFC
:1006A0005DE30E948C1CAB01BC0181E996E022E075
:1006B00030E00E94AE1A64E170E080E090E00E94B9
:1006C000851580917D058823F9F00E94790180913C
:1006D00082058823A9F060E177E280E090E00E9443
:1006E000851586E061E00E94F81368EC70E080E018
:1006F00090E00E94851586E060E00E94F81304C037
:100700008AE090E00E946C011F910F91FF90EF90A2
:100710000895CF92DF92EF92FF920F931F9386E09E
:1007200061E00E94B91383E161E00E94B91386E0A1
:1007300061E00E94F8138AE061E042ED0E943E0908
:1007400000E010E0109372050093710580E061E70E
:1007500075E04CE00E94F10864E670E080E090E013
:100760000E9485150F5F1F4F0A30110559F782E06F
:100770000E94A908109272051092710580E00E94F3
:10078000C60881E00E942316181619064CF481E071
:1007900080937E05809185058F5F8093850502C0DB
:1007A00010927E0582E00E942316181619064CF45A
:1007B00081E080937F05809185058F5F809385051B
:1007C00002C010927F0583E00E94231618161906B6
:1007D0004CF481E080938005809185058F5F809344
:1007E000850502C01092800584E00E942316181629
:1007F00019064CF481E080938105809185058F5F17
:100800008093850502C01092810580E197E20E94E5
:10081000EE0986E060E00E94F81380E090E064EF6B
:1008200076E00E94260120E030E040E350E40E94A0
:100830008C1C6B017C0120E030E044EB52E40E9410
:10084000881C181624F481E08093820502C010925F
:100850008205809182058823E1F000E010E086E0C7
:1008600061E00E94F81368EC70E080E090E00E9484
:10087000851586E060E00E94F8136CE271E080E08C
:1008800090E00E9485150F5F1F4F0A30110539F760
:1008900014C068EE73E080E090E00E94851586E069
:1008A00061E00E94F81360ED77E080E090E00E9444
:1008B000851586E060E00E94F81383E161E00E9404
:1008C000F81362E370E080E090E00E9485158EE509
:1008D00095E00E9450138EE595E060E00E9459106B
:1008E0008EE595E00E94561080938605109287054C
:1008F00010E0612F70E08091860590918705681760
:1009000079070CF00DC293E0660F771F9A95E1F717
:1009100068577A4F80E595E00E947B0F882309F4A1
:10092000FFC11F5FE6CF1092840503C081E0809372
:10093000840581E996E00E940018882321F081E077
:100940008093830502C010928305809183058130D6
:1009500009F048C181E996E040E855E260E070E0C6
:100960000E94CF1681E996E060E171E00E94C11A11
:1009700081E996E06CE271E00E94C11A68EE73E0D2
:1009800080E090E00E94851581E996E062E471E0E4
:100990000E94C41981E996E04DEC5CEC65EB72E4D1
:1009A00022E030E00E94AE1A81E996E065E571E050
:1009B0000E94C41981E996E04DEC5CEC65EB72E4B1
:1009C00022E030E00E94AE1A81E996E068E671E02C
:1009D0000E94C41981E996E04DEC5CEC65EB72E491
:1009E00022E030E00E94AE1A81E996E06BE771E008
:1009F0000E94C41981E996E04DEC5CEC64E871E476
:100A000022E030E00E94AE1A68EE73E080E090E0F1
:100A10000E94851581E996E06EE871E00E94C41994
:100A200081E996E0B701A60120E030E00E94AB1A10
:100A300081E996E067EB71E00E94C11A809182051E
:100A4000882369F181E996E069EB71E00E94C11A9F
:100A500081E996E062EF71E00E94C11A81E996E0B7
:100A600067E272E00E94C41981E996E043E353E72C
:100A70006AE873E422E030E00E94AE1A81E996E071
:100A80006EE272E00E94C41981E996E04AE959E9F0
:100A900069ED7FE322E030E00E94AE1A1FC081E9D9
:100AA00096E06CE372E00E94C11A81E996E06DE77E
:100AB00072E00E94C41981E996E066EE4AE050E0D7
:100AC0000E94401981E996E067EB71E00E94C11A2B
:100AD00081E996E062E972E00E94C11A8091850581
:100AE000882329F481E996E068ED72E026C08091C0
:100AF0007E05882331F081E996E069EE72E00E947C
:100B0000C11A80917F05882331F081E996E067EF73
:100B100072E00E94C11A80918005882331F081E93A
:100B200096E065E073E00E94C11A809181058823F8
:100B300031F081E996E063E173E00E94C11A80918F
:100B400084058130A9F481E996E061E273E00E94B6
:100B5000C419609186057091870581E996E04AE0A5
:100B600050E00E94921981E996E06BE273E004C0C4
:100B700081E996E068E573E00E94C11A81E996E098
:100B800064E873E00E94C11A81E996E067E973E0C6
:100B90000E94C41981E996E06AE070E04AE050E002
:100BA0000E94921981E996E06EE973E00E94C419EF
:100BB00081E996E066EA73E00E94C41981E996E053
:100BC0006DEA73E00E94C41981E996E062ED70E07D
:100BD0004AE050E00E94A51964EF71E080E090E0E7
:100BE0000E94851580917E05882351F088ED93E061
:100BF00061E070E02DEC3CEC45EB52E40E94600AB1
:100C000080917F05882351F086E394E062E070E0F4
:100C10002DEC3CEC45EB52E40E94600A809180058B
:100C2000882351F084E994E063E070E02DEC3CEC23
:100C300045EB52E40E94600A80918105882351F0BF
:100C400082EF94E064E070E02DEC3CEC44E851E489
:100C50000E94600A80918205882309F46DC080910A
:100C60007E058823A1F088ED93E060E070E023E347
:100C700033E74AE853E40F2EFAE9EF2EF9E9FF2EA5
:100C8000F9ED0F2FFFE31F2FF02D0E944C0A8091EA
:100C90007F058823A1F086E394E060E070E023E321
:100CA00033E74AE853E40F2EFAE9EF2EF9E9FF2E75
:100CB000F9ED0F2FFFE31F2FF02D0E944C0A8091BA
:100CC00080058823A1F084E994E060E070E023E3EC
:100CD00033E74AE853E40F2EFAE9EF2EF9E9FF2E45
:100CE000F9ED0F2FFFE31F2FF02D0E944C0A80918A
:100CF0008105882309F182EF94E060E070E023E34E
:100D000033E74AE853E40F2EFAE9EF2EF9E9FF2E14
:100D1000F9ED0F2FFFE31F2FF02D0E944C0A0CC09E
:100D200083E160E00E94F813809186059091870529
:100D3000892B09F4F8CDFACD1F910F91FF90EF9018
:100D4000DF90CF9008951F920F920FB60F9211244B
:100D50002F933F934F935F936F937F938F939F93C3
:100D6000AF93BF93EF93FF930E94460AFF91EF91D9
:100D7000BF91AF919F918F917F916F915F914F91B3
:100D80003F912F910F900FBE0F901F901895782FC5
:100D90008CB581608CBD6BB121E030E040E050E06B
:100DA0000090C60304C0220F331F441F551F0A942E
:100DB000D2F7522F822F809586238BB99EBD0DB41A
:100DC00007FEFDCF8EB57EBD0DB407FEFDCF4EB53F
:100DD000382F20E08BB1582B5BB98CB58E7F8CBD42
:100DE00050E0422B532BCA010895E9980E94C70690
:100DF000E99A089580E090E00E94C7068091F80586
:100E0000853009F054C080E090EB0E94C706282F7F
:100E10008091FA05882371F49091F905992351F096
:100E20008091FA05E82FF0E0E655FA4F90838F5F46
:100E30008093FA058091FA05E82FF0E0E655FA4F25
:100E400020838F5F8093FA058091A8059091A90572
:100E50008227282F22952827022E269526952025A1
:100E6000022E269520252770082E892F2695079477
:100E70002795902D82270694279590258227909379
:100E8000A9058093A8058091AC052091FA0590E012
:100E9000049630E0821793072CF08091FA0587348E
:100EA00008F46DC08DE092E80E94C7060895809115
:100EB000F80587FF2EC0E091AC058091F8058F5FA3
:100EC0008093F8058150ED5FE80FF0E0E655FA4FAA
:100ED000E0818091A8059091A9058E27282F229561
:100EE0002827022E269526952025022E2695202598
:100EF0002770082E892F269507942795902D8227F5
:100F000006942795902582279093A9058093A8059C
:100F100030C08091F8058F5F8093F8058150833051
:100F200019F184302CF4882399F0813009F516C02A
:100F3000893019F08A30E1F402C0EDE21AC0E09184
:100F4000F9059091AC058EEF891B8093F80511C0CF
:100F50008091A8059091A905E82F0BC08091A80564
:100F60009091A905E92F05C08DE092E80E94C7067F
:100F7000EAEA8E2F90E0805098440E94C7060895B8
:100F80008091F805853009F042C08091AC05209130
:100F9000FA0590E0049630E08217930724F08091E0
:100FA000FA058734A0F184E08093F8058091AC05C0
:100FB000833430F081E090E09093A9058093A805F8
:100FC0008091AB0586FF12C08091F705282F30E095
:100FD000C9018F7190704F9749F08091AB0590E0F7
:100FE000822793278F719070892B89F48091A805AF
:100FF0009091A905892B09F044C0E091F505F09185
:10100000F605309709F43DC080E0099546C080910F
:10101000F805843011F080E008951092AC058091BD
:10102000AC058093FA058FEF9FEF9093A90580930D
:10103000A8052091F9052223D9F08227282F22958F
:101040002827022E269526952025022E2695202536
:101050002770082E892F269507942795902D822793
:1010600006942795902582279093A9058093A8053B
:1010700085E08093F8058DED92E80E94C70680E038
:1010800008958FEF9FEFAFEFBFEF8093F10590933F
:10109000F205A093F305B093F40581E008958091E3
:1010A000F805853099F48091FA05882379F480E079
:1010B00090E00E94F50690FD09C08DE092E80E9444
:1010C000F50684E08093F80581E0089580E00895B6
:1010D000982F86FD05C0907E8091F7058F71980F3F
:1010E0009093AB05E091F505F091F605309711F07E
:1010F00081E009958FEF9FEF9093A9058093A80554
:101100008091A8059091A9052091F9058227282FA3
:1011100022952827022E269526952025022E2695F3
:1011200020252770082E892F269507942795902D26
:10113000822706942795902582279093A90580936E
:10114000A80586E08093F8058DE392E80E94C70623
:101150000895282F16C02223A1F093B7233011F44D
:1011600084E005C0223011F080E001C08CE0917F66
:10117000892B83BF83B7816083BF889583B78E7FB8
:1011800083BF8091F805843031F708951F93182F9D
:1011900087FF03C08DE092E80EC0992787FD9095E8
:1011A000956E0E94F50685E092E80E94F5061123EF
:1011B00021F087E092E80E94F50684E08093F8052C
:1011C0001F9108951F93182F4093AC052DEA35E029
:1011D000C90150E00E940D01812F0E9468081F91F3
:1011E00008950F931F93CF93DF93182FEB01042FD4
:1011F00002C00E94C0070E944F088823D1F3812FAC
:10120000BE01402F0E94E208DF91CF911F910F9104
:1012100008952BB181E090E0A0E0B0E00090C6031B
:1012200004C0880F991FAA1FBB1F0A94D2F7282B4E
:101230002BB92AB1822B8AB98AE061E00E94F813A7
:101240008AE061E00E94B9138BE061E00E94B9136B
:101250008CE060E00E94B9138DE061E00E94B91358
:1012600080E58CBD8DB581608DBD83E060E00E941E
:10127000B91383E061E00E94F81308951F93162FBD
:101280008093F7054093F9050E94090980E090E0FA
:101290000E94C70685E092E80E94C70680E098EBAE
:1012A00002C080E090E00E94C70683E00E944C14D8
:1012B000892BB9F3812F90E074E0880F991F7A95FC
:1012C000E1F7876C90680E94C70680E496EA0E9466
:1012D000C70686E096EC0E94C70682EA90E90E9463
:1012E000C7068CEA92EC0E94C7061091F9051123FB
:1012F00041F083E89AEC0E94C706812F90E09E6C33
:1013000006C08BE89AEC0E94C7068DE29EEC0E9414
:10131000C70683E894EC0E94C70680E598E90E941E
:10132000C70687E79CEC0E94C70680E090EE0E940B
:10133000C70680E098EC0E94C70689E490EC0E9402
:10134000C70684E08093F8058091F70590E08F71DF
:101350009070892B41F081E06AEF76E040E050E048
:101360000E949F1403C081E00E94C2148091F7057F
:101370001F910895982F83FF02C088E2982797FF56
:1013800002C090E001C0906484B7877F84BFF89466
:1013900080916000886180936000909360007894F1
:1013A0000895EAE7F0E0908180818F77808383B7AA
:1013B000817F846083BFF89483B7816083BF85B7E2
:1013C000806685BF85B78F79806485BF789488955E
:1013D00083B78E7F83BF90937A000895CF92DF9278
:1013E000EF92FF921F93CF93DF937C01EC0158E0C3
:1013F000C52ED12C20C01F5F193029F096958795F6
:1014000080329105C0F71092FB05812F0E94BA0926
:101410000E94D1098FEF0E94BA09960102C0220FE3
:10142000331F1A95E2F7C21BD30B8091FB0588236B
:1014300051F0C21BD30BC031D10510F461E004C0E0
:10144000CE0110E0DDCF60E020910406309105066A
:101450004091060650910706EC1AFD0AC701A0E06C
:10146000B0E0820F931FA41FB51F809304069093D2
:101470000506A0930606B0930706862FDF91CF914D
:101480001F91FF90EF90DF90CF9008958091FB0522
:101490008F5F8093FB050895EF92FF920F931F9348
:1014A000FC01758B648B208F318F428F538FE0A2AC
:1014B000F1A202A313A31F910F91FF90EF90089543
:1014C000FC01778B668B248F358F468F578F08955D
:1014D0008EE480937C0062E070E080E090E00E9407
:1014E000851580917A00806480937A0080917A00DB
:1014F00086FDFCCF8091780090E0A0E0B0E06091A4
:101500007900362F20E0442737FD4095542F282BB3
:10151000392B4A2B5B2B60E070E381E190E00E9465
:10152000991DCA01B90108952F923F924F925F927F
:101530006F927F928F929F92AF92BF92CF92DF92E3
:10154000EF92FF920F931F93CF93DF93EC012B0148
:101550000E94680A3B014C01CC24DD249CE4A92EA6
:10156000B12CAC0EBD1E88E4282E312C2C0E3D1E55
:1015700053C08AA59BA599A788A78E890E94231688
:101580009BA78AA7E8ACF9AC0AAD1BADECAAFDAAF3
:101590000EAB1FABAA2797FDA095BA2FBC01CD01BA
:1015A0000E94D81B9B01AC01C801B7010E94D51A4B
:1015B0007B018C0168A579A5882777FD8095982FF8
:1015C0000E94D81B9B01AC01C801B7010E94D41A2C
:1015D0002BED39EF4EE75FE30E948C1C9B01AC01C1
:1015E00068AF79AF8AAF9BAF0E948C1C9B01AC01A6
:1015F000F1016083718382839383F501608171813E
:10160000828193810E94D51AF50160837183828360
:1016100093830894C11CD11CC414D5040CF4A9CF25
:10162000B201882777FD8095982F0E94D81B9B01D7
:10163000AC01F50160817181828193810E943D1B23
:101640000E94F31C7B018C01B301882777FD8095F4
:10165000982F0E94D81B20E030E04AE754E40E9413
:101660003D1B20E030EC4FE754E40E943D1B2C8DE5
:101670003D8D4E8D5F8D0E948C1CA80197010E94AC
:101680008C1C688B798B8A8B9B8B80E090E0A0E030
:10169000B0E0F50180839183A283B38328893989DF
:1016A0004A895B89B901CA01DF91CF911F910F91DE
:1016B000FF90EF90DF90CF90BF90AF909F908F9072
:1016C0007F906F905F904F903F902F9008952F9252
:1016D0003F924F925F926F927F928F929F92AF92C2
:1016E000BF92CF92DF92EF92FF920F931F93DF93FF
:1016F000CF93CDB7DEB7AC970FB6F894DEBF0FBE71
:10170000CDBF9C878B877E876D878A010E94680A80
:101710006F83788789879A870E9477156B017C0190
:10172000AB84BC8428E530E0A20EB31EC801AA2712
:1017300097FDA095BA2F8FA398A7A9A7BAA7AB85A5
:10174000BC8554968C910E9423168C01F5019183DF
:1017500080830E9477156C197D098E099F092FA13E
:1017600038A549A55AA5261737074807590728F06D
:10177000095B11400D36110510F70E94771569833A
:101780007A838B839C831E821D82222433244B8583
:101790005C85405C5F4F588F4F8B8B859C858C5B45
:1017A0009F4F9A8F898FAB85BC85A85BBF4FBC8F3D
:1017B000AB8FEB85FC85E45BFF4FFE8FED8F2B85B8
:1017C0003C85205B3F4F38A32F8F4B855C854C5A5F
:1017D0005F4F5AA349A38B859C85865A9F4F9CA334
:1017E0008BA3AB85BC85A55ABF4FBCA7ABA7EB8528
:1017F000FC85E85AFF4FFEA3EDA31FC0E1E0ABA5B7
:10180000BCA5EC9303C0ABA5BCA51C92B1E02B1604
:10181000310431F4EBA5FCA58081ABA1BCA18C9374
:10182000EBA1FCA19081ABA5BCA58C91981729F0E8
:10183000ED81FE813196FE83ED832D813E814D85C4
:101840005E85241735070CF01CC10E94771529818D
:101850003A814B815C81621B730B840B950B2FA12A
:1018600038A549A55AA5621773078407950708F09C
:1018700008C10894211C311CAB85BC8596968D91BE
:101880009C91979795969C938E9394979A968D9109
:101890009C919B9799969C938E939897FD0180A914
:1018A00091A9A2A9B3A984A795A7A6A7B7A780AD18
:1018B00091ADA2ADB3AD84AB95ABA6ABB7AB84890C
:1018C0000E942316AB85BC8597969C938E93969722
:1018D00056968C910E9423167C01EB85FC8593A77C
:1018E00082A746A057A084A195A1B201681B790BDD
:1018F000882777FD8095982F0E94D81BAB85BC85E3
:101900009C962D913D914D915C919F970E94D51A87
:101910002BED39EF4EE75FE30E948C1C3B014C013D
:10192000EB85FC8560AB71AB82AB93AB80A591A5D9
:10193000E81AF90A0027F7FC0095102FC801B70133
:101940000E94D81BAB85BC85D4962D913D914D91BD
:101950005C91D7970E94D51A2BED39EF4EE75FE3E4
:101960000E948C1C5B016C01EB85FC8560AF71AF44
:1019700082AF93AFC401B301A40193010E948C1CF8
:101980009B01AC01AF89B88D6D937D938D939C9332
:101990001397E98DFA8D60817181828193810E9414
:1019A000D51AA98DBA8D6D937D938D939C931397C2
:1019B000C601B501A60195010E948C1C9B01AC01DA
:1019C000EB8DFC8D6083718382839383AD8DBE8D9F
:1019D0006D917D918D919C910E94D51AED8DFE8D1A
:1019E0006083718382839383AB85BC859C96ED90E5
:1019F000FD900D911C919F97C401B301A80197011F
:101A00000E94D41AEB85FC8520A131A142A153A1EB
:101A10000E948C1C9B01AC01C801B7010E94D51A21
:101A2000AB85BC85DC966D937D938D939C93DF97FE
:101A3000A60195010E948C1C9B01AC01EF8DF8A1C1
:101A40006083718382839383A9A1BAA16D917D91F3
:101A50008D919C910E94D51AE9A1FAA160837183AE
:101A600082839383ABA5BCA58C91EBA1FCA1808361
:101A7000ADA1BEA18D919C91841595050CF4BECEAF
:101A8000C2CEEF81F885BF01882777FD8095982F1A
:101A90000E94D81B20E030E04AE754E40E943D1B3E
:101AA00020E030EC4FE754E40E943D1B7B018C01A9
:101AB000AB85BC8558962D913D914D915C915B977E
:101AC0000E948C1C6F87788B898B9A8BB101882739
:101AD00077FD8095982F0E94D81B5B016C01EB85E8
:101AE000FC85EC5BFF4FFC8BEB8B6081718182810D
:101AF0009381A60195010E943D1B0E94F31C9B014E
:101B0000AC016F85788989899A890E948C1C1B0198
:101B10002C01AB85BC851C966D937D938D939C9316
:101B20001F97C801B7015C962D913D914D915C9135
:101B30005F970E948C1C7B018C01EB85FC85E45B2C
:101B4000FF4FFE8BED8B6081718182819381A601B5
:101B500095010E943D1B0E94F31C9B01AC01C80132
:101B6000B7010E948C1C3B014C01AB85BC85509693
:101B70006D937D938D939C9353976F857889898915
:101B80009A89A80197010E948C1CEB85FC85EC5A70
:101B9000FF4FFCA7EBA720813181428153810E9436
:101BA0008C1CA60195010E943D1B7B018C01AB851D
:101BB000BC856D937D938D939C931397C201B10166
:101BC000A40193010E948C1C9B01AC01EB85FC8558
:101BD0006483758386839783C801B7010E943D1B88
:101BE000AB85BC8518966D937D938D939C931B97C5
:101BF00080E090E0A0E0B0E0EB89FC8980839183F5
:101C0000A283B383ED89FE8980839183A283B3830A
:101C1000EBA5FCA580839183A283B383AC960FB61A
:101C2000F894DEBF0FBECDBFCF91DF911F910F9112
:101C3000FF90EF90DF90CF90BF90AF909F908F90EC
:101C40007F906F905F904F903F902F900895FC0190
:101C500013861586148687E090E0128631970097E8
:101C600011F00197FACF0895DC0180E00BC0E82F56
:101C7000F0E08D9190E0E827F927E859FF4FE491D3
:101C800061508E2F662399F70895DF92EF92FF92AD
:101C90000F931F93FC01E08001811281F894F801F9
:101CA00081818E2981838281DE2CD0948D21828353
:101CB00083E090E00E94DE15F80181818D2181830F
:101CC0008AE090E00E94DE15F8010081789485E3B7
:101CD00090E00E94DE1580E010E0FF240E211F211D
:101CE000012B09F081E01F910F91FF90EF90DF90A1
:101CF0000895EF92FF920F931F93CF93DF937C0190
:101D000001E010E0C0E0D0E0C7010E94450E811163
:101D1000102B000F2196C830D105B1F7812FDF912C
:101D2000CF911F910F91FF90EF9008951F93CF9344
:101D3000DF93FC011081C181D281912F909560FFCA
:101D400012C0F8948A8189238A838981812B8983AF
:101D50008AE090E00E94DE158A81812B8A83789444
:101D600087E390E011C0F8948A8189238A8389816E
:101D7000812B898381E490E00E94DE158A81812B8A
:101D80008A83789485E090E00E94DE15DF91CF9100
:101D90001F910895CF92DF92EF92FF920F931F93BE
:101DA000CF93DF938C01E42EFF24F394C0E0D0E0C6
:101DB000C62EDD2460E08F2D90E08C219D21892BA3
:101DC00009F061E0C8010E94960EFF0C2196C83010
:101DD000D10581F7EE20A9F4F894D8011196ED9180
:101DE000FC91129791818C91809598239183119603
:101DF000ED91FC91129792818C918095982392831A
:101E00007894DF91CF911F910F91FF90EF90DF9029
:101E1000CF9008956CEC40E00E94CA0E0895EF92B6
:101E2000FF920F931F93CF93DF938C017B0165E5A6
:101E300040E00E94CA0EC0E0D0E0F701EC0FFD1FA9
:101E4000C801608140E00E94CA0E2196C830D105C9
:101E5000A1F7DF91CF911F910F91FF90EF9008951F
:101E6000DF92EF92FF920F931F93CF93DF93FC01CA
:101E70000081C181D281F8948981D02ED0948D21A6
:101E8000898378941DE7E02EFF24115059F182E0F8
:101E900090E00E94DE15888190E08E219F21892BA1
:101EA000A1F3F8948A818D218A838981802B89838B
:101EB000789484EF91E00E94DE15F89489818D2159
:101EC000898380E590E00E94DE15888110E090E033
:101ED000E822F922EF2809F411E0789484EA91E0ED
:101EE0000E94DE15812FDF91CF911F910F91FF90FE
:101EF000EF90DF900895AF92BF92DF92EF92FF9242
:101F00000F931F93CF93DF93EC015B018D858823A3
:101F100009F061C0CE010E94300F882329F41B868E
:101F20001D861C8690E06BC0CE0160EF40E00E94F1
:101F3000CA0E01E0DD24EE24FF24F394CE010E94BA
:101F4000450E182FCE010E94450E113019F4813034
:101F5000E1F439C0181709F58B85081770F460E0B3
:101F6000FE01EE0DF11D838190E02F2D30E08223E4
:101F70009323181619064CF003C060E0081729F0E7
:101F8000093008F04CC00C874AC0FE01EE0DF11D6F
:101F900083818F29838361E009C0612FFE01EE0DEB
:101FA000F11D9F2D9095838189238383CE010E940B
:101FB000960E0F5FFF0C19F4E394FF24F39487E06F
:101FC0008E1508F0BBCF013430F0DB86DD2011F533
:101FD00081E08D871FC01B861D861C8690E0DE0178
:101FE00020E030E0F501E20FF31F13968C91139778
:101FF00080832F5F3F4F11962830310599F7892F45
:10200000DF91CF911F910F91FF90EF90DF90BF90E4
:10201000AF9008958B818823F1F291E0E0CFD02E2C
:10202000BDCFFF920F931F938C01F62E862F60E099
:102030000E94B9138F2D90E0FC01E656FE4FE4910B
:10204000D801EC938A579E4FFC016491E62FF0E093
:10205000EE0FFF1FE458FE4F8591949112969C93CA
:102060008E9311971B961C921B971D961C921D9781
:102070001C961C92F80187E090E012863197009739
:1020800011F00197FACF1F910F91FF900895FC0175
:1020900083E191E1928B818B768365831482108238
:1020A00089E0818381E0828383830895FC018481B8
:1020B0000895FC01628308956F927F928F929F92A0
:1020C000AF92BF92CF92DF92EF92FF920F931F9346
:1020D000CF93DF93FB01EA01998180E0288130E012
:1020E000282B392BE081E23231F0E83221F0E03167
:1020F00009F084C04BC04C814F3329F1403420F4A7
:102100004F3109F07BC02FC04F3579F04F3709F0C0
:1021100075C0B901882777FD8095982F0E94D81B3C
:1021200020E030E040E85DE32EC035952795B90109
:10213000882777FD8095982F0E94D81B20E030E0FB
:1021400040E05EE320C03595279535952795B90188
:10215000882777FD8095982F0E94D81B20E030E0DB
:1021600040E85EE310C093E0359527959A95E1F736
:10217000B901882777FD8095982F0E94D81B20E011
:1021800030E040E05FE30E948C1C32C0EF80359568
:102190002795B901882777FD8095982F0E94D81B35
:1021A00020E030E040E85EE30E94D41A3B014C019D
:1021B0006E2D70E02E81621B7109882777FD809556
:1021C000982F0E94D81B5B016C01FF2400E010E0F7
:1021D000C801B7010E94D61B9B01AC01C601B50125
:1021E0000E943D1B9B01AC01C401B3010E94D51AA2
:1021F0009B01AC01832F942F752F00C0262F382F01
:10220000492F572FB901CA01DF91CF911F910F912B
:10221000FF90EF90DF90CF90BF90AF909F908F9006
:102220007F906F9008950895EF92FF920F931F9300
:102230008C017B01FC01858196810E94300FF801A1
:1022400085819681B7010E940F0FF80185819681E3
:1022500064EB40E00E94CA0EF801858196810E94DD
:10226000450EF82EF801858196810E94300F80E09E
:10227000FF2009F481E01F910F91FF90EF900895E6
:10228000EF92FF920F931F93CF93DF93EC018B019B
:102290007A018D819E810E94300F8D819E81B801CF
:1022A0000E940F0F8D819E816EE440E00E94CA0E55
:1022B0008D819E81F701628140E00E94CA0E8D816E
:1022C0009E81F701638140E00E94CA0EF80180817F
:1022D000803139F08D819E81F701648140E00E9458
:1022E000CA0E8D819E810E94300F8D819E8168E48F
:1022F00048810E94CA0E8881882331F06AE070E02C
:1023000080E090E00E9485158D819E810E94300FB3
:10231000DF91CF911F910F91FF90EF900895CF9291
:10232000DF92EF92FF920F931F938C016B017A0162
:10233000FC01858196810E94300FF801858196818C
:10234000B6010E940F0FF801858196816EEB40E087
:102350000E94CA0EF801858196810E94790EF701CC
:102360008083F801858196810E94790EF70181832F
:10237000F801858196810E94790EF7018283F80128
:10238000858196810E94790EF7018383F80185810A
:1023900096810E94790EF7018483F80185819681E8
:1023A0000E94790EF7018583F801858196810E944C
:1023B000790EF7018683F801858196810E94790E56
:1023C000F7018783F801858196810E94790EF701D4
:1023D0008087F801858196810E94300F1F910F91AF
:1023E000FF90EF90DF90CF900895DF93CF93CDB71C
:1023F000DEB729970FB6F894DEBF0FBECDBFAE0192
:102400004F5F5F4F0E948F118981811181E0299672
:102410000FB6F894DEBF0FBECDBFCF91DF91089508
:10242000CF92DF92EF92FF920F931F93CF93DF93A0
:10243000EC016B01452BE1F08B818823C9F0888189
:102440008823B1F40E9477157B018C01CE0160E0F6
:1024500070E00E94F511882359F40E9477156E19D7
:102460007F09800B910B6E5E72408040904070F34C
:10247000F6016081693039F06930A0F06A3041F0CE
:102480006B3081F40AC06EE570E080E090E00EC031
:102490006CEB70E080E090E009C067E771E080E0FD
:1024A00090E004C06EEE72E080E090E00E9485153E
:1024B000DF91CF911F910F91FF90EF90DF90CF9020
:1024C0000895CF93DF93EC018D819E810E94300FA0
:1024D0008D819E810E940A0F8D819E8164E44881D6
:1024E0000E94CA0E8A81882339F0CE012196BE014E
:1024F00040E050E00E941012DF91CF9108950F93B9
:102500001F938A010E948F11C80168E00E94340E57
:1025100020E0F8019085891709F421E0822F1F91AE
:102520000F910895CF92DF92EF92FF920F931F9336
:10253000DF93CF93CDB7DEB729970FB6F894DEBF00
:102540000FBECDBF8C017B016E010894C11CD11C54
:10255000A6010E947F12882329F460E070E08EEFCC
:1025600092EC05C0C801B701A6010E945C10299633
:102570000FB6F894DEBF0FBECDBFCF91DF911F9194
:102580000F91FF90EF90DF90CF900895DF93CF935E
:10259000CDB7DEB729970FB6F894DEBF0FBECDBF1B
:1025A0009C01FB0180818031D9F0C901AE014F5FF0
:1025B0005F4F0E947F128823A9F08D818F3371F0C5
:1025C000803418F48F3171F40BC08F3519F08F37C8
:1025D00049F402C08BE007C08CE005C08AE003C06C
:1025E00089E001C080E029960FB6F894DEBF0FBEE7
:1025F000CDBFCF91DF910895CF92DF92EF92FF92FE
:102600001F93DF93CF93CDB7DEB729970FB6F8941A
:10261000DEBF0FBECDBF6C017B01142FAE014F5F3B
:102620005F4F0E947F128823E1F0F70180818031A3
:10263000B9F01A3051F01A3050F01B3021F01C3034
:1026400031F48FE705C08FE503C08FE301C08FE150
:102650008D83C601B701AE014F5F5F4F0E944011ED
:1026600081E029960FB6F894DEBF0FBECDBFCF91A3
:10267000DF911F91FF90EF90DF90CF9008950F931F
:102680001F938B01CB0167E00E94340E20E0F8011C
:102690009781891709F421E0822F1F910F910895E6
:1026A000AF92BF92CF92DF92EF92FF920F931F9360
:1026B000DF93CF93CDB7DEB761970FB6F894DEBF47
:1026C0000FBECDBF7C01FC01858196810E94270E43
:1026D000F70114826E010894C11CD11C79E0A72E69
:1026E000B12CAC0EBD1E01E02BC0C701B6010E948B
:1026F0003F13882329F1F7018081882341F4C70122
:10270000B6010E941411882311F0F7010083C7015C
:10271000B601A5010E948F11F7011181C701B60111
:102720000E94C612811718F4F701818104C0C70105
:10273000B6010E94C612F701818384818F5F848372
:10274000F70185819681B6010E947B0F882369F687
:1027500061960FB6F894DEBF0FBECDBFCF91DF916B
:102760001F910F91FF90EF90DF90CF90BF90AF90AF
:102770000895CF93DF93482F50E0CA0186569E4FAD
:10278000FC0134914A575E4FFA018491882369F124
:1027900090E0880F991FFC01E859FE4FA591B49174
:1027A000FC01EE58FE4FC591D491662351F42FB72A
:1027B000F8948C91932F909589238C938881892309
:1027C0000BC0623061F42FB7F8948C91932F9095E1
:1027D00089238C938881832B88832FBF06C09FB762
:1027E000F8948C91832B8C939FBFDF91CF910895A8
:1027F000482F50E0CA0182559E4FFC012491CA0126
:1028000086569E4FFC0194914A575E4FFA013491CF
:10281000332309F440C0222351F1233071F02430D6
:1028200028F42130A1F0223011F514C02630B1F087
:102830002730C1F02430D9F404C0809180008F7714
:1028400003C0809180008F7D8093800010C084B58C
:102850008F7702C084B58F7D84BD09C08091B000A0
:102860008F7703C08091B0008F7D8093B000E32FFD
:10287000F0E0EE0FFF1FEE58FE4FA591B4912FB779
:10288000F894662321F48C919095892302C08C9151
:10289000892B8C932FBF0895682F70E0CB01825550
:1028A0009E4FFC012491CB0186569E4FFC01449122
:1028B0006A577E4FFB019491992319F420E030E090
:1028C0003CC0222351F1233071F0243028F4213010
:1028D000A1F0223011F514C02630B1F02730C1F03C
:1028E0002430D9F404C0809180008F7703C0809198
:1028F00080008F7D8093800010C084B58F7702C0E8
:1029000084B58F7D84BD09C08091B0008F7703C0EE
:102910008091B0008F7D8093B000892F90E0880F68
:10292000991F84589E4FFC01A591B4918C9120E091
:1029300030E0842311F021E030E0C90108958230B5
:1029400000F5E82FF0E0EE0FFF1FE450FA4F71831F
:102950006083882319F08130A1F408C08091690058
:102960008C7F842B80936900E89A08958091690098
:10297000440F551F440F551F837F842B809369009C
:10298000E99A0895823080F4882319F0813021F487
:1029900002C0E89801C0E998E82FF0E0EE0FFF1FB1
:1029A000E450FA4F1182108208951F920F920FB6D1
:1029B0000F9211242F933F934F935F936F937F93C5
:1029C0008F939F93AF93BF93EF93FF938091FC05F9
:1029D0009091FD05892B29F0E091FC05F091FD0512
:1029E0000995FF91EF91BF91AF919F918F917F9149
:1029F0006F915F914F913F912F910F900FBE0F906C
:102A00001F9018951F920F920FB60F9211242F93BB
:102A10003F934F935F936F937F938F939F93AF9366
:102A2000BF93EF93FF938091FE059091FF05892B53
:102A300029F0E091FE05F091FF050995FF91EF91D6
:102A4000BF91AF919F918F917F916F915F914F91C6
:102A50003F912F910F900FBE0F901F9018951F92CE
:102A60000F920FB60F9211242F933F938F939F9342
:102A7000AF93BF938091040690910506A09106063E
:102A8000B0910706309108060196A11DB11D232FB4
:102A90002D5F2D3720F02D570196A11DB11D2093DC
:102AA00008068093040690930506A0930606B0934B
:102AB00007068091000690910106A0910206B09150
:102AC00003060196A11DB11D809300069093010697
:102AD000A0930206B0930306BF91AF919F918F918F
:102AE0003F912F910F900FBE0F901F9018958FB7A9
:102AF000F894209104063091050640910606509105
:102B000007068FBFB901CA0108959B01AC017FB7C9
:102B1000F8948091000690910106A0910206B09170
:102B2000030666B5A89B05C06F3F19F00196A11D6D
:102B3000B11D7FBFBA2FA92F982F8827860F911D0F
:102B4000A11DB11D62E0880F991FAA1FBB1F6A95C6
:102B5000D1F7BC012DC0FFB7F89480910006909189
:102B60000106A0910206B0910306E6B5A89B05C038
:102B7000EF3F19F00196A11DB11DFFBFBA2FA92F7C
:102B8000982F88278E0F911DA11DB11DE2E0880F9F
:102B9000991FAA1FBB1FEA95D1F7861B970B885E6A
:102BA0009340C8F2215030404040504068517C4F23
:102BB000211531054105510571F60895019739F048
:102BC000880F991F880F991F02970197F1F70895B1
:102BD000789484B5826084BD84B5816084BD85B5F8
:102BE000826085BD85B5816085BDEEE6F0E08081BF
:102BF00081608083E1E8F0E01082808182608083E0
:102C0000808181608083E0E8F0E080818160808362
:102C1000E1EBF0E0808184608083E0EBF0E0808194
:102C200081608083EAE7F0E0808184608083808136
:102C300082608083808181608083808180688083DE
:102C40001092C1000895982F8E3008F09E50977012
:102C50008091C7038295880F880F807C892B809391
:102C60007C0080917A00806480937A0080917A0061
:102C700086FDFCCF2091780040917900942F80E070
:102C800030E0282B392BC901089508951F920F9227
:102C90000FB60F9211242F933F934F938F939F93CF
:102CA000EF93FF938091C00082FD1DC04091C6004C
:102CB0002091490630914A062F5F3F4F2F733070A5
:102CC00080914B0690914C062817390771F0E091DE
:102CD0004906F0914A06E75FF94F408330934A0670
:102CE0002093490602C08091C600FF91EF919F9109
:102CF0008F914F913F912F910F900FBE0F901F908A
:102D00001895E0919D06F0919E06E05CFF4F819141
:102D1000919120813181821B930B8F739070892B4D
:102D200011F00E94451608951F920F920FB60F9250
:102D300011242F933F938F939F93EF93FF932091B1
:102D40008D0630918E0680918F06909190062817FF
:102D5000390731F48091C1008F7D8093C10014C088
:102D6000E0918F06F0919006E35BF94F208180910E
:102D70008F069091900601968F73907090939006B5
:102D800080938F062093C600FF91EF919F918F91C2
:102D90003F912F910F900FBE0F901F901895AF92FB
:102DA000BF92DF92EF92FF920F931F93CF93DF9327
:102DB000EC017A018B01DD24403081EE580780E080
:102DC000680780E0780711F0DD24D39491E0A92E04
:102DD000B12CEC89FD89DD2069F0C50108A002C095
:102DE000880F991F0A94E2F7808360E079E08DE311
:102DF00090E005C0108260E874E88EE190E0A801E0
:102E000097010E94771D2150304040405040569518
:102E100047953795279580E12030380720F0DD2051
:102E200011F0DD24D6CFE889F9893083EA89FB895E
:102E3000208319A2EE89FF89408121E030E0C90199
:102E40000C8C02C0880F991F0A94E2F7482B40832C
:102E5000EE89FF894081C9010D8C02C0880F991F3E
:102E60000A94E2F7482B4083EE89FF894081C9012B
:102E70000E8C02C0880F991F0A94E2F7482B4083FA
:102E8000EE89FF8980810F8C02C0220F331F0A94C4
:102E9000E2F7209528232083DF91CF911F910F9196
:102EA000FF90EF90DF90BF90AF900895DC011C96EB
:102EB000ED91FC911D97E05CFF4F21913191808154
:102EC0009181281B390B2F733070C9010895DC01E3
:102ED0001C96ED91FC911D97E05CFF4F20813181A4
:102EE000E054F040DF01AE5BBF4F8D919C91119794
:102EF0002817390719F42FEF3FEF07C08D919C91E8
:102F0000E80FF91F8081282F30E0C9010895DC0106
:102F10001C96ED91FC911D97E05CFF4F2081318163
:102F2000E054F040DF01AE5BBF4F8D919C91119753
:102F30002817390719F42FEF3FEF10C08D919C919E
:102F40001197E80FF91F20818D919C91119701969F
:102F50008F73907011969C938E9330E0C901089501
:102F6000DC0191968C919197882339F05496ED91DC
:102F7000FC915597808186FFF9CF91961C92089518
:102F8000CF93DF93EC01EE85FF85E05CFF4F20815E
:102F90003181E054F0402F5F3F4F2F733070DF01DD
:102FA000AE5BBF4F8D919C91119728173907D1F3D4
:102FB000E05CFF4F80819181E054F040E80FF91F01
:102FC0006083EE85FF85E05CFF4F31832083EE89CF
:102FD000FF89208181E090E00F8C02C0880F991F4B
:102FE0000A94E2F7282B208381E089A3EC89FD89EC
:102FF00080818064808381E090E0DF91CF910895AB
:1030000081E00895109294061092930688EE93E062
:10301000A0E0B0E08093950690939606A093970663
:10302000B09398068CEC93E090939206809391066F
:1030300089E096E090939E0680939D068DE496E04D
:103040009093A00680939F0685EC90E09093A20653
:103050008093A10684EC90E09093A4068093A3064D
:1030600080EC90E09093A6068093A50681EC90E01A
:103070009093A8068093A70682EC90E09093AA060E
:103080008093A90686EC90E09093AC068093AB0603
:1030900084E08093AD0683E08093AE0687E0809362
:1030A000AF0685E08093B00681E08093B106089575
:1030B000CF93DF930E94E8150E948903C1E8D6E10F
:1030C0000E9489012097E1F30E948116F9CFCF92E7
:1030D000DF92EF92FF920F931F93CF93DF937C01C8
:1030E0006B018A01C0E0D0E00FC0D6016D916D0187
:1030F000D701ED91FC910190F081E02DC701099578
:10310000C80FD91F015010400115110571F7CE01EC
:10311000DF91CF911F910F91FF90EF90DF90CF90B3
:103120000895EF92FF920F931F938C01DC01ED91B4
:10313000FC910190F081E02D6DE009957C01D801B2
:10314000ED91FC910190F081E02DC8016AE00995B4
:103150009C012E0D3F1DC9011F910F91FF90EF9013
:103160000895CF93DF93EC016115710519F420E008
:1031700030E00FC0DB010D900020E9F71197A61B8E
:10318000B70BE881F9810280F381E02DAD0109954B
:103190009C01C901DF91CF9108954F925F927F9278
:1031A0008F929F92AF92BF92CF92DF92EF92FF9257
:1031B0000F931F93DF93CF93CDB7DEB7A1970FB6D1
:1031C000F894DEBF0FBECDBF2C01742ECB01223090
:1031D00008F42AE019A231E2C32ED12CCC0EDD1E58
:1031E000822E9924AA24BB24672D752FA501940152
:1031F0000E94771D79018A01C801B701A5019401D8
:103200000E94581D472D461B0894C108D1084A301A
:1032100014F4405D01C0495CF6014083E114F104FF
:103220000105110521F07E2C5F2DC801DDCFC20103
:10323000B6010E94B118A1960FB6F894DEBF0FBE7A
:10324000CDBFCF91DF911F910F91FF90EF90DF9055
:10325000CF90BF90AF909F908F907F905F904F9056
:103260000895DC012115310541F4ED91FC910190A7
:10327000F081E02D642F099508950E94CD180895DE
:10328000EF92FF920F931F939A01E62EFF2400E026
:1032900010E0B801A7010E9431191F910F91FF9012
:1032A000EF900895CF92DF92EF92FF920F931F93CA
:1032B000CF93DF93EC016A017B012115310541F4C5
:1032C000E881F9810190F081E02D642F09951FC0FC
:1032D0002A303105D1F477FF17C0E881F9810190D8
:1032E000F081E02D6DE209958C0144275527BA0144
:1032F0004C195D096E097F09CE012AE00E94CD18A4
:103300009801280F391F04C02AE00E94CD189C01A3
:10331000C901DF91CF911F910F91FF90EF90DF9046
:10332000CF900895EF92FF920F931F937B019A0124
:103330000027F7FC0095102FB801A7010E94521931
:103340001F910F91FF90EF900895CF92DF92EF922F
:10335000FF920F931F936C017B019A010027F7FCEA
:103360000095102FB801A7010E9452198C01C601C7
:103370000E949118080F191FC8011F910F91FF900B
:10338000EF90DF90CF9008950E94B11808957F923A
:103390008F929F92AF92BF92CF92DF92EF92FF9265
:1033A0000F931F93CF93DF934C017A018B01722E01
:1033B000CB01BA01A80197010E943D1D882321F08D
:1033C000C40168EB73E021C0C0E0D0E057016801A0
:1033D000E894D7F8C601B5012FEF3FEF4FE75FE75D
:1033E0000E943D1D882351F4C601B5012FEF3FEF28
:1033F0004FE75FE70E94391B181614F0C1E0D0E0D8
:10340000219739F0C4016CEB73E00E94B118EC0114
:1034100093C0C801B7012FEF3FEF4FE75FE40E9471
:10342000881C181654F0C801B7012FEF3FEF4FE783
:103430005FEC0E94391B882324F4C40160EC73E024
:10344000E4CFC801B70120E030E040E050E00E9446
:10345000391B87FD03C0C0E0D0E00EC0D401ED9160
:10346000FC910190F081E02DC4016DE20995EC0121
:1034700017FB109517F9109520E030E040E05FE36E
:10348000DD240BC0CA01B90120E030E040E251E484
:103490000E943D1B9B01AC01D394D71498F3C80143
:1034A000B7010E94D51A5B016C010E94AA1B7B0127
:1034B0008C01C401B801A7012AE030E00E94311953
:1034C000C80FD91F772039F0C40164EC73E00E9463
:1034D000B118C80FD91FC801B7010E94D61B9B01A4
:1034E000AC01C601B5010E94D41A24C020E030E02E
:1034F00040E251E40E948C1C7B018C010E94A51BC0
:103500005B016C01CC24B7FCC094DC2CC401B60177
:10351000A5012AE030E00E945219C80FD91FC60148
:10352000B5010E94D81B9B01AC01C801B7010E94E4
:10353000D41A7A947720D1F6CE01DF91CF911F91E2
:103540000F91FF90EF90DF90CF90BF90AF909F9042
:103550008F907F9008950E94C7190895EF92FF926F
:103560000F931F937C010E94C7198C01C7010E9411
:103570009118080F191FC8011F910F91FF90EF902C
:103580000895EF92FF920F931F937C010E94B11850
:103590008C01C7010E949118080F191FC8011F91C3
:1035A0000F91FF90EF9008955058BB27AA270ED097
:1035B00075C166D130F06BD120F031F49F3F11F42A
:1035C0001EF45BC10EF4E095E7FB51C1E92F77D102
:1035D00080F3BA17620773078407950718F071F430
:1035E0009EF58FC10EF4E0950B2EBA2FA02D0B0186
:1035F000B90190010C01CA01A0011124FF27591B38
:1036000099F0593F50F4503E68F11A16F040A22F3D
:10361000232F342F4427585FF3CF469537952795AE
:10362000A795F0405395C9F77EF41F16BA0B620BAD
:10363000730B840BBAF09150A1F0FF0FBB1F661FF4
:10364000771F881FC2F70EC0BA0F621F731F841F37
:1036500048F4879577956795B795F7959E3F08F05D
:10366000B3CF9395880F08F09927EE0F979587951C
:103670000895D9D008F481E008950CD00FC107D186
:1036800040F0FED030F021F45F3F19F0F0C051114E
:1036900039C1F3C014D198F39923C9F35523B1F379
:1036A000951B550BBB27AA2762177307840738F0B1
:1036B0009F5F5F4F220F331F441FAA1FA9F333D010
:1036C0000E2E3AF0E0E830D091505040E695001CC4
:1036D000CAF729D0FE2F27D0660F771F881FBB1F80
:1036E000261737074807AB07B0E809F0BB0B802D5A
:1036F000BF01FF2793585F4F2AF09E3F510568F0A6
:10370000B6C000C15F3FECF3983EDCF38695779539
:103710006795B795F7959F5FC9F7880F911D9695A7
:10372000879597F90895E1E0660F771F881FBB1F03
:10373000621773078407BA0720F0621B730B840BB0
:10374000BA0BEE1F88F7E095089504D06894B11184
:10375000D9C00895BCD088F09F5790F0B92F992711
:10376000B751A0F0D1F0660F771F881F991F1AF08C
:10377000BA95C9F712C0B13081F0C3D0B1E0089555
:10378000C0C0672F782F8827B85F39F0B93FCCF3D6
:10379000869577956795B395D9F73EF49095809582
:1037A000709561957F4F8F4F9F4F0895E89409C0A2
:1037B00097FB3EF490958095709561957F4F8F4F64
:1037C0009F4F9923A9F0F92F96E9BB279395F6957A
:1037D000879577956795B795F111F8CFFAF4BB0FF8
:1037E00011F460FF1BC06F5F7F4F8F4F9F4F16C05C
:1037F000882311F096E911C0772321F09EE8872FE6
:10380000762F05C0662371F096E8862F70E060E0A1
:103810002AF09A95660F771F881FDAF7880F96951A
:10382000879597F90895990F0008550FAA0BE0E8BE
:10383000FEEF16161706E807F907C0F01216130672
:10384000E407F50798F0621B730B840B950B39F4B2
:103850000A2661F0232B242B252B21F408950A2618
:1038600009F4A140A6958FEF811D811D089597F958
:103870009F6780E870E060E008959FEF80EC089516
:1038800000240A941616170618060906089500243F
:103890000A9412161306140605060895092E0394B9
:1038A000000C11F4882352F0BB0F40F4BF2B11F42D
:1038B00060FF04C06F5F7F4F8F4F9F4F089557FD8C
:1038C0009058440F551F59F05F3F71F04795880F8E
:1038D00097FB991F61F09F3F79F087950895121625
:1038E00013061406551FF2CF4695F1DF08C01616D1
:1038F00017061806991FF1CF869571056105089482
:103900000895E894BB2766277727CB0197F9089598
:103910008ADF08F48FEF08950BD0C0CFB1DF28F015
:10392000B6DF18F0952309F0A2CFA7CF1124EACF74
:10393000C6DFA0F3959FD1F3950F50E0551F629F0E
:10394000F001729FBB27F00DB11D639FAA27F00DF8
:10395000B11DAA1F649F6627B00DA11D661F829F1F
:103960002227B00DA11D621F739FB00DA11D621F04
:10397000839FA00D611D221F749F3327A00D611D21
:10398000231F849F600D211D822F762F6A2F112403
:103990009F5750408AF0E1F088234AF0EE0FFF1F56
:1039A000BB1F661F771F881F91505040A9F79E3F8D
:1039B000510570F05CCFA6CF5F3FECF3983EDCF38F
:1039C000869577956795B795F795E7959F5FC1F7CA
:1039D000FE2B880F911D9695879597F9089511F400
:1039E0000EF44BCF4EC073DFD0F39923D9F3CEF34F
:1039F0009F57550B87FF55D056959795B0E020F40B
:103A0000660F771F881FBB1F1F930F930024900121
:103A1000A0018001F001A0E80E0F1F1F0A1E511D1A
:103A2000601B710B8009B50B48F4600F711F801D7E
:103A3000B51F0E1B1F0B0A0A510907C02E0F3F1F8F
:103A40004A1F0E0F1F1F0A1E511D660F771F881F6A
:103A5000BB1FA695F795E795F8F606171707080612
:103A60005B07211D311D411D0F911F91B901842F4D
:103A70009158880F969587950895D5DE880B990BF8
:103A800008959F3F49F0915028F486957795679562
:103A9000B7959F5F80389F4F880F9695879597F9C8
:103AA000089591505040660F771F881FD2F70895F0
:103AB000629FD001739FF001829FE00DF11D649F12
:103AC000E00DF11D929FF00D839FF00D749FF00D9E
:103AD000659FF00D9927729FB00DE11DF91F639F3F
:103AE000B00DE11DF91FBD01CF0111240895A1E220
:103AF0001A2EAA1BBB1BFD010DC0AA1FBB1FEE1F68
:103B0000FF1FA217B307E407F50720F0A21BB30BB2
:103B1000E40BF50B661F771F881F991F1A9469F72E
:103B200060957095809590959B01AC01BD01CF018A
:103B3000089597FB092E05260ED057FD04D0D7DF38
:103B40000AD0001C38F450954095309521953F4F90
:103B50004F4F5F4F0895F6F790958095709561955A
:103B60007F4F8F4F9F4F0895EE0FFF1F0590F491E9
:083B7000E02D0994F894FFCF49
:103B7800200074656D70657261747572653A200015
:103B8800656D6F6E5478205633204469736372658F
:103B980074652053616D706C696E67004F70656E57
:103BA800456E657267794D6F6E69746F722E6F72AC
:103BB8006700435420312043616C69627261746903
:103BC8006F6E3A2000435420322043616C69627260
:103BD8006174696F6E3A2000435420332043616C4E
:103BE8006962726174696F6E3A2000435420342010
:103BF80043616C6962726174696F6E3A2000524D5C
:103C08005320566F6C74616765206F6E2041432D99
:103C18004143204164617074657220696E707574E7
:103C28002069733A207E00560041432D41432061AC
:103C3800646170746572206465746563746564207A
:103C48002D205265616C20506F776572206D65611B
:103C5800737572656D656E747320656E61626C65EF
:103C68006400617373756D696E6720706F77657234
:103C7800696E672066726F6D2041432D4143206154
:103C880064617074657220286A756D70657220634E
:103C98006C6F73656429005663616C3A2000506844
:103CA8006173652053686966743A200041432D4169
:103CB800432061646170746572204E4F54206465BE
:103CC800746563746564202D204170706172656E3F
:103CD8007420506F776572206D6561737572656DBC
:103CE800656E747320656E61626C65640041737300
:103CF800756D696E672056524D5320746F2062654A
:103D08002000417373756D696E6720706F776572F7
:103D1800696E672066726F6D20626174746572697E
:103D28006573202F20355620555342202D20706F63
:103D380077657220736176696E67206D6F646520A0
:103D4800656E61626C6564004E4F20435427732092
:103D58006465746563746564004354203120646548
:103D68007465637465640043542032206465746527
:103D78006374656400435420332064657465637418
:103D88006564004354203420646574656374656415
:103D980000446574656374656420002044533138B9
:103DA8004232302E2E7573696E67207468697320ED
:103DB800666F722074656D706572617475726520C6
:103DC80072656164696E6700556E61626C65207426
:103DD8006F2064657465637420445331384232300F
:103DE8002074656D70657261747572652073656E97
:103DF800736F720052464D31324220496E697469C0
:103E0800617465643A20004E6F64653A200020466C
:103E18007265713A20003433334D687A00204E655C
:103E280074776F726B3A20006E616E00696E66007F
:103E38006F7666002E00040100000000C0176718A6
:083E4800561787176717B01722
:00000001FF
