:100000000C94E3000C948D150C94BA150C940B0110
:100010000C940B010C940B010C9445060C940B01F1
:100020000C940B010C940B010C940B010C940B0120
:100030000C940B010C940B010C940B010C940B0110
:100040000C945B130C940B010C9478180C94C61848
:100050000C940B010C940B010C940B010C940B01F0
:100060000C940B010C940B01005EBCE2613FDD833C
:10007000C29C7E20A3FD1F419DC3217FFCA2401E88
:100080005F01E3BD3E6082DC237D9FC1421CFEA078
:10009000E1BF5D0380DE3C62BEE0025CDF81633D68
:1000A0007C22C09E1D43A1FF4618FAA427799BC558
:1000B00084DA3866E5BB5907DB856739BAE4065848
:1000C0001947A5FB7826C49A653BD987045AB8E638
:1000D000A7F91B45C6987A24F8A6441A99C7257B28
:1000E0003A6486D85B05E7B98CD2306EEDB3510F18
:1000F0004E10F2AC2F7193CD114FADF3702ECC9208
:10010000D38D6F31B2EC0E50AFF1134DCE90722CF7
:100110006D33D18F0C52B0EE326C8ED0530DEFB1E7
:10012000F0AE4C1291CF2D73CA947628ABF51749D7
:100130000856B4EA6937D58B5709EBB536688AD4C7
:1001400095CB2977F4AA4816E9B7550B88D6346AB7
:100150002B7597C94A14F6A8742AC896154BA9F7A7
:10016000B6E80A54D7896B35000000002400270048
:100170002A0000000000250028002B0000000000DD
:1001800023002600290004040404040404040202D9
:100190000202020203030303030301020408102006
:1001A0004080010204081020010204081020000011
:1001B0000007000201000003040600000000000028
:1001C00000001601341A11241FBECFEFD8E0DEBFA5
:1001D000CDBF13E0A0E0B1E0E4EEFAE302C0059089
:1001E0000D92AE38B107D9F716E0AEE8B3E001C022
:1001F0001D92A936B107E1F711E0C6ECD1E004C0C9
:100200002297FE010E946C1DC23CD107C9F70E94D3
:1002100068180C94701D0C940000FB01DC0102C0F6
:1002200001900D9241505040D8F708950F931F93BD
:1002300006E015E0C80163E10E94B30F84E195E098
:10024000B8010E94E90F1F910F91089528EE33E045
:10025000AC01429FC001439F900D529F900D11240D
:100260000E949D0608958FEF0E94FA0880E067E2E1
:1002700075E04CE00E94250982E00E94DD0880E0E4
:100280000E94FA080895EF92FF920F931F938091B6
:100290003805882331F068EC70E080E090E00E943F
:1002A000B113809134058823D9F1809138058823D2
:1002B00089F08EE893E064E170E040ED57E00E9441
:1002C000090B60918E0370918F0380919003909140
:1002D00091030CC08EE893E068EC75E00E94360A4A
:1002E00020E030E046E653E40E94421C0E945B1B83
:1002F000709328056093270580913905813081F43A
:10030000609127057091280587E496E04AE050E067
:100310000E94261787E496E060E071E00E9458177B
:10032000809135058823D9F180913805882389F09B
:100330008CEE93E064E170E040ED57E00E94090B21
:100340006091EC037091ED038091EE039091EF03C7
:100350000CC08CEE93E068EC75E00E94360A20E059
:1003600030E046E653E40E94421C0E945B1B7093FF
:100370002A056093290580913905813081F46091C7
:10038000290570912A0587E496E04AE050E00E9432
:10039000261787E496E060E071E00E94581780918C
:1003A00036058823D9F180913805882389F08AE4BD
:1003B00094E064E170E040ED57E00E94090B609129
:1003C0004A0470914B0480914C0490914D040CC0F0
:1003D0008AE494E068EC75E00E94360A20E030E0A0
:1003E00046E653E40E94421C0E945B1B70932C055E
:1003F00060932B0580913905813081F460912B0544
:1004000070912C0587E496E04AE050E00E942617A0
:1004100087E496E060E071E00E945817809137050C
:100420008823D9F180913805882389F088EA94E0FF
:1004300064E170E040ED57E00E94090B6091A80470
:100440007091A9048091AA049091AB040CC088EA31
:1004500094E068EC75E00E94360A20E030E046E661
:1004600053E40E94421C0E945B1B70932E05609314
:100470002D0580913905813081F460912D057091B1
:100480002E0587E496E04AE050E00E94261787E4B4
:1004900096E060E071E00E9458178091380588234B
:1004A00031F1E0909A03F0909B0300919C0310912E
:1004B0009D03C801B70120E030E048EC52E40E94FF
:1004C000421C0E945B1B7093300560932F05809146
:1004D0003905813061F480913B05882341F087E440
:1004E00096E0B801A70122E030E00E943F18809119
:1004F0003905813071F480913B05882351F087E400
:1005000096E00E94111664E170E080E090E00E94A5
:10051000B11380913305882351F40E94A3136958C5
:1005200073418040904018F081E0809333058091C2
:100530003A05813009F07FC085E061E00E948E14A9
:1005400082E390E00E949D0600E010E00FC0B80139
:1005500083E0660F771F8A95E1F7625C7A4F84E14A
:1005600095E04BE00E949E120F5F1F4F80913C056B
:1005700090913D050817190754F384E195E00E9416
:10058000031287E791E00E949D0684E195E06EE307
:1005900075E00E9434127B018C0185E060E00E94CE
:1005A0008E14C801B70120E030E04AEF52E40E9407
:1005B000EF1A8823C4F4C801B70120E030E040E21C
:1005C00052EC0E943E1C181674F4C801B70120E0DA
:1005D00030E040E251E40E94421C0E945B1B709399
:1005E00032056093310580913905813021F587E42A
:1005F00096E062E071E00E945817609131057091B9
:100600003205882777FD8095982F0E948E1B2DEC50
:100610003CEC4CEC5DE30E94421CAB01BC0187E466
:1006200096E022E030E00E94421864E170E080E051
:1006300090E00E94B113809133058823F9F00E9465
:100640003301809138058823A9F060E177E280E0EA
:1006500090E00E94B11386E061E00E948E1468EC85
:1006600070E080E090E00E94B11386E060E00E94BC
:100670008E1404C08AE090E00E9426011F910F9121
:10068000FF90EF900895CF92DF92EF92FF920F9339
:100690001F9386E061E00E944F1485E061E00E94B4
:1006A0004F1486E061E00E948E148AE062E042ED21
:1006B0000E94720900E010E01093280500932705BE
:1006C00080E067E275E04CE00E94250964E670E096
:1006D00080E090E00E94B1130F5F1F4F0A301105B8
:1006E00059F782E00E94DD08109228051092270534
:1006F00080E00E94FA0886E060E00E948E1481E0AB
:100700000E943515181619064CF481E080933405C3
:1007100080913B058F5F80933B0502C010923405AA
:1007200082E00E943515181619064CF481E080937A
:10073000350580913B058F5F80933B0502C0109289
:10074000350583E00E943515181619064CF481E032
:100750008093360580913B058F5F80933B0502C0F7
:100760001092360584E00E943515181619064CF4CF
:1007700081E08093370580913B058F5F80933B0537
:1007800002C01092370564EF71E080E090E00E94B3
:10079000B113CC24DD24760100E010E080E00E945B
:1007A0003515805092409C01229FC001239F900DDF
:1007B000329F900D1124AA2797FDA095BA2FC80E3D
:1007C000D91EEA1EFB1E0F5F1F4F0436110531F7BD
:1007D00039EBC3163BE0D30630E0E30630E0F30626
:1007E00020F081E08093380502C010923805809196
:1007F00038058823E1F000E010E086E061E00E9427
:100800008E1468EC70E080E090E00E94B11386E006
:1008100060E00E948E146CE271E080E090E00E9443
:10082000B1130F5F1F4F0A30110539F714C068EE7E
:1008300073E080E090E00E94B11386E061E00E94E6
:100840008E1460ED77E080E090E00E94B11386E0C6
:1008500060E00E948E1485E061E00E948E1462E3E5
:1008600070E080E090E00E94B11384E195E00E9486
:10087000F21284E195E060E00E94FB0F84E195E0D4
:100880000E94F80F80933C0510923D0510E0612F07
:1008900070E080913C0590913D05681779070CF058
:1008A000E1C193E0660F771F9A95E1F7625C7A4F9A
:1008B00086E095E00E941D0F882309F4D3C11F5FD5
:1008C000E6CF10923A0503C081E080933A0587E4B1
:1008D00096E00E94321A882321F081E08093390546
:1008E00002C01092390580913905813009F01CC190
:1008F00087E496E040E855E260E070E00E9401196C
:1009000087E496E0B701A6012AE030E00E94C01615
:1009100087E496E060E171E00E94551887E496E074
:100920006FE271E00E94551868EE73E080E090E09D
:100930000E94B11387E496E065E471E00E945817C5
:1009400087E496E049E155E86BEA72E422E030E0A2
:100950000E94421887E496E06AE571E00E94581709
:1009600087E496E04EEA57E465E871E422E030E07F
:100970000E94421868EE73E080E090E00E94B1139C
:1009800080913805882369F187E496E06DE671E08F
:100990000E94551887E496E066EA71E00E945518B7
:1009A00087E496E06BED71E00E94581787E496E0CB
:1009B0004DEB5BE76EE873E422E030E00E94421802
:1009C00087E496E062EE71E00E94581787E496E0B3
:1009D0004AE959E969ED7FE322E030E00E944218DC
:1009E0001FC087E496E060EF71E00E94551887E42D
:1009F00096E061E372E00E94581787E496E066EEA5
:100A00004AE050E00E94D41687E496E066E472E083
:100A10000E94551887E496E068E472E00E94551839
:100A200080913B05882329F487E496E06EE872E024
:100A300026C080913405882331F087E496E06FE981
:100A400072E00E94551880913505882331F087E4C3
:100A500096E06DEA72E00E94551880913605882371
:100A600031F087E496E06BEB72E00E9455188091BC
:100A70003705882331F087E496E069EC72E00E9444
:100A8000551880913A058130A9F487E496E067ED26
:100A900072E00E94581760913C0570913D0587E413
:100AA00096E04AE050E00E94261787E496E061EE67
:100AB00072E004C087E496E06EE073E00E9455188F
:100AC00087E496E06AE373E00E94551887E496E0B5
:100AD0006DE473E00E94581787E496E06AE070E0E6
:100AE0004AE050E00E94261787E496E064E573E050
:100AF0000E94581787E496E06CE573E00E9458174F
:100B000087E496E063E673E00E94581787E496E076
:100B100062ED70E04AE050E00E94391764EF71E046
:100B200080E090E00E94B11380913405882351F059
:100B30008EE893E061E070E029E135E84BEA52E4A9
:100B40000E94020A80913505882351F08CEE93E0D3
:100B500062E070E029E135E84BEA52E40E94020AC3
:100B600080913605882351F08AE494E063E070E0D8
:100B700029E135E84BEA52E40E94020A80913705E8
:100B8000882351F088EA94E064E070E02EEA37E4CC
:100B900045E851E40E94020A80913805882309F44F
:100BA0006DC0809134058823A1F08EE893E060E069
:100BB00070E02DEB3BE74EE853E40F2EFAE9EF2E01
:100BC000F9E9FF2EF9ED0F2FFFE31F2FF02D0E9403
:100BD000EE09809135058823A1F08CEE93E060E06A
:100BE00070E02DEB3BE74EE853E40F2EFAE9EF2ED1
:100BF000F9E9FF2EF9ED0F2FFFE31F2FF02D0E94D3
:100C0000EE09809136058823A1F08AE494E060E043
:100C100070E02DEB3BE74EE853E40F2EFAE9EF2EA0
:100C2000F9E9FF2EF9ED0F2FFFE31F2FF02D0E94A2
:100C3000EE0980913705882309F188EA94E060E0A5
:100C400070E02DEB3BE74EE853E40F2EFAE9EF2E70
:100C5000F9E9FF2EF9ED0F2FFFE31F2FF02D0E9472
:100C6000EE090CC085E060E00E948E1480913C0586
:100C700090913D05892B09F424CE26CE1F910F912A
:100C8000FF90EF90DF90CF9008951F920F920FB6D4
:100C90000F9211242F933F934F935F936F937F9302
:100CA0008F939F93AF93BF93EF93FF930E94F506AB
:100CB000FF91EF91BF91AF919F918F917F916F9134
:100CC0005F914F913F912F910F900FBE0F901F900A
:100CD0001895982F83FF02C088E2982797FF02C0DB
:100CE00090E001C0906484B7877F84BFF8948091BE
:100CF000600088618093600090936000789408950C
:100D0000EAE7F0E0908180818F77808383B7817FED
:100D1000846083BFF89483B7816083BF85B78066A2
:100D200085BF85B78F79806485BF7894889583B7B0
:100D30008E7F83BF90937A000895CF92DF92EF92D7
:100D4000FF921F93CF93DF937C01EC0158E0C52EF7
:100D5000D12C20C01F5F193029F0969587958032DD
:100D60009105C0F710925E05812F0E9469060E94CE
:100D700080068FEF0E946906960102C0220F331F82
:100D80001A95E2F7C21BD30B80915E05882351F0C0
:100D9000C21BD30BC031D10510F461E004C0CE01F9
:100DA00010E0DDCF60E02091B6053091B7054091AD
:100DB000B8055091B905EC1AFD0AC701A0E0B0E0F2
:100DC000820F931FA41FB51F8093B6059093B7059C
:100DD000A093B805B093B905862FDF91CF911F91ED
:100DE000FF90EF90DF90CF90089580915E058F5F28
:100DF00080935E050895782F8CB581608CBD6BB1B2
:100E000021E030E040E050E000907C0304C0220F7D
:100E1000331F441F551F0A94D2F7522F822F8095FB
:100E200086238BB99EBD0DB407FEFDCF8EB57EBD6A
:100E30000DB407FEFDCF4EB5382F20E08BB1582BF7
:100E40005BB98CB58E7F8CBD50E0422B532BCA0111
:100E50000895E9980E94FB06E99A089580E090E0E1
:100E60000E94FB068091AF05853009F054C080E0F8
:100E700090EB0E94FB06282F8091B105882371F426
:100E80009091B005992351F08091B105E82FF0E0E1
:100E9000EF59FA4F90838F5F8093B1058091B10530
:100EA000E82FF0E0EF59FA4F20838F5F8093B10570
:100EB00080915F05909160058227282F2295282731
:100EC000022E269526952025022E26952025277070
:100ED000082E892F269507942795902D8227069412
:100EE0002795902582279093600580935F058091D8
:100EF00063052091B10590E0049630E082179307D6
:100F00002CF08091B105873408F46DC08DE092E833
:100F10000E94FB0608958091AF0587FF2EC0E091E7
:100F200063058091AF058F5F8093AF058150ED5FC2
:100F3000E80FF0E0EF59FA4FE08180915F05909162
:100F400060058E27282F22952827022E2695269584
:100F50002025022E269520252770082E892F2695DC
:100F600007942795902D8227069427959025822710
:100F70009093600580935F0530C08091AF058F5FCF
:100F80008093AF058150833019F184302CF488238D
:100F900099F0813009F516C0893019F08A30E1F4F2
:100FA00002C0EDE21AC0E091B005909163058EEFAA
:100FB000891B8093AF0511C080915F0590916005FA
:100FC000E82F0BC080915F0590916005E92F05C067
:100FD0008DE092E80E94FB06EAEA8E2F90E08050B6
:100FE00098440E94FB0608958091AF05853009F072
:100FF00042C0809163052091B10590E0049630E0F5
:101000008217930724F08091B1058734A0F184E022
:101010008093AF0580916305833430F081E090E0E8
:101020009093600580935F058091620586FF12C0F2
:101030008091AE05282F30E0C9018F7190704F97D5
:1010400049F08091620590E0822793278F7190701C
:10105000892B89F480915F0590916005892B09F0B7
:1010600044C0E091AC05F091AD05309709F43DC066
:1010700080E0099546C08091AF05843011F080E092
:10108000089510926305809163058093B1058FEFF9
:101090009FEF9093600580935F052091B005222318
:1010A000D9F08227282F22952827022E26952695CB
:1010B0002025022E269520252770082E892F26957B
:1010C00007942795902D82270694279590258227AF
:1010D0009093600580935F0585E08093AF058DED6B
:1010E00092E80E94FB0680E008958FEF9FEFAFEF3C
:1010F000BFEF8093A8059093A905A093AA05B0938C
:10110000AB0581E008958091AF05853099F4809119
:10111000B105882379F480E090E00E94290790FDD2
:1011200009C08DE092E80E94290784E08093AF0512
:1011300081E0089580E00895982F86FD05C0907E97
:101140008091AE058F71980F90936205E091AC0588
:10115000F091AD05309711F081E009958FEF9FEF89
:101160009093600580935F0580915F059091600585
:101170002091B0058227282F22952827022E269518
:1011800026952025022E269520252770082E892FAA
:10119000269507942795902D8227069427959025CC
:1011A00082279093600580935F0586E08093AF056A
:1011B0008DE392E80E94FB060895282F16C0222393
:1011C000A1F093B7233011F484E005C0223011F070
:1011D00080E001C08CE0917F892B83BF83B7816061
:1011E00083BF889583B78E7F83BF8091AF0584309E
:1011F00031F708951F93182F87FF03C08DE092E801
:101200000EC0992787FD9095956E0E94290785E06D
:1012100092E80E942907112321F087E092E80E94BA
:10122000290784E08093AF051F9108951F93182F1D
:101230004093630524E635E0C90150E00E940D01AA
:10124000812F0E949C081F9108950F931F93CF93A5
:10125000DF93182FEB01042F02C00E94F4070E94B5
:1012600083088823D1F3812FBE01402F0E941609E5
:10127000DF91CF911F910F9108952BB181E090E004
:10128000A0E0B0E000907C0304C0880F991FAA1F63
:10129000BB1F0A94D2F7282B2BB92AB1822B8AB90B
:1012A0008AE061E00E948E148AE061E00E944F149F
:1012B0008BE061E00E944F148CE060E00E944F14CC
:1012C0008DE061E00E944F1480E58CBD8DB581609A
:1012D0008DBD83E060E00E944F1483E061E00E94D6
:1012E0008E1408951F93162F8093AE054093B0057A
:1012F0000E943D0980E090E00E94FB0685E092E8B4
:101300000E94FB0680E098EB02C080E090E00E9423
:10131000FB0683E00E94E214892BB9F3812F90E051
:1013200074E0880F991F7A95E1F7876C90680E94A6
:10133000FB0680E496EA0E94FB0686E096EC0E949B
:10134000FB0682EA90E90E94FB068CEA92EC0E947E
:10135000FB061091B005112341F083E89AEC0E943E
:10136000FB06812F90E09E6C06C08BE89AEC0E94F1
:10137000FB068DE29EEC0E94FB0683E894EC0E9443
:10138000FB0680E598E90E94FB0687E79CEC0E943B
:10139000FB0680E090EE0E94FB0680E098EC0E9445
:1013A000FB0689E490EC0E94FB0684E08093AF0585
:1013B0008091AE0590E08F719070892B41F081E0B3
:1013C0006EE277E040E050E00E94571503C081E0F4
:1013D0000E947A158091AE051F910895EF92FF92B9
:1013E0000F931F93FC01758B648B208F318F428F7D
:1013F000538FE0A2F1A202A313A31F910F91FF90BC
:10140000EF900895FC01778B668B248F358F468F84
:10141000578F08958EE480937C0062E070E080E056
:1014200090E00E94B11380917A00806480937A00EA
:1014300080917A0086FDFCCF8091780090E0A0E05A
:10144000B0E060917900362F20E0442737FD4095C9
:10145000542F282B392B4A2B5B2B60E070E381E162
:1014600090E00E944F1DCA01B90108952F923F924A
:101470004F925F926F927F928F929F92AF92BF92A4
:10148000CF92DF92EF92FF920F931F93CF93DF9350
:10149000EC012B010E940A0A3B014C01CC24DD2403
:1014A0009CE4A92EB12CAC0EBD1E88E4282E312C54
:1014B0002C0E3D1E53C08AA59BA599A788A78E898F
:1014C0000E9435159BA78AA7E8ACF9AC0AAD1BAD05
:1014D000ECAAFDAA0EAB1FABAA2797FDA095BA2FC9
:1014E000BC01CD010E948E1B9B01AC01C801B7015C
:1014F0000E948B1A7B018C0168A579A5882777FD4E
:101500008095982F0E948E1B9B01AC01C801B701EA
:101510000E948A1A2BED39EF4EE75FE30E94421CCE
:101520009B01AC0168AF79AF8AAF9BAF0E94421CB0
:101530009B01AC01F1016083718382839383F50188
:1015400060817181828193810E948B1AF501608391
:101550007183828393830894C11CD11CC414D50465
:101560000CF4A9CFB201882777FD8095982F0E94AF
:101570008E1B9B01AC01F501608171818281938199
:101580000E94F31A0E94A91C7B018C01B3018827D9
:1015900077FD8095982F0E948E1B20E030E04AE76F
:1015A00054E40E94F31A20E030EC4FE754E40E9428
:1015B000F31A2C8D3D8D4E8D5F8D0E94421CA8012B
:1015C00097010E94421C688B798B8A8B9B8B80E0F1
:1015D00090E0A0E0B0E0F50180839183A283B38323
:1015E000288939894A895B89B901CA01DF91CF917C
:1015F0001F910F91FF90EF90DF90CF90BF90AF9031
:101600009F908F907F906F905F904F903F902F9022
:1016100008952F923F924F925F926F927F928F9296
:101620009F92AF92BF92CF92DF92EF92FF920F9371
:101630001F93DF93CF93CDB7DEB7AC970FB6F89477
:10164000DEBF0FBECDBF9C878B877E876D878A01EB
:101650000E940A0A6F83788789879A870E94A3135A
:101660006B017C01AB84BC8428E530E0A20EB31E84
:10167000C801AA2797FDA095BA2F8FA398A7A9A75D
:10168000BAA7AB85BC8554968C910E9435158C0108
:10169000F501918380830E94A3136C197D098E0943
:1016A0009F092FA138A549A55AA52617370748072E
:1016B000590728F0095B11400D36110510F70E94FB
:1016C000A31369837A838B839C831E821D822224C9
:1016D00033244B855C85405C5F4F588F4F8B8B85E7
:1016E0009C858C5B9F4F9A8F898FAB85BC85A85B4F
:1016F000BF4FBC8FAB8FEB85FC85E45BFF4FFE8F4C
:10170000ED8F2B853C85205B3F4F38A32F8F4B857A
:101710005C854C5A5F4F5AA349A38B859C85865A9A
:101720009F4F9CA38BA3AB85BC85A55ABF4FBCA77D
:10173000ABA7EB85FC85E85AFF4FFEA3EDA31FC0C6
:10174000E1E0ABA5BCA5EC9303C0ABA5BCA51C9286
:10175000B1E02B16310431F4EBA5FCA58081ABA1DF
:10176000BCA18C93EBA1FCA19081ABA5BCA58C91F5
:10177000981729F0ED81FE813196FE83ED832D814E
:101780003E814D855E85241735070CF01CC10E94F3
:10179000A31329813A814B815C81621B730B840BFB
:1017A000950B2FA138A549A55AA562177307840781
:1017B000950708F008C10894211C311CAB85BC8535
:1017C00096968D919C91979795969C938E939497CE
:1017D0009A968D919C919B9799969C938E939897AE
:1017E000FD0180A991A9A2A9B3A984A795A7A6A73D
:1017F000B7A780AD91ADA2ADB3AD84AB95ABA6ABB1
:10180000B7AB84890E943515AB85BC8597969C93B0
:101810008E93969756968C910E9435157C01EB8598
:10182000FC8593A782A746A057A084A195A1B201E9
:10183000681B790B882777FD8095982F0E948E1B57
:10184000AB85BC859C962D913D914D915C919F9768
:101850000E948B1A2BED39EF4EE75FE30E94421C8A
:101860003B014C01EB85FC8560AB71AB82AB93AB6C
:1018700080A591A5E81AF90A0027F7FC0095102F1A
:10188000C801B7010E948E1BAB85BC85D4962D91F3
:101890003D914D915C91D7970E948B1A2BED39EFBA
:1018A0004EE75FE30E94421C5B016C01EB85FC8507
:1018B00060AF71AF82AF93AFC401B301A4019301D4
:1018C0000E94421C9B01AC01AF89B88D6D937D9342
:1018D0008D939C931397E98DFA8D6081718182813C
:1018E00093810E948B1AA98DBA8D6D937D938D93F0
:1018F0009C931397C601B501A60195010E94421C55
:101900009B01AC01EB8DFC8D60837183828393839B
:10191000AD8DBE8D6D917D918D919C910E948B1AA4
:10192000ED8DFE8D6083718382839383AB85BC854F
:101930009C96ED90FD900D911C919F97C401B30171
:10194000A80197010E948A1AEB85FC8520A131A18C
:1019500042A153A10E94421C9B01AC01C801B701E6
:101960000E948B1AAB85BC85DC966D937D938D931D
:101970009C93DF97A60195010E94421C9B01AC013C
:10198000EF8DF8A16083718382839383A9A1BAA1AB
:101990006D917D918D919C910E948B1AE9A1FAA184
:1019A0006083718382839383ABA5BCA58C91EBA1EB
:1019B000FCA18083ADA1BEA18D919C91841595055C
:1019C0000CF4BECEC2CEEF81F885BF01882777FD2B
:1019D0008095982F0E948E1B20E030E04AE754E467
:1019E0000E94F31A20E030EC4FE754E40E94F31A0F
:1019F0007B018C01AB85BC8558962D913D914D9115
:101A00005C915B970E94421C6F87788B898B9A8BC5
:101A1000B101882777FD8095982F0E948E1B5B016E
:101A20006C01EB85FC85EC5BFF4FFC8BEB8B6081E5
:101A3000718182819381A60195010E94F31A0E940F
:101A4000A91C9B01AC016F85788989899A890E94BC
:101A5000421C1B012C01AB85BC851C966D937D93AC
:101A60008D939C931F97C801B7015C962D913D9172
:101A70004D915C915F970E94421C7B018C01EB852C
:101A8000FC85E45BFF4FFE8BED8B60817181828171
:101A90009381A60195010E94F31A0E94A91C9B0143
:101AA000AC01C801B7010E94421C3B014C01AB854F
:101AB000BC8550966D937D938D939C9353976F85C2
:101AC000788989899A89A80197010E94421CEB852F
:101AD000FC85EC5AFF4FFCA7EBA7208131814281A6
:101AE00053810E94421CA60195010E94F31A7B01BA
:101AF0008C01AB85BC856D937D938D939C931397DF
:101B0000C201B101A40193010E94421C9B01AC01DE
:101B1000EB85FC856483758386839783C801B70151
:101B20000E94F31AAB85BC8518966D937D938D93B7
:101B30009C931B9780E090E0A0E0B0E0EB89FC89EB
:101B400080839183A283B383ED89FE89808391830F
:101B5000A283B383EBA5FCA580839183A283B38387
:101B6000AC960FB6F894DEBF0FBECDBFCF91DF911C
:101B70001F910F91FF90EF90DF90CF90BF90AF90AB
:101B80009F908F907F906F905F904F903F902F909D
:101B90000895FC0113861586148687E090E012866E
:101BA0003197009711F00197FACF0895DC0180E09A
:101BB0000BC0E82FF0E08D9190E0E827F927E85975
:101BC000FF4FE49161508E2F662399F70895DF92BD
:101BD000EF92FF920F931F93FC01E080018112812D
:101BE000F894F80181818E2981838281DE2CD09442
:101BF0008D21828383E090E00E940A14F8018181A4
:101C00008D2181838AE090E00E940A14F80100810E
:101C1000789485E390E00E940A1480E010E0FF24AD
:101C20000E211F21012B09F081E01F910F91FF90E0
:101C3000EF90DF900895EF92FF920F931F93CF9351
:101C4000DF937C0101E010E0C0E0D0E0C7010E941A
:101C5000E70D8111102B000F2196C830D105B1F787
:101C6000812FDF91CF911F910F91FF90EF900895F9
:101C70001F93CF93DF93FC011081C181D281912FFB
:101C8000909560FF12C0F8948A8189238A838981A4
:101C9000812B89838AE090E00E940A148A81812B3B
:101CA0008A83789487E390E011C0F8948A8189232D
:101CB0008A838981812B898381E490E00E940A14C0
:101CC0008A81812B8A83789485E090E00E940A14AF
:101CD000DF91CF911F910895CF92DF92EF92FF9203
:101CE0000F931F93CF93DF938C01E42EFF24F39483
:101CF000C0E0D0E0C62EDD2460E08F2D90E08C2186
:101D00009D21892B09F061E0C8010E94380EFF0C6B
:101D10002196C830D10581F7EE20A9F4F894D801B6
:101D20001196ED91FC91129791818C918095982359
:101D300091831196ED91FC91129792818C918095EF
:101D4000982392837894DF91CF911F910F91FF9008
:101D5000EF90DF90CF9008956CEC40E00E946C0E05
:101D60000895EF92FF920F931F93CF93DF938C010F
:101D70007B0165E540E00E946C0EC0E0D0E0F70119
:101D8000EC0FFD1FC801608140E00E946C0E21969F
:101D9000C830D105A1F7DF91CF911F910F91FF902E
:101DA000EF900895DF92EF92FF920F931F93CF93DE
:101DB000DF93FC010081C181D281F8948981D02E0A
:101DC000D0948D21898378941DE7E02EFF24115053
:101DD00059F182E090E00E940A14888190E08E21FF
:101DE0009F21892BA1F3F8948A818D218A8389818F
:101DF000802B8983789480EE91E00E940A14F894F5
:101E000089818D21898386E490E00E940A1488816B
:101E100010E090E0E822F922EF2809F411E078942C
:101E20008AE991E00E940A14812FDF91CF911F91DE
:101E30000F91FF90EF90DF900895AF92BF92DF92E5
:101E4000EF92FF920F931F93CF93DF93EC015B010F
:101E50008D85882309F061C0CE010E94D20E8823AF
:101E600029F41B861D861C8690E06BC0CE0160EFB6
:101E700040E00E946C0E01E0DD24EE24FF24F39488
:101E8000CE010E94E70D182FCE010E94E70D113000
:101E900019F48130E1F439C0181709F58B8508175A
:101EA00070F460E0FE01EE0DF11D838190E02F2DB6
:101EB00030E082239323181619064CF003C060E02B
:101EC000081729F0093008F04CC00C874AC0FE0101
:101ED000EE0DF11D83818F29838361E009C0612F9D
:101EE000FE01EE0DF11D9F2D909583818923838343
:101EF000CE010E94380E0F5FFF0C19F4E394FF240B
:101F0000F39487E08E1508F0BBCF013430F0DB8608
:101F1000DD2011F581E08D871FC01B861D861C8684
:101F200090E0DE0120E030E0F501E20FF31F1396B0
:101F30008C91139780832F5F3F4F11962830310586
:101F400099F7892FDF91CF911F910F91FF90EF901B
:101F5000DF90BF90AF9008958B818823F1F291E0DC
:101F6000E0CFD02EBDCFFF920F931F938C01F62EA2
:101F7000862F60E00E944F148F2D90E0FC01E65602
:101F8000FE4FE491D801EC938A579E4FFC01649177
:101F9000E62FF0E0EE0FFF1FE458FE4F859194917D
:101FA00012969C938E9311971B961C921B971D96CD
:101FB0001C921D971C961C92F80187E090E01286F7
:101FC0003197009711F00197FACF1F910F91FF9071
:101FD0000895FC0185EB90E1928B818B768365837C
:101FE0001482108289E0818381E082838383089553
:101FF000FC0184810895FC01628308956F927F92B1
:102000008F929F92AF92BF92CF92DF92EF92FF9208
:102010000F931F93CF93DF93FB01EA01998180E037
:10202000288130E0282B392BE081E23231F0E83290
:1020300021F0E03109F084C04BC04C814F3329F1CD
:10204000403420F44F3109F07BC02FC04F3579F078
:102050004F3709F075C0B901882777FD8095982F13
:102060000E948E1B20E030E040E85DE32EC03595F5
:102070002795B901882777FD8095982F0E948E1BA0
:1020800020E030E040E05EE320C0359527953595AF
:102090002795B901882777FD8095982F0E948E1B80
:1020A00020E030E040E85EE310C093E035952795EE
:1020B0009A95E1F7B901882777FD8095982F0E94BE
:1020C0008E1B20E030E040E05FE30E94421C32C003
:1020D000EF8035952795B901882777FD8095982F52
:1020E0000E948E1B20E030E040E85EE30E948A1AE6
:1020F0003B014C016E2D70E02E81621B7109882717
:1021000077FD8095982F0E948E1B5B016C01FF2448
:1021100000E010E0C801B7010E948C1B9B01AC01DC
:10212000C601B5010E94F31A9B01AC01C401B301C1
:102130000E948B1A9B01AC01832F942F752F00C036
:10214000262F382F492F572FB901CA01DF91CF9180
:102150001F910F91FF90EF90DF90CF90BF90AF90C5
:102160009F908F907F906F9008950895EF92FF92C7
:102170000F931F938C017B01FC01858196810E9446
:10218000D20EF80185819681B7010E94B10EF80147
:102190008581968164EB40E00E946C0EF801858198
:1021A00096810E94E70DF82EF801858196810E94A4
:1021B000D20E80E0FF2009F481E01F910F91FF9083
:1021C000EF900895EF92FF920F931F93CF93DF93B9
:1021D000EC018B017A018D819E810E94D20E8D814E
:1021E0009E81B8010E94B10E8D819E816EE440E017
:1021F0000E946C0E8D819E81F701628140E00E94F9
:102200006C0E8D819E81F701638140E00E946C0E0F
:10221000F8018081803139F08D819E81F7016481E0
:1022200040E00E946C0E8D819E810E94D20E8D81B5
:102230009E8168E448810E946C0E8881882331F079
:102240006AE070E080E090E00E94B1138D819E8191
:102250000E94D20EDF91CF911F910F91FF90EF90CE
:102260000895CF92DF92EF92FF920F931F938C010C
:102270006B017A01FC01858196810E94D20EF801E2
:1022800085819681B6010E94B10EF8018581968103
:102290006EEB40E00E946C0EF801858196810E94F1
:1022A0001B0EF7018083F801858196810E941B0E29
:1022B000F7018183F801858196810E941B0EF70149
:1022C0008283F801858196810E941B0EF70183832A
:1022D000F801858196810E941B0EF7018483F80125
:1022E000858196810E941B0EF7018583F801858107
:1022F00096810E941B0EF7018683F80185819681E5
:102300000E941B0EF7018783F801858196810E9448
:102310001B0EF7018087F801858196810E94D20EFD
:102320001F910F91FF90EF90DF90CF900895DF9372
:10233000CF93CDB7DEB729970FB6F894DEBF0FBEA7
:10234000CDBFAE014F5F5F4F0E9431118981811176
:1023500081E029960FB6F894DEBF0FBECDBFCF91B6
:10236000DF910895CF92DF92EF92FF920F931F9328
:10237000CF93DF93EC016B01452BE1F08B81882338
:10238000C9F088818823B1F40E94A3137B018C01DA
:10239000CE0160E070E00E949711882359F40E94FA
:1023A000A3136E197F09800B910B6E5E7240804003
:1023B000904070F3F6016081693039F06930A0F027
:1023C0006A3041F06B3081F40AC06EE570E080E065
:1023D00090E00EC06CEB70E080E090E009C067E731
:1023E00071E080E090E004C06EEE72E080E090E08A
:1023F0000E94B113DF91CF911F910F91FF90EF9049
:10240000DF90CF900895CF93DF93EC018D819E8173
:102410000E94D20E8D819E810E94AC0E8D819E8184
:1024200064E448810E946C0E8A81882339F0CE01D1
:102430002196BE0140E050E00E94B211DF91CF91A1
:1024400008950F931F938A010E943111C80168E01B
:102450000E94D60D20E0F8019085891709F421E04B
:10246000822F1F910F910895CF92DF92EF92FF92EA
:102470000F931F93DF93CF93CDB7DEB729970FB696
:10248000F894DEBF0FBECDBF8C017B016E010894B6
:10249000C11CD11CA6010E942112882329F460E0EE
:1024A00070E08EEF92EC05C0C801B701A6010E9452
:1024B000FE0F29960FB6F894DEBF0FBECDBFCF91A9
:1024C000DF911F910F91FF90EF90DF90CF900895D3
:1024D000DF93CF93CDB7DEB729970FB6F894DEBF61
:1024E0000FBECDBF9C01FB0180818031D9F0C901B5
:1024F000AE014F5F5F4F0E9421128823A9F08D81AA
:102500008F3371F0803418F48F3171F40BC08F3534
:1025100019F08F3749F402C08BE007C08CE005C08A
:102520008AE003C089E001C080E029960FB6F894E4
:10253000DEBF0FBECDBFCF91DF910895CF92DF9266
:10254000EF92FF921F93DF93CF93CDB7DEB729971A
:102550000FB6F894DEBF0FBECDBF6C017B01142F08
:10256000AE014F5F5F4F0E9421128823E1F0F70117
:1025700080818031B9F01A3051F01A3050F01B30A0
:1025800021F01C3031F48FE705C08FE503C08FE3E5
:1025900001C08FE18D83C601B701AE014F5F5F4F70
:1025A0000E94E21081E029960FB6F894DEBF0FBEBC
:1025B000CDBFCF91DF911F91FF90EF90DF90CF9033
:1025C00008950F931F938B01CB0167E00E94D60DF6
:1025D00020E0F8019781891709F421E0822F1F91EB
:1025E0000F910895AF92BF92CF92DF92EF92FF9238
:1025F0000F931F93DF93CF93CDB7DEB761970FB6DD
:10260000F894DEBF0FBECDBF7C01FC0185819681B1
:102610000E94C90DF70114826E010894C11CD11CDF
:1026200079E0A72EB12CAC0EBD1E01E02BC0C70176
:10263000B6010E94E112882329F1F70180818823E5
:1026400041F4C701B6010E94B610882311F0F701CA
:102650000083C701B601A5010E943111F701118164
:10266000C701B6010E946812811718F4F701818131
:1026700004C0C701B6010E946812F70181838481FA
:102680008F5F8483F70185819681B6010E941D0FBB
:10269000882369F661960FB6F894DEBF0FBECDBFF2
:1026A000CF91DF911F910F91FF90EF90DF90CF902E
:1026B000BF90AF9008951F920F920FB60F92112402
:1026C0002F933F938F939F93AF93BF938091B605C2
:1026D0009091B705A091B805B091B9053091BA05B0
:1026E0000196A11DB11D232F2D5F2D3720F02D57F1
:1026F0000196A11DB11D2093BA058093B605909354
:10270000B705A093B805B093B9058091B205909133
:10271000B305A091B405B091B5050196A11DB11DF9
:102720008093B2059093B305A093B405B093B5051B
:10273000BF91AF919F918F913F912F910F900FBEBD
:102740000F901F9018958FB7F8942091B60530918F
:10275000B7054091B8055091B9058FBFB901CA01BD
:1027600008959B01AC017FB7F8948091B2059091D8
:10277000B305A091B405B091B50566B5A89B05C099
:102780006F3F19F00196A11DB11D7FBFBA2FA92F70
:10279000982F8827860F911DA11DB11D62E0880F1B
:1027A000991FAA1FBB1F6A95D1F7BC012DC0FFB7A7
:1027B000F8948091B2059091B305A091B405B091C1
:1027C000B505E6B5A89B05C0EF3F19F00196A11D20
:1027D000B11DFFBFBA2FA92F982F88278E0F911DEB
:1027E000A11DB11DE2E0880F991FAA1FBB1FEA952A
:1027F000D1F7861B970B885E9340C8F2215030407A
:102800004040504068517C4F21153105410551052C
:1028100071F60895019739F0880F991F880F991F55
:1028200002970197F1F70895789484B5826084BD8A
:1028300084B5816084BD85B5826085BD85B58160C4
:1028400085BDEEE6F0E0808181608083E1E8F0E024
:102850001082808182608083808181608083E0E853
:10286000F0E0808181608083E1EBF0E08081846032
:102870008083E0EBF0E0808181608083EAE7F0E034
:102880008081846080838081826080838081816098
:1028900080838081806880831092C1000895CF93E7
:1028A000DF93482F50E0CA0186569E4FFC013491B9
:1028B0004A575E4FFA018491882369F190E0880FAE
:1028C000991FFC01E859FE4FA591B491FC01EE5807
:1028D000FE4FC591D491662351F42FB7F8948C9193
:1028E000932F909589238C93888189230BC0623024
:1028F00061F42FB7F8948C91932F909589238C9342
:102900008881832B88832FBF06C09FB7F8948C9152
:10291000832B8C939FBFDF91CF910895482F50E078
:10292000CA0182559E4FFC012491CA0186569E4FD2
:10293000FC0194914A575E4FFA013491332309F414
:1029400040C0222351F1233071F0243028F421308B
:10295000A1F0223011F514C02630B1F02730C1F0BB
:102960002430D9F404C0809180008F7703C0809117
:1029700080008F7D8093800010C084B58F7702C067
:1029800084B58F7D84BD09C08091B0008F7703C06E
:102990008091B0008F7D8093B000E32FF0E0EE0FC8
:1029A000FF1FEE58FE4FA591B4912FB7F894662300
:1029B00021F48C919095892302C08C91892B8C9362
:1029C0002FBF0895682F70E0CB0182559E4FFC0108
:1029D0002491CB0186569E4FFC0144916A577E4F4D
:1029E000FB019491992319F420E030E03CC02223AC
:1029F00051F1233071F0243028F42130A1F022303D
:102A000011F514C02630B1F02730C1F02430D9F4CC
:102A100004C0809180008F7703C0809180008F7DFB
:102A20008093800010C084B58F7702C084B58F7DFD
:102A300084BD09C08091B0008F7703C08091B00041
:102A40008F7D8093B000892F90E0880F991F845864
:102A50009E4FFC01A591B4918C9120E030E084233D
:102A600011F021E030E0C9010895982F8E3008F070
:102A70009E50977080917D038295880F880F807C8F
:102A8000892B80937C0080917A00806480937A0007
:102A900080917A0086FDFCCF2091780040917900EA
:102AA000942F80E030E0282B392BC9010895823023
:102AB00000F5E82FF0E0EE0FFF1FE554FA4F7183A9
:102AC0006083882319F08130A1F408C080916900E7
:102AD0008C7F842B80936900E89A08958091690027
:102AE000440F551F440F551F837F842B809369002B
:102AF000E99A0895823080F4882319F0813021F416
:102B000002C0E89801C0E998E82FF0E0EE0FFF1F3F
:102B1000E554FA4F1182108208951F920F920FB65A
:102B20000F9211242F933F934F935F936F937F9353
:102B30008F939F93AF93BF93EF93FF938091BB05C8
:102B40009091BC05892B29F0E091BB05F091BC0563
:102B50000995FF91EF91BF91AF919F918F917F91D7
:102B60006F915F914F913F912F910F900FBE0F90FA
:102B70001F9018951F920F920FB60F9211242F934A
:102B80003F934F935F936F937F938F939F93AF93F5
:102B9000BF93EF93FF938091BD059091BE05892B64
:102BA00029F0E091BD05F091BE050995FF91EF91E7
:102BB000BF91AF919F918F917F916F915F914F9155
:102BC0003F912F910F900FBE0F901F901895CF92AD
:102BD000DF92EF92FF920F931F93CF93DF937C01CD
:102BE0006B018A01C0E0D0E00FC0D6016D916D018C
:102BF000D701ED91FC910190F081E02DC70109957D
:102C0000C80FD91F015010400115110571F7CE01F1
:102C1000DF91CF911F910F91FF90EF90DF90CF90B8
:102C20000895EF92FF920F931F938C01DC01ED91B9
:102C3000FC910190F081E02D6DE009957C01D801B7
:102C4000ED91FC910190F081E02DC8016AE00995B9
:102C50009C012E0D3F1DC9011F910F91FF90EF9018
:102C60000895CF93DF93EC016115710519F420E00D
:102C700030E00FC0DB010D900020E9F71197A61B93
:102C8000B70BE881F9810280F381E02DAD01099550
:102C90009C01C901DF91CF9108954F925F927F927D
:102CA0008F929F92AF92BF92CF92DF92EF92FF925C
:102CB0000F931F93DF93CF93CDB7DEB7A1970FB6D6
:102CC000F894DEBF0FBECDBF2C01742ECB01223095
:102CD00008F42AE019A231E2C32ED12CCC0EDD1E5D
:102CE000822E9924AA24BB24672D752FA501940157
:102CF0000E942D1D79018A01C801B701A501940127
:102D00000E940E1D472D461B0894C108D1084A3069
:102D100014F4405D01C0495CF6014083E114F10404
:102D20000105110521F07E2C5F2DC801DDCFC20108
:102D3000B6010E943116A1960FB6F894DEBF0FBE01
:102D4000CDBFCF91DF911F910F91FF90EF90DF905A
:102D5000CF90BF90AF909F908F907F905F904F905B
:102D60000895DC012115310541F4ED91FC910190AC
:102D7000F081E02D642F099508950E944D16089565
:102D8000EF92FF920F931F937C010E94B1168C016A
:102D9000C7010E9411169C01200F311FC9011F910C
:102DA0000F91FF90EF900895EF92FF920F931F9372
:102DB0009A01E62EFF2400E010E0B801A7010E946E
:102DC000B1161F910F91FF90EF900895CF92DF926F
:102DD000EF92FF920F931F93CF93DF93EC016A0161
:102DE0007B012115310541F4E881F9810190F081E1
:102DF000E02D642F09951FC02A303105D1F477FFEB
:102E000017C0E881F9810190F081E02D6DE209950C
:102E10008C0144275527BA014C195D096E097F09B9
:102E2000CE012AE00E944D169801280F391F04C0D8
:102E30002AE00E944D169C01C901DF91CF911F919C
:102E40000F91FF90EF90DF90CF900895EF92FF9257
:102E50000F931F937B019A010027F7FC0095102F19
:102E6000B801A7010E94E6161F910F91FF90EF9005
:102E70000895CF92DF92EF92FF920F931F936C0110
:102E80007B019A010027F7FC0095102FB801A701DC
:102E90000E94E6168C01C6010E941116080F191F28
:102EA000C8011F910F91FF90EF90DF90CF90089590
:102EB0000E94311608957F928F929F92AF92BF9297
:102EC000CF92DF92EF92FF920F931F93CF93DF93F6
:102ED0004C017A018B01722ECB01BA01A801970136
:102EE0000E94F31C882321F0C4016EE673E021C028
:102EF000C0E0D0E057016801E894D7F8C601B501F9
:102F00002FEF3FEF4FE75FE70E94F31C882351F458
:102F1000C601B5012FEF3FEF4FE75FE70E94EF1AC1
:102F2000181614F0C1E0D0E0219739F0C40162E72F
:102F300073E00E943116EC0193C0C801B7012FEF76
:102F40003FEF4FE75FE40E943E1C181654F0C801A3
:102F5000B7012FEF3FEF4FE75FEC0E94EF1A882396
:102F600024F4C40166E773E0E4CFC801B70120E0B0
:102F700030E040E050E00E94EF1A87FD03C0C0E05F
:102F8000D0E00EC0D401ED91FC910190F081E02DD4
:102F9000C4016DE20995EC0117FB109517F9109526
:102FA00020E030E040E05FE3DD240BC0CA01B9015E
:102FB00020E030E040E251E40E94F31A9B01AC01B2
:102FC000D394D71498F3C801B7010E948B1A5B0100
:102FD0006C010E94601B7B018C01C401B801A70138
:102FE0002AE030E00E94B116C80FD91F772039F0CF
:102FF000C4016AE773E00E943116C80FD91FC801E7
:10300000B7010E948C1B9B01AC01C601B5010E9457
:103010008A1A24C020E030E040E251E40E94421CC1
:103020007B018C010E945B1B5B016C01CC24B7FC13
:10303000C094DC2CC401B601A5012AE030E00E9456
:10304000E616C80FD91FC601B5010E948E1B9B0151
:10305000AC01C801B7010E948A1A7A947720D1F690
:10306000CE01DF91CF911F910F91FF90EF90DF90F4
:10307000CF90BF90AF909F908F907F9008950E94C7
:103080005B170895EF92FF920F931F937C010E94AC
:103090005B178C01C7010E941116080F191FC80188
:1030A0001F910F91FF90EF900895EF92FF920F9371
:1030B0001F937C010E9431168C01C7010E941116DA
:1030C000080F191FC8011F910F91FF90EF900895ED
:1030D000CF93DF930E9414140E944303C3EBD8E103
:1030E0000E9443012097E1F30E94B318F9CF08959D
:1030F0001F920F920FB60F9211242F933F934F936D
:103100008F939F93EF93FF938091C00082FD1DC02A
:103110004091C6002091FF05309100062F5F3F4F80
:103120002F7330708091010690910206281739079D
:1031300071F0E091FF05F0910006E154FA4F4083F1
:10314000309300062093FF0502C08091C600FF91D6
:10315000EF919F918F914F913F912F910F900FBEC3
:103160000F901F901895E0915306F0915406E05C83
:10317000FF4F8191919120813181821B930B8F733D
:103180009070892B11F00E94771808951F920F926A
:103190000FB60F9211242F933F938F939F93EF932A
:1031A000FF9320914306309144068091450690910B
:1031B00046062817390731F48091C1008F7D80932E
:1031C000C10014C0E0914506F0914606ED5FF94F4D
:1031D0002081809145069091460601968F739070EC
:1031E00090934606809345062093C600FF91EF9189
:1031F0009F918F913F912F910F900FBE0F901F9035
:103200001895AF92BF92DF92EF92FF920F931F93A8
:10321000CF93DF93EC017A018B01DD24403081EE06
:10322000580780E0680780E0780711F0DD24D39428
:1032300091E0A92EB12CEC89FD89DD2069F0C50152
:1032400008A002C0880F991F0A94E2F7808360E00B
:1032500079E08DE390E005C0108260E874E88EE1CB
:1032600090E0A80197010E942D1D21503040404060
:103270005040569547953795279580E1203038077F
:1032800020F0DD2011F0DD24D6CFE889F9893083E4
:10329000EA89FB89208319A2EE89FF89408121E018
:1032A00030E0C9010C8C02C0880F991F0A94E2F724
:1032B000482B4083EE89FF894081C9010D8C02C0F3
:1032C000880F991F0A94E2F7482B4083EE89FF8903
:1032D0004081C9010E8C02C0880F991F0A94E2F741
:1032E000482B4083EE89FF8980810F8C02C0220F1A
:1032F000331F0A94E2F7209528232083DF91CF9192
:103300001F910F91FF90EF90DF90BF90AF900895C5
:10331000DC011C96ED91FC911D97E05CFF4F219123
:10332000319180819181281B390B2F733070C90135
:103330000895DC011C96ED91FC911D97E05CFF4F18
:1033400020813181E054F040DF01AE5BBF4F8D91B1
:103350009C9111972817390719F42FEF3FEF07C0F9
:103360008D919C91E80FF91F8081282F30E0C901D1
:103370000895DC011C96ED91FC911D97E05CFF4FD8
:1033800020813181E054F040DF01AE5BBF4F8D9171
:103390009C9111972817390719F42FEF3FEF10C0B0
:1033A0008D919C911197E80FF91F20818D919C912F
:1033B000119701968F73907011969C938E9330E0C5
:1033C000C9010895DC0191968C919197882339F079
:1033D0005496ED91FC915597808186FFF9CF919697
:1033E0001C920895CF93DF93EC01EE85FF85E05C9E
:1033F000FF4F20813181E054F0402F5F3F4F2F730A
:103400003070DF01AE5BBF4F8D919C9111972817F3
:103410003907D1F3E05CFF4F80819181E054F040A7
:10342000E80FF91F6083EE85FF85E05CFF4F318375
:103430002083EE89FF89208181E090E00F8C02C01B
:10344000880F991F0A94E2F7282B208381E089A333
:10345000EC89FD8980818064808381E090E0DF9148
:10346000CF91089581E0089510924A06109249067E
:1034700088EE93E0A0E0B0E080934B0690934C067A
:10348000A0934D06B0934E0682E893E090934806D1
:10349000809347068FEB95E09093540680935306F4
:1034A00083E096E0909356068093550685EC90E075
:1034B000909358068093570684EC90E090935A06B8
:1034C0008093590680EC90E090935C0680935B06B5
:1034D00081EC90E090935E0680935D0682EC90E034
:1034E0009093600680935F0686EC90E0909362066E
:1034F0008093610684E08093630683E08093640692
:1035000087E08093650685E08093660681E080937E
:10351000670608955058BB27AA270ED075C166D1FB
:1035200030F06BD120F031F49F3F11F41EF45BC1F9
:103530000EF4E095E7FB51C1E92F77D180F3BA177C
:10354000620773078407950718F071F49EF58FC121
:103550000EF4E0950B2EBA2FA02D0B01B9019001AE
:103560000C01CA01A0011124FF27591B99F0593FF2
:1035700050F4503E68F11A16F040A22F232F342F3A
:103580004427585FF3CF469537952795A795F04088
:103590005395C9F77EF41F16BA0B620B730B840B9D
:1035A000BAF09150A1F0FF0FBB1F661F771F881F55
:1035B000C2F70EC0BA0F621F731F841F48F48795AD
:1035C00077956795B795F7959E3F08F0B3CF93959C
:1035D000880F08F09927EE0F979587950895D9D011
:1035E00008F481E008950CD00FC107D140F0FED05F
:1035F00030F021F45F3F19F0F0C0511139C1F3C030
:1036000014D198F39923C9F35523B1F3951B550BA6
:10361000BB27AA2762177307840738F09F5F5F4FA5
:10362000220F331F441FAA1FA9F333D00E2E3AF0E6
:10363000E0E830D091505040E695001CCAF729D000
:10364000FE2F27D0660F771F881FBB1F261737074F
:103650004807AB07B0E809F0BB0B802DBF01FF277F
:1036600093585F4F2AF09E3F510568F0B6C000C1E5
:103670005F3FECF3983EDCF3869577956795B795B9
:10368000F7959F5FC9F7880F911D9695879597F9D4
:103690000895E1E0660F771F881FBB1F621773074D
:1036A0008407BA0720F0621B730B840BBA0BEE1F62
:1036B00088F7E095089504D06894B111D9C00895B1
:1036C000BCD088F09F5790F0B92F9927B751A0F040
:1036D000D1F0660F771F881F991F1AF0BA95C9F7A6
:1036E00012C0B13081F0C3D0B1E00895C0C0672FDF
:1036F000782F8827B85F39F0B93FCCF38695779556
:103700006795B395D9F73EF490958095709561953E
:103710007F4F8F4F9F4F0895E89409C097FB3EF469
:1037200090958095709561957F4F8F4F9F4F99230E
:10373000A9F0F92F96E9BB279395F695879577958C
:103740006795B795F111F8CFFAF4BB0F11F460FF4C
:103750001BC06F5F7F4F8F4F9F4F16C0882311F0A4
:1037600096E911C0772321F09EE8872F762F05C0B8
:10377000662371F096E8862F70E060E02AF09A9553
:10378000660F771F881FDAF7880F9695879597F948
:103790000895990F0008550FAA0BE0E8FEEF1616E2
:1037A0001706E807F907C0F012161306E407F50735
:1037B00098F0621B730B840B950B39F40A2661F0A9
:1037C000232B242B252B21F408950A2609F4A1404C
:1037D000A6958FEF811D811D089597F99F6780E859
:1037E00070E060E008959FEF80EC089500240A9453
:1037F0001616170618060906089500240A941216CC
:103800001306140605060895092E0394000C11F4FE
:10381000882352F0BB0F40F4BF2B11F460FF04C0AB
:103820006F5F7F4F8F4F9F4F089557FD9058440F04
:10383000551F59F05F3F71F04795880F97FB991F0F
:1038400061F09F3F79F087950895121613061406CC
:10385000551FF2CF4695F1DF08C016161706180659
:10386000991FF1CF86957105610508940895E89434
:10387000BB2766277727CB0197F908958ADF08F4DD
:103880008FEF08950BD0C0CFB1DF28F0B6DF18F06E
:10389000952309F0A2CFA7CF1124EACFC6DFA0F36A
:1038A000959FD1F3950F50E0551F629FF001729FD5
:1038B000BB27F00DB11D639FAA27F00DB11DAA1FF4
:1038C000649F6627B00DA11D661F829F2227B00D41
:1038D000A11D621F739FB00DA11D621F839FA00DCC
:1038E000611D221F749F3327A00D611D231F849F1C
:1038F000600D211D822F762F6A2F11249F57504073
:103900008AF0E1F088234AF0EE0FFF1FBB1F661F0D
:10391000771F881F91505040A9F79E3F510570F0C6
:103920005CCFA6CF5F3FECF3983EDCF386957795AE
:103930006795B795F795E7959F5FC1F7FE2B880FC1
:10394000911D9695879597F9089511F40EF44BCF34
:103950004EC073DFD0F39923D9F3CEF39F57550BA5
:1039600087FF55D056959795B0E020F4660F771FE6
:10397000881FBB1F1F930F9300249001A00180019B
:10398000F001A0E80E0F1F1F0A1E511D601B710BD6
:103990008009B50B48F4600F711F801DB51F0E1B09
:1039A0001F0B0A0A510907C02E0F3F1F4A1F0E0F97
:1039B0001F1F0A1E511D660F771F881FBB1FA6956C
:1039C000F795E795F8F60617170708065B07211D18
:1039D000311D411D0F911F91B901842F9158880FFE
:1039E000969587950895D5DE880B990B08959F3F8E
:1039F00049F0915028F4869577956795B7959F5F24
:103A000080389F4F880F9695879597F90895915024
:103A10005040660F771F881FD2F70895629FD0012C
:103A2000739FF001829FE00DF11D649FE00DF11D79
:103A3000929FF00D839FF00D749FF00D659FF00D28
:103A40009927729FB00DE11DF91F639FB00DE11D15
:103A5000F91FBD01CF0111240895A1E21A2EAA1B5E
:103A6000BB1BFD010DC0AA1FBB1FEE1FFF1FA2172E
:103A7000B307E407F50720F0A21BB30BE40BF50B2B
:103A8000661F771F881F991F1A9469F760957095B4
:103A9000809590959B01AC01BD01CF01089597FBE6
:103AA000092E05260ED057FD04D0D7DF0AD0001C02
:103AB00038F450954095309521953F4F4F4F5F4FCB
:103AC0000895F6F790958095709561957F4F8F4F8B
:103AD0009F4F0895EE0FFF1F0590F491E02D09947C
:043AE000F894FFCF88
:103AE400200074656D70657261747572653A2000AA
:103AF400656D6F6E54782056332043757272656E0F
:103B040074204F6E6C79204578616D706C65004F40
:103B140070656E456E657267794D6F6E69746F720C
:103B24002E6F726700435420312D332043616C693A
:103B340062726174696F6E3A2000435420342043EA
:103B4400616C6962726174696F6E3A200041432D41
:103B540041432061646170746572206465746563B7
:103B6400746564202D205265616C20506F776572F6
:103B7400206D6561737572656D656E747320656E15
:103B840061626C656400617373756D696E67207042
:103B94006F776572696E672066726F6D2041432D81
:103BA4004143206164617074657220286A756D7088
:103BB400657220636C6F73656429005663616C3AA7
:103BC400200050686173652053686966743A200068
:103BD40041432D41432061646170746572204E4FEE
:103BE40054206465746563746564202D204170708D
:103BF4006172656E7420506F776572206D656173B4
:103C04007572656D656E747320656E61626C656452
:103C140000417373756D696E672056524D5320745D
:103C24006F20626520005600417373756D696E677D
:103C340020706F776572696E672066726F6D20629F
:103C44006174746572696573202F2035562055534D
:103C540042202D20706F77657220736176696E67DC
:103C6400206D6F646520656E61626C6564004E4F03
:103C7400204354277320646574656374656400434A
:103C84005420312064657465637465640043542072
:103C94003220646574656374656400435420332082
:103CA40064657465637465640043542034206465FA
:103CB4007465637465640044657465637465642045
:103CC4000020445331384232302E2E7573696E67AA
:103CD400207468697320666F722074656D706572F4
:103CE40061747572652072656164696E6700556EF2
:103CF40061626C6520746F2064657465637420442C
:103D04005331384232302074656D70657261747558
:103D140072652073656E736F720052464D31324284
:103D240020496E697469617465643A20004E6F6459
:103D3400653A200020467265713A20003836384DC5
:103D4400687A00204E6574776F726B3A20006E615A
:103D54006E00696E66006F7666002E000401000036
:0E3D64000000F219E7158819B9199919E2192A
:00000001FF
