:100000000C9462000C945A0D0C94870D0C948A0089
:100010000C948A000C948A000C94BA040C948A0004
:100020000C948A000C948A000C948A000C948A0028
:100030000C948A000C948A000C948A000C948A0018
:100040000C94B40D0C948A000C94C10E0C940F0FF8
:100050000C948A000C948A000C948A000C948A00F8
:100060000C948A000C948A000000000024002700F1
:100070002A0000000000250028002B0000000000DE
:1000800023002600290004040404040404040202DA
:100090000202020203030303030301020408102007
:1000A0004080010204081020010204081020000012
:1000B0000007000201000003040600000000000029
:1000C00000007D1011241FBECFEFD8E0DEBFCDBFF2
:1000D00013E0A0E0B1E0EEE6FCE202C005900D9274
:1000E000AE31B107D9F715E0AEE1B3E001C01D9222
:1000F000A33BB107E1F710E0C4ECD0E004C02297C5
:10010000FE010E943116C23CD107C9F70E94D310EC
:100110000C9435160C940000FB01DC0102C0019028
:100120000D9241505040D8F7089528EE33E0AC01CD
:10013000429FC001439F900D529F900D11240E9439
:10014000050808958FEF0E94DD0680E066E974E0FF
:100150004AE00E94080782E00E94C00680E00E94F8
:10016000DD060895EF92FF920F931F938091A504EF
:10017000882331F068EC70E080E090E00E940A0E85
:100180008091A1048823D9F18091A504882389F066
:100190008EE193E064E170E040ED57E00E947E095B
:1001A00060911E0370911F038091200390912103A1
:1001B0000CC08EE193E068EC75E00E94AB0820E093
:1001C00030E040E753E40E9407150E94201470932A
:1001D0009704609396048091A604813081F4609125
:1001E00096047091970481E995E04AE050E00E94FE
:1001F0000D1281E995E060E071E00E943F1280916C
:10020000A2048823D9F18091A504882389F08CE782
:1002100093E064E170E040ED57E00E947E09609158
:100220007C0370917D0380917E0390917F030CC0CD
:100230008CE793E068EC75E00E94AB0820E030E0CA
:1002400040E753E40E9407150E942014709399041C
:10025000609398048091A604813081F460919804A1
:100260007091990481E995E04AE050E00E940D12F6
:1002700081E995E060E071E00E943F128091A30463
:100280008823D9F18091A504882389F08AED93E031
:1002900064E170E040ED57E00E947E096091DA036E
:1002A0007091DB038091DC039091DD030CC08AED3B
:1002B00093E068EC75E00E94AB0820E030E040E796
:1002C00053E40E9407150E94201470939B046093CE
:1002D0009A048091A604813081F460919A0470910F
:1002E0009B0481E995E04AE050E00E940D1281E90B
:1002F00095E060E071E00E943F128091A4048823A1
:10030000D9F18091A504882389F088E394E064E121
:1003100070E040ED57E00E947E09609138047091D2
:10032000390480913A0490913B040CC088E394E036
:1003300068EC75E00E94AB0820E030E040E753E451
:100340000E9407150E94201470939D0460939C04E2
:100350008091A604813081F460919C0470919D0489
:1003600081E995E04AE050E00E940D1281E995E0B4
:1003700060E071E00E943F128091A504882331F172
:10038000E0902A03F0902B0300912C0310912D0391
:10039000C801B70120E030E048EC52E40E940715A4
:1003A0000E94201470939F0460939E048091A60481
:1003B000813061F48091A704882341F081E995E0C0
:1003C000B801A70122E030E00E9426138091A60424
:1003D000813071F48091A704882351F081E995E080
:1003E0000E940C1164E170E080E090E00E940A0E2F
:1003F0008091A004882351F40E94FC0D6958734138
:100400008040904018F081E08093A0048091A00487
:100410008823F9F00E94A2008091A5048823A9F006
:1004200060E177E280E090E00E940A0E86E061E001
:100430000E947D0C68EC70E080E090E00E940A0E63
:1004400086E060E00E947D0C04C08AE090E00E949B
:1004500095001F910F91FF90EF900895EF92FF92FA
:100460000F931F93CF93DF9386E061E00E943E0CD1
:1004700086E061E00E947D0C68EB7BE080E090E02C
:100480000E940A0E86E060E00E947D0C8AE061E036
:1004900042ED0E94550700E010E01093970400938E
:1004A000960480E066E974E04AE00E94080764E68A
:1004B00070E080E090E00E940A0E0F5F1F4F0A304C
:1004C000110559F782E00E94C0061092970410921D
:1004D000960480E00E94DD0681E00E949E0E1816C0
:1004E00019064CF481E08093A1048091A7048F5FEA
:1004F0008093A70402C01092A10482E00E949E0E85
:10050000181619064CF481E08093A2048091A70488
:100510008F5F8093A70402C01092A20483E00E9420
:100520009E0E181619064CF481E08093A304809166
:10053000A7048F5F8093A70402C01092A30484E0F5
:100540000E949E0E181619064CF481E08093A404B4
:100550008091A7048F5F8093A70402C01092A40427
:1005600068EE73E080E090E00E940A0EEE24FF2423
:100570008701C0E0D0E080E00E949E0E8050924053
:100580009C01229FC001239F900D329F900D11244A
:10059000AA2797FDA095BA2FE80EF91E0A1F1B1F68
:1005A0002196C436D10539F731ECE31637E2F3066C
:1005B00039E0030730E0130720F081E08093A504C1
:1005C00002C01092A5048091A5048823D9F0C0E050
:1005D000D0E086E061E00E947D0C68EC70E080E095
:1005E00090E00E940A0E86E060E00E947D0C6CE2C2
:1005F00071E080E090E00E940A0E2196CA30D10599
:1006000041F714C068EE73E080E090E00E940A0EAB
:1006100086E061E00E947D0C60ED77E080E090E094
:100620000E940A0E86E060E00E947D0C81E995E060
:100630000E947B10882321F081E08093A60402C0F1
:100640001092A6048091A604813009F0EFC081E9E0
:1006500095E040E855E260E070E00E944A0F81E9D1
:1006600095E062E071E00E943C1381E995E061E26F
:1006700071E00E943C1368EE73E080E090E00E941D
:100680000A0E81E995E067E371E00E943F1281E97B
:1006900095E049E155E86BEA72E422E030E00E941F
:1006A000291381E995E06CE471E00E943F1281E931
:1006B00095E04EEA57E465E871E422E030E00E94FC
:1006C000291368EE73E080E090E00E940A0E8091AA
:1006D000A504882369F181E995E06FE571E00E9446
:1006E0003C1381E995E068E971E00E943C1381E9DF
:1006F00095E06DEC71E00E943F1281E995E04CEECF
:1007000051E767E873E422E030E00E94291381E9B1
:1007100095E064ED71E00E943F1281E995E04AE9BD
:1007200059E969ED7FE322E030E00E9429131FC000
:1007300081E995E062EE71E00E943C1381E995E069
:1007400063E272E00E943F1281E995E060EF4AE0C7
:1007500050E00E94BB1181E995E068E372E00E94DD
:100760003C1381E995E06AE372E00E943C138091BA
:10077000A704882329F481E995E060E872E026C0A7
:100780008091A104882331F081E995E061E972E06C
:100790000E943C138091A204882331F081E995E006
:1007A0006FE972E00E943C138091A304882331F02A
:1007B00081E995E06DEA72E00E943C138091A40407
:1007C000882331F081E995E06BEB72E00E943C13E5
:1007D00081E995E069EC72E00E943C1381E995E0C3
:1007E0006CED72E00E943F1281E995E06AE070E0F2
:1007F0004AE050E00E940D1281E995E063EE72E05C
:100800000E943F1281E995E06BEE72E00E943F1278
:1008100081E995E062EF72E00E943F1281E995E084
:1008200062ED70E04AE050E00E9420128091A10445
:10083000882351F08EE193E061E070E029E135E832
:100840004BEA52E40E9477088091A204882351F079
:100850008CE793E062E070E029E135E84BEA52E48E
:100860000E9477088091A304882351F08AED93E0D9
:1008700063E070E029E135E84BEA52E40E94770832
:100880008091A404882351F088E394E064E070E050
:100890002EEA37E445E851E40E9477088091A504E8
:1008A000882309F460C08091A1048823A1F08EE11F
:1008B00093E060E070E02CEE31E747E853E40F2E60
:1008C000FAE9EF2EF9E9FF2EF9ED0F2FFFE31F2FC5
:1008D000F02D0E9463088091A2048823A1F08CE788
:1008E00093E060E070E02CEE31E747E853E40F2E30
:1008F000FAE9EF2EF9E9FF2EF9ED0F2FFFE31F2F95
:10090000F02D0E9463088091A3048823A1F08AED52
:1009100093E060E070E02CEE31E747E853E40F2EFF
:10092000FAE9EF2EF9E9FF2EF9ED0F2FFFE31F2F64
:10093000F02D0E9463088091A4048823A1F088E32D
:1009400094E060E070E02CEE31E747E853E40F2ECE
:10095000FAE9EF2EF9E9FF2EF9ED0F2FFFE31F2F34
:10096000F02D0E946308DF91CF911F910F91FF90AE
:10097000EF9008951F920F920FB60F9211242F93AC
:100980003F934F935F936F937F938F939F93AF9317
:10099000BF93EF93FF930E945D08FF91EF91BF918A
:1009A000AF919F918F917F916F915F914F913F9107
:1009B0002F910F900FBE0F901F901895782F8CB528
:1009C00081608CBD6BB121E030E040E050E00090F0
:1009D0000B0304C0220F331F441F551F0A94D2F784
:1009E000522F822F809586238BB99EBD0DB407FEB2
:1009F000FDCF8EB57EBD0DB407FEFDCF4EB5382FB1
:100A000020E08BB1582B5BB98CB58E7F8CBD50E04C
:100A1000422B532BCA010895E9980E94DE04E99AFB
:100A2000089580E090E00E94DE048091F804853013
:100A300009F054C080E090EB0E94DE04282F8091E2
:100A4000FA04882371F49091F904992351F080916C
:100A5000FA04E82FF0E0E655FB4F90838F5F809318
:100A6000FA048091FA04E82FF0E0E655FB4F20836A
:100A70008F5F8093FA048091A8049091A904822743
:100A8000282F22952827022E269526952025022EEE
:100A9000269520252770082E892F269507942795BF
:100AA000902D822706942795902582279093A9045C
:100AB0008093A8048091AC042091FA0490E00496FD
:100AC00030E0821793072CF08091FA04873408F401
:100AD0006DC08DE092E80E94DE0408958091F804D4
:100AE00087FF2EC0E091AC048091F8048F5F809363
:100AF000F8048150ED5FE80FF0E0E655FB4FE08130
:100B00008091A8049091A9048E27282F2295282748
:100B1000022E269526952025022E26952025277023
:100B2000082E892F269507942795902D82270694C5
:100B30002795902582279093A9048093A80430C01C
:100B40008091F8048F5F8093F8048150833019F10D
:100B500084302CF4882399F0813009F516C089304F
:100B600019F08A30E1F402C0EDE21AC0E091F90414
:100B70009091AC048EEF891B8093F80411C0809192
:100B8000A8049091A904E82F0BC08091A80490912B
:100B9000A904E92F05C08DE092E80E94DE04EAEA8C
:100BA0008E2F90E0805098440E94DE04089580913A
:100BB000F804853009F042C08091AC042091FA0419
:100BC00090E0049630E08217930724F08091FA04B5
:100BD0008734A0F184E08093F8048091AC048334DE
:100BE00030F081E090E09093A9048093A804809174
:100BF000AB0486FF12C08091F704282F30E0C901B2
:100C00008F7190704F9749F08091AB0490E08227EC
:100C100093278F719070892B89F48091A80490910B
:100C2000A904892B09F044C0E091F504F091F60481
:100C3000309709F43DC080E0099546C08091F804E2
:100C4000843011F080E008951092AC048091AC04DF
:100C50008093FA048FEF9FEF9093A9048093A804E8
:100C60002091F9042223D9F08227282F22952827C2
:100C7000022E269526952025022E269520252770C2
:100C8000082E892F269507942795902D8227069464
:100C90002795902582279093A9048093A80485E046
:100CA0008093F8048DED92E80E94DE0480E00895C0
:100CB0008FEF9FEFAFEFBFEF8093F1049093F204BB
:100CC000A093F304B093F40481E008958091F804B4
:100CD000853099F48091FA04882379F480E090E0DB
:100CE0000E940C0590FD09C08DE092E80E940C0561
:100CF00084E08093F80481E0089580E00895982FBF
:100D000086FD05C0907E8091F7048F71980F9093B7
:100D1000AB04E091F504F091F604309711F081E016
:100D200009958FEF9FEF9093A9048093A804809179
:100D3000A8049091A9042091F9048227282F2295D4
:100D40002827022E269526952025022E2695202539
:100D50002770082E892F269507942795902D822796
:100D600006942795902582279093A9048093A80440
:100D700086E08093F8048DE392E80E94DE040895F3
:100D8000282F16C02223A1F093B7233011F484E05A
:100D900005C0223011F080E001C08CE0917F892BEA
:100DA00083BF83B7816083BF889583B78E7F83BFFE
:100DB0008091F804843031F708951F93182F87FF2E
:100DC00003C08DE092E80EC0992787FD9095956E3F
:100DD0000E940C0585E092E80E940C05112321F089
:100DE00087E092E80E940C0584E08093F8041F914C
:100DF00008951F93182F4093AC042DEA34E0C901E5
:100E000050E00E948C00812F0E947F061F91089560
:100E10000F931F93CF93DF93182FEB01042F02C082
:100E20000E94D7050E9466068823D1F3812FBE0158
:100E3000402F0E94F906DF91CF911F910F910895E5
:100E40002BB181E090E0A0E0B0E000900B0304C083
:100E5000880F991FAA1FBB1F0A94D2F7282B2BB902
:100E60002AB1822B8AB98AE061E00E947D0C8AE077
:100E700061E00E943E0C8BE061E00E943E0C8CE041
:100E800060E00E943E0C8DE061E00E943E0C80E537
:100E90008CBD8DB581608DBD83E060E00E943E0C0D
:100EA00083E061E00E947D0C08951F93162F8093CC
:100EB000F7044093F9040E94200780E090E00E942C
:100EC000DE0485E092E80E94DE0480E098EB02C038
:100ED00080E090E00E94DE0483E00E94D10C892B28
:100EE000B9F3812F90E074E0880F991F7A95E1F7AC
:100EF000876C90680E94DE0480E496EA0E94DE041B
:100F000086E096EC0E94DE0482EA90E90E94DE040C
:100F10008CEA92EC0E94DE041091F904112341F056
:100F200083E89AEC0E94DE04812F90E09E6C06C05C
:100F30008BE89AEC0E94DE048DE29EEC0E94DE04B7
:100F400083E894EC0E94DE0480E598E90E94DE04C8
:100F500087E79CEC0E94DE0480E090EE0E94DE04B5
:100F600080E098EC0E94DE0489E490EC0E94DE04AC
:100F700084E08093F8048091F70490E08F71907082
:100F8000892B41F081E061E175E040E050E00E9492
:100F9000240D03C081E00E94470D8091F7041F914A
:100FA0000895982F83FF02C088E2982797FF02C018
:100FB00090E001C0906484B7877F84BFF8948091EB
:100FC0006000886180936000909360007894089539
:100FD000EAE7F0E0908180818F77808383B7817F1B
:100FE000846083BFF89483B7816083BF85B78066D0
:100FF00085BF85B78F79806485BF7894889583B7DE
:101000008E7F83BF90937A000895CF92DF92EF9204
:10101000FF921F93CF93DF937C01EC0158E0C52E24
:10102000D12C20C01F5F193029F09695879580320A
:101030009105C0F71092FB04812F0E94D1070E94F6
:10104000E8078FEF0E94D107960102C0220F331FDD
:101050001A95E2F7C21BD30B8091FB04882351F051
:10106000C21BD30BC031D10510F461E004C0CE0126
:1010700010E0DDCF60E0209104053091050540913E
:10108000060550910705EC1AFD0AC701A0E0B0E083
:10109000820F931FA41FB51F80930405909305052D
:1010A000A0930605B0930705862FDF91CF911F917E
:1010B000FF90EF90DF90CF9008958091FB048F5FB9
:1010C0008093FB040895EF92FF920F931F93FC010E
:1010D000758B648B208F318F428F538FE0A2F1A2EA
:1010E00002A313A31F910F91FF90EF900895FC01AD
:1010F000778B668B248F358F468F578F08958EE4BC
:1011000080937C0062E070E080E090E00E940A0E34
:1011100080917A00806480937A0080917A0086FDC5
:10112000FCCF8091780090E0A0E0B0E06091790081
:10113000362F20E0442737FD4095542F282B392B9C
:101140004A2B5B2B60E070E381E190E00E94141673
:10115000CA01B90108952F923F924F925F926F9208
:101160007F928F929F92AF92BF92CF92DF92EF9237
:10117000FF920F931F93CF93DF93EC012B010E94FB
:101180007F083B014C01CC24DD249CE4A92EB12C2A
:10119000AC0EBD1E88E4282E312C2C0E3D1E53C0F3
:1011A0008AA59BA599A788A78E890E949E0E9BA7BA
:1011B0008AA7E8ACF9AC0AAD1BADECAAFDAA0EAB50
:1011C0001FABAA2797FDA095BA2FBC01CD010E94A5
:1011D00053149B01AC01C801B7010E9450137B015D
:1011E0008C0168A579A5882777FD8095982F0E94A6
:1011F00053149B01AC01C801B7010E944F132BEDA2
:1012000039EF4EE75FE30E9407159B01AC0168AF21
:1012100079AF8AAF9BAF0E9407159B01AC01F1012A
:101220006083718382839383F50160817181828100
:1012300093810E945013F5016083718382839383AD
:101240000894C11CD11CC414D5040CF4A9CFB2015C
:10125000882777FD8095982F0E9453149B01AC013D
:10126000F50160817181828193810E94B8130E948F
:101270006E157B018C01B301882777FD8095982F2F
:101280000E94531420E030E04AE754E40E94B8136F
:1012900020E030EC4FE754E40E94B8132C8D3D8DD4
:1012A0004E8D5F8D0E940715A80197010E940715BA
:1012B000688B798B8A8B9B8B80E090E0A0E0B0E01C
:1012C000F50180839183A283B383288939894A8970
:1012D0005B89B901CA01DF91CF911F910F91FF90F6
:1012E000EF90DF90CF90BF90AF909F908F907F90C6
:1012F0006F905F904F903F902F9008952F923F9264
:101300004F925F926F927F928F929F92AF92BF9215
:10131000CF92DF92EF92FF920F931F93DF93CF93C1
:10132000CDB7DEB7AC970FB6F894DEBF0FBECDBF1A
:101330009C878B877E876D878A010E947F086F83D9
:10134000788789879A870E94FC0D6B017C01AB84AA
:10135000BC8428E530E0A20EB31EC801AA2797FD81
:10136000A095BA2F8FA398A7A9A7BAA7AB85BC85CC
:1013700054968C910E949E0E8C01F501918380837E
:101380000E94FC0D6C197D098E099F092FA138A5BB
:1013900049A55AA5261737074807590728F0095BBA
:1013A00011400D36110510F70E94FC0D69837A83F8
:1013B0008B839C831E821D82222433244B855C8573
:1013C000405C5F4F588F4F8B8B859C858C5B9F4F0C
:1013D0009A8F898FAB85BC85A85BBF4FBC8FAB8FC5
:1013E000EB85FC85E45BFF4FFE8FED8F2B853C8505
:1013F000205B3F4F38A32F8F4B855C854C5A5F4F46
:101400005AA349A38B859C85865A9F4F9CA38BA387
:10141000AB85BC85A55ABF4FBCA7ABA7EB85FC85A8
:10142000E85AFF4FFEA3EDA31FC0E1E0ABA5BCA5AA
:10143000EC9303C0ABA5BCA51C92B1E02B16310404
:1014400031F4EBA5FCA58081ABA1BCA18C93EBA1F1
:10145000FCA19081ABA5BCA58C91981729F0ED81DA
:10146000FE813196FE83ED832D813E814D855E8523
:10147000241735070CF01CC10E94FC0D29813A810C
:101480004B815C81621B730B840B950B2FA138A5DC
:1014900049A55AA5621773078407950708F008C184
:1014A0000894211C311CAB85BC8596968D919C912E
:1014B000979795969C938E9394979A968D919C91DD
:1014C0009B9799969C938E939897FD0180A991A9DB
:1014D000A2A9B3A984A795A7A6A7B7A780AD91ADE8
:1014E000A2ADB3AD84AB95ABA6ABB7AB84890E947C
:1014F0009E0EAB85BC8597969C938E939697569639
:101500008C910E949E0E7C01EB85FC8593A782A79F
:1015100046A057A084A195A1B201681B790B88272A
:1015200077FD8095982F0E945314AB85BC859C96BF
:101530002D913D914D915C919F970E9450132BED01
:1015400039EF4EE75FE30E9407153B014C01EB8545
:10155000FC8560AB71AB82AB93AB80A591A5E81A1B
:10156000F90A0027F7FC0095102FC801B7010E9467
:101570005314AB85BC85D4962D913D914D915C91D2
:10158000D7970E9450132BED39EF4EE75FE30E948F
:1015900007155B016C01EB85FC8560AF71AF82AF15
:1015A00093AFC401B301A40193010E9407159B01ED
:1015B000AC01AF89B88D6D937D938D939C931397F8
:1015C000E98DFA8D60817181828193810E9450132F
:1015D000A98DBA8D6D937D938D939C931397C601BE
:1015E000B501A60195010E9407159B01AC01EB8D89
:1015F000FC8D6083718382839383AD8DBE8D6D91ED
:101600007D918D919C910E945013ED8DFE8D608394
:10161000718382839383AB85BC859C96ED90FD900E
:101620000D911C919F97C401B301A80197010E94DD
:101630004F13EB85FC8520A131A142A153A10E944B
:1016400007159B01AC01C801B7010E945013AB857F
:10165000BC85DC966D937D938D939C93DF97A6015B
:1016600095010E9407159B01AC01EF8DF8A16083E5
:10167000718382839383A9A1BAA16D917D918D918C
:101680009C910E945013E9A1FAA160837183828327
:101690009383ABA5BCA58C91EBA1FCA18083ADA1EC
:1016A000BEA18D919C91841595050CF4BECEC2CE41
:1016B000EF81F885BF01882777FD8095982F0E94DC
:1016C000531420E030E04AE754E40E94B81320E0CD
:1016D00030EC4FE754E40E94B8137B018C01AB85DA
:1016E000BC8558962D913D914D915C915B970E94E0
:1016F00007156F87788B898B9A8BB101882777FDC7
:101700008095982F0E9453145B016C01EB85FC853A
:10171000EC5BFF4FFC8BEB8B60817181828193814D
:10172000A60195010E94B8130E946E159B01AC01A1
:101730006F85788989899A890E9407151B012C0178
:10174000AB85BC851C966D937D938D939C931F9761
:10175000C801B7015C962D913D914D915C915F97C9
:101760000E9407157B018C01EB85FC85E45BFF4F34
:10177000FE8BED8B6081718182819381A601950141
:101780000E94B8130E946E159B01AC01C801B701FD
:101790000E9407153B014C01AB85BC8550966D93AB
:1017A0007D938D939C9353976F85788989899A89C6
:1017B000A80197010E940715EB85FC85EC5AFF4FA5
:1017C000FCA7EBA720813181428153810E9407153C
:1017D000A60195010E94B8137B018C01AB85BC85E5
:1017E0006D937D938D939C931397C201B101A401D6
:1017F00093010E9407159B01AC01EB85FC85648376
:10180000758386839783C801B7010E94B813AB859F
:10181000BC8518966D937D938D939C931B9780E068
:1018200090E0A0E0B0E0EB89FC8980839183A28303
:10183000B383ED89FE8980839183A283B383EBA573
:10184000FCA580839183A283B383AC960FB6F894F2
:10185000DEBF0FBECDBFCF91DF911F910F91FF90E3
:10186000EF90DF90CF90BF90AF909F908F907F9040
:101870006F905F904F903F902F900895CF93DF939C
:10188000482F50E0CA0186569F4FFC0134914A57B9
:101890005F4FFA018491882369F190E0880F991FC6
:1018A000FC01E859FF4FA591B491FC01EE58FF4FA0
:1018B000C591D491662351F42FB7F8948C91932F4E
:1018C000909589238C93888189230BC0623061F4C1
:1018D0002FB7F8948C91932F909589238C938881BE
:1018E000832B88832FBF06C09FB7F8948C91832BDE
:1018F0008C939FBFDF91CF910895482F50E0CA018C
:1019000082559F4FFC012491CA0186569F4FFC01CE
:1019100094914A575F4FFA013491332309F440C040
:10192000222351F1233071F0243028F42130A1F02A
:10193000223011F514C02630B1F02730C1F0243028
:10194000D9F404C0809180008F7703C0809180001B
:101950008F7D8093800010C084B58F7702C084B5DE
:101960008F7D84BD09C08091B0008F7703C08091C6
:10197000B0008F7D8093B000E32FF0E0EE0FFF1FEB
:10198000EE58FF4FA591B4912FB7F894662321F438
:101990008C919095892302C08C91892B8C932FBFB9
:1019A0000895682F70E0CB0182559F4FFC01249170
:1019B000CB0186569F4FFC0144916A577F4FFB0134
:1019C0009491992319F420E030E03CC0222351F196
:1019D000233071F0243028F42130A1F0223011F5A9
:1019E00014C02630B1F02730C1F02430D9F404C03F
:1019F000809180008F7703C0809180008F7D8093DD
:101A0000800010C084B58F7702C084B58F7D84BDFF
:101A100009C08091B0008F7703C08091B0008F7DA6
:101A20008093B000892F90E0880F991F84589F4FB2
:101A3000FC01A591B4918C9120E030E0842311F059
:101A400021E030E0C9010895823000F5E82FF0E090
:101A5000EE0FFF1FE450FB4F71836083882319F062
:101A60008130A1F408C0809169008C7F842B809321
:101A70006900E89A089580916900440F551F440F4A
:101A8000551F837F842B80936900E99A08958230E3
:101A900080F4882319F0813021F402C0E89801C055
:101AA000E998E82FF0E0EE0FFF1FE450FB4F1182A2
:101AB000108208951F920F920FB60F9211242F9348
:101AC0003F934F935F936F937F938F939F93AF93C6
:101AD000BF93EF93FF938091FC049091FD04892BB9
:101AE00029F0E091FC04F091FD040995FF91EF913C
:101AF000BF91AF919F918F917F916F915F914F9126
:101B00003F912F910F900FBE0F901F9018951F922D
:101B10000F920FB60F9211242F933F934F935F9321
:101B20006F937F938F939F93AF93BF93EF93FF93A5
:101B30008091FE049091FF04892B29F0E091FE042E
:101B4000F091FF040995FF91EF91BF91AF919F91A3
:101B50008F917F916F915F914F913F912F910F9056
:101B60000FBE0F901F9018951F920F920FB60F92F5
:101B700011242F933F938F939F93AF93BF938091A3
:101B8000040590910505A0910605B09107053091D7
:101B900008050196A11DB11D232F2D5F2D3720F0C3
:101BA0002D570196A11DB11D2093080580930405B2
:101BB00090930505A0930605B09307058091000555
:101BC00090910105A0910205B09103050196A11D18
:101BD000B11D8093000590930105A0930205B09379
:101BE0000305BF91AF919F918F913F912F910F90DE
:101BF0000FBE0F901F9018958FB7F8942091040591
:101C00003091050540910605509107058FBFB90138
:101C1000CA0108959B01AC017FB7F894809100053B
:101C200090910105A0910205B091030566B5A89BAE
:101C300005C06F3F19F00196A11DB11D7FBFBA2FDE
:101C4000A92F982F8827860F911DA11DB11D62E035
:101C5000880F991FAA1FBB1F6A95D1F7BC012DC021
:101C6000FFB7F8948091000590910105A0910205BD
:101C7000B0910305E6B5A89B05C0EF3F19F00196AA
:101C8000A11DB11DFFBFBA2FA92F982F88278E0F36
:101C9000911DA11DB11DE2E0880F991FAA1FBB1F56
:101CA000EA95D1F7861B970B885E9340C8F22150C6
:101CB00030404040504068517C4F2115310541056E
:101CC000510571F60895789484B5826084BD84B519
:101CD000816084BD85B5826085BD85B5816085BD27
:101CE000EEE6F0E0808181608083E1E8F0E0108240
:101CF000808182608083808181608083E0E8F0E081
:101D0000808181608083E1EBF0E08081846080836A
:101D1000E0EBF0E0808181608083EAE7F0E08081A1
:101D20008460808380818260808380818160808301
:101D30008081806880831092C1000895982F8E3032
:101D400008F09E50977080910C038295880F880F41
:101D5000807C892B80937C0080917A0080648093C2
:101D60007A0080917A0086FDFCCF20917800409126
:101D70007900942F80E030E0282B392BC901089599
:101D800008951F920F920FB60F9211242F933F9335
:101D90004F938F939F93EF93FF938091C00082FDA9
:101DA0001DC04091C6002091490530914A052F5F22
:101DB0003F4F2F73307080914B0590914C05281741
:101DC000390771F0E0914905F0914A05E75FFA4F54
:101DD000408330934A052093490502C08091C60094
:101DE000FF91EF919F918F914F913F912F910F9084
:101DF0000FBE0F901F901895E0919D05F0919E05E4
:101E0000E05CFF4F8191919120813181821B930B86
:101E10008F739070892B11F00E94C00E08951F924D
:101E20000F920FB60F9211242F933F938F939F938E
:101E3000EF93FF9320918D0530918E0580918F0552
:101E4000909190052817390731F48091C1008F7D5A
:101E50008093C10014C0E0918F05F0919005E35B81
:101E6000FA4F208180918F059091900501968F7394
:101E700090709093900580938F052093C600FF91FA
:101E8000EF919F918F913F912F910F900FBE0F90E7
:101E90001F901895AF92BF92DF92EF92FF920F932F
:101EA0001F93CF93DF93EC017A018B01DD24403047
:101EB00081EE580780E0680780E0780711F0DD24A4
:101EC000D39491E0A92EB12CEC89FD89DD2069F035
:101ED000C50108A002C0880F991F0A94E2F7808309
:101EE00060E079E08DE390E005C0108260E874E87E
:101EF0008EE190E0A80197010E94F2152150304038
:101F000040405040569547953795279580E12030C1
:101F1000380720F0DD2011F0DD24D6CFE889F989DB
:101F20003083EA89FB89208319A2EE89FF894081E9
:101F300021E030E0C9010C8C02C0880F991F0A947F
:101F4000E2F7482B4083EE89FF894081C9010D8C5F
:101F500002C0880F991F0A94E2F7482B4083EE894C
:101F6000FF894081C9010E8C02C0880F991F0A9415
:101F7000E2F7482B4083EE89FF8980810F8C02C0F5
:101F8000220F331F0A94E2F7209528232083DF9144
:101F9000CF911F910F91FF90EF90DF90BF90AF9086
:101FA0000895DC011C96ED91FC911D97E05CFF4FBC
:101FB0002191319180819181281B390B2F733070D1
:101FC000C9010895DC011C96ED91FC911D97E05C20
:101FD000FF4F20813181E054F040DF01AE5BBF4F05
:101FE0008D919C9111972817390719F42FEF3FEF26
:101FF00007C08D919C91E80FF91F8081282F30E058
:10200000C9010895DC011C96ED91FC911D97E05CDF
:10201000FF4F20813181E054F040DF01AE5BBF4FC4
:102020008D919C9111972817390719F42FEF3FEFE5
:1020300010C08D919C911197E80FF91F20818D910F
:102040009C91119701968F73907011969C938E932B
:1020500030E0C9010895DC0191968C919197882315
:1020600039F05496ED91FC915597808186FFF9CF18
:1020700091961C920895CF93DF93EC01EE85FF8536
:10208000E05CFF4F20813181E054F0402F5F3F4FF3
:102090002F733070DF01AE5BBF4F8D919C91119714
:1020A00028173907D1F3E05CFF4F80819181E0541C
:1020B000F040E80FF91F6083EE85FF85E05CFF4F7D
:1020C00031832083EE89FF89208181E090E00F8CAD
:1020D00002C0880F991F0A94E2F7282B208381E021
:1020E00089A3EC89FD8980818064808381E090E010
:1020F000DF91CF91089581E0089510929405109298
:10210000930588EE93E0A0E0B0E08093950590936E
:102110009605A0939705B093980581E193E090937D
:1021200092058093910589E095E090939E058093B8
:102130009D058DE495E09093A00580939F0585EC27
:1021400090E09093A2058093A10584EC90E0909399
:10215000A4058093A30580EC90E09093A60580935E
:10216000A50581EC90E09093A8058093A70582ECEB
:1021700090E09093AA058093A90586EC90E0909357
:10218000AC058093AB0584E08093AD0583E080933C
:10219000AE0587E08093AF0585E08093B00581E0D0
:1021A0008093B1050895CF93DF930E94630E0E9440
:1021B0002E02CCEFDEE00E94B2002097E1F30E94F5
:1021C000FC0EF9CFCF92DF92EF92FF920F931F9305
:1021D000CF93DF937C016B018A01C0E0D0E00FC098
:1021E000D6016D916D01D701ED91FC910190F081C7
:1021F000E02DC7010995C80FD91F015010400115E6
:10220000110571F7CE01DF91CF911F910F91FF90D2
:10221000EF90DF90CF900895EF92FF920F931F936E
:102220008C01DC01ED91FC910190F081E02D6DE0DD
:1022300009957C01D801ED91FC910190F081E02D90
:10224000C8016AE009959C012E0D3F1DC9011F912F
:102250000F91FF90EF900895CF93DF93EC016115FC
:10226000710519F420E030E00FC0DB010D90002073
:10227000E9F71197A61BB70BE881F9810280F3817A
:10228000E02DAD0109959C01C901DF91CF91089521
:102290004F925F927F928F929F92AF92BF92CF9216
:1022A000DF92EF92FF920F931F93DF93CF93CDB7FF
:1022B000DEB7A1970FB6F894DEBF0FBECDBF2C01DD
:1022C000742ECB01223008F42AE019A231E2C32E89
:1022D000D12CCC0EDD1E822E9924AA24BB24672D7E
:1022E000752FA50194010E94F21579018A01C80198
:1022F000B701A50194010E94D315472D461B0894F0
:10230000C108D1084A3014F4405D01C0495CF601AF
:102310004083E114F1040105110521F07E2C5F2DAD
:10232000C801DDCFC201B6010E942C11A1960FB6E3
:10233000F894DEBF0FBECDBFCF91DF911F910F91FB
:10234000FF90EF90DF90CF90BF90AF909F908F90D5
:102350007F905F904F900895DC012115310541F485
:10236000ED91FC910190F081E02D642F0995089585
:102370000E9448110895EF92FF920F931F939A01C4
:10238000E62EFF2400E010E0B801A7010E94AC1186
:102390001F910F91FF90EF900895CF92DF92EF92EF
:1023A000FF920F931F93CF93DF93EC016A017B01A0
:1023B0002115310541F4E881F9810190F081E02D8A
:1023C000642F09951FC02A303105D1F477FF17C05B
:1023D000E881F9810190F081E02D6DE209958C0191
:1023E00044275527BA014C195D096E097F09CE01B2
:1023F0002AE00E9448119801280F391F04C02AE0E2
:102400000E9448119C01C901DF91CF911F910F914A
:10241000FF90EF90DF90CF900895EF92FF920F938F
:102420001F937B019A010027F7FC0095102FB8013C
:10243000A7010E94CD111F910F91FF90EF90089579
:10244000CF92DF92EF92FF920F931F936C017B016B
:102450009A010027F7FC0095102FB801A7010E94F0
:10246000CD118C01C6010E940C11080F191FC80163
:102470001F910F91FF90EF90DF90CF9008950E94F1
:102480002C1108957F928F929F92AF92BF92CF921C
:10249000DF92EF92FF920F931F93CF93DF934C0144
:1024A0007A018B01722ECB01BA01A80197010E941B
:1024B000B815882321F0C4016DEF72E021C0C0E09F
:1024C000D0E057016801E894D7F8C601B5012FEFB5
:1024D0003FEF4FE75FE70E94B815882351F4C6012C
:1024E000B5012FEF3FEF4FE75FE70E94B4131816D7
:1024F00014F0C1E0D0E0219739F0C40161E073E04D
:102500000E942C11EC0193C0C801B7012FEF3FEFDF
:102510004FE75FE40E940315181654F0C801B70195
:102520002FEF3FEF4FE75FEC0E94B413882324F4B2
:10253000C40165E073E0E4CFC801B70120E030E0FA
:1025400040E050E00E94B41387FD03C0C0E0D0E03B
:102550000EC0D401ED91FC910190F081E02DC401F9
:102560006DE20995EC0117FB109517F9109520E025
:1025700030E040E05FE3DD240BC0CA01B90120E098
:1025800030E040E251E40E94B8139B01AC01D394C7
:10259000D71498F3C801B7010E9450135B016C0176
:1025A0000E9425147B018C01C401B801A7012AE017
:1025B00030E00E94AC11C80FD91F772039F0C40158
:1025C00069E073E00E942C11C80FD91FC801B70140
:1025D0000E9451149B01AC01C601B5010E944F132A
:1025E00024C020E030E040E251E40E9407157B0166
:1025F0008C010E9420145B016C01CC24B7FCC094B8
:10260000DC2CC401B601A5012AE030E00E94CD1106
:10261000C80FD91FC601B5010E9453149B01AC011C
:10262000C801B7010E944F137A947720D1F6CE01EA
:10263000DF91CF911F910F91FF90EF90DF90CF909E
:10264000BF90AF909F908F907F9008950E9442120C
:102650000895EF92FF920F931F937C010E94421204
:102660008C01C7010E940C11080F191FC8011F918E
:102670000F91FF90EF900895EF92FF920F931F93A9
:102680007C010E942C118C01C7010E940C11080FC3
:10269000191FC8011F910F91FF90EF900895505896
:1026A000BB27AA270ED075C166D130F06BD120F0C0
:1026B00031F49F3F11F41EF45BC10EF4E095E7FB8B
:1026C00051C1E92F77D180F3BA17620773078407E6
:1026D000950718F071F49EF58FC10EF4E0950B2E5E
:1026E000BA2FA02D0B01B90190010C01CA01A00164
:1026F0001124FF27591B99F0593F50F4503E68F1BF
:102700001A16F040A22F232F342F4427585FF3CFFF
:10271000469537952795A795F0405395C9F77EF4D0
:102720001F16BA0B620B730B840BBAF09150A1F019
:10273000FF0FBB1F661F771F881FC2F70EC0BA0F9F
:10274000621F731F841F48F4879577956795B79527
:10275000F7959E3F08F0B3CF9395880F08F099271F
:10276000EE0F979587950895D9D008F481E00895E4
:102770000CD00FC107D140F0FED030F021F45F3F04
:1027800019F0F0C0511139C1F3C014D198F3992355
:10279000C9F35523B1F3951B550BBB27AA27621725
:1027A0007307840738F09F5F5F4F220F331F441F6A
:1027B000AA1FA9F333D00E2E3AF0E0E830D09150A2
:1027C0005040E695001CCAF729D0FE2F27D0660F8F
:1027D000771F881FBB1F261737074807AB07B0E8CE
:1027E00009F0BB0B802DBF01FF2793585F4F2AF0E4
:1027F0009E3F510568F0B6C000C15F3FECF3983EC4
:10280000DCF3869577956795B795F7959F5FC9F740
:10281000880F911D9695879597F90895E1E0660FC9
:10282000771F881FBB1F621773078407BA0720F042
:10283000621B730B840BBA0BEE1F88F7E0950895AB
:1028400004D06894B111D9C00895BCD088F09F57C6
:1028500090F0B92F9927B751A0F0D1F0660F771FEC
:10286000881F991F1AF0BA95C9F712C0B13081F0CC
:10287000C3D0B1E00895C0C0672F782F8827B85F14
:1028800039F0B93FCCF3869577956795B395D9F72D
:102890003EF490958095709561957F4F8F4F9F4F37
:1028A0000895E89409C097FB3EF490958095709543
:1028B00061957F4F8F4F9F4F9923A9F0F92F96E98C
:1028C000BB279395F695879577956795B795F11101
:1028D000F8CFFAF4BB0F11F460FF1BC06F5F7F4F9E
:1028E0008F4F9F4F16C0882311F096E911C07723B0
:1028F00021F09EE8872F762F05C0662371F096E8B9
:10290000862F70E060E02AF09A95660F771F881F87
:10291000DAF7880F9695879597F90895990F00082B
:10292000550FAA0BE0E8FEEF16161706E807F907A1
:10293000C0F012161306E407F50798F0621B730B3C
:10294000840B950B39F40A2661F0232B242B252BBD
:1029500021F408950A2609F4A140A6958FEF811D60
:10296000811D089597F99F6780E870E060E0089501
:102970009FEF80EC089500240A9416161706180697
:102980000906089500240A94121613061406050673
:102990000895092E0394000C11F4882352F0BB0F04
:1029A00040F4BF2B11F460FF04C06F5F7F4F8F4F67
:1029B0009F4F089557FD9058440F551F59F05F3FA2
:1029C00071F04795880F97FB991F61F09F3F79F051
:1029D00087950895121613061406551FF2CF4695D3
:1029E000F1DF08C0161617061806991FF1CF869555
:1029F0007105610508940895E894BB276627772739
:102A0000CB0197F908958ADF08F48FEF08950BD072
:102A1000C0CFB1DF28F0B6DF18F0952309F0A2CFC0
:102A2000A7CF1124EACFC6DFA0F3959FD1F3950F6E
:102A300050E0551F629FF001729FBB27F00DB11D42
:102A4000639FAA27F00DB11DAA1F649F6627B00DD2
:102A5000A11D661F829F2227B00DA11D621F739FBB
:102A6000B00DA11D621F839FA00D611D221F749FC9
:102A70003327A00D611D231F849F600D211D822F10
:102A8000762F6A2F11249F5750408AF0E1F0882357
:102A90004AF0EE0FFF1FBB1F661F771F881F915064
:102AA0005040A9F79E3F510570F05CCFA6CF5F3F25
:102AB000ECF3983EDCF3869577956795B795F79597
:102AC000E7959F5FC1F7FE2B880F911D969587951F
:102AD00097F9089511F40EF44BCF4EC073DFD0F385
:102AE0009923D9F3CEF39F57550B87FF55D05695B1
:102AF0009795B0E020F4660F771F881FBB1F1F93C8
:102B00000F9300249001A0018001F001A0E80E0FB6
:102B10001F1F0A1E511D601B710B8009B50B48F465
:102B2000600F711F801DB51F0E1B1F0B0A0A510974
:102B300007C02E0F3F1F4A1F0E0F1F1F0A1E511DD9
:102B4000660F771F881FBB1FA695F795E795F8F6C8
:102B50000617170708065B07211D311D411D0F9140
:102B60001F91B901842F9158880F969587950895E4
:102B7000D5DE880B990B08959F3F49F0915028F4BA
:102B8000869577956795B7959F5F80389F4F880F9B
:102B90009695879597F9089591505040660F771F45
:102BA000881FD2F70895629FD001739FF001829F22
:102BB000E00DF11D649FE00DF11D929FF00D839FCC
:102BC000F00D749FF00D659FF00D9927729FB00D69
:102BD000E11DF91F639FB00DE11DF91FBD01CF017C
:102BE00011240895A1E21A2EAA1BBB1BFD010DC0E2
:102BF000AA1FBB1FEE1FFF1FA217B307E407F507AD
:102C000020F0A21BB30BE40BF50B661F771F881F88
:102C1000991F1A9469F760957095809590959B011E
:102C2000AC01BD01CF01089597FB092E05260ED0FA
:102C300057FD04D0D7DF0AD0001C38F450954095DA
:102C4000309521953F4F4F4F5F4F0895F6F7909580
:102C50008095709561957F4F8F4F9F4F0895EE0F30
:0E2C6000FF1F0590F491E02D0994F894FFCF2A
:102C6E002000656D6F6E5478205633204375727256
:102C7E00656E74204F6E6C79204578616D706C6551
:102C8E00004F70656E456E657267794D6F6E697433
:102C9E006F722E6F726700435420312D33204361C3
:102CAE006C6962726174696F6E3A2000435420340D
:102CBE002043616C6962726174696F6E3A200041E3
:102CCE00432D4143206164617074657220646574A4
:102CDE006563746564202D205265616C20506F779A
:102CEE006572206D6561737572656D656E747320A6
:102CFE00656E61626C656400617373756D696E6794
:102D0E0020706F776572696E672066726F6D2041F5
:102D1E00432D4143206164617074657220286A7589
:102D2E006D70657220636C6F736564290056636104
:102D3E006C3A200050686173652053686966743A76
:102D4E00200041432D4143206164617074657220FF
:102D5E004E4F54206465746563746564202D204164
:102D6E0070706172656E7420506F776572206D653C
:102D7E0061737572656D656E747320656E61626CDC
:102D8E00656400417373756D696E672056524D53BD
:102D9E0020746F20626520005600417373756D6953
:102DAE006E6720706F776572696E672066726F6DE1
:102DBE0020626174746572696573202F2035562008
:102DCE00555342202D20706F77657220736176699E
:102DDE006E67206D6F646520656E61626C65640060
:102DEE004E4F204354277320646574656374656485
:102DFE000043542031206465746563746564004338
:102E0E0054203220646574656374656400435420F5
:102E1E003320646574656374656400435420342004
:102E2E0064657465637465640052464D31324220A8
:102E3E00496E697469617465643A20004E6F646509
:102E4E003A200020467265713A20003433334D68C3
:102E5E007A00204E6574776F726B3A20006E616E49
:102E6E0000696E66006F7666002E00040100000099
:0E2E7E00003B10E210D10F0210E20F2B1000EB
:00000001FF
