:100000000C94E3000C94FA150C9427160C940B0135
:100010000C940B010C940B010C94B2060C940B0184
:100020000C940B010C940B010C940B010C940B0120
:100030000C940B010C940B010C940B010C940B0110
:100040000C94C8130C940B010C94D1180C941F1928
:100050000C940B010C940B010C940B010C940B01F0
:100060000C940B010C940B01005EBCE2613FDD833C
:10007000C29C7E20A3FD1F419DC3217FFCA2401E88
:100080005F01E3BD3E6082DC237D9FC1421CFEA078
:10009000E1BF5D0380DE3C62BEE0025CDF81633D68
:1000A0007C22C09E1D43A1FF4618FAA427799BC558
:1000B00084DA3866E5BB5907DB856739BAE4065848
:1000C0001947A5FB7826C49A653BD987045AB8E638
:1000D000A7F91B45C6987A24F8A6441A99C7257B28
:1000E0003A6486D85B05E7B98CD2306EEDB3510F18
:1000F0004E10F2AC2F7193CD114FADF3702ECC9208
:10010000D38D6F31B2EC0E50AFF1134DCE90722CF7
:100110006D33D18F0C52B0EE326C8ED0530DEFB1E7
:10012000F0AE4C1291CF2D73CA947628ABF51749D7
:100130000856B4EA6937D58B5709EBB536688AD4C7
:1001400095CB2977F4AA4816E9B7550B88D6346AB7
:100150002B7597C94A14F6A8742AC896154BA9F7A7
:10016000B6E80A54D7896B35000000002400270048
:100170002A0000000000250028002B0000000000DD
:1001800023002600290004040404040404040202D9
:100190000202020203030303030301020408102006
:1001A0004080010204081020010204081020000011
:1001B0000007000201000003040600000000000028
:1001C00000001601F31A11241FBECFEFD8E0DEBFE6
:1001D000CDBF14E0A0E0B1E0E2E6FCE302C0059090
:1001E0000D92AA32B107D9F717E0AAE2B4E001C034
:1001F0001D92A530B107E1F711E0C6ECD1E004C0D3
:100200002297FE010E942B1EC23CD107C9F70E9413
:10021000C1180C942F1E0C940000FB01DC0102C0DD
:1002200001900D9241505040D8F708950F931F93BD
:1002300002EA15E0C80165E00E94201080EB95E01D
:10024000B8010E9456101F910F910895CF92DF922E
:10025000EF92FF920F931F93CF93DF936B01EE24E6
:10026000FF248701C0E0D0E013C080E00E94A21507
:100270009C0120503240442737FD4095542FCA013D
:10028000B9010E94CD1DE60EF71E081F191F219609
:10029000CC15DD0554F3C801B7010E944B1C7B014E
:1002A0008C01B601882777FD8095982F0E944D1C00
:1002B0009B01AC01C801B7010E94B21B0E94681DDE
:1002C000DF91CF911F910F91FF90EF90DF90CF9032
:1002D000089528EE33E0AC01429FC001439F900D8A
:1002E000529F900D11240E940A0708958FEF0E94DB
:1002F000670980E063EC75E04CE00E94920982E0BF
:100300000E944A0980E00E9467090895EF92FF92D7
:100310000F931F938091D405882331F068EC70E02F
:1003200080E090E00E941E148091D0058823D9F1CE
:100330008091D405882389F08AE294E064E170E03A
:1003400040ED57E00E94760B60912A0470912B04D7
:1003500080912C0490912D040CC08AE294E068EC0A
:1003600075E00E94A30A20E030E046E653E40E94D4
:10037000011D0E941A1C7093C4056093C3058091EF
:10038000D505813081F46091C3057091C40583EE79
:1003900096E04AE050E00E947F1783EE96E060E02E
:1003A00071E00E94B1178091D1058823D9F1809125
:1003B000D405882389F088E894E064E170E040ED9A
:1003C00057E00E94760B60918804709189048091B7
:1003D0008A0490918B040CC088E894E068EC75E086
:1003E0000E94A30A20E030E046E653E40E94011D8B
:1003F0000E941A1C7093C6056093C5058091D505AF
:10040000813081F46091C5057091C60583EE96E058
:100410004AE050E00E947F1783EE96E060E071E0D2
:100420000E94B1178091D2058823D9F18091D4051B
:10043000882389F086EE94E064E170E040ED57E0B7
:100440000E94760B6091E6047091E7048091E804C5
:100450009091E9040CC086EE94E068EC75E00E948F
:10046000A30A20E030E046E653E40E94011D0E940A
:100470001A1C7093C8056093C7058091D50581301B
:1004800081F46091C7057091C80583EE96E04AE05B
:1004900050E00E947F1783EE96E060E071E00E94DA
:1004A000B1178091D3058823D9F18091D405882391
:1004B00089F084E495E064E170E040ED57E00E944B
:1004C000760B6091440570914505809146059091A9
:1004D00047050CC084E495E068EC75E00E94A30A2F
:1004E00020E030E046E653E40E94011D0E941A1C01
:1004F0007093CA056093C9058091D505813081F458
:100500006091C9057091CA0583EE96E04AE050E01B
:100510000E947F1783EE96E060E071E00E94B117C1
:100520008091D405882331F1E0903604F0903704AF
:100530000091380410913904C801B70120E030E07F
:1005400048EC52E40E94011D0E941A1C7093CC05D5
:100550006093CB058091D505813061F48091D705FA
:10056000882341F083EE96E0B801A70122E030E055
:100570000E9498188091D505813071F48091D7053B
:10058000882351F083EE96E00E947E1664E170E0CD
:1005900080E090E00E941E148091CF05882351F4E2
:1005A0000E941014695873418040904018F081E017
:1005B0008093CF058091D605813009F07FC083E11B
:1005C00061E00E94FB1482E390E00E940A0700E0D1
:1005D00010E00FC0B80183E0660F771F8A95E1F73E
:1005E00066527A4F80EB95E04BE00E940B130F5F51
:1005F0001F4F8091D8059091D9050817190754F31A
:1006000080EB95E00E94701287E791E00E940A0754
:1006100080EB95E06AED75E00E94A1127B018C01F0
:1006200083E160E00E94FB14C801B70120E030E0E4
:100630004AEF52E40E94AE1B8823C4F4C801B701FC
:1006400020E030E040E252EC0E94FD1C181674F4E9
:10065000C801B70120E030E040E251E40E94011DF2
:100660000E941A1C7093CE056093CD058091D5052C
:10067000813021F583EE96E062E071E00E94B117CF
:100680006091CD057091CE05882777FD8095982FD4
:100690000E944D1C2DEC3CEC4CEC5DE30E94011DD6
:1006A000AB01BC0183EE96E022E030E00E949B1893
:1006B00064E170E080E090E00E941E148091CF051C
:1006C0008823F9F00E9476018091D4058823A9F04F
:1006D00060E177E280E090E00E941E1486E061E035
:1006E0000E94FB1468EC70E080E090E00E941E1411
:1006F00086E060E00E94FB1404C08AE090E00E9463
:1007000069011F910F91FF90EF900895CF92DF92B2
:10071000EF92FF920F931F9386E061E00E94BC145A
:1007200083E161E00E94BC1486E061E00E94FB145A
:1007300083EE96E040E855E260E070E00E945A19CE
:1007400083EE96E060E171E00E94AE1883EE96E0E1
:1007500061E371E00E94AE1883EE96E067E471E019
:100760000E94AE186AE070E080E090E00E941E14E3
:100770008AE062E042ED0E94DF0900E010E01093A1
:10078000C4050093C30580E063EC75E04CE00E9473
:10079000920964E670E080E090E00E941E140F5F12
:1007A0001F4F0A30110559F782E00E944A09109242
:1007B000C4051092C30580E00E94670981E00E9491
:1007C000A215181619064CF481E08093D00580918B
:1007D000D7058F5F8093D70502C01092D00582E0C5
:1007E0000E94A215181619064CF481E08093D105D9
:1007F0008091D7058F5F8093D70502C01092D105F5
:1008000083E00E94A215181619064CF481E080932B
:10081000D2058091D7058F5F8093D70502C01092D3
:10082000D20584E00E94A215181619064CF481E046
:100830008093D3058091D7058F5F8093D70502C041
:100840001092D3058091D705882319F481E0809315
:10085000D00580E197E20E940A0786E060E00E94EE
:10086000FB1480E090E064EF76E00E94260122E530
:1008700038EB4EE55FE30E94011D6B017C0120E037
:1008800030E044EB52E40E94FD1C181624F481E091
:100890008093D40502C01092D4058091D40588239A
:1008A000E1F000E010E086E061E00E94FB1468ECFB
:1008B00070E080E090E00E941E1486E060E00E94FC
:1008C000FB146CE271E080E090E00E941E140F5F68
:1008D0001F4F0A30110539F714C068EE73E080E04D
:1008E00090E00E941E1486E061E00E94FB1460ED1F
:1008F00077E080E090E00E941E1486E060E00E94B5
:10090000FB1483E161E00E94FB1462E370E080E08D
:1009100090E00E941E1480EB95E00E945F1380EB34
:1009200095E060E00E94681080EB95E00E94651001
:100930008093D8051092D90510E0612F70E0809166
:10094000D8059091D905681779070CF0F8C193E0A4
:10095000660F771F9A95E1F766527A4F82EA95E023
:100960000E948A0F882309F4EAC11F5FE6CF109224
:10097000D60503C081E08093D60583EE96E00E9401
:10098000F11A882321F081E08093D50502C01092EE
:10099000D5058091D505813009F02FC183EE96E011
:1009A00065E771E00E94B11783EE96E04DEC5CECD8
:1009B00065EB72E422E030E00E949B1883EE96E043
:1009C00068E871E00E94B11783EE96E04DEC5CECB4
:1009D00065EB72E422E030E00E949B1883EE96E023
:1009E0006BE971E00E94B11783EE96E04DEC5CEC90
:1009F00065EB72E422E030E00E949B1883EE96E003
:100A00006EEA71E00E94B11783EE96E04DEC5CEC6B
:100A100064E871E422E030E00E949B1868EE73E025
:100A200080E090E00E941E1483EE96E061EC71E09D
:100A30000E94B11783EE96E0B701A60120E030E0F6
:100A40000E94981883EE96E06AEE71E00E94AE185C
:100A50008091D405882369F183EE96E06CEE71E015
:100A60000E94AE1883EE96E065E272E00E94AE1836
:100A700083EE96E06AE572E00E94B11783EE96E09D
:100A800043E353E76AE873E422E030E00E949B18F6
:100A900083EE96E061E672E00E94B11783EE96E085
:100AA0004AE959E969ED7FE322E030E00E949B18B2
:100AB0001FC083EE96E06FE672E00E94AE1883EEF0
:100AC00096E060EB72E00E94B11783EE96E066EE6E
:100AD0004AE050E00E942D1783EE96E06AEE71E046
:100AE0000E94AE1883EE96E065EC72E00E94AE18AC
:100AF0008091D705882329F483EE96E06BE073E0BC
:100B000026C08091D005882331F083EE96E06AE319
:100B100073E00E94AE188091D105882331F083EEF6
:100B200096E068E473E00E94AE188091D2058823B5
:100B300031F083EE96E066E573E00E94AE18809196
:100B4000D305882331F083EE96E064E673E00E94DB
:100B5000AE188091D6058130A9F483EE96E062E765
:100B600073E00E94B1176091D8057091D90583EEAA
:100B700096E04AE050E00E947F1783EE96E06CE733
:100B800073E004C083EE96E069EA73E00E94AE1859
:100B900083EE96E065ED73E00E94AE1883EE96E07A
:100BA00068EE73E00E94B11783EE96E06AE070E0B1
:100BB0004AE050E00E947F1783EE96E06FEE73E00C
:100BC0000E94B11783EE96E067EF73E00E94B117C1
:100BD00083EE96E06EEF73E00E94B11783EE96E02D
:100BE00062ED70E04AE050E00E94921764EF71E01D
:100BF00080E090E00E941E1404C083EE96E00E9404
:100C0000E1198091D005882351F08AE294E061E0F7
:100C100070E02DEC3CEC45EB52E40E946F0A8091B1
:100C2000D105882351F088E894E062E070E02DEC73
:100C30003CEC45EB52E40E946F0A8091D205882378
:100C400051F086EE94E063E070E02DEC3CEC45EB77
:100C500052E40E946F0A8091D305882351F084E406
:100C600095E064E070E02DEC3CEC44E851E40E9437
:100C70006F0A8091D405882309F46DC08091D00556
:100C80008823A1F08AE294E060E070E023E333E798
:100C90004AE853E40F2EFAE9EF2EF9E9FF2EF9EDB9
:100CA0000F2FFFE31F2FF02D0E945B0A8091D105CB
:100CB0008823A1F088E894E060E070E023E333E764
:100CC0004AE853E40F2EFAE9EF2EF9E9FF2EF9ED89
:100CD0000F2FFFE31F2FF02D0E945B0A8091D2059A
:100CE0008823A1F086EE94E060E070E023E333E730
:100CF0004AE853E40F2EFAE9EF2EF9E9FF2EF9ED59
:100D00000F2FFFE31F2FF02D0E945B0A8091D30568
:100D1000882309F184E495E060E070E023E333E7A1
:100D20004AE853E40F2EFAE9EF2EF9E9FF2EF9ED28
:100D30000F2FFFE31F2FF02D0E945B0A0CC083E1F1
:100D400060E00E94FB148091D8059091D905892B11
:100D500009F40DCE0FCE1F910F91FF90EF90DF9011
:100D6000CF9008951F920F920FB60F9211242F93D8
:100D70003F934F935F936F937F938F939F93AF9323
:100D8000BF93EF93FF930E946207FF91EF91BF9192
:100D9000AF919F918F917F916F915F914F913F9113
:100DA0002F910F900FBE0F901F901895982F83FFD3
:100DB00002C088E2982797FF02C090E001C09064CB
:100DC00084B7877F84BFF8948091600088618093A6
:100DD00060009093600078940895EAE7F0E09081D5
:100DE00080818F77808383B7817F846083BFF8940D
:100DF00083B7816083BF85B7806685BF85B78F79EC
:100E0000806485BF7894889583B78E7F83BF9093E5
:100E10007A000895CF92DF92EF92FF921F93CF93C3
:100E2000DF937C01EC0158E0C52ED12C20C01F5F60
:100E3000193029F09695879580329105C0F7109268
:100E4000FA05812F0E94D6060E94ED068FEF0E94C0
:100E5000D606960102C0220F331F1A95E2F7C21B75
:100E6000D30B8091FA05882351F0C21BD30BC031FC
:100E7000D10510F461E004C0CE0110E0DDCF60E0E8
:100E800020915206309153064091540650915506D8
:100E9000EC1AFD0AC701A0E0B0E0820F931FA41F67
:100EA000B51F8093520690935306A0935406B093B7
:100EB0005506862FDF91CF911F91FF90EF90DF9025
:100EC000CF9008958091FA058F5F8093FA05089579
:100ED000782F8CB581608CBD6BB121E030E040E0B3
:100EE00050E00090170404C0220F331F441F551F09
:100EF0000A94D2F7522F822F809586238BB99EBDFC
:100F00000DB407FEFDCF8EB57EBD0DB407FEFDCF3F
:100F10004EB5382F20E08BB1582B5BB98CB58E7F46
:100F20008CBD50E0422B532BCA010895E9980E94D2
:100F30006807E99A089580E090E00E946807809130
:100F40004B06853009F054C080E090EB0E946807A2
:100F5000282F80914D06882371F490914C06992397
:100F600051F080914D06E82FF0E0E350FA4F908366
:100F70008F5F80934D0680914D06E82FF0E0E3509F
:100F8000FA4F20838F5F80934D068091FB059091EF
:100F9000FC058227282F22952827022E26952695A4
:100FA0002025022E269520252770082E892F26958C
:100FB00007942795902D82270694279590258227C0
:100FC0009093FC058093FB058091FF0520914D06D1
:100FD00090E0049630E0821793072CF080914D0644
:100FE000873408F46DC08DE092E80E946807089588
:100FF00080914B0687FF2EC0E091FF0580914B0644
:101000008F5F80934B068150ED5FE80FF0E0E35077
:10101000FA4FE0818091FB059091FC058E27282FE7
:1010200022952827022E269526952025022E2695E4
:1010300020252770082E892F269507942795902D17
:10104000822706942795902582279093FC0580930C
:10105000FB0530C080914B068F5F80934B0681501B
:10106000833019F184302CF4882399F0813009F50C
:1010700016C0893019F08A30E1F402C0EDE21AC0DE
:10108000E0914C069091FF058EEF891B80934B06F3
:1010900011C08091FB059091FC05E82F0BC0809159
:1010A000FB059091FC05E92F05C08DE092E80E94B8
:1010B0006807EAEA8E2F90E0805098440E94680703
:1010C000089580914B06853009F042C08091FF055C
:1010D00020914D0690E0049630E08217930724F0AB
:1010E00080914D068734A0F184E080934B06809177
:1010F000FF05833430F081E090E09093FC0580930D
:10110000FB058091FE0586FF12C080914A06282FBC
:1011100030E0C9018F7190704F9749F08091FE05C2
:1011200090E0822793278F719070892B89F48091AA
:10113000FB059091FC05892B09F044C0E09148061D
:10114000F0914906309709F43DC080E0099546C00A
:1011500080914B06843011F080E008951092FF05D5
:101160008091FF0580934D068FEF9FEF9093FC05D4
:101170008093FB0520914C062223D9F08227282F4B
:1011800022952827022E269526952025022E269583
:1011900020252770082E892F269507942795902DB6
:1011A000822706942795902582279093FC058093AB
:1011B000FB0585E080934B068DED92E80E94680761
:1011C00080E008958FEF9FEFAFEFBFEF809344066D
:1011D00090934506A0934606B093470681E0089594
:1011E00080914B06853099F480914D06882379F4DF
:1011F00080E090E00E94960790FD09C08DE092E8A3
:101200000E94960784E080934B0681E0089580E079
:101210000895982F86FD05C0907E80914A068F71B3
:10122000980F9093FE05E0914806F091490630979B
:1012300011F081E009958FEF9FEF9093FC0580936B
:10124000FB058091FB059091FC0520914C068227BF
:10125000282F22952827022E269526952025022E16
:10126000269520252770082E892F269507942795E7
:10127000902D822706942795902582279093FC0530
:101280008093FB0586E080934B068DE392E80E94F5
:1012900068070895282F16C02223A1F093B72330A2
:1012A00011F484E005C0223011F080E001C08CE030
:1012B000917F892B83BF83B7816083BF889583B774
:1012C0008E7F83BF80914B06843031F708951F9342
:1012D000182F87FF03C08DE092E80EC0992787FD85
:1012E0009095956E0E94960785E092E80E94960779
:1012F000112321F087E092E80E94960784E0809312
:101300004B061F9108951F93182F4093FF0520E06F
:1013100036E0C90150E00E940D01812F0E940909A9
:101320001F9108950F931F93CF93DF93182FEB0115
:10133000042F02C00E9461080E94F0088823D1F3A4
:10134000812FBE01402F0E948309DF91CF911F9111
:101350000F9108952BB181E090E0A0E0B0E0009003
:10136000170404C0880F991FAA1FBB1F0A94D2F745
:10137000282B2BB92AB1822B8AB98AE061E00E941E
:10138000FB148AE061E00E94BC148BE061E00E94E3
:10139000BC148CE060E00E94BC148DE061E00E940F
:1013A000BC1480E58CBD8DB581608DBD83E060E0AF
:1013B0000E94BC1483E061E00E94FB1408951F9317
:1013C000162F80934A0640934C060E94AA0980E09B
:1013D00090E00E94680785E092E80E94680780E03C
:1013E00098EB02C080E090E00E94680783E00E94D2
:1013F0004F15892BB9F3812F90E074E0880F991F66
:101400007A95E1F7876C90680E94680780E496EA15
:101410000E94680786E096EC0E94680782EA90E9DD
:101420000E9468078CEA92EC0E94680710914C06B3
:10143000112341F083E89AEC0E946807812F90E025
:101440009E6C06C08BE89AEC0E9468078DE29EECC9
:101450000E94680783E894EC0E94680780E598E999
:101460000E94680787E79CEC0E94680780E090EE86
:101470000E94680780E098EC0E94680789E490EC7D
:101480000E94680784E080934B0680914A0690E0B2
:101490008F719070892B41F081E06BE977E040E03B
:1014A00050E00E94C41503C081E00E94E7158091BE
:1014B0004A061F910895EF92FF920F931F93FC012C
:1014C000758B648B208F318F428F538FE0A2F1A2F6
:1014D00002A313A31F910F91FF90EF900895FC01B9
:1014E000778B668B248F358F468F578F08958EE4C8
:1014F00080937C0062E070E080E090E00E941E1427
:1015000080917A00806480937A0080917A0086FDD1
:10151000FCCF8091780090E0A0E0B0E0609179008D
:10152000362F20E0442737FD4095542F282B392BA8
:101530004A2B5B2B60E070E381E190E00E940E1E7D
:10154000CA01B90108952F923F924F925F926F9214
:101550007F928F929F92AF92BF92CF92DF92EF9243
:10156000FF920F931F93CF93DF93EC012B010E9407
:10157000770A3B014C01CC24DD249CE4A92EB12C3C
:10158000AC0EBD1E88E4282E312C2C0E3D1E53C0FF
:101590008AA59BA599A788A78E890E94A2159BA7BB
:1015A0008AA7E8ACF9AC0AAD1BADECAAFDAA0EAB5C
:1015B0001FABAA2797FDA095BA2FBC01CD010E94B1
:1015C0004D1C9B01AC01C801B7010E944A1B7B0165
:1015D0008C0168A579A5882777FD8095982F0E94B2
:1015E0004D1C9B01AC01C801B7010E94491B2BEDAA
:1015F00039EF4EE75FE30E94011D9B01AC0168AF2C
:1016000079AF8AAF9BAF0E94011D9B01AC01F10134
:101610006083718382839383F5016081718182810C
:1016200093810E944A1BF5016083718382839383B7
:101630000894C11CD11CC414D5040CF4A9CFB20168
:10164000882777FD8095982F0E944D1C9B01AC0147
:10165000F50160817181828193810E94B21B0E9499
:10166000681D7B018C01B301882777FD8095982F39
:101670000E944D1C20E030E04AE754E40E94B21B77
:1016800020E030EC4FE754E40E94B21B2C8D3D8DDE
:101690004E8D5F8D0E94011DA80197010E94011DC2
:1016A000688B798B8A8B9B8B80E090E0A0E0B0E028
:1016B000F50180839183A283B383288939894A897C
:1016C0005B89B901CA01DF91CF911F910F91FF9002
:1016D000EF90DF90CF90BF90AF909F908F907F90D2
:1016E0006F905F904F903F902F9008952F923F9270
:1016F0004F925F926F927F928F929F92AF92BF9222
:10170000CF92DF92EF92FF920F931F93DF93CF93CD
:10171000CDB7DEB7AC970FB6F894DEBF0FBECDBF26
:101720009C878B877E876D878A010E94770A6F83EB
:10173000788789879A870E9410146B017C01AB849B
:10174000BC8428E530E0A20EB31EC801AA2797FD8D
:10175000A095BA2F8FA398A7A9A7BAA7AB85BC85D8
:1017600054968C910E94A2158C01F501918380837F
:101770000E9410146C197D098E099F092FA138A5AC
:1017800049A55AA5261737074807590728F0095BC6
:1017900011400D36110510F70E94101469837A83E9
:1017A0008B839C831E821D82222433244B855C857F
:1017B000405C5F4F588F4F8B8B859C858C5B9F4F18
:1017C0009A8F898FAB85BC85A85BBF4FBC8FAB8FD1
:1017D000EB85FC85E45BFF4FFE8FED8F2B853C8511
:1017E000205B3F4F38A32F8F4B855C854C5A5F4F52
:1017F0005AA349A38B859C85865A9F4F9CA38BA394
:10180000AB85BC85A55ABF4FBCA7ABA7EB85FC85B4
:10181000E85AFF4FFEA3EDA31FC0E1E0ABA5BCA5B6
:10182000EC9303C0ABA5BCA51C92B1E02B16310410
:1018300031F4EBA5FCA58081ABA1BCA18C93EBA1FD
:10184000FCA19081ABA5BCA58C91981729F0ED81E6
:10185000FE813196FE83ED832D813E814D855E852F
:10186000241735070CF01CC10E94101429813A81FD
:101870004B815C81621B730B840B950B2FA138A5E8
:1018800049A55AA5621773078407950708F008C190
:101890000894211C311CAB85BC8596968D919C913A
:1018A000979795969C938E9394979A968D919C91E9
:1018B0009B9799969C938E939897FD0180A991A9E7
:1018C000A2A9B3A984A795A7A6A7B7A780AD91ADF4
:1018D000A2ADB3AD84AB95ABA6ABB7AB84890E9488
:1018E000A215AB85BC8597969C938E93969756963A
:1018F0008C910E94A2157C01EB85FC8593A782A7A1
:1019000046A057A084A195A1B201681B790B882736
:1019100077FD8095982F0E944D1CAB85BC859C96C9
:101920002D913D914D915C919F970E944A1B2BED0B
:1019300039EF4EE75FE30E94011D3B014C01EB854F
:10194000FC8560AB71AB82AB93AB80A591A5E81A27
:10195000F90A0027F7FC0095102FC801B7010E9473
:101960004D1CAB85BC85D4962D913D914D915C91DC
:10197000D7970E944A1B2BED39EF4EE75FE30E9499
:10198000011D5B016C01EB85FC8560AF71AF82AF1F
:1019900093AFC401B301A40193010E94011D9B01F7
:1019A000AC01AF89B88D6D937D938D939C93139704
:1019B000E98DFA8D60817181828193810E944A1B39
:1019C000A98DBA8D6D937D938D939C931397C601CA
:1019D000B501A60195010E94011D9B01AC01EB8D93
:1019E000FC8D6083718382839383AD8DBE8D6D91F9
:1019F0007D918D919C910E944A1BED8DFE8D60839F
:101A0000718382839383AB85BC859C96ED90FD901A
:101A10000D911C919F97C401B301A80197010E94E9
:101A2000491BEB85FC8520A131A142A153A10E9455
:101A3000011D9B01AC01C801B7010E944A1BAB8587
:101A4000BC85DC966D937D938D939C93DF97A60167
:101A500095010E94011D9B01AC01EF8DF8A16083EF
:101A6000718382839383A9A1BAA16D917D918D9198
:101A70009C910E944A1BE9A1FAA160837183828331
:101A80009383ABA5BCA58C91EBA1FCA18083ADA1F8
:101A9000BEA18D919C91841595050CF4BECEC2CE4D
:101AA000EF81F885BF01882777FD8095982F0E94E8
:101AB0004D1C20E030E04AE754E40E94B21B20E0D5
:101AC00030EC4FE754E40E94B21B7B018C01AB85E4
:101AD000BC8558962D913D914D915C915B970E94EC
:101AE000011D6F87788B898B9A8BB101882777FDD1
:101AF0008095982F0E944D1C5B016C01EB85FC8545
:101B0000EC5BFF4FFC8BEB8B608171818281938159
:101B1000A60195010E94B21B0E94681D9B01AC01A9
:101B20006F85788989899A890E94011D1B012C0182
:101B3000AB85BC851C966D937D938D939C931F976D
:101B4000C801B7015C962D913D914D915C915F97D5
:101B50000E94011D7B018C01EB85FC85E45BFF4F3E
:101B6000FE8BED8B6081718182819381A60195014D
:101B70000E94B21B0E94681D9B01AC01C801B70105
:101B80000E94011D3B014C01AB85BC8550966D93B5
:101B90007D938D939C9353976F85788989899A89D2
:101BA000A80197010E94011DEB85FC85EC5AFF4FAF
:101BB000FCA7EBA720813181428153810E94011D46
:101BC000A60195010E94B21B7B018C01AB85BC85EF
:101BD0006D937D938D939C931397C201B101A401E2
:101BE00093010E94011D9B01AC01EB85FC85648380
:101BF000758386839783C801B7010E94B21BAB85AA
:101C0000BC8518966D937D938D939C931B9780E074
:101C100090E0A0E0B0E0EB89FC8980839183A2830F
:101C2000B383ED89FE8980839183A283B383EBA57F
:101C3000FCA580839183A283B383AC960FB6F894FE
:101C4000DEBF0FBECDBFCF91DF911F910F91FF90EF
:101C5000EF90DF90CF90BF90AF909F908F907F904C
:101C60006F905F904F903F902F900895FC011386E6
:101C70001586148687E090E012863197009711F060
:101C80000197FACF0895DC0180E00BC0E82FF0E067
:101C90008D9190E0E827F927E859FF4FE4916150D2
:101CA0008E2F662399F70895DF92EF92FF920F939C
:101CB0001F93FC01E08001811281F894F801818179
:101CC0008E2981838281DE2CD0948D21828383E0D2
:101CD00090E00E947714F80181818D2181838AE050
:101CE00090E00E947714F8010081789485E390E0F9
:101CF0000E94771480E010E0FF240E211F21012BA9
:101D000009F081E01F910F91FF90EF90DF9008950F
:101D1000EF92FF920F931F93CF93DF937C0101E02B
:101D200010E0C0E0D0E0C7010E94540E8111102BDA
:101D3000000F2196C830D105B1F7812FDF91CF91E7
:101D40001F910F91FF90EF9008951F93CF93DF9312
:101D5000FC011081C181D281912F909560FF12C04A
:101D6000F8948A8189238A838981812B89838AE0F7
:101D700090E00E9477148A81812B8A83789487E38C
:101D800090E011C0F8948A8189238A838981812B0C
:101D9000898381E490E00E9477148A81812B8A8371
:101DA000789485E090E00E947714DF91CF911F91A5
:101DB0000895CF92DF92EF92FF920F931F93CF93EC
:101DC000DF938C01E42EFF24F394C0E0D0E0C62E14
:101DD000DD2460E08F2D90E08C219D21892B09F07E
:101DE00061E0C8010E94A50EFF0C2196C830D10504
:101DF00081F7EE20A9F4F894D8011196ED91FC91A9
:101E0000129791818C918095982391831196ED91F1
:101E1000FC91129792818C9180959823928378946B
:101E2000DF91CF911F910F91FF90EF90DF90CF90B6
:101E300008956CEC40E00E94D90E0895EF92FF9255
:101E40000F931F93CF93DF938C017B0165E540E0F7
:101E50000E94D90EC0E0D0E0F701EC0FFD1FC801D1
:101E6000608140E00E94D90E2196C830D105A1F7CB
:101E7000DF91CF911F910F91FF90EF900895DF9226
:101E8000EF92FF920F931F93CF93DF93FC0100819A
:101E9000C181D281F8948981D02ED0948D218983FB
:101EA00078941DE7E02EFF24115059F182E090E074
:101EB0000E947714888190E08E219F21892BA1F3C5
:101EC000F8948A818D218A838981802B89837894F3
:101ED00080EE91E00E947714F89489818D218983A6
:101EE00086E490E00E947714888110E090E0E82278
:101EF000F922EF2809F411E078948AE991E00E9430
:101F00007714812FDF91CF911F910F91FF90EF9068
:101F1000DF900895AF92BF92DF92EF92FF920F93FE
:101F20001F93CF93DF93EC015B018D85882309F02C
:101F300061C0CE010E943F0F882329F41B861D86B5
:101F40001C8690E06BC0CE0160EF40E00E94D90E8D
:101F500001E0DD24EE24FF24F394CE010E94540E10
:101F6000182FCE010E94540E113019F48130E1F483
:101F700039C0181709F58B85081770F460E0FE0169
:101F8000EE0DF11D838190E02F2D30E0822393230D
:101F9000181619064CF003C060E0081729F0093044
:101FA00008F04CC00C874AC0FE01EE0DF11D838184
:101FB0008F29838361E009C0612FFE01EE0DF11DC1
:101FC0009F2D9095838189238383CE010E94A50E46
:101FD0000F5FFF0C19F4E394FF24F39487E08E1550
:101FE00008F0BBCF013430F0DB86DD2011F581E055
:101FF0008D871FC01B861D861C8690E0DE0120E0B9
:1020000030E0F501E20FF31F13968C911397808354
:102010002F5F3F4F11962830310599F7892FDF91B7
:10202000CF911F910F91FF90EF90DF90BF90AF90F5
:1020300008958B818823F1F291E0E0CFD02EBDCFBF
:10204000FF920F931F938C01F62E862F60E00E9463
:10205000BC148F2D90E0FC01E656FE4FE491D801B0
:10206000EC938A579E4FFC016491E62FF0E0EE0F4F
:10207000FF1FE458FE4F8591949112969C938E9386
:1020800011971B961C921B971D961C921D971C96D0
:102090001C92F80187E090E012863197009711F0CA
:1020A0000197FACF1F910F91FF900895FC0182E2F2
:1020B00091E1928B818B768365831482108289E013
:1020C000818381E0828383830895FC018481089564
:1020D000FC01628308956F927F928F929F92AF92DC
:1020E000BF92CF92DF92EF92FF920F931F93CF9305
:1020F000DF93FB01EA01998180E0288130E0282B01
:10210000392BE081E23231F0E83221F0E03109F0A0
:1021100084C04BC04C814F3329F1403420F44F31FF
:1021200009F07BC02FC04F3579F04F3709F075C0EB
:10213000B901882777FD8095982F0E944D1C20E0DB
:1021400030E040E85DE32EC035952795B90188273A
:1021500077FD8095982F0E944D1C20E030E040E0F4
:102160005EE320C03595279535952795B9018827D9
:1021700077FD8095982F0E944D1C20E030E040E8CC
:102180005EE310C093E0359527959A95E1F7B90184
:10219000882777FD8095982F0E944D1C20E030E025
:1021A00040E05FE30E94011D32C0EF803595279526
:1021B000B901882777FD8095982F0E944D1C20E05B
:1021C00030E040E85EE30E94491B3B014C016E2D6C
:1021D00070E02E81621B7109882777FD8095982F0A
:1021E0000E944D1C5B016C01FF2400E010E0C8015F
:1021F000B7010E944B1C9B01AC01C601B5010E94B6
:10220000B21B9B01AC01C401B3010E944A1B9B019C
:10221000AC01832F942F752F00C0262F382F492F04
:10222000572FB901CA01DF91CF911F910F91FF90F4
:10223000EF90DF90CF90BF90AF909F908F907F9066
:102240006F9008950895EF92FF920F931F938C0162
:102250007B01FC01858196810E943F0FF8018581F9
:102260009681B7010E941E0FF8018581968164EB6B
:1022700040E00E94D90EF801858196810E94540E9B
:10228000F82EF801858196810E943F0F80E0FF20A3
:1022900009F481E01F910F91FF90EF900895EF9264
:1022A000FF920F931F93CF93DF93EC018B017A0181
:1022B0008D819E810E943F0F8D819E81B8010E9479
:1022C0001E0F8D819E816EE440E00E94D90E8D81AB
:1022D0009E81F701628140E00E94D90E8D819E812E
:1022E000F701638140E00E94D90EF80180818031BE
:1022F00039F08D819E81F701648140E00E94D90E02
:102300008D819E810E943F0F8D819E8168E448816E
:102310000E94D90E8881882331F06AE070E080E065
:1023200090E00E941E148D819E810E943F0FDF91DC
:10233000CF911F910F91FF90EF900895CF92DF9270
:10234000EF92FF920F931F938C016B017A01FC01B6
:10235000858196810E943F0FF80185819681B601A3
:102360000E941E0FF801858196816EEB40E00E946D
:10237000D90EF801858196810E94880EF70180832D
:10238000F801858196810E94880EF7018183F8010A
:10239000858196810E94880EF7018283F8018581EC
:1023A00096810E94880EF7018383F80185819681CA
:1023B0000E94880EF7018483F801858196810E942E
:1023C000880EF7018583F801858196810E94880E29
:1023D000F7018683F801858196810E94880EF701B6
:1023E0008783F801858196810E94880EF701808796
:1023F000F801858196810E943F0F1F910F91FF90F8
:10240000EF90DF90CF900895DF93CF93CDB7DEB7F5
:1024100029970FB6F894DEBF0FBECDBFAE014F5F58
:102420005F4F0E949E118981811181E029960FB62C
:10243000F894DEBF0FBECDBFCF91DF910895CF924C
:10244000DF92EF92FF920F931F93CF93DF93EC01F4
:102450006B01452BE1F08B818823C9F088818823AB
:10246000B1F40E9410147B018C01CE0160E070E099
:102470000E940412882359F40E9410146E197F09D7
:10248000800B910B6E5E72408040904070F3F601BD
:102490006081693039F06930A0F06A3041F06B300A
:1024A00081F40AC06EE570E080E090E00EC06CEB55
:1024B00070E080E090E009C067E771E080E090E0C4
:1024C00004C06EEE72E080E090E00E941E14DF9186
:1024D000CF911F910F91FF90EF90DF90CF900895D3
:1024E000CF93DF93EC018D819E810E943F0F8D8100
:1024F0009E810E94190F8D819E8164E448810E9413
:10250000D90E8A81882339F0CE012196BE0140E0A0
:1025100050E00E941F12DF91CF9108950F931F93F7
:102520008A010E949E11C80168E00E94430E20E0CB
:10253000F8019085891709F421E0822F1F910F91EE
:102540000895CF92DF92EF92FF920F931F93DF9344
:10255000CF93CDB7DEB729970FB6F894DEBF0FBE85
:10256000CDBF8C017B016E010894C11CD11CA6015A
:102570000E948E12882329F460E070E08EEF92ECC6
:1025800005C0C801B701A6010E946B1029960FB6BD
:10259000F894DEBF0FBECDBFCF91DF911F910F9199
:1025A000FF90EF90DF90CF900895DF93CF93CDB75A
:1025B000DEB729970FB6F894DEBF0FBECDBF9C01E2
:1025C000FB0180818031D9F0C901AE014F5F5F4FBF
:1025D0000E948E128823A9F08D818F3371F0803490
:1025E00018F48F3171F40BC08F3519F08F3749F41F
:1025F00002C08BE007C08CE005C08AE003C089E020
:1026000001C080E029960FB6F894DEBF0FBECDBFA3
:10261000CF91DF910895CF92DF92EF92FF921F93B7
:10262000DF93CF93CDB7DEB729970FB6F894DEBF0F
:102630000FBECDBF6C017B01142FAE014F5F5F4F0A
:102640000E948E128823E1F0F70180818031B9F079
:102650001A3051F01A3050F01B3021F01C3031F498
:102660008FE705C08FE503C08FE301C08FE18D8345
:10267000C601B701AE014F5F5F4F0E944F1181E06D
:1026800029960FB6F894DEBF0FBECDBFCF91DF9174
:102690001F91FF90EF90DF90CF9008950F931F93BD
:1026A0008B01CB0167E00E94430E20E0F801978187
:1026B000891709F421E0822F1F910F910895AF929D
:1026C000BF92CF92DF92EF92FF920F931F93DF930F
:1026D000CF93CDB7DEB761970FB6F894DEBF0FBECC
:1026E000CDBF7C01FC01858196810E94360EF701E9
:1026F00014826E010894C11CD11C79E0A72EB12C64
:10270000AC0EBD1E01E02BC0C701B6010E944E13E6
:10271000882329F1F7018081882341F4C701B6019C
:102720000E942311882311F0F7010083C701B6012D
:10273000A5010E949E11F7011181C701B6010E94F7
:10274000D512811718F4F701818104C0C701B601C1
:102750000E94D512F701818384818F5F8483F70102
:1027600085819681B6010E948A0F882369F6619659
:102770000FB6F894DEBF0FBECDBFCF91DF911F9192
:102780000F91FF90EF90DF90CF90BF90AF900895A2
:102790001F920F920FB60F9211242F933F938F9396
:1027A0009F93AF93BF938091520690915306A0914F
:1027B0005406B0915506309156060196A11DB11DE3
:1027C000232F2D5F2D3720F02D570196A11DB11D10
:1027D000209356068093520690935306A093540676
:1027E000B093550680914E0690914F06A0915006E9
:1027F000B09151060196A11DB11D80934E06909394
:102800004F06A0935006B0935106BF91AF919F9190
:102810008F913F912F910F900FBE0F901F901895A1
:102820008FB7F89420915206309153064091540688
:10283000509155068FBFB901CA0108959B01AC01A3
:102840007FB7F89480914E0690914F06A091500664
:10285000B091510666B5A89B05C06F3F19F001966F
:10286000A11DB11D7FBFBA2FA92F982F8827860FD2
:10287000911DA11DB11D62E0880F991FAA1FBB1FEA
:102880006A95D1F7BC012DC0FFB7F89480914E0630
:1028900090914F06A0915006B0915106E6B5A89BC5
:1028A00005C0EF3F19F00196A11DB11DFFBFBA2F62
:1028B000A92F982F88278E0F911DA11DB11DE2E031
:1028C000880F991FAA1FBB1FEA95D1F7861B970B8C
:1028D000885E9340C8F221503040404050406851DB
:1028E0007C4F211531054105510571F60895019779
:1028F00039F0880F991F880F991F02970197F1F7F8
:102900000895789484B5826084BD84B5816084BD67
:1029100085B5826085BD85B5816085BDEEE6F0E058
:10292000808181608083E1E8F0E0108280818260B4
:102930008083808181608083E0E8F0E08081816035
:102940008083E1EBF0E0808184608083E0EBF0E065
:10295000808181608083EAE7F0E080818460808309
:1029600080818260808380818160808380818068B3
:1029700080831092C1000895CF93DF93482F50E0D9
:10298000CA0186569E4FFC0134914A575E4FFA01A8
:102990008491882369F190E0880F991FFC01E85920
:1029A000FE4FA591B491FC01EE58FE4FC591D49114
:1029B000662351F42FB7F8948C91932F9095892327
:1029C0008C93888189230BC0623061F42FB7F8940F
:1029D0008C91932F909589238C938881832B888366
:1029E0002FBF06C09FB7F8948C91832B8C939FBF09
:1029F000DF91CF910895482F50E0CA0182559E4F34
:102A0000FC012491CA0186569E4FFC0194914A57BD
:102A10005E4FFA013491332309F440C0222351F16F
:102A2000233071F0243028F42130A1F0223011F548
:102A300014C02630B1F02730C1F02430D9F404C0DE
:102A4000809180008F7703C0809180008F7D80937C
:102A5000800010C084B58F7702C084B58F7D84BD9F
:102A600009C08091B0008F7703C08091B0008F7D46
:102A70008093B000E32FF0E0EE0FFF1FEE58FE4F03
:102A8000A591B4912FB7F894662321F48C91909579
:102A9000892302C08C91892B8C932FBF0895682FB6
:102AA00070E0CB0182559E4FFC012491CB018656EC
:102AB0009E4FFC0144916A577E4FFB0194919923EC
:102AC00019F420E030E03CC0222351F1233071F0B2
:102AD000243028F42130A1F0223011F514C0263022
:102AE000B1F02730C1F02430D9F404C080918000C7
:102AF0008F7703C0809180008F7D8093800010C00D
:102B000084B58F7702C084B58F7D84BD09C0809164
:102B1000B0008F7703C08091B0008F7D8093B000AC
:102B2000892F90E0880F991F84589E4FFC01A59132
:102B3000B4918C9120E030E0842311F021E030E06A
:102B4000C9010895982F8E3008F09E50977080919B
:102B500018048295880F880F807C892B80937C00D5
:102B600080917A00806480937A0080917A0086FD5B
:102B7000FCCF2091780040917900942F80E030E0E4
:102B8000282B392BC9010895823000F5E82FF0E099
:102B9000EE0FFF1FE95AF94F71836083882319F004
:102BA0008130A1F408C0809169008C7F842B8093D0
:102BB0006900E89A089580916900440F551F440FF9
:102BC000551F837F842B80936900E99A0895823092
:102BD00080F4882319F0813021F402C0E89801C004
:102BE000E998E82FF0E0EE0FFF1FE95AF94F118244
:102BF000108208951F920F920FB60F9211242F93F7
:102C00003F934F935F936F937F938F939F93AF9374
:102C1000BF93EF93FF938091570690915806892BAD
:102C200029F0E0915706F09158060995FF91EF9130
:102C3000BF91AF919F918F917F916F915F914F91D4
:102C40003F912F910F900FBE0F901F9018951F92DC
:102C50000F920FB60F9211242F933F934F935F93D0
:102C60006F937F938F939F93AF93BF93EF93FF9354
:102C70008091590690915A06892B29F0E0915906C6
:102C8000F0915A060995FF91EF91BF91AF919F91F5
:102C90008F917F916F915F914F913F912F910F9005
:102CA0000FBE0F901F901895CF92DF92EF92FF9278
:102CB0000F931F93CF93DF937C016B018A01C0E0D8
:102CC000D0E00FC0D6016D916D01D701ED91FC915F
:102CD0000190F081E02DC7010995C80FD91F01505F
:102CE00010400115110571F7CE01DF91CF911F91B1
:102CF0000F91FF90EF90DF90CF900895EF92FF92A9
:102D00000F931F938C01DC01ED91FC910190F081F8
:102D1000E02D6DE009957C01D801ED91FC910190C9
:102D2000F081E02DC8016AE009959C012E0D3F1D40
:102D3000C9011F910F91FF90EF900895CF93DF93FA
:102D4000EC016115710519F420E030E00FC0DB01E2
:102D50000D900020E9F71197A61BB70BE881F981C8
:102D60000280F381E02DAD0109959C01C901DF913D
:102D7000CF9108954F925F927F928F929F92AF92E0
:102D8000BF92CF92DF92EF92FF920F931F93DF9348
:102D9000CF93CDB7DEB7A1970FB6F894DEBF0FBEC5
:102DA000CDBF2C01742ECB01223008F42AE019A2E9
:102DB00031E2C32ED12CCC0EDD1E822E9924AA2402
:102DC000BB24672D752FA50194010E94EC1D79018C
:102DD0008A01C801B701A50194010E94CD1D472DAC
:102DE000461B0894C108D1084A3014F4405D01C064
:102DF000495CF6014083E114F1040105110521F05D
:102E00007E2C5F2DC801DDCFC201B6010E949E1647
:102E1000A1960FB6F894DEBF0FBECDBFCF91DF9164
:102E20001F910F91FF90EF90DF90CF90BF90AF90E8
:102E30009F908F907F905F904F900895DC012115B7
:102E4000310541F4ED91FC910190F081E02D642F6A
:102E5000099508950E94BA160895EF92FF920F9374
:102E60001F939A01E62EFF2400E010E0B801A701AD
:102E70000E941E171F910F91FF90EF900895CF921F
:102E8000DF92EF92FF920F931F93CF93DF93EC01AA
:102E90006A017B012115310541F4E881F981019036
:102EA000F081E02D642F09951FC02A303105D1F43F
:102EB00077FF17C0E881F9810190F081E02D6DE284
:102EC00009958C0144275527BA014C195D096E09F3
:102ED0007F09CE012AE00E94BA169801280F391FF7
:102EE00004C02AE00E94BA169C01C901DF91CF916B
:102EF0001F910F91FF90EF90DF90CF900895EF9288
:102F0000FF920F931F937B019A010027F7FC009516
:102F1000102FB801A7010E943F171F910F91FF903A
:102F2000EF900895CF92DF92EF92FF920F931F934D
:102F30006C017B019A010027F7FC0095102FB80166
:102F4000A7010E943F178C01C6010E947E16080F40
:102F5000191FC8011F910F91FF90EF90DF90CF9044
:102F600008950E949E1608957F928F929F92AF922D
:102F7000BF92CF92DF92EF92FF920F931F93CF9366
:102F8000DF934C017A018B01722ECB01BA01A801AB
:102F900097010E94B21D882321F0C40169E074E00A
:102FA00021C0C0E0D0E057016801E894D7F8C6011D
:102FB000B5012FEF3FEF4FE75FE70E94B21D882377
:102FC00051F4C601B5012FEF3FEF4FE75FE70E94D5
:102FD000AE1B181614F0C1E0D0E0219739F0C401FF
:102FE0006DE074E00E949E16EC0193C0C801B70129
:102FF0002FEF3FEF4FE75FE40E94FD1C181654F0DF
:10300000C801B7012FEF3FEF4FE75FEC0E94AE1B07
:10301000882324F4C40161E174E0E4CFC801B7015E
:1030200020E030E040E050E00E94AE1B87FD03C08E
:10303000C0E0D0E00EC0D401ED91FC910190F08190
:10304000E02DC4016DE20995EC0117FB109517F90D
:10305000109520E030E040E05FE3DD240BC0CA01C2
:10306000B90120E030E040E251E40E94B21B9B0134
:10307000AC01D394D71498F3C801B7010E944A1B3E
:103080005B016C010E941F1C7B018C01C401B80113
:10309000A7012AE030E00E941E17C80FD91F772031
:1030A00039F0C40165E174E00E949E16C80FD91F73
:1030B000C801B7010E944B1C9B01AC01C601B501C0
:1030C0000E94491B24C020E030E040E251E40E940D
:1030D000011D7B018C010E941A1C5B016C01CC2438
:1030E000B7FCC094DC2CC401B601A5012AE030E095
:1030F0000E943F17C80FD91FC601B5010E944D1C81
:103100009B01AC01C801B7010E94491B7A9477204A
:10311000D1F6CE01DF91CF911F910F91FF90EF90EB
:10312000DF90CF90BF90AF909F908F907F90089549
:103130000E94B4170895EF92FF920F931F937C01A2
:103140000E94B4178C01C7010E947E16080F191F38
:10315000C8011F910F91FF90EF900895EF92FF9299
:103160000F931F937C010E949E168C01C7010E9441
:103170007E16080F191FC8011F910F91FF90EF9045
:103180000895CF93DF930E9481140E948603CCE0C0
:10319000D9E10E9486012097E1F30E940C19F9CF32
:1031A00008951F920F920FB60F9211242F933F9301
:1031B0004F938F939F93EF93FF938091C00082FD75
:1031C0001DC04091C60020919B0630919C062F5F48
:1031D0003F4F2F73307080919D0690919E06281767
:1031E000390771F0E0919B06F0919C06E55AF94F82
:1031F000408330939C0620939B0602C08091C600BA
:10320000FF91EF919F918F914F913F912F910F904F
:103210000FBE0F901F901895E091EF06F091F00609
:10322000E05CFF4F8191919120813181821B930B52
:103230008F739070892B11F00E94D01808951F92FF
:103240000F920FB60F9211242F933F938F939F935A
:10325000EF93FF932091DF063091E0068091E10625
:103260009091E2062817390731F48091C1008F7DD3
:103270008093C10014C0E091E106F091E206E156AE
:10328000F94F20818091E1069091E20601968F73BB
:1032900090709093E2068093E1062093C600FF9120
:1032A000EF919F918F913F912F910F900FBE0F90B3
:1032B0001F901895AF92BF92DF92EF92FF920F93FB
:1032C0001F93CF93DF93EC017A018B01DD24403013
:1032D00081EE580780E0680780E0780711F0DD2470
:1032E000D39491E0A92EB12CEC89FD89DD2069F001
:1032F000C50108A002C0880F991F0A94E2F78083D5
:1033000060E079E08DE390E005C0108260E874E849
:103310008EE190E0A80197010E94EC1D2150304001
:1033200040405040569547953795279580E120308D
:10333000380720F0DD2011F0DD24D6CFE889F989A7
:103340003083EA89FB89208319A2EE89FF894081B5
:1033500021E030E0C9010C8C02C0880F991F0A944B
:10336000E2F7482B4083EE89FF894081C9010D8C2B
:1033700002C0880F991F0A94E2F7482B4083EE8918
:10338000FF894081C9010E8C02C0880F991F0A94E1
:10339000E2F7482B4083EE89FF8980810F8C02C0C1
:1033A000220F331F0A94E2F7209528232083DF9110
:1033B000CF911F910F91FF90EF90DF90BF90AF9052
:1033C0000895CF93DF93DC011E968D919C911F97FA
:1033D000EC01C05CDF4FFC01EE5BFF4F28813981BF
:1033E0008081918128173907C9F75696ED91FC9194
:1033F0005797408121E030E0C9015C960C905C97C2
:1034000002C0880F991F0A94E2F780958423808375
:103410005696ED91FC9157974081C9015D960C90AD
:103420005D9702C0880F991F0A94E2F78095842364
:1034300080835696ED91FC9157974081C9015E9625
:103440000C905E9702C0880F991F0A94E2F780954E
:10345000842380835696ED91FC91579780815F96E7
:103460000C905F9702C0220F331F0A94E2F7209559
:10347000282320831C96ED91FC911D97EE5BFF4F56
:103480008081918192938293DF91CF910895DC01A5
:103490001C96ED91FC911D97E05CFF4F21913191BD
:1034A00080819181281B390B2F733070C9010895D9
:1034B000DC011C96ED91FC911D97E05CFF4F208193
:1034C0003181E054F040DF01AE5BBF4F8D919C91A4
:1034D00011972817390719F42FEF3FEF07C08D9187
:1034E0009C91E80FF91F8081282F30E0C9010895D1
:1034F000DC011C96ED91FC911D97E05CFF4F208153
:103500003181E054F040DF01AE5BBF4F8D919C9163
:1035100011972817390719F42FEF3FEF10C08D913D
:103520009C911197E80FF91F20818D919C91119723
:1035300001968F73907011969C938E9330E0C90121
:103540000895DC0191968C919197882339F05496D7
:10355000ED91FC915597808186FFF9CF91961C9251
:103560000895CF93DF93EC01EE85FF85E05CFF4F7C
:1035700020813181E054F0402F5F3F4F2F73307036
:10358000DF01AE5BBF4F8D919C91119728173907D2
:10359000D1F3E05CFF4F80819181E054F040E80F6F
:1035A000F91F6083EE85FF85E05CFF4F3183208348
:1035B000EE89FF89208181E090E00F8C02C0880FA6
:1035C000991F0A94E2F7282B208381E089A3EC89D4
:1035D000FD8980818064808381E090E0DF91CF91DC
:1035E000089581E008951092E6061092E50688EEAF
:1035F00093E0A0E0B0E08093E7069093E806A09304
:10360000E906B093EA068DE194E09093E406809396
:10361000E3068BE596E09093F0068093EF068FE942
:1036200096E09093F2068093F10685EC90E09093FB
:10363000F4068093F30684EC90E09093F606809372
:10364000F50680EC90E09093F8068093F70681EC05
:1036500090E09093FA068093F90682EC90E09093C4
:10366000FC068093FB0686EC90E09093FE06809328
:10367000FD0684E08093FF0683E08093000787E0E7
:103680008093010785E08093020781E08093030720
:1036900008955058BB27AA270ED075C166D130F0C7
:1036A0006BD120F031F49F3F11F41EF45BC10EF496
:1036B000E095E7FB51C1E92F77D180F3BA17620794
:1036C00073078407950718F071F49EF58FC10EF407
:1036D000E0950B2EBA2FA02D0B01B90190010C0122
:1036E000CA01A0011124FF27591B99F0593F50F43A
:1036F000503E68F11A16F040A22F232F342F442792
:10370000585FF3CF469537952795A795F040539589
:10371000C9F77EF41F16BA0B620B730B840BBAF059
:103720009150A1F0FF0FBB1F661F771F881FC2F7C4
:103730000EC0BA0F621F731F841F48F487957795D8
:103740006795B795F7959E3F08F0B3CF9395880F8F
:1037500008F09927EE0F979587950895D9D008F42A
:1037600081E008950CD00FC107D140F0FED030F0B9
:1037700021F45F3F19F0F0C0511139C1F3C014D1E9
:1037800098F39923C9F35523B1F3951B550BBB2728
:10379000AA2762177307840738F09F5F5F4F220FD5
:1037A000331F441FAA1FA9F333D00E2E3AF0E0E8CE
:1037B00030D091505040E695001CCAF729D0FE2F1A
:1037C00027D0660F771F881FBB1F261737074807AC
:1037D000AB07B0E809F0BB0B802DBF01FF27935862
:1037E0005F4F2AF09E3F510568F0B6C000C15F3FB1
:1037F000ECF3983EDCF3869577956795B795F7954A
:103800009F5FC9F7880F911D9695879597F9089541
:10381000E1E0660F771F881FBB1F621773078407DD
:10382000BA0720F0621B730B840BBA0BEE1F88F7EC
:10383000E095089504D06894B111D9C00895BCD022
:1038400088F09F5790F0B92F9927B751A0F0D1F089
:10385000660F771F881F991F1AF0BA95C9F712C013
:10386000B13081F0C3D0B1E00895C0C0672F782F88
:103870008827B85F39F0B93FCCF38695779567957F
:10388000B395D9F73EF490958095709561957F4FEB
:103890008F4F9F4F0895E89409C097FB3EF4909591
:1038A0008095709561957F4F8F4F9F4F9923A9F019
:1038B000F92F96E9BB279395F695879577956795A8
:1038C000B795F111F8CFFAF4BB0F11F460FF1BC0EC
:1038D0006F5F7F4F8F4F9F4F16C0882311F096E97F
:1038E00011C0772321F09EE8872F762F05C066232D
:1038F00071F096E8862F70E060E02AF09A95660FE6
:10390000771F881FDAF7880F9695879597F908959E
:10391000990F0008550FAA0BE0E8FEEF16161706E0
:10392000E807F907C0F012161306E407F50798F048
:10393000621B730B840B950B39F40A2661F0232B61
:10394000242B252B21F408950A2609F4A140A695DD
:103950008FEF811D811D089597F99F6780E870E0C2
:1039600060E008959FEF80EC089500240A941616F5
:10397000170618060906089500240A94121613065D
:10398000140605060895092E0394000C11F48823EB
:1039900052F0BB0F40F4BF2B11F460FF04C06F5F07
:1039A0007F4F8F4F9F4F089557FD9058440F551FDD
:1039B00059F05F3F71F04795880F97FB991F61F0B1
:1039C0009F3F79F087950895121613061406551F28
:1039D000F2CF4695F1DF08C0161617061806991F94
:1039E000F1CF86957105610508940895E894BB2789
:1039F00066277727CB0197F908958ADF08F48FEFC0
:103A000008950BD0C0CFB1DF28F0B6DF18F09523B2
:103A100009F0A2CFA7CF1124EACFC6DFA0F3959F6C
:103A2000D1F3950F50E0551F629FF001729FBB27A5
:103A3000F00DB11D639FAA27F00DB11DAA1F649F51
:103A40006627B00DA11D661F829F2227B00DA11D04
:103A5000621F739FB00DA11D621F839FA00D611D8A
:103A6000221F749F3327A00D611D231F849F600DAB
:103A7000211D822F762F6A2F11249F5750408AF0E4
:103A8000E1F088234AF0EE0FFF1FBB1F661F771F70
:103A9000881F91505040A9F79E3F510570F05CCFB0
:103AA000A6CF5F3FECF3983EDCF38695779567955C
:103AB000B795F795E7959F5FC1F7FE2B880F911D8E
:103AC0009695879597F9089511F40EF44BCF4EC053
:103AD00073DFD0F39923D9F3CEF39F57550B87FFAC
:103AE00055D056959795B0E020F4660F771F881F44
:103AF000BB1F1F930F9300249001A0018001F001D0
:103B0000A0E80E0F1F1F0A1E511D601B710B8009BC
:103B1000B50B48F4600F711F801DB51F0E1B1F0BE6
:103B20000A0A510907C02E0F3F1F4A1F0E0F1F1F01
:103B30000A1E511D660F771F881FBB1FA695F7959C
:103B4000E795F8F60617170708065B07211D311DD4
:103B5000411D0F911F91B901842F9158880F96959F
:103B600087950895D5DE880B990B08959F3F49F0FE
:103B7000915028F4869577956795B7959F5F803823
:103B80009F4F880F9695879597F9089591505040CB
:103B9000660F771F881FD2F70895629FD001739F29
:103BA000F001829FE00DF11D649FE00DF11D929FD9
:103BB000F00D839FF00D749FF00D659FF00D992718
:103BC000729FB00DE11DF91F639FB00DE11DF91F3C
:103BD000BD01CF0111240895A1E21A2EAA1BBB1B1F
:103BE000FD010DC0AA1FBB1FEE1FFF1FA217B307C9
:103BF000E407F50720F0A21BB30BE40BF50B661FDF
:103C0000771F881F991F1A9469F7609570958095A2
:103C100090959B01AC01BD01CF01089597FB092E42
:103C200005260ED057FD04D0D7DF0AD0001C38F48B
:103C300050954095309521953F4F4F4F5F4F0895D8
:103C4000F6F790958095709561957F4F8F4F9F4FB8
:103C50000895EE0FFF1F0590F491E02D0994F8945C
:023C6000FFCF94
:103C6200200074656D70657261747572653A20002A
:103C7200656D6F6E547820563320446973637265A4
:103C820074652053616D706C696E672056312E31F8
:103C9200004F70656E456E657267794D6F6E69741F
:103CA2006F722E6F726700506572666F726D696E09
:103CB2006720706F7765722D6F6E207465737473F1
:103CC2002E2E2E2E2E706C656173652077616974BD
:103CD2002031307300435420312043616C69627299
:103CE2006174696F6E3A2000435420322043616C44
:103CF2006962726174696F6E3A2000435420332006
:103D020043616C6962726174696F6E3A2000435458
:103D120020342043616C6962726174696F6E3A206B
:103D220000524D5320566F6C74616765206F6E2090
:103D320041432D4143204164617074657220696E74
:103D42007075742069733A207E00560041432D41FC
:103D52004320616461707465722064657465637484
:103D62006564202D205265616C20506F776572204A
:103D72006D6561737572656D656E747320656E61D4
:103D8200626C656400617373756D696E6720706F34
:103D9200776572696E672066726F6D2041432D41AF
:103DA20043206164617074657220286A756D706564
:103DB2007220636C6F73656429005663616C3A20EC
:103DC2000050686173652053686966743A20004147
:103DD200432D41432061646170746572204E4F54DB
:103DE200206465746563746564202D204170706180
:103DF20072656E7420506F776572206D65617375A0
:103E020072656D656E747320656E61626C656400C7
:103E1200417373756D696E672056524D5320746FEE
:103E22002062652000417373756D696E6720706F43
:103E3200776572696E672066726F6D206261747455
:103E42006572696573202F20355620555342202D07
:103E520020706F77657220736176696E67206D6F6F
:103E6200646520656E61626C6564004E4F20435448
:103E720027732064657465637465642C2073616DB7
:103E8200706C696E672066726F6D204354312062D8
:103E9200792064656661756C740043542031206436
:103EA20065746563746564004354203220646574EC
:103EB20065637465640043542033206465746563EC
:103EC20074656400435420342064657465637465CA
:103ED2006400446574656374656420002044533152
:103EE200384232302E2E7573696E6720746869739A
:103EF20020666F722074656D70657261747572658B
:103F02002072656164696E6700556E61626C65203E
:103F1200746F20646574656374204453313842328F
:103F2200302074656D706572617475726520736599
:103F32006E736F720052464D31324220496E69747F
:103F420069617465643A20004E6F64653A2000200E
:103F5200467265713A20003836384D687A00204E34
:103F62006574776F726B3A20006E616E00696E66DF
:103F7200006F7666002E00040100000000B11A54A2
:0A3F820016471A781A581AA11A00FF
:00000001FF
