:100000000C94E3000C9441160C946E160C940B01A6
:100010000C940B010C940B010C9413010C940B0128
:100020000C940B010C940B010C940B010C940B0120
:100030000C940B010C940B010C940B010C940B0110
:100040000C944C140C940B010C949B160C94CD1630
:100050000C940B010C940B010C940B010C940B01F0
:100060000C940B010C940B01005EBCE2613FDD833C
:10007000C29C7E20A3FD1F419DC3217FFCA2401E88
:100080005F01E3BD3E6082DC237D9FC1421CFEA078
:10009000E1BF5D0380DE3C62BEE0025CDF81633D68
:1000A0007C22C09E1D43A1FF4618FAA427799BC558
:1000B00084DA3866E5BB5907DB856739BAE4065848
:1000C0001947A5FB7826C49A653BD987045AB8E638
:1000D000A7F91B45C6987A24F8A6441A99C7257B28
:1000E0003A6486D85B05E7B98CD2306EEDB3510F18
:1000F0004E10F2AC2F7193CD114FADF3702ECC9208
:10010000D38D6F31B2EC0E50AFF1134DCE90722CF7
:100110006D33D18F0C52B0EE326C8ED0530DEFB1E7
:10012000F0AE4C1291CF2D73CA947628ABF51749D7
:100130000856B4EA6937D58B5709EBB536688AD4C7
:1001400095CB2977F4AA4816E9B7550B88D6346AB7
:100150002B7597C94A14F6A8742AC896154BA9F7A7
:10016000B6E80A54D7896B35000000080002010088
:100170000003040700000000000000000102040862
:100180001020408001020408102001020408102001
:10019000040404040404040402020202020203032D
:1001A00003030303000000002300260029000000D1
:1001B0000000250028002B0000000000240027007C
:1001C0002A008607FD1611241FBECFEFD8E0DEBF40
:1001D000CDBF14E0A0E0B1E0ECE7FBE302C0059086
:1001E0000D92A435B107D9F727E0A4E5B4E001C02A
:1001F0001D92A933B207E1F711E0C6ECD1E004C0CB
:100200002297FE010E94AF1DC23CD107C9F70E9490
:1002100084190C94BC1D0C940000809154048F5FD1
:100220008093540408951F920F920FB60F921124D9
:100230002F933F934F935F936F937F938F939F93EE
:10024000AF93BF93EF93FF930E941908FF91EF9133
:10025000BF91AF919F918F917F916F915F914F91DE
:100260003F912F910F900FBE0F901F9018958FEF19
:100270000E94D00A48E16DE574E080E00E94180A0F
:1002800082E00E94370A80915804811102C00C94C8
:10029000D00A0895CF92DF92EF92FF920F931F93AF
:1002A000CF93DF93EB0100E010E0C12CD12C76015D
:1002B0000C171D077CF480E00E94F315DC01B2509E
:1002C0009D010E948F1DC60ED71EE81EF91E0F5FEE
:1002D0001F4FEECFC701B6010E94DA1B6B017C01F4
:1002E000BE01882777FD8095982F0E94DC1B9B011B
:1002F000AC01C701B6010E94411BDF91CF911F9154
:100300000F91FF90EF90DF90CF900C94F71CCF925D
:10031000DF92EF92FF920F931F93CF93DF9361E0F1
:1003200086E00E945B1561E083E10E945B1560E05E
:1003300083E00E945B15109274041092730461E0D4
:1003400086E00E94941526E040E855E260E070E007
:100350008CE996E00E94761A6DE071E08CE996E0F7
:100360000E949B1766E371E08CE996E00E949B1760
:100370006CE471E08CE996E00E949B1762E088E0F3
:100380000E945B1562E089E00E945B1588E00E9494
:10039000CA15892B29F480910601815080930601AA
:1003A00089E00E94CA15892B19F481E08093C70463
:1003B0008091C704882361F080E090E0A2E0B3E47C
:1003C0008093070190930801A0930901B0930A015B
:1003D0006AE070E080E090E00E94C51420E436E01E
:1003E00042ED62E0809106010E94530ACAE0D0E02B
:1003F000D0935E04C0935D0448E16DE574E080E055
:100400000E94180A64E670E080E090E00E94C51443
:10041000219770F782E00E94370A10925E041092D2
:100420005D0481E00E94F315181619064CF481E072
:1004300080935C04809155048F5F8093550402C0C3
:1004400010925C0482E00E94F315181619064CF411
:1004500081E080935B04809155048F5F8093550405
:1004600002C010925B0483E00E94F315181619066F
:100470004CF481E080935A04809155048F5F8093FF
:10048000550402C010925A0484E00E94F315181615
:1004900019064CF481E080935904809155048F5FD4
:1004A0008093550402C01092590480915504811123
:1004B00003C081E080935C0480E197E20E94C4075E
:1004C00060E086E00E94941564EF76E080E090E0C2
:1004D0000E944A0122E538EB4EE55FE30E94901C42
:1004E0006B017C0120E030E044EB52E40E948C1C64
:1004F000181624F481E08093580402C01092580426
:10050000809158048823C9F0CAE0D0E061E086E019
:100510000E94941568EC70E080E090E00E94C514A1
:1005200060E086E00E9494156CE271E080E090E06B
:100530000E94C514219751F714C068EE73E080E063
:1005400090E00E94C51461E086E00E94941560ED81
:1005500077E080E090E00E94C51460E086E00E94B1
:10056000941561E083E10E94941564E670E080E0F8
:1005700090E00E94C51486EA94E00E94831260E035
:1005800086EA94E00E94EB1286EA94E00E94FC1056
:10059000873008F086E080937504C0E08091750490
:1005A000C81770F488E0C89FB00111246A587B4FC7
:1005B00089EB94E00E944810882311F0CF5FEECFC2
:1005C00064EF71E080E090E00E94C51460E083E198
:1005D0000E94941580917504811103C010925604F5
:1005E00003C081E08093560481E0809357046EE558
:1005F00071E08CE996E00E947E1722E030E04DEC3D
:100600005CEC65EB72E48CE996E00E94711961E79D
:1006100071E08CE996E00E947E1722E030E04DEC1C
:100620005CEC65EB72E48CE996E00E94711964E879
:1006300071E08CE996E00E947E1722E030E04DECFC
:100640005CEC65EB72E48CE996E00E94711967E955
:1006500071E08CE996E00E947E1722E030E049E2EA
:100660005CE565E871E48CE996E00E94711968EE3A
:1006700073E080E090E00E94C5146AEA71E08CE9C2
:1006800096E00E947E1720E030E0B701A6018CE9D9
:1006900096E00E946F1963ED71E08CE996E00E948C
:1006A0009B17809158048823D9F165ED71E08CE99E
:1006B00096E00E949B176EE072E08CE996E00E9443
:1006C0009B178091C704882331F063E472E08CE9C2
:1006D00096E00E949B1766E572E08CE996E00E9426
:1006E0007E174091070150910801609109017091B6
:1006F0000A0122E030E08CE996E00E9471196DE574
:1007000072E08CE996E00E947E1722E030E04AE930
:1007100059E969ED7FE38CE996E00E9471191FC0E9
:100720006BE672E08CE996E00E949B176CEA72E03F
:100730008CE996E00E947E174AE050E066EE8CE974
:1007400096E00E947D1863ED71E08CE996E00E94CE
:100750009B1761EC72E08CE996E00E949B178091F8
:100760005504811103C067E073E024C080915C04EC
:10077000882331F066E373E08CE996E00E949B17D2
:1007800080915B04882331F064E473E08CE996E0A7
:100790000E949B1780915A04882331F062E573E030
:1007A0008CE996E00E949B1780915904882331F0D0
:1007B00060E673E08CE996E00E949B1780915604F6
:1007C000882389F06EE673E08CE996E00E947E173C
:1007D0004AE050E0609175048CE996E00E947D1833
:1007E00068E773E002C065EA73E08CE996E00E9476
:1007F0009B1761ED73E08CE996E00E949B1764EE15
:1008000073E08CE996E00E947E174AE050E0609128
:1008100006018CE996E00E947D186BEE73E08CE98E
:1008200096E00E947E1763EF73E08CE996E00E94E9
:100830007E176AEF73E08CE996E00E947E174AE02B
:1008400050E062ED70E08CE996E00E94581865E097
:1008500074E08CE996E00E947E178091560488230C
:1008600071F065E274E08CE996E00E947E174AE040
:1008700050E0609175048CE996E00E947D1862EE6C
:1008800073E08CE996E00E949B1764EF71E080E0D2
:1008900090E00E94C51480915C04882351F02DECF7
:1008A0003CEC45EB52E461E070E08CED95E00E9499
:1008B000080B80915B04882351F02DEC3CEC45EB58
:1008C00052E462E070E080E895E00E94080B8091BD
:1008D0005A04882351F02DEC3CEC45EB52E463E0E4
:1008E00070E084E295E00E94080B8091590488230F
:1008F00051F029E23CE545E851E464E070E088EC21
:1009000094E00E94080B80915804882309F460C089
:1009100080915C048823A1F02091070130910801A7
:100920004091090150910A011AE9E12E19E9F12ECD
:1009300009ED1FE360E070E08CED95E00E94EC0AA9
:1009400080915B048823A1F0209107013091080178
:100950004091090150910A011AE9E12E19E9F12E9D
:1009600009ED1FE360E070E080E895E00E94EC0A8A
:1009700080915A048823A1F0209107013091080149
:100980004091090150910A011AE9E12E19E9F12E6D
:1009900009ED1FE360E070E084E295E00E94EC0A5C
:1009A000809159048823A1F020910701309108011A
:1009B0004091090150910A011AE9E12E19E9F12E3D
:1009C00009ED1FE360E070E088EC94E00E94EC0A1F
:1009D0008091560481110FC042E050E06DE071E05B
:1009E00081E0DF91CF911F910F91FF90EF90DF9009
:1009F000CF900C941116DF91CF911F910F91FF9022
:100A0000EF90DF90CF900895CF92DF92EF92FF9218
:100A100098E0899FB00111246A587B4F86EA94E0E0
:100A20000E941C146B017C0120E030E04AEF52E48C
:100A30000E943D1B87FF16C020E030E04CE552ECE1
:100A4000C701B6010E948C1C181664F420E030E047
:100A500040E251E4C701B6010E94901C0E94A91B0C
:100A6000CB0100C0FF90EF90DF90CF9008950F93DF
:100A70001F93CF93DF9380915804882351F068EC43
:100A800070E080E090E00E94C5141092660410921D
:100A9000650480915C04882309F441C08091580466
:100AA000882359F140ED57E064E170E08CED95E06A
:100AB0000E943F0B6091DC057091DD058091DE05A1
:100AC0009091DF050E94A91B70935E0460935D0402
:100AD00020E030E048EC52E46091E8057091E905CF
:100AE0008091EA059091EB050E94901C0E94A91B41
:100AF000709366046093650412C068EC75E08CED39
:100B000095E00E94100E20E030E046E653E40E949B
:100B1000901C0E94A91B70935E0460935D048091F9
:100B20005B04882309F441C080915804882359F15B
:100B300040ED57E064E170E080E895E00E943F0BF3
:100B40006091800570918105809182059091830567
:100B50000E94A91B7093600460935F0420E030E062
:100B600048EC52E460918C0570918D0580918E0562
:100B700090918F050E94901C0E94A91B709366049F
:100B80006093650412C068EC75E080E895E00E940F
:100B9000100E20E030E046E653E40E94901C0E94D4
:100BA000A91B7093600460935F0480915A048823AA
:100BB00009F441C080915804882359F140ED57E071
:100BC00064E170E084E295E00E943F0B60912405AF
:100BD0007091250580912605909127050E94A91BFB
:100BE000709362046093610420E030E048EC52E4CA
:100BF00060913005709131058091320590913305F7
:100C00000E94901C0E94A91B709366046093650467
:100C100012C068EC75E084E295E00E94100E20E0BE
:100C200030E046E653E40E94901C0E94A91B70939A
:100C300062046093610480915904882309F441C0DF
:100C400080915804882359F140ED57E064E170E049
:100C500088EC94E00E943F0B6091C8047091C90435
:100C60008091CA049091CB040E94A91B70936404E4
:100C70006093630420E030E048EC52E46091D404D7
:100C80007091D5048091D6049091D7040E94901C55
:100C90000E94A91B709366046093650412C068ECFF
:100CA00075E088EC94E00E94100E20E030E046E60B
:100CB00053E40E94901C0E94A91B709364046093EB
:100CC000630480915804811116C087E00E94F315D7
:100CD000BC01882777FD8095982F0E94DC1B2BE2B2
:100CE0003BE64EE25FE30E94901C0E94A91B7093BA
:100CF000660460936504809156048823D1F161E015
:100D000083E10E94941582E390E00E94C40706E705
:100D100014E0C0E0D0E08091750490E0C817D907D6
:100D200054F44BE0B80186EA94E00E940D1221963B
:100D3000085F1F4FF0CF86EA94E00E94581387E7C0
:100D400091E00E94C407C0E080917504C81768F460
:100D50008C2F0E940405EC2FF0E0EE0FFF1FE959E5
:100D6000FB4F91838083CF5FEFCF60E083E10E94F0
:100D7000941580915404882371F02091540480913B
:100D8000730490917404820F911D90937404809366
:100D900073041092540480915704882309F48CC082
:100DA00060915D0470915E044AE050E08CE996E049
:100DB0000E94501862EE73E08CE996E00E947E1764
:100DC00060915F04709160044AE050E08CE996E025
:100DD0000E94501862EE73E08CE996E00E947E1744
:100DE00060916104709162044AE050E08CE996E001
:100DF0000E94501862EE73E08CE996E00E947E1724
:100E000060916304709164044AE050E08CE996E0DC
:100E10000E94501862EE73E08CE996E00E947E1703
:100E200060916504709166044AE050E08CE996E0B8
:100E30000E94501862EE73E08CE996E00E947E17E3
:100E400060917304709174044AE050E08CE996E07C
:100E50000E94501862EE73E08CE996E00E947E17C3
:100E60008091560481110DC062EE73E08CE996E02A
:100E70000E949B1762E370E080E090E00E94C5143E
:100E80001BC0C0E080917504C81770F7EC2FF0E02C
:100E9000EE0FFF1FE959FB4F608171814AE050E07E
:100EA0008CE996E00E94501862EE73E08CE996E0BF
:100EB0000E947E17CF5FE6CF80915804882371F09F
:100EC00061E086E00E94941568EC70E080E090E0BC
:100ED0000E94C51460E086E00E9494150E943701CC
:100EE00080915804882351F060E177E280E090E03F
:100EF000DF91CF911F910F910C94C51480E197E27F
:100F0000DF91CF911F910F910C94C40765E089EB9D
:100F100094E00E94251069EB74E086EA94E00C945A
:100F2000ED1083FF02C098E2892787FD02C080642C
:100F300001C080E094B7977F94BFF89490916000CF
:100F40009861909360008093600078940895EAE738
:100F5000F0E0908180818F77808383B7817F846088
:100F600083BFF89483B7816083BF85B7806685BFF0
:100F700085B78F79806485BF7894889583B78E7F95
:100F800083BF90937A000895DF92EF92FF920F93C0
:100F90001F93CF93DF938C01EC0128E0E22EF12C1C
:100FA000C031D10538F19E01D12C2032310538F005
:100FB000D39489E0D81619F036952795F6CF10927C
:100FC00038068D2D0E9491070E94A7078FEF0E947F
:100FD0009107C70102C0880F991FDA94E2F7C81B76
:100FE000D90B20913806222319F0C81BD90BD8CF72
:100FF00080E001C081E0409190065091910660919F
:101000009206709193060C1B1D0B400F511F611D22
:10101000711D4093900650939106609392067093D1
:101020009306DF91CF911F910F91FF90EF90DF908A
:101030000895809138068F5F80933806089586273B
:10104000682F62956827062E669566956025062EA0
:10105000669560256770082E892F669507946795B9
:10106000902D8627069467959025862708952CB5A0
:1010700021602CBD25B141E050E060E070E00090BF
:101080000B0104C0440F551F661F771F0A94D2F747
:101090004095422345B99EBD0DB407FEFDCF2EB548
:1010A00030E0322F22278EBD0DB407FEFDCF9EB556
:1010B00085B141E050E060E070E000900B0104C0B9
:1010C000440F551F661F771F0A94D2F7842B85B9EA
:1010D0008CB58E7F8CBDA901492BCA010895CF9391
:1010E00080E090E00E94370880918906853091F574
:1010F00080E090EB0E943708682F80918A0681116A
:1011000004C090918D06911174C0E0918A0681E02F
:101110008E0F80938A06F0E0E05CF94F6083809147
:101120008706909188060E941F08909388068093F6
:1011300087068091420620918A0690E0049630E06E
:10114000821793070CF460C080918A06873408F0F8
:101150005BC05FC08091890687FF1AC0E09142069C
:101160008091890691E0980F90938906ED5FE80FD2
:10117000F0E0E05CF94FC08180918706909188068D
:101180006C2F0E941F0890938806809387062DC0BD
:101190008091890691E0980F90938906833001F140
:1011A00054F48823B9F08130F9F480918706909146
:1011B0008806C92F1AC0893059F08A30A9F4C09125
:1011C0008D06909142068EEF891B809389060DC093
:1011D000CDE20BC08091870690918806C82F05C08C
:1011E0008DE092E80E943708CAEA8C2F90E098546C
:1011F0000DC0E0918A0681E08E0F80938A06F0E0B0
:10120000E05CF94F908381CF8DE092E8CF910C9410
:101210003708CF91089525B181E090E0A0E0B0E0DB
:10122000AC01BD0100900B0104C0440F551F661FA7
:10123000771F0A94D2F7242B25B924B100900B0113
:1012400004C0880F991FAA1FBB1F0A94D2F7282B2E
:1012500024B961E08AE00E94941561E08AE00E946E
:101260005B1561E08BE00E945B1560E08CE00E9402
:101270005B1561E08DE00E945B1580E58CBD8DB54E
:1012800081608DBD60E082E00E945B1561E082E0DC
:101290000C949415E8980E943708E89A0895809174
:1012A0008906853051F58091420620918A0690E0AA
:1012B000049630E08217930724F080918A068734E1
:1012C000E0F084E08093890680914206833430F018
:1012D00081E090E090938806809387068091410694
:1012E00086FF3AC090918E06892F8F718F31A1F1C0
:1012F0008091410689278F7179F180918906843028
:1013000049F580913B06882351F080934206109264
:1013100041061092400683E080938A0604C0109232
:10132000420610928A068FEF9FEF90938806809373
:10133000870660918D06662331F00E941F08909306
:1013400088068093870685E0809389068DED92E874
:101350000E94370880E00895809187069091880662
:10136000892B49F4E0913906F0913A06309719F04B
:1013700080E009950BC08FEF9FEFDC0180933C0666
:1013800090933D06A0933E06B0933F0681E00895FA
:1013900080918906853099F480918A0681110FC069
:1013A00080E090E00E944A0990FD09C08DE092E83B
:1013B0000E944A0984E08093890681E0089580E0D4
:1013C000089586FD05C0807E90918E069F71890FDD
:1013D00080934106E0913906F0913A06309711F07A
:1013E00081E009958FEF9FEF9093880680938706A1
:1013F000809187069091880660918D060E941F0853
:10140000909388068093870686E0809389068DE313
:1014100092E80C943708CF93C82F4093420650E0CF
:1014200083E496E00E94B31D8C2FCF910C94E109C8
:10143000EF92FF921F93CF93DF931F92CDB7DEB74A
:10144000182F7B0149830E94C8094981811105C079
:1014500049830E944F094981F5CFB701812F0F9031
:10146000DF91CF911F91FF90EF900C940B0A909118
:1014700089069430B9F08823D1F393B7917F8330F4
:1014800021F0823021F42CE003C024E001C020E0F0
:10149000922B93BF93B7916093BF889593B79E7F2C
:1014A00093BFE5CF0895CF93C62F80938E064093C8
:1014B0008D0630938C0620938B060E940B0980E0EA
:1014C00090E00E94370885E092E80E94370880E0AB
:1014D00098EB0E94370882E00E94CA15892B19F404
:1014E00080E090E0F6CF20E1C29FC0011124876C1C
:1014F00090680E94370880918B0690918C069056D8
:101500000E94370886E096EC0E94370882EA94E948
:101510000E9437088CEA92EC0E943708C0918D0631
:10152000CC2341F083E89AEC0E9437088C2F90E09E
:101530009E6C06C08BE89AEC0E9437088DE29EEC08
:101540000E94370883E894EC0E94370880E598E908
:101550000E94370887E79CEC0E94370880E090EEF5
:101560000E94370880E098EC0E94370889E490ECEC
:101570000E94370884E08093890680918E068F71DF
:1015800041F040E050E06FE678E080E00E94111604
:1015900003C080E00E94311680918E06CF9108959D
:1015A000CF93C82F87FF03C08DE092E80EC0992724
:1015B00087FD9095956E0E944A0985E092E80E9409
:1015C0004A09CC2321F087E092E80E944A0984E08E
:1015D00080938906CF910895EF92FF920F931F9306
:1015E000FC01758B648B208F318F428F538FE0A26B
:1015F000F1A202A313A340E050E060E074E444AB26
:1016000055AB66AB77AB1F910F91FF90EF900895AC
:10161000FC01778B668B248F358F468F578F40E088
:1016200050E060E074E440AF51AF62AF73AF089533
:101630008EE480937C0062E070E080E090E00E94A5
:10164000C51480917A00806480937A0080917A003A
:1016500086FDFCCF809178002091790030E0322F18
:101660002227442737FD4095542F282B60E070E354
:1016700081E190E00E94701DCA01B90108952F9286
:101680003F924F925F926F927F928F929F92AF9212
:10169000BF92CF92DF92EF92FF920F931F93CF935F
:1016A000DF93CDB7DEB7A8970FB6F894DEBF0FBEB5
:1016B000CDBF98A78FA37E8F6D8F8A010E94180BD4
:1016C0006D8B7E8B8F8B988F0E9496144B015C01E3
:1016D0006FA078A428E5620E711CC801A0E0B0E0FC
:1016E000898B9A8BAB8BBC8BAFA1B8A554968C9190
:1016F0000E94F315F30191838083BC01882777FD55
:101700008095982F0E94DC1B6B017C012DEC3CEC3A
:101710004CE054E40E943D1B87FF0BC011E026E61D
:1017200036E646EE53E4C701B6010E948C1C18163B
:101730000CF010E00E949614681979098A099B0937
:1017400029893A894B895C89261737074807590741
:1017500008F040C00E949614698F7A8F8B8F9C8FFF
:1017600000E010E01A8219824FA158A5405C5F4F3B
:1017700058A34F8F8FA198A58C5B9F4F9C878B8719
:10178000AFA1B8A5A85BBF4FBAA3A9A3EFA1F8A5C5
:10179000E45BFF4FFE87ED872FA138A5205B3F4F0D
:1017A0003CA32BA34FA158A54C5A5F4F588B4F8792
:1017B0008FA198A5865A9F4F9E838D832FA038A412
:1017C0009BE5290E311CAFA1B8A5A85ABF4FBEA3F7
:1017D000ADA344C1112309F487CFBCCF0E94961456
:1017E000298D3A8D4B8D5C8D621B730B840B950B91
:1017F00029893A894B895C896217730784079507A1
:1018000008F034C10F5F1F4FEFA1F8A584A595A57F
:10181000A6A5B7A580A791A7A2A7B3A784890E9470
:10182000F315AFA1B8A595969C938E939497569671
:101830008C910E94F3153C01EFA1F8A597A386A314
:1018400024A135A13A872987B901882777FD80959A
:10185000982F0E94DC1B6B017C01AFA1B8A5D49628
:101860008D909D90AD90BC90D797A50194010E945A
:10187000D81A20E030E040E85AE30E94901C9B0117
:10188000AC01C501B4010E94D91A9B01AC01EFA1C2
:10189000F8A564AB75AB86AB97ABC701B6010E94E8
:1018A000D81A4B015C01AFA1B8A59C966D937D93AE
:1018B0008D939C939F97B301882777FD8095982FF0
:1018C0000E94DC1B6B017C01EFA1F8A540AC51AC80
:1018D00062AC73ACA30192010E94D81A20E030E000
:1018E00040E85AE30E94901C9B01AC01C301B20185
:1018F0000E94D91A9B01AC01AFA1B8A5D8966D93EF
:101900007D938D939C93DB97C701B6010E94D81AF3
:101910006B017C01EFA1F8A560AB71AB82AB93AB1F
:10192000A5019401C501B4010E94901C9B01AC016A
:10193000AF8DB8A16D937D938D939C931397EB8599
:10194000FC8560817181828193810E94D91AAB8567
:10195000BC856D937D938D939C931397A7019601FE
:10196000C701B6010E94901C9B01AC01E9A1FAA13C
:101970006083718382839383AD85BE856D917D91F4
:101980008D919C910E94D91AED85FE8560837183AB
:1019900082839383AFA1B8A598964D905D906D908A
:1019A0007C909B97A3019201C501B4010E94D81AB3
:1019B000EFA1F8A520A131A142A153A10E94901C42
:1019C0009B01AC01C301B2010E94D91AAFA1B8A515
:1019D000DC966D937D938D939C93DF97A701960181
:1019E0000E94901C9B01AC01EBA1FCA16083718360
:1019F00082839383AF85B8896D917D918D919C9100
:101A00000E94D91AEF85F88960837183828393835A
:101A1000D1018C91ED81FE818083ADA1BEA18D911C
:101A20009C91E985FA858E179F070CF0F6C021E09E
:101A3000F10120830130110529F4F1018081AD818C
:101A4000BE818C93ED81FE819081D1018C9198179C
:101A500029F0E981FA813196FA83E98329813A8173
:101A60004D8D5E8D2417350708F4B8CEAD89BE893B
:101A7000BD01882777FD8095982F0E94DC1B20E010
:101A800030E04AE754E40E94411B20E030E040E8A7
:101A90005AE30E94901C2B013C01EFA1F8A5208D78
:101AA000318D428D538D0E94901C4B015C01B80119
:101AB00080E090E00E94DA1B6B017C012FA038A42B
:101AC000F4E42F0E311C9B01AC01D1016D917D918D
:101AD0008D919C910E94411B0E94F71C9B01AC01BF
:101AE000C501B4010E94901C69837A838B839C8317
:101AF000EFA1F8A56487758786879787248D358D34
:101B0000468D578DC301B2010E94901C2B013C01F0
:101B10000FA118A5045B1F4FA7019601D8016D9175
:101B20007D918D919C910E94411B0E94F71C9B010D
:101B3000AC01C301B2010E94901C6D837E838F8330
:101B40009887EFA1F8A5608B718B828B938BA30193
:101B50009201C501B4010E94901CAFA0B8A4F4E5A5
:101B6000AF0EB11CD5012D913D914D915C910E941C
:101B7000901CA70196010E94411B6B017C01EFA103
:101B8000F8A560837183828393832D813E814F8189
:101B9000588569817A818B819C810E94901C9B0170
:101BA000AC01AFA1B8A514966D937D938D939C93D2
:101BB0001797C701B6010E94411BEFA1F8A56087E6
:101BC000718782879387D1011D921D921D921C926D
:101BD0001397F8011082118212821382D5011D928F
:101BE0001D921D921C921397A8960FB6F894DEBF13
:101BF0000FBECDBFDF91CF911F910F91FF90EF905E
:101C0000DF90CF90BF90AF909F908F907F906F901C
:101C10005F904F903F902F900895D1011C920ACF72
:101C20002F923F924F925F926F927F928F929F92EC
:101C3000AF92BF92CF92DF92EF92FF920F931F93DA
:101C4000CF93DF9300D000D000D0CDB7DEB79E8316
:101C50008D837A8369830E94180B2B013C0100E07D
:101C600010E08D819E81845B9F4F1C01ED81FE8180
:101C7000E85BFF4FFC83EB8389819A810817190782
:101C800009F455C0ED81FE8186890E94F315ED812E
:101C9000FE8197A386A3BC01882777FD8095982FA6
:101CA0000E94DC1B6B017C01ED81FE8180AC91AC5C
:101CB000A2ACB3ACA50194010E94D81A20E030E098
:101CC00040E85AE30E94901C9B01AC01C501B4019D
:101CD0000E94D91A9B01AC01ED81FE8160AF71AF0A
:101CE00082AF93AFC701B6010E94D81AED81FE8181
:101CF00060AB71AB82AB93AB9B01AC010E94901CBB
:101D00009B01AC01EB81FC816083718382839383AF
:101D1000F10160817181828193810E94D91AF10160
:101D200060837183828393830F5F1F4FA5CFB801B8
:101D300080E090E00E94DA1B9B01AC01F101608120
:101D40007181828193810E94411B0E94F71C6B016B
:101D50007C01B201882777FD8095982F0E94DC1BBB
:101D600020E030E04AE754E40E94411B20E030E0EC
:101D700040E85AE30E94901CED81FE81248D358D50
:101D8000468D578D0E94901CA70196010E94901CC1
:101D9000ED81FE81608B718B828B938BF1011082C0
:101DA00011821282138226960FB6F894DEBF0FBE00
:101DB000CDBFDF91CF911F910F91FF90EF90DF90FA
:101DC000CF90BF90AF909F908F907F906F905F90DB
:101DD0004F903F902F900895FF920F931F93CF93B2
:101DE000DF93FC010081C181D281F8948981F02EBA
:101DF000F0948F21898378941DE7115029F182E0B6
:101E000090E00E94ED1488818023B9F3F8948A81D0
:101E10008F218A838981802B8983789480EE91E059
:101E20000E94ED14F89489818F21898386E490E0E3
:101E30000E94ED148881802311E009F010E078946D
:101E40008AE991E00E94ED14812FDF91CF911F91DB
:101E50000F91FF9008951F93CF93DF93FC011081A2
:101E6000C181D281912F909560FF12C0F8948A8130
:101E700089238A838981812B89838AE090E00E946B
:101E8000ED148A81812B8A83789487E390E011C0D6
:101E9000F8948A8189238A838981812B898381E4CB
:101EA00090E00E94ED148A81812B8A83789485E0EA
:101EB00090E0DF91CF911F910C94ED140F931F933D
:101EC000CF93DF93FC011081C181D281F894898185
:101ED000812B89838A81012F009580238A8383E067
:101EE00090E00E94ED148981802389838AE090E04C
:101EF0000E94ED14C881789485E390E00E94ED146F
:101F00001C2381E009F480E0DF91CF911F910F91B4
:101F10000895CF92DF92EF92FF920F931F93CF938A
:101F2000DF931F92CDB7DEB76C01E62E08E010E01C
:101F3000FF24F39461E09F2D9E2109F460E0C60127
:101F400049830E942B0FFF0C015011094981011593
:101F5000110581F7411115C0F894D6011196ED9144
:101F6000FC91129791818C918095892381831196A0
:101F7000ED91FC91129792818C91809589238283B7
:101F800078940F90DF91CF911F910F91FF90EF9078
:101F9000DF90CF900895EF92FF920F931F93CF930E
:101FA000DF938C01C8E0D0E0F12CEE24E394C8016B
:101FB0000E945E0F8111FE28EE0C2197C1F78F2D34
:101FC000DF91CF911F910F91FF90EF900895CF92E5
:101FD000DF92FF920F931F93CF93DF931F92CDB7A2
:101FE000DEB78C01F62E40E065E579830E94890F0B
:101FF000CF2C7981D72E88E0F82EF60161916F0100
:1020000040E0C8010E94890FFA94B9F70F90DF9160
:10201000CF911F910F91FF90DF90CF90089540E0F6
:102020006CEC0C94890FFC0113861586148627E04E
:1020300030E0DF01A20FB31F13961C92211531056A
:1020400019F021503109F5CF08951F93CF93DF93F5
:10205000EC01162F60E0812F0E945B15612F70E06C
:10206000FB01E458FE4FE491E883FB01E057FE4F8B
:10207000E491F0E0EE0FFF1FEC55FE4F8591949137
:102080009A838983CE01DF91CF911F910C94131015
:10209000AF92BF92CF92DF92EF92FF920F931F9376
:1020A000CF93DF931F92CDB7DEB75C01E62ED72E1C
:1020B000FC01858581115DC0C5010E94EC0E811176
:1020C00005C0F5011386158614866EC040E060EFEA
:1020D000C5010E94890F01E0F12CC12C11E0C5015E
:1020E0000E945E0F682FC50169830E945E0F69819F
:1020F000613019F48130B9F433C02F2D30E068130A
:102100001BC0F5018385181730F4E20FF31F83819C
:10211000802349F402C0181731F060E0193058F4F8
:10212000F501148708C0F501EF0DF11D8381802BA7
:10213000838361E009C0C12EF501E20FF31F8381A3
:10214000902F909589238383C5010E942B0F1F5FD9
:10215000000F11F4F39401E0F7E0FF1508F0BFCF92
:10216000113438F0F501C386C11018C081E08587AD
:1021700015C0F50113861586148680E0EE2DFD2D21
:1021800020E030E0D501A20FB31F13969C919193EC
:102190002F5F3F4F28303105A9F706C0F501838135
:1021A000882339F381E0EACF0F90DF91CF911F911F
:1021B0000F91FF90EF90DF90CF90BF90AF90089578
:1021C000DC0180E0615038F0ED91E827F0E0E8595B
:1021D000FF4F8491F7CF08950895FC018CEE90E1B4
:1021E000928B818B768365831482108289E0818350
:1021F00081E0828383830895FC0184810895CF93D5
:10220000DF93EB0167E0CE010E94E01091E02F81A7
:10221000821390E0892FDF91CF910895EF92FF9282
:102220000F931F93CF93DF9300D0CDB7DEB77C0120
:102230008A01FC018581968169837A830E94EC0E74
:1022400069817A81F701858196810E94E70F40E0DC
:102250006EEBF701858196810E94890FF7018581D8
:1022600096810E94CB0FF8018083F70185819681CA
:102270000E94CB0FF8018183F701858196810E942E
:10228000CB0FF8018283F701858196810E94CB0FE5
:10229000F8018383F701858196810E94CB0FF801B5
:1022A0008483F701858196810E94CB0FF801858395
:1022B000F701858196810E94CB0FF8018683F70193
:1022C000858196810E94CB0FF8018783F701858174
:1022D00096810E94CB0FF8018087F7018581968156
:1022E0000F900F90DF91CF911F910F91FF90EF9082
:1022F0000C94EC0ECF93DF93EA010E940E1168E07C
:10230000CE010E94E01091E02885821390E0892F91
:10231000DF91CF910895EF92FF920F931F93CF9388
:10232000DF93EC017B018A018D819E810E94EC0E7E
:10233000B7018D819E810E94E70F40E06EE48D81A0
:102340009E810E94890F40E0F80162818D819E810B
:102350000E94890F40E0F80163818D819E810E9477
:10236000890FF7018081803139F040E0F801648104
:102370008D819E810E94890F8D819E810E94EC0E2D
:10238000488168E48D819E810E94890F888188231D
:1023900031F06AE070E080E090E00E94C5148D8129
:1023A0009E81DF91CF911F910F91FF90EF900C9440
:1023B000EC0EEF92FF921F93CF93DF9300D0CDB737
:1023C000DEB77C01FC018581968169837A830E9456
:1023D000EC0E69817A81F701858196810E94E70F71
:1023E00040E064EBF701858196810E94890FF70137
:1023F000858196810E945E0F182FF7018581968155
:102400000E94EC0E81E0111180E00F900F90DF919F
:10241000CF911F91FF90EF900895EF92FF920F934D
:102420001F93CF93DF93CDB7DEB72A970FB6F894FB
:10243000DEBF0FBECDBF7C018B01242FAE014F5FED
:102440005F4F2A870E947A112A858823D1F0F801EC
:1024500080818031C1F02B3041F02C3021F02A30C6
:1024600031F48FE305C08FE703C08FE501C08FE132
:102470008D83AE014F5F5F4FB801C7010E948B1182
:1024800002C080E001C081E02A960FB6F894DEBF5A
:102490000FBECDBFDF91CF911F910F91FF90EF90B5
:1024A0000895CF93DF93CDB7DEB729970FB6F89491
:1024B000DEBF0FBECDBFFB0120812031D1F0AE01C8
:1024C0004F5F5F4F0E947A11882379F08D818F339F
:1024D00051F018F48F3169F008C08F3541F08F3713
:1024E00021F48CE007C08AE005C080E003C08BE0E7
:1024F00001C089E029960FB6F894DEBF0FBECDBFAC
:10250000DF91CF910895EF92FF920F931F93CF9396
:10251000DF93CDB7DEB761970FB6F894DEBF0FBE7D
:10252000CDBF8C01FC01858196810E941310F801BA
:102530001482FF24F394BE01665F7F4FF80185810A
:1025400096810E9448108823C9F1BE01665F7F4FC3
:10255000C8010E94FF10882371F3F8018081811166
:1025600008C0BE01665F7F4FC8010E94D91181116A
:1025700022C0AE014F5F5F4FBE01665F7F4FC80153
:102580000E940E11F801E180BE01665F7F4FC80115
:102590000E9451128E1518F4F801818106C0BE0107
:1025A000665F7F4FC8010E945112F80181838481C8
:1025B0008F5F8483C0CFF801F082DBCF61960FB6C6
:1025C000F894DEBF0FBECDBFDF91CF911F910F9169
:1025D000FF90EF900895FC0162830895CF93DF93FD
:1025E000CDB7DEB729970FB6F894DEBF0FBECDBFCB
:1025F000AE014F5F5F4F0E940E1181E099819111F2
:1026000001C080E029960FB6F894DEBF0FBECDBFA3
:10261000DF91CF910895CF92DF92EF92FF920F93C7
:102620001F93CF93DF93EC018B01452BE1F08B815E
:102630008823C9F08881811116C00E9496146B010D
:102640007C0160E070E0CE010E94EE1281110BC0AF
:102650000E9496146C197D098E099F096E3E724086
:102660008105910570F3F80180818A3049F08B3043
:1026700061F0893079F46EE570E080E090E00EC0A2
:102680006CEB70E080E090E009C067E771E080E00B
:1026900090E004C06EEE72E080E090E0DF91CF91B8
:1026A0001F910F91FF90EF90DF90CF900C94C51485
:1026B000CF93DF93EC018D819E810E94EC0E8D8182
:1026C0009E810E940F10488164E48D819E810E944A
:1026D000890F8A81882351F0BE016F5F7F4F40E0F0
:1026E00050E0CE01DF91CF910C940B13DF91CF918D
:1026F00008958F929F92AF92BF92CF92DF92EF9206
:10270000FF921F93CF93DF93FB01EA01698170E091
:10271000762F66278881682B80818232B1F18832DA
:10272000A1F1803109F078C01F81759567958827E0
:1027300077FD8095982F0E94DC1B20E030E040E878
:102740005EE30E94D81A6B017C01612F70E08E81DC
:10275000681B7109882777FD8095982F0E94DC1BE4
:102760004B015C01612F70E080E090E00E94DA1B79
:102770009B01AC01C501B4010E94411B9B01AC014E
:10278000C701B6010E94D91A43C08C818F3381F1F1
:1027900098F48F3109F040C093E0759567959A954C
:1027A000E1F7882777FD8095982F0E94DC1B20E0B9
:1027B00030E040E05FE32AC08F3569F08F3761F584
:1027C000882777FD8095982F0E94DC1B20E030E061
:1027D00040E85DE31BC075956795882777FD809578
:1027E000982F0E94DC1B20E030E040E05EE30EC04A
:1027F0007595679575956795882777FD8095982FCE
:102800000E94DC1B20E030E040E85EE30E94901C68
:10281000562F472F382F292F652F742F832F922F54
:10282000DF91CF911F91FF90EF90DF90CF90BF90FD
:10283000AF909F908F900895EF92FF920F931F9308
:10284000CF93DF93CDB7DEB729970FB6F894DEBFED
:102850000FBECDBF8C017B01AE014F5F5F4F0E9469
:102860007A11882341F0AE014F5F5F4FB701C80175
:102870000E94791304C060E070E08EEF92EC29961C
:102880000FB6F894DEBF0FBECDBFDF91CF911F9181
:102890000F91FF90EF9008951F920F920FB60F9235
:1028A00011242F933F938F939F93AF93BF93809166
:1028B000900690919106A0919206B0919306309166
:1028C0008F0623E0230F2D3720F40196A11DB11DA3
:1028D00005C026E8230F0296A11DB11D20938F0687
:1028E0008093900690939106A0939206B0939306DE
:1028F0008091940690919506A0919606B0919706C6
:102900000196A11DB11D8093940690939506A09306
:102910009606B0939706BF91AF919F918F913F918B
:102920002F910F900FBE0F901F9018952FB7F8940E
:102930006091900670919106809192069091930615
:102940002FBF08953FB7F894809194069091950613
:10295000A0919606B091970626B5A89B05C02F3F7B
:1029600019F00196A11DB11D3FBF6627782F892F51
:102970009A2F620F711D811D911D42E0660F771F16
:10298000881F991F4A95D1F70895CF92DF92EF9251
:10299000FF92CF93DF936B017C010E94A214EB01A5
:1029A000C114D104E104F10489F00E9410160E94C0
:1029B000A2146C1B7D0B683E734090F381E0C81A33
:1029C000D108E108F108C851DC4FEACFDF91CF917F
:1029D000FF90EF90DF90CF900895019739F0880F26
:1029E000991F880F991F02970197F1F7089578941E
:1029F00084B5826084BD84B5816084BD85B5826004
:102A000085BD85B5816085BDEEE6F0E080818160A1
:102A10008083E1E8F0E010828081826080838081A1
:102A200081608083E0E8F0E0808181608083E1EB79
:102A3000F0E0808184608083E0EBF0E08081816061
:102A40008083EAE7F0E08081846080838081826017
:102A50008083808181608083808180688083109200
:102A6000C1000895833081F028F4813099F08230DC
:102A7000A1F008958730A9F08830B9F08430D1F4FE
:102A8000809180008F7D03C0809180008F7780933C
:102A90008000089584B58F7702C084B58F7D84BD92
:102AA00008958091B0008F7703C08091B0008F7D32
:102AB0008093B0000895CF93DF9390E0FC01E45839
:102AC000FE4F2491FC01E057FE4F8491882349F189
:102AD00090E0880F991FFC01E854FE4FA591B49136
:102AE00082559E4FFC01C591D4919FB7611108C0DA
:102AF000F8948C91209582238C93888182230AC03C
:102B0000623051F4F8948C91322F309583238C935A
:102B10008881822B888304C0F8948C91822B8C93BB
:102B20009FBFDF91CF9108950F931F93CF93DF93B2
:102B30001F92CDB7DEB7282F30E0F901E859FE4FDC
:102B40008491F901E458FE4F1491F901E057FE4FCA
:102B500004910023C9F0882321F069830E94321573
:102B60006981E02FF0E0EE0FFF1FE255FE4FA591C7
:102B7000B4919FB7F8948C91611103C01095812393
:102B800001C0812B8C939FBF0F90DF91CF911F913C
:102B90000F910895CF93DF93282F30E0F901E85982
:102BA000FE4F8491F901E458FE4FD491F901E057AA
:102BB000FE4FC491CC2391F081110E943215EC2F6D
:102BC000F0E0EE0FFF1FEC55FE4FA591B4912C9154
:102BD0002D2381E090E021F480E002C080E090E0CD
:102BE000DF91CF9108958E3008F08E50877020913C
:102BF0000C0190E4299F90011124822B80937C008A
:102C000080917A00806480937A0080917A0086FDBA
:102C1000FCCF809178002091790090E0922B08956C
:102C200008958230E8F4E82FF0E0EE0FFF1FE85639
:102C3000F94F71836083813041F0809169008C7F0E
:102C4000842B80936900E89A089580916900440F6D
:102C5000551F440F551F837F842B80936900E99A89
:102C60000895823068F4813011F0E89801C0E99845
:102C7000E82FF0E0EE0FFF1FE856F94F11821082A7
:102C800008951F920F920FB60F9211242F933F9326
:102C90004F935F936F937F938F939F93AF93BF9364
:102CA000EF93FF938091980690919906892B29F0D4
:102CB000E0919806F09199060995FF91EF91BF91E7
:102CC000AF919F918F917F916F915F914F913F91C4
:102CD0002F910F900FBE0F901F9018951F920F927B
:102CE0000FB60F9211242F933F934F935F936F93DF
:102CF0007F938F939F93AF93BF93EF93FF938091B5
:102D00009A0690919B06892B29F0E0919A06F09102
:102D10009B060995FF91EF91BF91AF919F918F9184
:102D20007F916F915F914F913F912F910F900FBEC7
:102D30000F901F9018951F920F920FB60F921124AB
:102D40002F938F939F93EF93FF93E091AC06F091B5
:102D5000AD068081E091B206F091B30682FD12C00B
:102D600090818091B5068F5F8F732091B606821790
:102D700051F0E091B506F0E0E456F94F958F80935D
:102D8000B50601C08081FF91EF919F918F912F91A6
:102D90000F900FBE0F901F9018951F920F920FB6B5
:102DA0000F9211242F933F934F935F936F937F93D1
:102DB0008F939F93AF93BF93EF93FF938CE996E02C
:102DC0000E94CE19FF91EF91BF91AF919F918F918A
:102DD0007F916F915F914F913F912F910F900FBE17
:102DE0000F901F9018958CE996E00E94931921E0AE
:102DF000892B09F420E0822F089510929F061092EB
:102E00009E0688EE93E0A0E0B0E08093A006909349
:102E1000A106A093A206B093A30687E494E0909342
:102E20009D0680939C0685EC90E09093A906809384
:102E3000A80684EC90E09093AB068093AA0680EC01
:102E400090E09093AD068093AC0681EC90E0909377
:102E5000AF068093AE0682EC90E09093B10680932B
:102E6000B00686EC90E09093B3068093B206109281
:102E7000B5061092B6061092B7061092B8060895DD
:102E8000CF92DF92EF92FF920F931F93CF93DF9336
:102E90006C017A01EB01E60EF71E00E010E0CE15A2
:102EA000DF0561F06991D601ED91FC910190F0810F
:102EB000E02DC6010995080F191FF1CFC801DF9158
:102EC000CF911F910F91FF90EF90DF90CF900895D9
:102ED0006115710581F0DB010D900020E9F7AD016E
:102EE00041505109461B570BDC01ED91FC910280CA
:102EF000F381E02D099480E090E008950C94681728
:102F0000DC01ED91FC910190F081E02D09940F938B
:102F10001F93CF93DF93EC016DE00E9480178C012B
:102F20006AE0CE010E948017800F911FDF91CF9140
:102F30001F910F9108950F931F93CF93DF93EC018F
:102F40000E9468178C01CE010E948717800F911F85
:102F5000DF91CF911F910F9108958F929F92AF9221
:102F6000BF92CF92DF92EF92FF920F931F93CF9376
:102F7000DF93CDB7DEB7A1970FB6F894DEBF0FBED3
:102F8000CDBF7C01C42EE52FCB01D22E19A221E0AA
:102F90002D1510F02AE0D22E8E010F5D1F4F8D2CC3
:102FA000912CA12CB12C6C2D7E2FA50194010E9497
:102FB0004E1D8C2DD29E80191124015011098A308A
:102FC00014F4805D01C0895CF8018083211531050E
:102FD0004105510521F0C22EE32FCA01E4CFB8010B
:102FE000C7010E946817A1960FB6F894DEBF0FBE06
:102FF000CDBFDF91CF911F910F91FF90EF90DF90A8
:10300000CF90BF90AF909F908F900895CF92DF9216
:10301000EF92FF920F931F93CF93DF93EC016A011E
:103020007B012115310579F4E881F9810190F08166
:10303000E02D642FDF91CF911F910F91FF90EF90C2
:10304000DF90CF9009942A303105E9F477FF1AC058
:103050006DE20E9480178C0144275527BA014C1954
:103060005D096E097F092AE0CE010E94AD17800F2D
:10307000911FDF91CF911F910F91FF90EF90DF9003
:10308000CF9008952AE0B701A601CE01DF91CF913C
:103090001F910F91FF90EF90DF90CF900C94AD17A0
:1030A0009A01AB01662757FD6095762F0C940618A0
:1030B0000F931F93CF93DF93EC019A01AB01662727
:1030C00057FD6095762F0E9406188C01CE010E9454
:1030D0008717800F911FDF91CF911F910F91089556
:1030E0002115310541F4DC01ED91FC910190F08155
:1030F000E02D642F09940C94AD179A01462F50E0EF
:1031000060E070E00C9470184F925F926F927F9223
:103110008F929F92AF92BF92CF92DF92EF92FF92E7
:103120000F931F93CF93DF93EC016A017B01B22EC3
:103130009A01AB01C701B6010E94351D882319F021
:1031400065E374E027C026013701E89477F82FEF94
:103150003FEF4FE75FE7C301B2010E94351D8111C8
:103160000DC02FEF3FEF4FE75FE7C301B2010E94B1
:103170003D1B18161CF469E374E00CC02FEF3FEF01
:103180004FE75FE4C701B6010E948C1C1816ACF42F
:103190006DE374E0CE01DF91CF911F910F91FF900D
:1031A000EF90DF90CF90BF90AF909F908F907F90E7
:1031B0006F905F904F900C9468172FEF3FEF4FE7A1
:1031C0005FECC701B6010E943D1B87FDE1CF20E007
:1031D00030E0A901C701B6010E943D1B87FF0AC06C
:1031E0006DE2CE010E9480178C01F7FAF094F7F897
:1031F000F09402C000E010E0A12C60E070E080E0FC
:103200009FE3AB1441F020E030E040E251E40E9443
:10321000411BA394F6CF9B01AC01C701B6010E94EC
:10322000D91A6B017C010E94AE1B2B013C010E944C
:10323000DA1B9B01AC01C701B6010E94D81A6B01D1
:103240007C012AE0B301A201CE010E94AD17080F54
:10325000191FBB2039F061E474E0CE010E946817A9
:10326000080F191F7B2C772041F120E030E040E26D
:1032700051E4C701B6010E94901C6B017C010E94C1
:10328000A91B4B01AA2497FCA094BA2C2AE030E099
:10329000B501A401CE010E940618080F191FC5012F
:1032A000B4010E94DC1B9B01AC01C701B6010E9466
:1032B000D81A6B017C017A94D6CFC801DF91CF91E7
:1032C0001F910F91FF90EF90DF90CF90BF90AF9044
:1032D0009F908F907F906F905F904F9008950C9487
:1032E00084180F931F93CF93DF93EC010E948418EF
:1032F0008C01CE010E948717800F911FDF91CF9123
:103300001F910F91089508950E94F7140E94831948
:103310000E948701C0ECD9E10E9437052097E1F3B4
:103320000E94C019F9CFFC01818D228D90E0805C54
:103330009F4F821B91098F7399270895FC01918DEE
:10334000828D981731F0828DE80FF11D858D90E008
:1033500008958FEF9FEF0895FC01918D828D98174E
:1033600061F0828DDF01A80FB11D5D968C91928D69
:103370009F5F9F73928F90E008958FEF9FEF089566
:1033800083EF96E1892B49F080E090E0892B29F0CA
:103390000E94F31681110C9400000895FC01848DA5
:1033A000DF01A80FB11DA35ABF4F2C91848D90E06F
:1033B00001968F739927848FA689B7892C93A0894A
:1033C000B1898C9180648C93938D848D981306C001
:1033D0000288F389E02D80818F7D80830895CF93CB
:1033E000DF93EC01888D8823C9F0EA89FB8980810D
:1033F00085FD05C0A889B9898C9186FD0FC00FB6DF
:1034000007FCF5CF808185FFF2CFA889B9898C911F
:1034100085FFEDCFCE010E94CE19E7CFDF91CF918E
:103420000895CF92DF92FF920F931F93CF93DF9374
:103430001F92CDB7DEB76C01DC015B969C915B9768
:103440005C968C915C97981307C05096ED91FC9117
:103450005197808185FD32C0F601038D10E00F5F2A
:103460001F4F0F731127F02EF601848DF81211C033
:103470000FB607FCF9CFD6015096ED91FC9151970C
:10348000808185FFF1CFC60169830E94CE196981D1
:10349000EBCF838DE80FF11DE35AFF4F6083D60118
:1034A0005B960C935B975296ED91FC9153978081BC
:1034B0008062808381E058968C930DC0D601569629
:1034C000ED91FC91579760835096ED91FC91519747
:1034D00080818064808381E090E00F90DF91CF91C4
:1034E0001F910F91FF90DF90CF900895BF92CF92E0
:1034F000DF92EF92FF92CF93DF93EC016A017B01A1
:10350000B22EE889F98982E08083411581EE58075F
:1035100061057105A1F060E079E08DE390E0A7011D
:1035200096010E944E1D21503109410951095695BD
:10353000479537952795211580E1380798F0E88958
:10354000F989108260E874E88EE190E0A7019601A5
:103550000E944E1D21503109410951095695479548
:1035600037952795EC85FD853083EE85FF85208393
:10357000188EEC89FD89B082EA89FB89808180619F
:103580008083EA89FB89808188608083EA89FB895E
:10359000808180688083EA89FB8980818F7D808338
:1035A000DF91CF91FF90EF90DF90CF90BF90089583
:1035B0005058BB27AA270ED075C166D130F06BD109
:1035C00020F031F49F3F11F41EF45BC10EF4E0953E
:1035D000E7FB51C1E92F77D180F3BA176207730770
:1035E0008407950718F071F49EF58FC10EF4E095ED
:1035F0000B2EBA2FA02D0B01B90190010C01CA01AD
:10360000A0011124FF27591B99F0593F50F4503E57
:1036100068F11A16F040A22F232F342F4427585F49
:10362000F3CF469537952795A795F0405395C9F761
:103630007EF41F16BA0B620B730B840BBAF0915019
:10364000A1F0FF0FBB1F661F771F881FC2F70EC0B8
:10365000BA0F621F731F841F48F48795779567958B
:10366000B795F7959E3F08F0B3CF9395880F08F074
:103670009927EE0F979587950895D9D008F481E0A2
:1036800008950CD00FC107D140F0FED030F021F4E6
:103690005F3F19F0F0C0511139C1F3C014D198F354
:1036A0009923C9F35523B1F3951B550BBB27AA27C3
:1036B00062177307840738F09F5F5F4F220F331F35
:1036C000441FAA1FA9F333D00E2E3AF0E0E830D001
:1036D00091505040E695001CCAF729D0FE2F27D004
:1036E000660F771F881FBB1F261737074807AB07D2
:1036F000B0E809F0BB0B802DBF01FF2793585F4F47
:103700002AF09E3F510568F0B6C000C15F3FECF360
:10371000983EDCF3869577956795B795F7959F5F0B
:10372000C9F7880F911D9695879597F90895E1E05F
:10373000660F771F881FBB1F621773078407BA07BE
:1037400020F0621B730B840BBA0BEE1F88F7E09519
:10375000089504D06894B111D9C00895BCD088F000
:103760009F5790F0B92F9927B751A0F0D1F0660F6D
:10377000771F881F991F1AF0BA95C9F712C0B13088
:1037800081F0C3D0B1E00895C0C0672F782F88279B
:10379000B85F39F0B93FCCF3869577956795B395C7
:1037A000D9F73EF490958095709561957F4F8F4F36
:1037B0009F4F0895E89409C097FB3EF4909580953B
:1037C000709561957F4F8F4F9F4F9923A9F0F92FE7
:1037D00096E9BB279395F695879577956795B79565
:1037E000F111F8CFFAF4BB0F11F460FF1BC06F5F4B
:1037F0007F4F8F4F9F4F16C0882311F096E911C05D
:10380000772321F09EE8872F762F05C0662371F07D
:1038100096E8862F70E060E02AF09A95660F771F91
:10382000881FDAF7880F9695879597F90895990F6D
:103830000008550FAA0BE0E8FEEF16161706E8077A
:10384000F907C0F012161306E407F50798F0621B9B
:10385000730B840B950B39F40A2661F0232B242B70
:10386000252B21F408950A2609F4A140A6958FEF8F
:10387000811D811D089597F99F6780E870E060E0E1
:1038800008959FEF80EC089500240A9416161706F9
:1038900018060906089500240A9412161306140641
:1038A00005060895092E0394000C11F4882352F0A4
:1038B000BB0F40F4BF2B11F460FF04C06F5F7F4F5C
:1038C0008F4F9F4F089557FD9058440F551F59F043
:1038D0005F3F71F04795880F97FB991F61F09F3FFD
:1038E00079F087950895121613061406551FF2CF26
:1038F0004695F1DF08C0161617061806991FF1CF76
:1039000086957105610508940895E894BB2766279C
:103910007727CB0197F908958ADF08F48FEF089590
:103920000BD0C0CFB1DF28F0B6DF18F0952309F037
:10393000A2CFA7CF1124EACFC6DFA0F3959FD1F382
:10394000950F50E0551F629FF001729FBB27F00D4D
:10395000B11D639FAA27F00DB11DAA1F649F6627A2
:10396000B00DA11D661F829F2227B00DA11D621FF1
:10397000739FB00DA11D621F839FA00D611D221FAB
:10398000749F3327A00D611D231F849F600D211D8F
:10399000822F762F6A2F11249F5750408AF0E1F032
:1039A00088234AF0EE0FFF1FBB1F661F771F881F7B
:1039B00091505040A9F79E3F510570F05CCFA6CFC3
:1039C0005F3FECF3983EDCF3869577956795B79566
:1039D000F795E7959F5FC1F7FE2B880F911D969590
:1039E000879597F9089511F40EF44BCF42C073DF19
:1039F000D0F39923D9F3CEF39F57550B87FF47D0C8
:103A00000024A0E640EA900180585695979528F446
:103A1000805C660F771F881F20F02617370748073E
:103A200030F4621B730B840B202931294A2BA69595
:103A300017940794202531254A2758F7660F771FDA
:103A4000881F20F026173707480730F4620B730BE6
:103A5000840B200D311D411DA09581F7B901842FE4
:103A60009158880F969587950895E1DE880B990BFC
:103A700008959F3F31F0915020F487957795679591
:103A8000B795880F911D9695879597F90895915050
:103A90005040660F771F881FD2F70895A1E21A2EB3
:103AA000AA1BBB1BFD010DC0AA1FBB1FEE1FFF1FE2
:103AB000A217B307E407F50720F0A21BB30BE40B32
:103AC000F50B661F771F881F991F1A9469F7609579
:103AD0007095809590959B01AC01BD01CF01089533
:103AE000052E97FB1EF400940E94871D57FD07D0FA
:103AF0000E944E1D07FC03D04EF40C94871D509578
:103B00004095309521953F4F4F4F5F4F08959095C9
:103B10008095709561957F4F8F4F9F4F08950E94BC
:103B2000971D332312F48A1B9B0B0C94A81DA29F94
:103B3000B001B39FC001A39F700D811D1124911D81
:103B4000B29F700D811D1124911D08950E94971D33
:103B5000B7FF0895821B930B0895EE0FFF1F05908A
:103B6000F491E02D0994FB01DC0102C001900D925B
:0C3B700041505040D8F70895F894FFCF62
:103B7C000000390780000A297C86430201656D6FBD
:103B8C006E547820563320446973637265746520D3
:103B9C0053616D706C696E672056312E352052461C
:103BAC004D36394357004F70656E456E65726779B7
:103BBC004D6F6E69746F722E6F726700504F535455
:103BCC002E2E2E2E2E7761697420313073004354C3
:103BDC0020312043616C6962726174696F6E3A20A6
:103BEC0000435420322043616C6962726174696FC6
:103BFC006E3A2000435420332043616C6962726139
:103C0C0074696F6E3A2000435420342043616C6910
:103C1C0062726174696F6E3A2000524D5320566F78
:103C2C006C74616765206F6E2041432D41432041C8
:103C3C0064617074657220696E7075742069733A72
:103C4C00207E00560041432D414320616461707415
:103C5C006572206465746563746564202D205265FB
:103C6C00616C20506F776572206D6561737572653C
:103C7C006D656E747320656E61626C656400617352
:103C8C0073756D696E6720706F776572696E6720EA
:103C9C0066726F6D2041432D4143206164617074E5
:103CAC00657220286A756D70657220636C6F736520
:103CBC00642900555341206D6F64652061637469FC
:103CCC007661746564005663616C3A2000506861DB
:103CDC0073652053686966743A200041432D414353
:103CEC002061646170746572204E4F542064657459
:103CFC006563746564202D204170706172656E740B
:103D0C0020506F776572206D6561737572656D6596
:103D1C006E747320656E61626C65640041737375BB
:103D2C006D696E672056524D5320746F206265206A
:103D3C0000417373756D696E6720706F776572697A
:103D4C006E672066726F6D2062617474657269654E
:103D5C0073202F20355620555342202D20706F771D
:103D6C00657220736176696E67206D6F646520657E
:103D7C006E61626C6564004E4F204354277320645F
:103D8C00657465637465642C2073616D706C696E09
:103D9C00672066726F6D2043543120627920646510
:103DAC006661756C740043542031206465746563DE
:103DBC0074656400435420322064657465637465D3
:103DCC006400435420332064657465637465640037
:103DDC0043542034206465746563746564004465E1
:103DEC00746563746564200020445331384232306A
:103DFC002E2E7573696E67207468697320666F72F6
:103E0C002074656D70657261747572652072656180
:103E1C0064696E6700556E61626C6520746F206416
:103E2C0065746563742044533138423230207465B4
:103E3C006D70657261747572652073656E736F72E7
:103E4C000052464D31324220496E69746961746585
:103E5C00643A20004E6F64653A200020467265710A
:103E6C003A20003836384D687A00204E6574776FEA
:103E7C00726B3A2000435431204354322043543364
:103E8C00204354342056524D532F42415454205009
:103E9C00554C5345002054656D7065726174757294
:103EAC006520312D006E616E00696E66006F76665E
:103EBC00002E0000000000111A40179319AC199E37
:043ECC0019EF1900D1
:00000001FF
