:100000000C94F5000C9438160C9465160C941D0194
:100010000C941D010C941D010C9425010C941D01E0
:100020000C941D010C941D010C941D010C941D01D8
:100030000C941D010C941D010C941D010C941D01C8
:100040000C9443140C941D010C9492160C94C41639
:100050000C941D010C941D010C941D010C941D01A8
:100060000C941D010C941D01010402000302048A7A
:10007000050506C30B2019421E2C25802E882F2D26
:10008000370038003C8F3D106F2000005EBCE261FD
:100090003FDD83C29C7E20A3FD1F419DC3217FFCC9
:1000A000A2401E5F01E3BD3E6082DC237D9FC14212
:1000B0001CFEA0E1BF5D0380DE3C62BEE0025CDFAF
:1000C00081633D7C22C09E1D43A1FF4618FAA427F0
:1000D000799BC584DA3866E5BB5907DB856739BA91
:1000E000E406581947A5FB7826C49A653BD98704CE
:1000F0005AB8E6A7F91B45C6987A24F8A6441A9977
:10010000C7257B3A6486D85B05E7B98CD2306EEDA3
:10011000B3510F4E10F2AC2F7193CD114FADF37060
:100120002ECC92D38D6F31B2EC0E50AFF1134DCE79
:1001300090722C6D33D18F0C52B0EE326C8ED05346
:100140000DEFB1F0AE4C1291CF2D73CA947628AB5F
:10015000F517490856B4EA6937D58B5709EBB53618
:10016000688AD495CB2977F4AA4816E9B7550B8845
:10017000D6346A2B7597C94A14F6A8742AC89615FE
:100180004BA9F7B6E80A54D7896B35000000080080
:10019000020100000304070000000000000000014D
:1001A000020408102040800102040810200102040B
:1001B00008102004040404040404040202020202DD
:1001C00002030303030303000000002300260029A9
:1001D0000000000000250028002B00000000002483
:1001E0000027002A00009807F41611241FBECFEF45
:1001F000D8E0DEBFCDBF14E0A0E0B1E0EEE6FBE367
:1002000002C005900D92A635B107D9F727E0A6E503
:10021000B4E001C01D92AD33B207E1F711E0CAEEC0
:10022000D1E004C02297FE010E94B11DC63ED10755
:10023000C9F70E947B190C94B51D0C9400008091A5
:1002400056048F5F8093560408951F920F920FB645
:100250000F9211242F933F934F935F936F937F934C
:100260008F939F93AF93BF93EF93FF930E94DA080E
:10027000FF91EF91BF91AF919F918F917F916F917E
:100280005F914F913F912F910F900FBE0F901F9054
:1002900018958FEF0E944C0848E16FE574E080E00C
:1002A0000E940E0882E00E942D0880915A0481115C
:1002B00002C00C944C080895CF92DF92EF92FF9207
:1002C0000F931F93CF93DF93EB0100E010E0C12C5D
:1002D000D12C76010C171D077CF480E00E94EA15F2
:1002E000DC01B2509D010E94861DC60ED71EE81E7D
:1002F000F91E0F5F1F4FEECFC701B6010E94D11B41
:100300006B017C01BE01882777FD8095982F0E94A4
:10031000D31B9B01AC01C701B6010E94381BDF91C2
:10032000CF911F910F91FF90EF90DF90CF900C94A1
:10033000EE1CCF92DF92EF92FF920F931F93CF9319
:10034000DF9361E086E00E94521561E083E10E9444
:10035000521560E083E00E945215109276041092CC
:10036000750461E086E00E948B1526E040E855E2C6
:1003700060E070E080EA96E00E946D1A6CE071E047
:1003800080EA96E00E94921765E371E080EA96E0C9
:100390000E9492176BE471E080EA96E00E94921747
:1003A00062E088E00E94521562E089E00E945215E6
:1003B00088E00E94C115892B29F4809106018150A3
:1003C0008093060189E00E94C115892B19F481E010
:1003D0008093C9048091C904882361F080E090E093
:1003E000A2E0B3E48093070190930801A093090170
:1003F000B0930A016AE070E080E090E00E94BC14D3
:1004000020E436E042ED62E0809106010E94A307FD
:10041000CAE0D0E0D0936004C0935F0448E16FE588
:1004200074E080E00E940E0864E670E080E090E0F6
:100430000E94BC14219770F782E00E942D08109250
:10044000600410925F0481E00E94EA1518161906F4
:100450004CF481E080935E04809157048F5F809319
:10046000570402C010925E0482E00E94EA1518163A
:1004700019064CF481E080935D04809157048F5FEE
:100480008093570402C010925D0483E00E94EA1535
:10049000181619064CF481E080935C04809157048F
:1004A0008F5F8093570402C010925C0484E00E9426
:1004B000EA15181619064CF481E080935B048091CC
:1004C00057048F5F8093570402C010925B048091A1
:1004D0005704811103C081E080935E0480E197E2BC
:1004E0000E94850860E086E00E948B1564EF76E04C
:1004F00080E090E00E945C0122E538EB4EE55FE38E
:100500000E94871C6B017C0120E030E044EB52E448
:100510000E94831C181624F481E080935A0402C0C0
:1005200010925A0480915A048823C9F0CAE0D0E09E
:1005300061E086E00E948B1568EC70E080E090E05E
:100540000E94BC1460E086E00E948B156CE271E0B2
:1005500080E090E00E94BC14219751F714C068EE2F
:1005600073E080E090E00E94BC1461E086E00E94AD
:100570008B1560ED77E080E090E00E94BC1460E0B5
:1005800086E00E948B1561E083E10E948B1564E692
:1005900070E080E090E00E94BC1488EA94E00E9441
:1005A0007A1260E088EA94E00E94E21288EA94E01D
:1005B0000E94F310873008F086E080937704C0E053
:1005C00080917704C81770F488E0C89FB0011124A7
:1005D00068587B4F8BEB94E00E943F10882311F00A
:1005E000CF5FEECF64EF71E080E090E00E94BC143A
:1005F00060E083E10E948B1580917704811103C034
:100600001092580403C081E08093580481E08093E5
:1006100059046DE571E080EA96E00E94751722E0CA
:1006200030E04DEC5CEC65EB72E480EA96E00E9411
:10063000681960E771E080EA96E00E94751722E091
:1006400030E04DEC5CEC65EB72E480EA96E00E94F1
:10065000681963E871E080EA96E00E94751722E06D
:1006600030E04DEC5CEC65EB72E480EA96E00E94D1
:10067000681966E971E080EA96E00E94751722E049
:1006800030E049E25CE565E871E480EA96E00E94CA
:10069000681968EE73E080E090E00E94BC1469EA9B
:1006A00071E080EA96E00E94751720E030E0B70123
:1006B000A60180EA96E00E94661962ED71E080EA88
:1006C00096E00E94921780915A048823D9F164ED34
:1006D00071E080EA96E00E9492176DE072E080EA95
:1006E00096E00E9492178091C904882331F062E459
:1006F00072E080EA96E00E94921765E572E080EA77
:1007000096E00E9475174091070150910801609191
:10071000090170910A0122E030E080EA96E00E942F
:1007200068196CE572E080EA96E00E94751722E095
:1007300030E04AE959E969ED7FE380EA96E00E94FA
:1007400068191FC06AE672E080EA96E00E9492177C
:100750006BEA72E080EA96E00E9475174AE050E08A
:1007600066EE80EA96E00E94741862ED71E080EA1D
:1007700096E00E94921760EC72E080EA96E00E9498
:10078000921780915704811103C066E073E024C082
:1007900080915E04882331F065E373E080EA96E09F
:1007A0000E94921780915D04882331F063E473E026
:1007B00080EA96E00E94921780915C04882331F0D1
:1007C00061E573E080EA96E00E94921780915B04F5
:1007D000882331F06FE573E080EA96E00E9492177B
:1007E00080915804882389F06DE673E080EA96E0F2
:1007F0000E9475174AE050E06091770480EA96E025
:100800000E94741867E773E002C064EA73E080EA4C
:1008100096E00E94921760ED73E080EA96E00E94F5
:10082000921764EE73E080EA96E00E9475174AE042
:1008300050E06091060180EA96E00E9474186BEE29
:1008400073E080EA96E00E94751763EF73E080EA38
:1008500096E00E9475176AEF73E080EA96E00E94C6
:1008600075174AE050E062ED70E080EA96E00E9481
:100870004F1865E074E080EA96E00E947517809159
:100880005804882371F065E274E080EA96E00E94E3
:1008900075174AE050E06091770480EA96E00E9484
:1008A000741862EE73E080EA96E00E94921764EF9B
:1008B00071E080E090E00E94BC1480915E04882387
:1008C00051F02DEC3CEC45EB52E461E070E08EED34
:1008D00095E00E94FF0A80915D04882351F02DEC81
:1008E0003CEC45EB52E462E070E082E895E00E9467
:1008F000FF0A80915C04882351F02DEC3CEC45EB21
:1009000052E463E070E086E295E00E94FF0A809185
:100910005B04882351F029E23CE545E851E464E0BA
:1009200070E08AEC94E00E94FF0A80915A048823C8
:1009300009F460C080915E048823A1F02091070132
:10094000309108014091090150910A011AE9E12E04
:1009500019E9F12E09ED1FE360E070E08EED95E0FE
:100960000E94E30A80915D048823A1F02091070191
:10097000309108014091090150910A011AE9E12ED4
:1009800019E9F12E09ED1FE360E070E082E895E0DF
:100990000E94E30A80915C048823A1F02091070162
:1009A000309108014091090150910A011AE9E12EA4
:1009B00019E9F12E09ED1FE360E070E086E295E0B1
:1009C0000E94E30A80915B048823A1F02091070133
:1009D000309108014091090150910A011AE9E12E74
:1009E00019E9F12E09ED1FE360E070E08AEC94E074
:1009F0000E94E30A8091580481110FC042E050E048
:100A00006FE171E081E0DF91CF911F910F91FF9035
:100A1000EF90DF90CF900C940816DF91CF911F914B
:100A20000F91FF90EF90DF90CF900895CF92DF92DB
:100A3000EF92FF9298E0899FB001112468587B4F94
:100A400088EA94E00E9413146B017C0120E030E0FE
:100A50004AEF52E40E94341B87FF16C020E030E0CA
:100A60004CE552ECC701B6010E94831C181664F4D1
:100A700020E030E040E251E4C701B6010E94871C4B
:100A80000E94A01BCB0100C0FF90EF90DF90CF90A1
:100A900008950F931F93CF93DF9380915A04882377
:100AA00051F068EC70E080E090E00E94BC1410927D
:100AB00068041092670480915E04882309F441C0A1
:100AC00080915A04882359F140ED57E064E170E0C9
:100AD0008EED95E00E94360B6091DE057091DF058A
:100AE0008091E0059091E1050E94A01B7093600445
:100AF00060935F0420E030E048EC52E46091EA0546
:100B00007091EB058091EC059091ED050E94871C9A
:100B10000E94A01B709368046093670412C068EC85
:100B200075E08EED95E00E94070E20E030E046E68D
:100B300053E40E94871C0E94A01B70936004609382
:100B40005F0480915D04882309F441C080915A04B8
:100B5000882359F140ED57E064E170E082E895E0C8
:100B60000E94360B60918205709183058091840507
:100B7000909185050E94A01B7093620460936104AC
:100B800020E030E048EC52E460918E0570918F05D2
:100B900080919005909191050E94871C0E94A01B56
:100BA000709368046093670412C068EC75E082E893
:100BB00095E00E94070E20E030E046E653E40E94F4
:100BC000871C0E94A01B7093620460936104809153
:100BD0005C04882309F441C080915A04882359F1A8
:100BE00040ED57E064E170E086E295E00E94360B4C
:100BF000609126057091270580912805909129051F
:100C00000E94A01B709364046093630420E030E0B2
:100C100048EC52E4609132057091330580913405BF
:100C2000909135050E94871C0E94A01B7093680458
:100C30006093670412C068EC75E086E295E00E945C
:100C4000070E20E030E046E653E40E94871C0E9435
:100C5000A01B709364046093630480915B048823F9
:100C600009F441C080915A04882359F140ED57E0BE
:100C700064E170E08AEC94E00E94360B6091CA0453
:100C80007091CB048091CC049091CD040E94A01B64
:100C9000709366046093650420E030E048EC52E411
:100CA0006091D6047091D7048091D8049091D904B2
:100CB0000E94871C0E94A01B7093680460936704C5
:100CC00012C068EC75E08AEC94E00E94070E20E008
:100CD00030E046E653E40E94871C0E94A01B7093FC
:100CE00066046093650480915A04811116C087E000
:100CF0000E94EA15BC01882777FD8095982F0E94F5
:100D0000D31B2BE23BE64EE25FE30E94871C0E946E
:100D1000A01B709368046093670480915804882333
:100D2000D1F161E083E10E948B1582E390E00E94A3
:100D3000850808E714E0C0E0D0E08091770490E0F7
:100D4000C817D90754F44BE0B80188EA94E00E9430
:100D500004122196085F1F4FF0CF88EA94E00E94AA
:100D60004F1387E791E00E948508C0E080917704E7
:100D7000C81768F48C2F0E941605EC2FF0E0EE0FD8
:100D8000FF1FE759FB4F91838083CF5FEFCF60E078
:100D900083E10E948B1580915604882371F0209185
:100DA00056048091750490917604820F911D909362
:100DB0007604809375041092560480915904882318
:100DC00009F48CC060915F04709160044AE050E0C7
:100DD00080EA96E00E94471862EE73E080EA96E0AF
:100DE0000E94751760916104709162044AE050E0BE
:100DF00080EA96E00E94471862EE73E080EA96E08F
:100E00000E94751760916304709164044AE050E099
:100E100080EA96E00E94471862EE73E080EA96E06E
:100E20000E94751760916504709166044AE050E075
:100E300080EA96E00E94471862EE73E080EA96E04E
:100E40000E94751760916704709168044AE050E051
:100E500080EA96E00E94471862EE73E080EA96E02E
:100E60000E94751760917504709176044AE050E015
:100E700080EA96E00E94471862EE73E080EA96E00E
:100E80000E9475178091580481110DC062EE73E0C5
:100E900080EA96E00E94921762E370E080E090E0C2
:100EA0000E94BC141BC0C0E080917704C81770F783
:100EB000EC2FF0E0EE0FFF1FE759FB4F60817181CF
:100EC0004AE050E080EA96E00E94471862EE73E044
:100ED00080EA96E00E947517CF5FE6CF80915A04B2
:100EE000882371F061E086E00E948B1568EC70E069
:100EF00080E090E00E94BC1460E086E00E948B15C8
:100F00000E94490180915A04882351F060E177E200
:100F100080E090E0DF91CF911F910F910C94BC1471
:100F200080E197E2DF91CF911F910F910C9485089A
:100F300065E08BEB94E00E941C106BEB74E088EA98
:100F400094E00C94E410CF92DF92EF92FF921F9303
:100F5000CF93DF93C82F162FD42FF901AFEFA60F31
:100F6000A33028F4B0E0AB5CBB4FAC9101C0A0E073
:100F7000B0E020E836E948E950E00E94A41D6B018A
:100F80007C01212F30E0A4ECB9E00E948E1DDF012E
:100F90009B01AC010E94A41DC60ED71EE81EF91EBF
:100FA000C701B6010E942009D0938E068C2F8F7145
:100FB00080938D0664E170E080E090E00E94BC14B4
:100FC00080918D06882341F043E050E066E87AE0A6
:100FD00080E00E94081603C080E00E9428160E944C
:100FE0006009C0933A068C2FDF91CF911F91FF903B
:100FF000EF90DF90CF9008958BE396E00E94B909BF
:101000009093840680938306209183063091840612
:1010100081E02F3F3F4F09F480E00895EF92FF9267
:101020001F93CF93DF931F92CDB7DEB7182F7B01AD
:1010300049830E943D094981811105C049830E946D
:10104000FC074981F5CFB701812F0F90DF91CF9138
:101050001F91FF90EF900C94120ACF93C82F0E941B
:101060004E098823B9F0CC23D1F383B7817FC330F5
:1010700021F0C23021F49CE003C094E001C090E074
:10108000892B83BF83B7816083BF889583B78E7FA9
:1010900083BFE5CFCF91089591E0811190E0892F32
:1010A0000C94550983FF02C098E2892787FD02C08E
:1010B000806401C080E094B7977F94BFF8949091CA
:1010C0006000986190936000809360007894089528
:1010D000EAE7F0E0908180818F77808383B7817F1A
:1010E000846083BFF89483B7816083BF85B78066CF
:1010F00085BF85B78F79806485BF7894889583B7DD
:101100008E7F83BF90937A000895DF92EF92FF92D3
:101110000F931F93CF93DF938C01EC0128E0E22E15
:10112000F12CC031D10538F19E01D12C203231058E
:1011300038F0D39489E0D81619F036952795F6CF74
:10114000109285068D2D0E9452080E9468088FEF2C
:101150000E945208C70102C0880F991FDA94E2F773
:10116000C81BD90B20918506222319F0C81BD90B67
:10117000D8CF80E001C081E040919406509195065F
:1011800060919606709197060C1B1D0B400F511F26
:10119000611D711D409394065093950660939606C9
:1011A00070939706DF91CF911F910F91FF90EF9071
:1011B000DF900895809185068F5F8093850608955E
:1011C0008627682F62956827062E669566956025A6
:1011D000062E669560256770082E892F6695079400
:1011E0006795902D86270694679590258627089504
:1011F000E8982A988EBD0DB407FEFDCF8EB56EBD62
:101200000DB407FEFDCF8EB52A9AE89A089560E0E6
:101210000C94F80888E20E940709807521F080E0AC
:101220000E940709F7CF0895CF93C82F81E00E944D
:101230000709682F637E6C2B81E8CF910C94F80826
:1012400022E0660F771F881F991F2A95D1F729E0A2
:101250003DE340E050E00E94451D66E0220F331F51
:10126000441F551F6A95D1F720938F06309390063F
:101270004093910650939206089580918806853098
:1012800021F480918906882311F080E0089584E09C
:10129000809388060E94140981E008959091880641
:1012A00081E094300CF080E00895882311F080E014
:1012B00001C084E00E94140984E0809388060895A8
:1012C000CF93DF932A9A229A2A9A84B18C6284B9A6
:1012D00080E58CBD8DB581608DBD6AEA8FEA0E9484
:1012E000F8088FE20E9407098A3AB9F765E58FEAA4
:1012F0000E94F8088FE20E9407098535B9F7C8E611
:10130000D0E0FE018491882339F0319664918068A1
:101310000E94F8082296F5CF60918E0680EB0E941D
:10132000F80880918F0690919006A0919106B09157
:101330009206BD018827992787E80E94F8088091C6
:101340008F0690919006A0919106B0919206692F18
:101350007A2F8B2F992788E80E94F80860918F06D2
:1013600089E80E94F80884E080938806DF91CF9195
:101370000895CF93DF93EC0180918806843019F0B3
:101380008530E1F045C010923D06109289066091CB
:101390008E068FEF9FEF0E94E00890938C0680935B
:1013A0008B06D0938706C093860685E080938806D7
:1013B0000E940A0980E10E9414092AC080913D061A
:1013C0002091890690E0049630E08217930724F07C
:1013D000809189068834E0F084E0809388060E943A
:1013E000140980913D06833430F081E090E09093C1
:1013F0008C0680938B0680913C0686FF0CC09091F2
:101400008D069F3141F080913C068F71891719F04C
:101410008FEF9FEF04C080918B0690918C06DF9137
:10142000CF910895CF9340933D06FB0120E030E03B
:1014300050E02417350744F4D901A25CB94F9191CB
:101440009C932F5F3F4FF5CF86FD04C0807E909127
:101450008D06890F80933C0660918E068FEF9FEF7B
:101460000E94E008909384068093830690913D0645
:101470008EEF891B809388060E940A098CE00E94E7
:10148000140960E085EA0E94F8088091880683309C
:10149000DCF588E20E94070987FDF7CF8091880676
:1014A00087FF1BC090913D0680918806E0918606DB
:1014B000F0918706E90FF11DE80FF11D87FDFA9500
:1014C000C3816C2F80918B0690918C060E94E0085E
:1014D00090938C0680938B060DC08091880688239C
:1014E00029F0813031F4C0918C0604C0C0918B0684
:1014F00001C0CAEA6C2F80E80E94F8088091880633
:101500008F5F80938806C1CFCF9108958091880620
:10151000853009F049C084E20E94070980938A0659
:10152000789488E20E9407098075D9F38091890632
:1015300081110FC0E0918606F0918706809189069F
:1015400091E0980F9093890690918E06E80FF11D17
:10155000908380E00E940709E0918606F09187065B
:101560009091890621E0290F20938906E90FF11D4A
:101570008083682F80918B0690918C060E94E008F2
:1015800090938C0680938B0680913D06209189066E
:1015900090E0049630E082179307A4F080918906CA
:1015A000883408F4BECF089588E20E94070983FFBB
:1015B00009C084E0809388060E94140960E885EAE7
:1015C0000C94F8080895EF92FF920F931F93FC017B
:1015D000758B648B208F318F428F538FE0A2F1A2E5
:1015E00002A313A340E050E060E074E444AB55ABC9
:1015F00066AB77AB1F910F91FF90EF900895FC01C0
:10160000778B668B248F358F468F578F40E050E065
:1016100060E074E440AF51AF62AF73AF08958EE401
:1016200080937C0062E070E080E090E00E94BC1457
:1016300080917A00806480937A0080917A0086FDA0
:10164000FCCF809178002091790030E0322F222762
:10165000442737FD4095542F282B60E070E381E14B
:1016600090E00E94671DCA01B90108952F923F9230
:101670004F925F926F927F928F929F92AF92BF92A2
:10168000CF92DF92EF92FF920F931F93CF93DF934E
:10169000CDB7DEB7A8970FB6F894DEBF0FBECDBFAB
:1016A00098A78FA37E8F6D8F8A010E940F0B6D8B81
:1016B0007E8B8F8B988F0E948D144B015C016FA0E5
:1016C00078A428E5620E711CC801A0E0B0E0898B07
:1016D0009A8BAB8BBC8BAFA1B8A554968C910E9412
:1016E000EA15F30191838083BC01882777FD8095FB
:1016F000982F0E94D31B6B017C012DEC3CEC4CE03D
:1017000054E40E94341B87FF0BC011E026E636E646
:1017100046EE53E4C701B6010E94831C18160CF074
:1017200010E00E948D14681979098A099B0929899A
:101730003A894B895C89261737074807590708F00B
:1017400040C00E948D14698F7A8F8B8F9C8F00E030
:1017500010E01A8219824FA158A5405C5F4F58A330
:101760004F8F8FA198A58C5B9F4F9C878B87AFA1D4
:10177000B8A5A85BBF4FBAA3A9A3EFA1F8A5E45BE6
:10178000FF4FFE87ED872FA138A5205B3F4F3CA37D
:101790002BA34FA158A54C5A5F4F588B4F878FA151
:1017A00098A5865A9F4F9E838D832FA038A49BE5D2
:1017B000290E311CAFA1B8A5A85ABF4FBEA3ADA337
:1017C00044C1112309F487CFBCCF0E948D14298D09
:1017D0003A8D4B8D5C8D621B730B840B950B2989A5
:1017E0003A894B895C89621773078407950708F06B
:1017F00034C10F5F1F4FEFA1F8A584A595A5A6A53D
:10180000B7A580A791A7A2A7B3A784890E94EA15CC
:10181000AFA1B8A595969C938E93949756968C916C
:101820000E94EA153C01EFA1F8A597A386A324A185
:1018300035A13A872987B901882777FD8095982FA8
:101840000E94D31B6B017C01AFA1B8A5D4968D90EB
:101850009D90AD90BC90D797A50194010E94CF1A9E
:1018600020E030E040E85AE30E94871C9B01AC0175
:10187000C501B4010E94D01A9B01AC01EFA1F8A5EB
:1018800064AB75AB86AB97ABC701B6010E94CF1AAC
:101890004B015C01AFA1B8A59C966D937D938D9390
:1018A0009C939F97B301882777FD8095982F0E947E
:1018B000D31B6B017C01EFA1F8A540AC51AC62AC2D
:1018C00073ACA30192010E94CF1A20E030E040E8FF
:1018D0005AE30E94871C9B01AC01C301B2010E9424
:1018E000D01A9B01AC01AFA1B8A5D8966D937D939A
:1018F0008D939C93DB97C701B6010E94CF1A6B01B1
:101900007C01EFA1F8A560AB71AB82AB93ABA501F5
:101910009401C501B4010E94871C9B01AC01AF8DED
:10192000B8A16D937D938D939C931397EB85FC8564
:1019300060817181828193810E94D01AAB85BC85C0
:101940006D937D938D939C931397A7019601C70187
:10195000B6010E94871C9B01AC01E9A1FAA160833A
:10196000718382839383AD85BE856D917D918D91C9
:101970009C910E94D01AED85FE85608371838283DD
:101980009383AFA1B8A598964D905D906D907C9093
:101990009B97A3019201C501B4010E94CF1AEFA148
:1019A000F8A520A131A142A153A10E94871C9B014F
:1019B000AC01C301B2010E94D01AAFA1B8A5DC9658
:1019C0006D937D938D939C93DF97A70196010E9461
:1019D000871C9B01AC01EBA1FCA160837183828316
:1019E0009383AF85B8896D917D918D919C910E9473
:1019F000D01AEF85F8896083718382839383D10144
:101A00008C91ED81FE818083ADA1BEA18D919C91D1
:101A1000E985FA858E179F070CF0F6C021E0F101E9
:101A200020830130110529F4F1018081AD81BE814F
:101A30008C93ED81FE819081D1018C91981729F0D2
:101A4000E981FA813196FA83E98329813A814D8DC2
:101A50005E8D2417350708F4B8CEAD89BE89BD0167
:101A6000882777FD8095982F0E94D31B20E030E0D7
:101A70004AE754E40E94381B20E030E040E85AE393
:101A80000E94871C2B013C01EFA1F8A5208D318D10
:101A9000428D538D0E94871C4B015C01B80180E090
:101AA00090E00E94D11B6B017C012FA038A4F4E4CC
:101AB0002F0E311C9B01AC01D1016D917D918D9157
:101AC0009C910E94381B0E94EE1C9B01AC01C50139
:101AD000B4010E94871C69837A838B839C83EFA166
:101AE000F8A56487758786879787248D358D468D01
:101AF000578DC301B2010E94871C2B013C010FA12D
:101B000018A5045B1F4FA7019601D8016D917D9127
:101B10008D919C910E94381B0E94EE1C9B01AC0190
:101B2000C301B2010E94871C6D837E838F839887D7
:101B3000EFA1F8A5608B718B828B938BA30192012F
:101B4000C501B4010E94871CAFA0B8A4F4E5AF0E94
:101B5000B11CD5012D913D914D915C910E94871C46
:101B6000A70196010E94381B6B017C01EFA1F8A52B
:101B700060837183828393832D813E814F81588559
:101B800069817A818B819C810E94871C9B01AC01B9
:101B9000AFA1B8A514966D937D938D939C931797E1
:101BA000C701B6010E94381BEFA1F8A560877187B5
:101BB00082879387D1011D921D921D921C921397CB
:101BC000F8011082118212821382D5011D921D929A
:101BD0001D921C921397A8960FB6F894DEBF0FBE05
:101BE000CDBFDF91CF911F910F91FF90EF90DF90CC
:101BF000CF90BF90AF909F908F907F906F905F90AD
:101C00004F903F902F900895D1011C920ACF2F92B0
:101C10003F924F925F926F927F928F929F92AF927C
:101C2000BF92CF92DF92EF92FF920F931F93CF93C9
:101C3000DF9300D000D000D0CDB7DEB79E838D8378
:101C40007A8369830E940F0B2B013C0100E010E0B6
:101C50008D819E81845B9F4F1C01ED81FE81E85B3D
:101C6000FF4FFC83EB8389819A810817190709F4D8
:101C700055C0ED81FE8186890E94EA15ED81FE81C5
:101C800097A386A3BC01882777FD8095982F0E9493
:101C9000D31B6B017C01ED81FE8180AC91ACA2ACC9
:101CA000B3ACA50194010E94CF1A20E030E040E8D7
:101CB0005AE30E94871C9B01AC01C501B4010E943C
:101CC000D01A9B01AC01ED81FE8160AF71AF82AF94
:101CD00093AFC701B6010E94CF1AED81FE8160ABC0
:101CE00071AB82AB93AB9B01AC010E94871C9B0143
:101CF000AC01EB81FC816083718382839383F1016A
:101D000060817181828193810E94D01AF101608388
:101D10007183828393830F5F1F4FA5CFB80180E04B
:101D200090E00E94D11B9B01AC01F10160817181A7
:101D3000828193810E94381B0E94EE1C6B017C0102
:101D4000B201882777FD8095982F0E94D31B20E051
:101D500030E04AE754E40E94381B20E030E040E8DD
:101D60005AE30E94871CED81FE81248D358D468DBE
:101D7000578D0E94871CA70196010E94871CED8148
:101D8000FE81608B718B828B938BF10110821182AB
:101D90001282138226960FB6F894DEBF0FBECDBF17
:101DA000DF91CF911F910F91FF90EF90DF90CF9037
:101DB000BF90AF909F908F907F906F905F904F906B
:101DC0003F902F900895FF920F931F93CF93DF932F
:101DD000FC010081C181D281F8948981F02EF094B8
:101DE0008F21898378941DE7115029F182E090E0DA
:101DF0000E94E41488818023B9F3F8948A818F21AA
:101E00008A838981802B8983789480EE91E00E9477
:101E1000E414F89489818F21898386E490E00E94FC
:101E2000E4148881802311E009F010E078948AE9B5
:101E300091E00E94E414812FDF91CF911F910F91C7
:101E4000FF9008951F93CF93DF93FC011081C18110
:101E5000D281912F909560FF12C0F8948A818923D6
:101E60008A838981812B89838AE090E00E94E4142F
:101E70008A81812B8A83789487E390E011C0F8945B
:101E80008A8189238A838981812B898381E490E0F7
:101E90000E94E4148A81812B8A83789485E090E003
:101EA000DF91CF911F910C94E4140F931F93CF9364
:101EB000DF93FC011081C181D281F8948981812B4B
:101EC00089838A81012F009580238A8383E090E0B3
:101ED0000E94E4148981802389838AE090E00E9433
:101EE000E414C881789485E390E00E94E4141C23F4
:101EF00081E009F480E0DF91CF911F910F91089567
:101F0000CF92DF92EF92FF920F931F93CF93DF93C5
:101F10001F92CDB7DEB76C01E62E08E010E0FF247B
:101F2000F39461E09F2D9E2109F460E0C60149838E
:101F30000E94220FFF0C0150110949810115110562
:101F400081F7411115C0F894D6011196ED91FC91DD
:101F5000129791818C918095892381831196ED91BF
:101F6000FC91129792818C91809589238283789439
:101F70000F90DF91CF911F910F91FF90EF90DF9025
:101F8000CF900895EF92FF920F931F93CF93DF931B
:101F90008C01C8E0D0E0F12CEE24E394C8010E944B
:101FA000550F8111FE28EE0C2197C1F78F2DDF917F
:101FB000CF911F910F91FF90EF900895CF92DF92F4
:101FC000FF920F931F93CF93DF931F92CDB7DEB78E
:101FD0008C01F62E40E065E579830E94800FCF2CBE
:101FE0007981D72E88E0F82EF60161916F0140E0EB
:101FF000C8010E94800FFA94B9F70F90DF91CF913A
:102000001F910F91FF90DF90CF90089540E06CEC0E
:102010000C94800FFC0113861586148627E030E0AF
:10202000DF01A20FB31F13961C922115310519F081
:1020300021503109F5CF08951F93CF93DF93EC0121
:10204000162F60E0812F0E945215612F70E0FB0176
:10205000E156FE4FE491E883FB01ED54FE4FE4911D
:10206000F0E0EE0FFF1FE953FE4F859194919A83A4
:102070008983CE01DF91CF911F910C940A10AF920A
:10208000BF92CF92DF92EF92FF920F931F93CF9365
:10209000DF931F92CDB7DEB75C01E62ED72EFC0191
:1020A000858581115DC0C5010E94E30E811105C0C7
:1020B000F5011386158614866EC040E060EFC501F9
:1020C0000E94800F01E0F12CC12C11E0C5010E949B
:1020D000550F682FC50169830E94550F69816130D2
:1020E00019F48130B9F433C02F2D30E068131BC0D0
:1020F000F5018385181730F4E20FF31F83818023E5
:1021000049F402C0181731F060E0193058F4F501B5
:10211000148708C0F501EF0DF11D8381802B8383A7
:1021200061E009C0C12EF501E20FF31F8381902FFA
:10213000909589238383C5010E94220F1F5F000FA2
:1021400011F4F39401E0F7E0FF1508F0BFCF11346C
:1021500038F0F501C386C11018C081E0858715C02D
:10216000F50113861586148680E0EE2DFD2D20E006
:1021700030E0D501A20FB31F13969C9191932F5F6E
:102180003F4F28303105A9F706C0F5018381882328
:1021900039F381E0EACF0F90DF91CF911F910F913A
:1021A000FF90EF90DF90CF90BF90AF900895DC014B
:1021B00080E0615038F0ED91E827F0E0E557FF4FFF
:1021C0008491F7CF08950895FC0183EE90E1928BFE
:1021D000818B768365831482108289E0818381E01C
:1021E000828383830895FC0184810895CF93DF93D4
:1021F000EB0167E0CE010E94D71091E02F8182139E
:1022000090E0892FDF91CF910895EF92FF920F9385
:102210001F93CF93DF9300D0CDB7DEB77C018A0147
:10222000FC018581968169837A830E94E30E69812E
:102230007A81F701858196810E94DE0F40E06EEB86
:10224000F701858196810E94800FF7018581968133
:102250000E94C20FF8018083F701858196810E9458
:10226000C20FF8018183F701858196810E94C20F18
:10227000F8018283F701858196810E94C20FF801DF
:102280008383F701858196810E94C20FF8018483C0
:10229000F701858196810E94C20FF8018583F701BD
:1022A000858196810E94C20FF8018683F70185819E
:1022B00096810E94C20FF8018783F701858196817C
:1022C0000E94C20FF8018087F701858196810F90E7
:1022D0000F90DF91CF911F910F91FF90EF900C9491
:1022E000E30ECF93DF93EA010E94051168E0CE016F
:1022F0000E94D71091E02885821390E0892FDF910A
:10230000CF910895EF92FF920F931F93CF93DF9396
:10231000EC017B018A018D819E810E94E30EB70151
:102320008D819E810E94DE0F40E06EE48D819E8152
:102330000E94800F40E0F80162818D819E810E94A1
:10234000800F40E0F80163818D819E810E94800FA3
:10235000F7018081803139F040E0F80164818D819E
:102360009E810E94800F8D819E810E94E30E488194
:1023700068E48D819E810E94800F8881882331F0DE
:102380006AE070E080E090E00E94BC148D819E8144
:10239000DF91CF911F910F91FF90EF900C94E30E7E
:1023A000EF92FF921F93CF93DF9300D0CDB7DEB7AC
:1023B0007C01FC018581968169837A830E94E30E0A
:1023C00069817A81F701858196810E94DE0F40E064
:1023D00064EBF701858196810E94800FF70185816A
:1023E00096810E94550F182FF701858196810E94D2
:1023F000E30E81E0111180E00F900F90DF91CF91FB
:102400001F91FF90EF900895EF92FF920F931F930B
:10241000CF93DF93CDB7DEB72A970FB6F894DEBF20
:102420000FBECDBF7C018B01242FAE014F5F5F4FEC
:102430002A870E9471112A858823D1F0F8018081B2
:102440008031C1F02B3041F02C3021F02A3031F4B2
:102450008FE305C08FE703C08FE501C08FE18D8357
:10246000AE014F5F5F4FB801C7010E94821102C0E9
:1024700080E001C081E02A960FB6F894DEBF0FBE5F
:10248000CDBFDF91CF911F910F91FF90EF900895F5
:10249000CF93DF93CDB7DEB729970FB6F894DEBFA1
:1024A0000FBECDBFFB0120812031D1F0AE014F5FC7
:1024B0005F4F0E947111882379F08D818F3351F025
:1024C00018F48F3169F008C08F3541F08F3721F44F
:1024D0008CE007C08AE005C080E003C08BE001C04B
:1024E00089E029960FB6F894DEBF0FBECDBFDF910D
:1024F000CF910895EF92FF920F931F93CF93DF93A5
:10250000CDB7DEB761970FB6F894DEBF0FBECDBF73
:102510008C01FC01858196810E940A10F8011482C9
:10252000FF24F394BE01665F7F4FF8018581968199
:102530000E943F108823C9F1BE01665F7F4FC8012A
:102540000E94F610882371F3F8018081811108C080
:10255000BE01665F7F4FC8010E94D011811122C069
:10256000AE014F5F5F4FBE01665F7F4FC8010E94A3
:102570000511F801E180BE01665F7F4FC8010E942E
:1025800048128E1518F4F801818106C0BE01665FFD
:102590007F4FC8010E944812F801818384818F5FB8
:1025A0008483C0CFF801F082DBCF61960FB6F89438
:1025B000DEBF0FBECDBFDF91CF911F910F91FF9076
:1025C000EF900895FC0162830895CF93DF93CDB718
:1025D000DEB729970FB6F894DEBF0FBECDBFAE01B0
:1025E0004F5F5F4F0E94051181E09981911101C0F9
:1025F00080E029960FB6F894DEBF0FBECDBFDF9105
:10260000CF910895CF92DF92EF92FF920F931F9395
:10261000CF93DF93EC018B01452BE1F08B81882375
:10262000C9F08881811116C00E948D146B017C0154
:1026300060E070E0CE010E94E51281110BC00E94A3
:102640008D146C197D098E099F096E3E72408105BB
:10265000910570F3F80180818A3049F08B3061F088
:10266000893079F46EE570E080E090E00EC06CEBAC
:1026700070E080E090E009C067E771E080E090E002
:1026800004C06EEE72E080E090E0DF91CF911F9188
:102690000F91FF90EF90DF90CF900C94BC14CF93EC
:1026A000DF93EC018D819E810E94E30E8D819E81DE
:1026B0000E940610488164E48D819E810E94800FF3
:1026C0008A81882351F0BE016F5F7F4F40E050E068
:1026D000CE01DF91CF910C940213DF91CF91089539
:1026E0008F929F92AF92BF92CF92DF92EF92FF9222
:1026F0001F93CF93DF93FB01EA01698170E0762F8E
:1027000066278881682B80818232B1F18832A1F1FD
:10271000803109F078C01F8175956795882777FD0E
:102720008095982F0E94D31B20E030E040E85EE3C4
:102730000E94CF1A6B017C01612F70E08E81681BB3
:102740007109882777FD8095982F0E94D31B4B0134
:102750005C01612F70E080E090E00E94D11B9B0142
:10276000AC01C501B4010E94381B9B01AC01C7013B
:10277000B6010E94D01A43C08C818F3381F198F446
:102780008F3109F040C093E0759567959A95E1F710
:10279000882777FD8095982F0E94D31B20E030E09A
:1027A00040E05FE32AC08F3569F08F3761F58827F5
:1027B00077FD8095982F0E94D31B20E030E040E801
:1027C0005DE31BC075956795882777FD8095982FE9
:1027D0000E94D31B20E030E040E05EE30EC0759520
:1027E000679575956795882777FD8095982F0E9446
:1027F000D31B20E030E040E85EE30E94871C562FA8
:10280000472F382F292F652F742F832F922FDF9179
:10281000CF911F91FF90EF90DF90CF90BF90AF903E
:102820009F908F900895EF92FF920F931F93CF93F5
:10283000DF93CDB7DEB729970FB6F894DEBF0FBE92
:10284000CDBF8C017B01AE014F5F5F4F0E947111C4
:10285000882341F0AE014F5F5F4FB701C8010E946E
:10286000701304C060E070E08EEF92EC29960FB612
:10287000F894DEBF0FBECDBFDF91CF911F910F91B6
:10288000FF90EF9008951F920F920FB60F921124B0
:102890002F933F938F939F93AF93BF938091940611
:1028A00090919506A0919606B09197063091930667
:1028B00023E0230F2D3720F40196A11DB11D05C083
:1028C00026E8230F0296A11DB11D20939306809345
:1028D000940690939506A0939606B09397068091E0
:1028E000980690919906A0919A06B0919B06019640
:1028F000A11DB11D8093980690939906A0939A0606
:10290000B0939B06BF91AF919F918F913F912F9173
:102910000F900FBE0F901F9018952FB7F8946091ED
:1029200094067091950680919606909197062FBF18
:1029300008953FB7F8948091980690919906A091D8
:102940009A06B0919B0626B5A89B05C02F3F19F0AB
:102950000196A11DB11D3FBF6627782F892F9A2FA1
:10296000620F711D811D911D42E0660F771F881F48
:10297000991F4A95D1F70895CF92DF92EF92FF9277
:10298000CF93DF936B017C010E949914EB01C1147A
:10299000D104E104F10489F00E9407160E94991401
:1029A0006C1B7D0B683E734090F381E0C81AD10820
:1029B000E108F108C851DC4FEACFDF91CF91FF90D9
:1029C000EF90DF90CF900895019739F0880F991F0D
:1029D000880F991F02970197F1F70895789484B5AD
:1029E000826084BD84B5816084BD85B5826085BD0B
:1029F00085B5816085BDEEE6F0E0808181608083F1
:102A0000E1E8F0E0108280818260808380818160D3
:102A10008083E0E8F0E0808181608083E1EBF0E09A
:102A2000808184608083E0EBF0E08081816080833E
:102A3000EAE7F0E080818460808380818260808327
:102A40008081816080838081806880831092C10052
:102A50000895833081F028F4813099F08230A1F01C
:102A600008958730A9F08830B9F08430D1F480918E
:102A700080008F7D03C0809180008F7780938000DD
:102A8000089584B58F7702C084B58F7D84BD089585
:102A90008091B0008F7703C08091B0008F7D8093CC
:102AA000B0000895CF93DF9390E0FC01E156FE4F14
:102AB0002491FC01ED54FE4F8491882349F190E06C
:102AC000880F991FFC01E552FE4FA591B4918F52DA
:102AD0009E4FFC01C591D4919FB7611108C0F89435
:102AE0008C91209582238C93888182230AC0623046
:102AF00051F4F8948C91322F309583238C938881F4
:102B0000822B888304C0F8948C91822B8C939FBF76
:102B1000DF91CF9108950F931F93CF93DF931F926F
:102B2000CDB7DEB7282F30E0F901E557FE4F84918D
:102B3000F901E156FE4F1491F901ED54FE4F049155
:102B40000023C9F0882321F069830E942915698137
:102B5000E02FF0E0EE0FFF1FEF52FE4FA591B49172
:102B60009FB7F8948C91611103C01095812301C027
:102B7000812B8C939FBF0F90DF91CF911F910F916D
:102B80000895CF93DF93282F30E0F901E557FE4FEA
:102B90008491F901E156FE4FD491F901ED54FE4FB5
:102BA000C491CC2391F081110E942915EC2FF0E003
:102BB000EE0FFF1FE953FE4FA591B4912C912D23E9
:102BC00081E090E021F480E002C080E090E0DF91BD
:102BD000CF9108958E3008F08E50877020910B01B0
:102BE00090E4299F90011124822B80937C00809196
:102BF0007A00806480937A0080917A0086FDFCCF11
:102C0000809178002091790090E0922B08950895AA
:102C10008230E8F4E82FF0E0EE0FFF1FE456F94FA2
:102C200071836083813041F0809169008C7F842BB7
:102C300080936900E89A089580916900440F551FB8
:102C4000440F551F837F842B80936900E99A089570
:102C5000823068F4813011F0E89801C0E998E82FDB
:102C6000F0E0EE0FFF1FE456F94F11821082089535
:102C70001F920F920FB60F9211242F933F934F93F1
:102C80005F936F937F938F939F93AF93BF93EF93D4
:102C9000FF9380919C0690919D06892B29F0E091ED
:102CA0009C06F0919D060995FF91EF91BF91AF9120
:102CB0009F918F917F916F915F914F913F912F9154
:102CC0000F900FBE0F901F9018951F920F920FB686
:102CD0000F9211242F933F934F935F936F937F93A2
:102CE0008F939F93AF93BF93EF93FF9380919E0633
:102CF00090919F06892B29F0E0919E06F0919F0606
:102D00000995FF91EF91BF91AF919F918F917F9125
:102D10006F915F914F913F912F910F900FBE0F9048
:102D20001F9018951F920F920FB60F9211242F9398
:102D30008F939F93EF93FF93E091B006F091B106CC
:102D40008081E091B606F091B70682FD12C09081B5
:102D50008091B9068F5F8F732091BA06821751F068
:102D6000E091B906F0E0E056F94F958F8093B906EF
:102D700001C08081FF91EF919F918F912F910F90D2
:102D80000FBE0F901F9018951F920F920FB60F92C3
:102D900011242F933F934F935F936F937F938F9360
:102DA0009F93AF93BF93EF93FF9380EA96E00E94C7
:102DB000C519FF91EF91BF91AF919F918F917F9135
:102DC0006F915F914F913F912F910F900FBE0F9098
:102DD0001F90189580EA96E00E948A1921E0892BBD
:102DE00009F420E0822F08951092A3061092A20603
:102DF00088EE93E0A0E0B0E08093A4069093A5064F
:102E0000A093A606B093A7068AE494E09093A10647
:102E10008093A00685EC90E09093AD068093AC067D
:102E200084EC90E09093AF068093AE0680EC90E047
:102E30009093B1068093B00681EC90E09093B30636
:102E40008093B20682EC90E09093B5068093B4062E
:102E500086EC90E09093B7068093B6061092B90680
:102E60001092BA061092BB061092BC060895CF923B
:102E7000DF92EF92FF920F931F93CF93DF936C013A
:102E80007A01EB01E60EF71E00E010E0CE15DF053B
:102E900061F06991D601ED91FC910190F081E02DF6
:102EA000C6010995080F191FF1CFC801DF91CF9115
:102EB0001F910F91FF90EF90DF90CF9008956115D3
:102EC000710581F0DB010D900020E9F7AD01415063
:102ED0005109461B570BDC01ED91FC910280F381F7
:102EE000E02D099480E090E008950C945F17DC01D8
:102EF000ED91FC910190F081E02D09940F931F93C7
:102F0000CF93DF93EC016DE00E9477178C016AE0AC
:102F1000CE010E947717800F911FDF91CF911F91F3
:102F20000F9108950F931F93CF93DF93EC010E94AD
:102F30005F178C01CE010E947E17800F911FDF91D9
:102F4000CF911F910F9108958F929F92AF92BF9250
:102F5000CF92DF92EF92FF920F931F93CF93DF9365
:102F6000CDB7DEB7A1970FB6F894DEBF0FBECDBFC9
:102F70007C01C42EE52FCB01D22E19A221E02D1504
:102F800010F02AE0D22E8E010F5D1F4F8D2C912C58
:102F9000A12CB12C6C2D7E2FA50194010E94451D02
:102FA0008C2DD29E80191124015011098A3014F4FD
:102FB000805D01C0895CF8018083211531054105E0
:102FC000510521F0C22EE32FCA01E4CFB801C70199
:102FD0000E945F17A1960FB6F894DEBF0FBECDBF5B
:102FE000DF91CF911F910F91FF90EF90DF90CF90E5
:102FF000BF90AF909F908F900895CF92DF92EF9205
:10300000FF920F931F93CF93DF93EC016A017B0133
:103010002115310579F4E881F9810190F081E02DE5
:10302000642FDF91CF911F910F91FF90EF90DF9070
:10303000CF9009942A303105E9F477FF1AC06DE288
:103040000E9477178C0144275527BA014C195D0956
:103050006E097F092AE0CE010E94A417800F911FFC
:10306000DF91CF911F910F91FF90EF90DF90CF9064
:1030700008952AE0B701A601CE01DF91CF911F91FB
:103080000F91FF90EF90DF90CF900C94A4179A01CE
:10309000AB01662757FD6095762F0C94FD170F93B3
:1030A0001F93CF93DF93EC019A01AB01662757FD85
:1030B0006095762F0E94FD178C01CE010E947E172D
:1030C000800F911FDF91CF911F910F9108952115CE
:1030D000310541F4DC01ED91FC910190F081E02D8E
:1030E000642F09940C94A4179A01462F50E060E0D5
:1030F00070E00C9467184F925F926F927F928F925C
:103100009F92AF92BF92CF92DF92EF92FF920F9376
:103110001F93CF93DF93EC016A017B01B22E9A01DA
:10312000AB01C701B6010E942C1D882319F068E38A
:1031300074E027C026013701E89477F82FEF3FEFBE
:103140004FE75FE7C301B2010E942C1D81110DC042
:103150002FEF3FEF4FE75FE7C301B2010E94341B3F
:1031600018161CF46CE374E00CC02FEF3FEF4FE730
:103170005FE4C701B6010E94831C1816ACF460E43A
:1031800074E0CE01DF91CF911F910F91FF90EF90EE
:10319000DF90CF90BF90AF909F908F907F906F9077
:1031A0005F904F900C945F172FEF3FEF4FE75FEC6E
:1031B000C701B6010E94341B87FDE1CF20E030E05B
:1031C000A901C701B6010E94341B87FF0AC06DE246
:1031D000CE010E9477178C01F7FAF094F7F8F0947B
:1031E00002C000E010E0A12C60E070E080E09FE30E
:1031F000AB1441F020E030E040E251E40E94381B83
:10320000A394F6CF9B01AC01C701B6010E94D01A6E
:103210006B017C010E94A51B2B013C010E94D11B6C
:103220009B01AC01C701B6010E94CF1A6B017C0162
:103230002AE0B301A201CE010E94A417080F191FB2
:10324000BB2039F064E474E0CE010E945F17080FE0
:10325000191F7B2C772041F120E030E040E251E45F
:10326000C701B6010E94871C6B017C010E94A01B54
:103270004B01AA2497FCA094BA2C2AE030E0B501B7
:10328000A401CE010E94FD17080F191FC501B4014A
:103290000E94D31B9B01AC01C701B6010E94CF1A4B
:1032A0006B017C017A94D6CFC801DF91CF911F9139
:1032B0000F91FF90EF90DF90CF90BF90AF909F90D5
:1032C0008F907F906F905F904F9008950C947B1833
:1032D0000F931F93CF93DF93EC010E947B188C0117
:1032E000CE010E947E17800F911FDF91CF911F9119
:1032F0000F91089508950E94EE140E947A190E9479
:103300009901C7EBD9E10E9449052097E1F30E949A
:10331000B719F9CFFC01818D228D90E0805C9F4F21
:10332000821B91098F7399270895FC01918D828DDD
:10333000981731F0828DE80FF11D858D90E008958A
:103340008FEF9FEF0895FC01918D828D981761F0AA
:10335000828DDF01A80FB11D5D968C91928D9F5FCC
:103360009F73928F90E008958FEF9FEF08958AEEFC
:1033700096E1892B49F080E090E0892B29F00E94AA
:10338000EA1681110C9400000895FC01848DDF0180
:10339000A80FB11DA35ABF4F2C91848D90E00196C8
:1033A0008F739927848FA689B7892C93A089B189B7
:1033B0008C9180648C93938D848D981306C00288C1
:1033C000F389E02D80818F7D80830895CF93DF93F3
:1033D000EC01888D8823C9F0EA89FB89808185FD0D
:1033E00005C0A889B9898C9186FD0FC00FB607FC6E
:1033F000F5CF808185FFF2CFA889B9898C9185FFAF
:10340000EDCFCE010E94C519E7CFDF91CF9108958E
:10341000CF92DF92FF920F931F93CF93DF931F9270
:10342000CDB7DEB76C01DC015B969C915B975C9637
:103430008C915C97981307C05096ED91FC91519731
:10344000808185FD32C0F601038D10E00F5F1F4FB4
:103450000F731127F02EF601848DF81211C00FB6EC
:1034600007FCF9CFD6015096ED91FC9151978081E0
:1034700085FFF1CFC60169830E94C5196981EBCF31
:10348000838DE80FF11DE35AFF4F6083D6015B96F1
:103490000C935B975296ED91FC91539780818062DB
:1034A000808381E058968C930DC0D6015696ED919D
:1034B000FC91579760835096ED91FC9151978081D4
:1034C0008064808381E090E00F90DF91CF911F9125
:1034D0000F91FF90DF90CF900895BF92CF92DF922F
:1034E000EF92FF92CF93DF93EC016A017B01B22E42
:1034F000E889F98982E08083411581EE58076105EA
:103500007105A1F060E079E08DE390E0A7019601FC
:103510000E94451D21503109410951095695479591
:1035200037952795211580E1380798F0E889F989C2
:10353000108260E874E88EE190E0A70196010E9495
:10354000451D215031094109510956954795379537
:103550002795EC85FD853083EE85FF852083188EC9
:10356000EC89FD89B082EA89FB8980818061808352
:10357000EA89FB89808188608083EA89FB89808170
:1035800080688083EA89FB8980818F7D8083DF91D9
:10359000CF91FF90EF90DF90CF90BF90089550585B
:1035A000BB27AA270ED075C166D130F06BD120F0B1
:1035B00031F49F3F11F41EF45BC10EF4E095E7FB7C
:1035C00051C1E92F77D180F3BA17620773078407D7
:1035D000950718F071F49EF58FC10EF4E0950B2E4F
:1035E000BA2FA02D0B01B90190010C01CA01A00155
:1035F0001124FF27591B99F0593F50F4503E68F1B0
:103600001A16F040A22F232F342F4427585FF3CFF0
:10361000469537952795A795F0405395C9F77EF4C1
:103620001F16BA0B620B730B840BBAF09150A1F00A
:10363000FF0FBB1F661F771F881FC2F70EC0BA0F90
:10364000621F731F841F48F4879577956795B79518
:10365000F7959E3F08F0B3CF9395880F08F0992710
:10366000EE0F979587950895D9D008F481E00895D5
:103670000CD00FC107D140F0FED030F021F45F3FF5
:1036800019F0F0C0511139C1F3C014D198F3992346
:10369000C9F35523B1F3951B550BBB27AA27621716
:1036A0007307840738F09F5F5F4F220F331F441F5B
:1036B000AA1FA9F333D00E2E3AF0E0E830D0915093
:1036C0005040E695001CCAF729D0FE2F27D0660F80
:1036D000771F881FBB1F261737074807AB07B0E8BF
:1036E00009F0BB0B802DBF01FF2793585F4F2AF0D5
:1036F0009E3F510568F0B6C000C15F3FECF3983EB5
:10370000DCF3869577956795B795F7959F5FC9F731
:10371000880F911D9695879597F90895E1E0660FBA
:10372000771F881FBB1F621773078407BA0720F033
:10373000621B730B840BBA0BEE1F88F7E09508959C
:1037400004D06894B111D9C00895BCD088F09F57B7
:1037500090F0B92F9927B751A0F0D1F0660F771FDD
:10376000881F991F1AF0BA95C9F712C0B13081F0BD
:10377000C3D0B1E00895C0C0672F782F8827B85F05
:1037800039F0B93FCCF3869577956795B395D9F71E
:103790003EF490958095709561957F4F8F4F9F4F28
:1037A0000895E89409C097FB3EF490958095709534
:1037B00061957F4F8F4F9F4F9923A9F0F92F96E97D
:1037C000BB279395F695879577956795B795F111F2
:1037D000F8CFFAF4BB0F11F460FF1BC06F5F7F4F8F
:1037E0008F4F9F4F16C0882311F096E911C07723A1
:1037F00021F09EE8872F762F05C0662371F096E8AA
:10380000862F70E060E02AF09A95660F771F881F78
:10381000DAF7880F9695879597F90895990F00081C
:10382000550FAA0BE0E8FEEF16161706E807F90792
:10383000C0F012161306E407F50798F0621B730B2D
:10384000840B950B39F40A2661F0232B242B252BAE
:1038500021F408950A2609F4A140A6958FEF811D51
:10386000811D089597F99F6780E870E060E00895F2
:103870009FEF80EC089500240A9416161706180688
:103880000906089500240A94121613061406050664
:103890000895092E0394000C11F4882352F0BB0FF5
:1038A00040F4BF2B11F460FF04C06F5F7F4F8F4F58
:1038B0009F4F089557FD9058440F551F59F05F3F93
:1038C00071F04795880F97FB991F61F09F3F79F042
:1038D00087950895121613061406551FF2CF4695C4
:1038E000F1DF08C0161617061806991FF1CF869546
:1038F0007105610508940895E894BB27662777272A
:10390000CB0197F908958ADF08F48FEF08950BD063
:10391000C0CFB1DF28F0B6DF18F0952309F0A2CFB1
:10392000A7CF1124EACFC6DFA0F3959FD1F3950F5F
:1039300050E0551F629FF001729FBB27F00DB11D33
:10394000639FAA27F00DB11DAA1F649F6627B00DC3
:10395000A11D661F829F2227B00DA11D621F739FAC
:10396000B00DA11D621F839FA00D611D221F749FBA
:103970003327A00D611D231F849F600D211D822F01
:10398000762F6A2F11249F5750408AF0E1F0882348
:103990004AF0EE0FFF1FBB1F661F771F881F915055
:1039A0005040A9F79E3F510570F05CCFA6CF5F3F16
:1039B000ECF3983EDCF3869577956795B795F79588
:1039C000E7959F5FC1F7FE2B880F911D9695879510
:1039D00097F9089511F40EF44BCF42C073DFD0F382
:1039E0009923D9F3CEF39F57550B87FF47D0002477
:1039F000A0E640EA900180585695979528F4805C9F
:103A0000660F771F881F20F026173707480730F406
:103A1000621B730B840B202931294A2BA69517941E
:103A20000794202531254A2758F7660F771F881FEE
:103A300020F026173707480730F4620B730B840B0E
:103A4000200D311D411DA09581F7B901842F91589A
:103A5000880F969587950895E1DE880B990B089558
:103A60009F3F31F0915020F4879577956795B795F2
:103A7000880F911D9695879597F90895915050401C
:103A8000660F771F881FD2F70895A1E21A2EAA1B8E
:103A9000BB1BFD010DC0AA1FBB1FEE1FFF1FA217FE
:103AA000B307E407F50720F0A21BB30BE40BF50BFB
:103AB000661F771F881F991F1A9469F76095709584
:103AC000809590959B01AC01BD01CF010895052E15
:103AD00097FB1EF400940E947E1D57FD07D00E94A4
:103AE000451D07FC03D04EF40C947E1D5095409567
:103AF000309521953F4F4F4F5F4F0895909580959A
:103B0000709561957F4F8F4F9F4F08950E948E1D36
:103B1000332312F48A1B9B0B0C949F1DA29FB001B0
:103B2000B39FC001A39F700D811D1124911DB29FF1
:103B3000700D811D1124911D08950E948E1DB7FFE7
:103B40000895821B930B08950E948E1DA59F900DD2
:103B5000B49F900DA49F800D911D11240895EE0F28
:0E3B6000FF1F0590F491E02D0994F894FFCF1B
:103B6E0000003D0780000A297C864301656D6F6E5B
:103B7E0054782056332044697363726574652053FC
:103B8E00616D706C696E672056312E352052464D30
:103B9E0036394357004F70656E456E657267794DC5
:103BAE006F6E69746F722E6F726700504F53542E82
:103BBE002E2E2E2E776169742031307300435420DF
:103BCE00312043616C6962726174696F6E3A2000D4
:103BDE00435420322043616C6962726174696F6E66
:103BEE003A2000435420332043616C696272617441
:103BFE00696F6E3A2000435420342043616C696231
:103C0E00726174696F6E3A2000524D5320566F6C7C
:103C1E0074616765206F6E2041432D4143204164DE
:103C2E00617074657220696E7075742069733A20C4
:103C3E007E00560041432D414320616461707465DE
:103C4E0072206465746563746564202D205265610D
:103C5E006C20506F776572206D6561737572656D3E
:103C6E00656E747320656E61626C6564006173735A
:103C7E00756D696E6720706F776572696E67206605
:103C8E00726F6D2041432D414320616461707465F4
:103C9E007220286A756D70657220636C6F7365642F
:103CAE002900555341206D6F6465206163746976F8
:103CBE0061746564005663616C3A200050686173EC
:103CCE00652053686966743A200041432D414320B4
:103CDE0061646170746572204E4F54206465746522
:103CEE0063746564202D204170706172656E74205E
:103CFE00506F776572206D6561737572656D656E57
:103D0E00747320656E61626C656400417373756DCA
:103D1E00696E672056524D5320746F2062652000E5
:103D2E00417373756D696E6720706F776572696E1A
:103D3E00672066726F6D2062617474657269657357
:103D4E00202F20355620555342202D20706F776539
:103D5E007220736176696E67206D6F646520656E83
:103D6E0061626C6564004E4F204354277320646576
:103D7E007465637465642C2073616D706C696E6715
:103D8E002066726F6D20435431206279206465661F
:103D9E0061756C74004354203120646574656374DE
:103DAE0065640043542032206465746563746564F1
:103DBE000043542033206465746563746564004366
:103DCE0054203420646574656374656400446574BE
:103DDE006563746564200020445331384232302EBE
:103DEE002E7573696E67207468697320666F722012
:103DFE0074656D706572617475726520726561644B
:103E0E00696E6700556E61626C6520746F20646523
:103E1E007465637420445331384232302074656DBA
:103E2E0070657261747572652073656E736F720062
:103E3E0052464D3639435720496E6974696174652F
:103E4E00643A20004E6F64653A2000204672657118
:103E5E003A20003836384D687A00204E6574776FF8
:103E6E00726B3A2000435431204354322043543372
:103E7E00204354342056524D532F42415454205017
:103E8E00554C5345002054656D70657261747572A2
:103E9E006520312D002B565A6E616E00696E6600DC
:103EAE006F7666002E0000000000081A37178A1978
:063EBE00A3199519E61995
:00000001FF
