:100000000C9462000C948A000C948A000C948A0070
:100010000C948A000C948A000C948A000C948A0038
:100020000C948A000C948A000C948A000C948A0028
:100030000C948A000C948A000C948A000C948A0018
:100040000C940B050C948A000C94E8080C94360967
:100050000C948A000C948A000C948A000C948A00F8
:100060000C948A000C948A000000000024002700F1
:100070002A0000000000250028002B0000000000DE
:1000800023002600290004040404040404040202DA
:100090000202020203030303030301020408102007
:1000A0004080010204081020010204081020000012
:1000B0000007000201000003040600000000000029
:1000C0000000A20A11241FBECFEFD8E0DEBFCDBFD3
:1000D00011E0A0E0B1E0E0ECFBE102C005900D9280
:1000E000A034B107D9F713E0A0E4B1E001C01D923C
:1000F000A736B107E1F710E0C4ECD0E004C02297C6
:10010000FE010E94DA0DC23CD107C9F70E94D8084F
:100110000C94DE0D0C9400000E9453052091B00257
:100120003091B1024091B2025091B302621B730B45
:10013000840B950B605177428040904008F492C048
:100140000E9453056093B0027093B1028093B20293
:100150009093B30280E491E064E170E040ED57E0F9
:100160000E942E028CE991E064E170E040ED57E0DE
:100170000E942E0288EF91E064E170E040ED57E0CC
:100180000E942E0284E592E064E170E040ED57E0C9
:100190000E942E0240914001509141016091420124
:1001A0007091430185E493E022E030E00E94AF08C3
:1001B00085E493E060E20E94D40640919C01509156
:1001C0009D0160919E0170919F0185E493E022E082
:1001D00030E00E94AF0885E493E060E20E94D4061C
:1001E0004091F8015091F9016091FA017091FB0181
:1001F00085E493E022E030E00E94AF0885E493E0DC
:1002000060E20E94D40640915402509155026091E0
:1002100056027091570285E493E022E030E00E949C
:10022000AF0885E493E060E20E94D40640914C015F
:1002300050914D0160914E0170914F0185E493E022
:1002400022E030E00E94B20886E061E00E943406BD
:1002500068EC70E080E090E00E94610586E060E07C
:100260000E94340608956F927F928F929F92AF9270
:10027000BF92CF92DF92EF92FF920F931F9386E08F
:1002800061E00E94F50586E061E00E94340605E425
:1002900013E0C80140E855E260E070E00E94710997
:1002A000C80160E071E00E94C50830E4632E31E0CF
:1002B000732EC30160E070E023E333E74AE853E4C0
:1002C0000F2EFAE9EF2EF9E9FF2EF9ED0F2FFFE3DC
:1002D0001F2FF02D0E94D6012CE9822E21E0922EB4
:1002E000C40160E070E023E333E74AE853E40E948E
:1002F000D60198EFA92E91E0B92EC50160E070E01B
:1003000023E333E74AE853E40E94D60184E5C82E8C
:1003100082E0D82EC60160E070E023E333E74AE8CC
:1003200053E40E94D601C30161E070E02DEC3CEC87
:1003300045EB52E40E94F201C40162E070E02DEC52
:100340003CEC45EB52E40E94F201C50163E070E031
:100350002DEC3CEC45EB52E40E94F201C60164E056
:1003600070E02DEC3CEC44E851E40E94F201109264
:10037000B0021092B1021092B2021092B30260ED7C
:1003800077E080E090E00E94610586E060E00E94F6
:1003900034061F910F91FF90EF90DF90CF90BF90A8
:1003A000AF909F908F907F906F900895EF92FF9203
:1003B0000F931F93FC01758B648B208F318F428FBD
:1003C000538FE0A2F1A202A313A380E090E0A0E08B
:1003D000B4E484AB95ABA6ABB7AB1F910F91FF9084
:1003E000EF900895FC01778B668B248F358F468FB5
:1003F000578F80E090E0A0E0B4E480AF91AFA2AF6F
:10040000B3AF08958EE480937C0062E070E080E0FA
:1004100090E00E94610580917A00806480937A0068
:1004200080917A0086FDFCCF8091780090E0A0E07A
:10043000B0E060917900362F20E0442737FD4095E9
:10044000542F282B392B4A2B5B2B60E070E381E182
:1004500090E00E94BD0DCA01B90108952F923F920C
:100460004F925F926F927F928F929F92AF92BF92C4
:10047000CF92DF92EF92FF920F931F93DF93CF9370
:10048000CDB7DEB7AE970FB6F894DEBF0FBECDBFC7
:100490009EA78DA77E876D878A010E9402026987C9
:1004A0007A878B879C870E9453053B014C0128E586
:1004B000222E312C2DA53EA5220E331EC801A0E010
:1004C000B0E089A79AA7ABA7BCA7ADA5BEA55496D7
:1004D0008C910E948806F10191838083AA2797FD61
:1004E000A095BA2FBC01CD010E94FC0B7B018C01B1
:1004F0002DEC3CEC4CE054E40E945D0B87FD02C007
:10050000AA240DC0AA24C801B70126E636E646EEA5
:1005100053E40E94AC0C181614F4AA24A3940E946D
:100520005305661977098809990929A53AA54BA5A4
:100530005CA5261737074807590710F0AA2029F2AB
:100540000E94530569837A838B839C8318861F825C
:100550001E821D824DA55EA5405C5F4F5A8F498F5C
:100560008DA59EA58C5B9F4F9C8F8B8FADA5BEA547
:10057000A85BBF4FBE8FAD8FEDA5FEA5E45BFF4F1F
:10058000F8A3EF8F2DA53EA5205B3F4F3AA329A3EB
:100590004DA55EA54C5A5F4F5CA34BA38DA59EA5B0
:1005A000865A9F4F9EA38DA39BE5292E312CADA586
:1005B000BEA52A0E3B1EA85ABF4FB8A7AFA31CC0AA
:1005C00021E0F101208302C0D1011C92ED81FE8166
:1005D000319729F4D1018C91EDA1FEA18083ADA1C9
:1005E000BEA19C91F1018081981731F02F8138854F
:1005F0002F5F3F4F38872F834F8158858D859E858C
:100600004817590708F025C10E94530529813A81EE
:100610004B815C81621B730B840B950B29A53AA55A
:100620004BA55CA5621773078407950708F011C1F5
:100630004D815E814F5F5F4F5E834D83EDA5FEA5CB
:1006400084A595A5A6A5B7A580A791A7A2A7B3A79E
:1006500084890E948806ADA5BEA595969C938E932D
:10066000949756968C910E9488067C01EDA5FEA574
:1006700097A386A3A4A8B5A8C6A8D7A844A055A0A8
:10068000B201882777FD8095982F0E94FC0B3B01D3
:100690004C01A60195010E94F80A20E030E040E8F4
:1006A0005AE30E94B00C9B01AC01C601B5010E9447
:1006B000F90A9B01AC01ADA5BEA5D4966D937D93BF
:1006C0008D939C93D797C401B3010E94F80A3B0114
:1006D0004C01EDA5FEA564A775A786A797A7A0ACBA
:1006E000B1ACC2ACD3AC0027F7FC0095102FC80109
:1006F000B7010E94FC0B7B018C01A60195010E94B1
:10070000F80A20E030E040E85AE30E94B00C9B0178
:10071000AC01C601B5010E94F90A9B01AC01ADA56F
:10072000BEA5D8966D937D938D939C93DB97C8015E
:10073000B7010E94F80A5B016C01EDA5FEA560AB54
:1007400071AB82AB93ABC401B301A40193010E94CE
:10075000B00C9B01AC01A98DBA8D6D937D938D93E7
:100760009C931397EB8DFC8D6081718182819381C5
:100770000E94F90AAB8DBC8D6D937D938D939C93F4
:100780001397C601B501A60195010E94B00C9B010B
:10079000AC01ED8DFE8D6083718382839383AF8D79
:1007A000B8A16D917D918D919C910E94F90AEF8D78
:1007B000F8A16083718382839383ADA5BEA59896CB
:1007C000ED90FD900D911C919B97C401B301A80180
:1007D00097010E94F80AEDA5FEA520A131A142A132
:1007E00053A10E94B00C9B01AC01C801B7010E944B
:1007F000F90AADA5BEA5DC966D937D938D939C9370
:10080000DF97A60195010E94B00C9B01AC01E9A104
:10081000FAA16083718382839383ABA1BCA16D91A4
:100820007D918D919C910E94F90AEBA1FCA16083BE
:10083000718382839383D1018C91EDA1FEA180838A
:10084000AFA1B8A58D919C91841595050CF4B8CEF7
:10085000BBCEE985FA85BF01882777FD8095982F63
:100860000E94FC0B20E030E04AE754E40E94610B58
:1008700020E030E040E85AE30E94B00C7B018C019C
:10088000ADA5BEA558962D913D914D915C915B977C
:100890000E94B00C6F87788B898B9A8BED81FE81DB
:1008A000BF0180E090E00E94FA0B5B016C012DA576
:1008B0003EA52C5B3F4F3C8B2B8BD9016D917D91DD
:1008C0008D919C91A60195010E94610B0E94170DCC
:1008D0009B01AC016F85788989899A890E94B00C47
:1008E0001B012C01EDA5FEA5648775878687978778
:1008F000C801B701248D358D468D578D0E94B00CEF
:100900007B018C012DA53EA5245B3F4F3E8B2D8B9B
:10091000D9016D917D918D919C91A60195010E94C7
:10092000610B0E94170D9B01AC01C801B7010E9429
:10093000B00C3B014C01EDA5FEA5608B718B828B49
:10094000938B6F85788989899A89A80197010E947C
:10095000B00C2DA53EA52C5A3F4F388F2F8BD901B7
:100960002D913D914D915C910E94B00CA601950195
:100970000E94610B7B018C01EDA5FEA56083718354
:1009800082839383C201B101A40193010E94B00C40
:100990009B01AC01ADA5BEA514966D937D938D937F
:1009A0009C931797C801B7010E94610BEDA5FEA5A6
:1009B000608771878287938780E090E0A0E0B0E055
:1009C000EB89FC8980839183A283B383ED89FE89BF
:1009D00080839183A283B383EF89F88D8083918391
:1009E000A283B383AE960FB6F894DEBF0FBECDBF21
:1009F000CF91DF911F910F91FF90EF90DF90CF90FB
:100A0000BF90AF909F908F907F906F905F904F902E
:100A10003F902F9008951F920F920FB60F921124BE
:100A20002F933F938F939F93AF93BF938091B8027F
:100A30009091B902A091BA02B091BB023091BC0270
:100A40000196A11DB11D232F2D5F2D3720F02D57AD
:100A50000196A11DB11D2093BC028093B802909312
:100A6000B902A093BA02B093BB028091B4029091F4
:100A7000B502A091B602B091B7020196A11DB11DB9
:100A80008093B4029093B502A093B602B093B702DC
:100A9000BF91AF919F918F913F912F910F900FBE7A
:100AA0000F901F9018958FB7F8942091B80230914D
:100AB000B9024091BA025091BB028FBFB901CA017D
:100AC00008959B01AC017FB7F8948091B402909196
:100AD000B502A091B602B091B70266B5A89B05C059
:100AE0006F3F19F00196A11DB11D7FBFBA2FA92F2D
:100AF000982F8827860F911DA11DB11D62E0880FD8
:100B0000991FAA1FBB1F6A95D1F7BC012DC0FFB763
:100B1000F8948091B4029091B502A091B602B09180
:100B2000B702E6B5A89B05C0EF3F19F00196A11DDD
:100B3000B11DFFBFBA2FA92F982F88278E0F911DA7
:100B4000A11DB11DE2E0880F991FAA1FBB1FEA95E6
:100B5000D1F7861B970B885E9340C8F22150304036
:100B60004040504068517C4F2115310541055105E9
:100B700071F60895789484B5826084BD84B58160EF
:100B800084BD85B5826085BD85B5816085BDEEE695
:100B9000F0E0808181608083E1E8F0E01082808174
:100BA00082608083808181608083E0E8F0E08081E2
:100BB00081608083E1EBF0E0808184608083E0EB02
:100BC000F0E0808181608083EAE7F0E080818460EA
:100BD0008083808182608083808181608083808146
:100BE000806880831092C1000895CF93DF93482FCF
:100BF00050E0CA0186569F4FFC0134914A575F4F1F
:100C0000FA018491882369F190E0880F991FFC0113
:100C1000E859FF4FA591B491FC01EE58FF4FC591E3
:100C2000D491662351F42FB7F8948C91932F90951B
:100C300089238C93888189230BC0623061F42FB79C
:100C4000F8948C91932F909589238C938881832B92
:100C500088832FBF06C09FB7F8948C91832B8C9309
:100C60009FBFDF91CF910895482F50E0CA01825570
:100C70009F4FFC012491CA0186569F4FFC0194911D
:100C80004A575F4FFA013491332309F440C02223BD
:100C900051F1233071F0243028F42130A1F02230BA
:100CA00011F514C02630B1F02730C1F02430D9F44A
:100CB00004C0809180008F7703C0809180008F7D79
:100CC0008093800010C084B58F7702C084B58F7D7B
:100CD00084BD09C08091B0008F7703C08091B000BF
:100CE0008F7D8093B000E32FF0E0EE0FFF1FEE58F2
:100CF000FF4FA591B4912FB7F894662321F48C91FE
:100D00009095892302C08C91892B8C932FBF0895D5
:100D1000982F8E3008F09E50977080912E0182950A
:100D2000880F880F807C892B80937C0080917A00CB
:100D3000806480937A0080917A0086FDFCCF2091B8
:100D4000780040917900942F80E030E0282B392BF7
:100D5000C9010895CF92DF92EF92FF920F931F93F4
:100D6000CF93DF937C016B018A01C0E0D0E00FC01C
:100D7000D6016D916D01D701ED91FC910190F0814B
:100D8000E02DC7010995C80FD91F0150104001156A
:100D9000110571F7CE01DF91CF911F910F91FF9057
:100DA000EF90DF90CF900895DC01ED91FC910190E0
:100DB000F081E02D09950895EF92FF920F931F9314
:100DC0008C01DC01ED91FC910190F081E02D6DE052
:100DD00009957C01D801ED91FC910190F081E02D05
:100DE000C8016AE009959C012E0D3F1DC9011F91A4
:100DF0000F91FF90EF900895CF93DF93EC01611571
:100E0000710519F420E030E00FC0DB010D900020E7
:100E1000E9F71197A61BB70BE881F9810280F381EE
:100E2000E02DAD0109959C01C901DF91CF91089595
:100E30004F925F927F928F929F92AF92BF92CF928A
:100E4000DF92EF92FF920F931F93DF93CF93CDB773
:100E5000DEB7A1970FB6F894DEBF0FBECDBF2C0151
:100E6000742ECB01223008F42AE019A231E2C32EFD
:100E7000D12CCC0EDD1E822E9924AA24BB24672DF2
:100E8000752FA50194010E949B0D79018A01C8016B
:100E9000B701A50194010E947C0D472D461B0894C3
:100EA000C108D1084A3014F4405D01C0495CF60124
:100EB0004083E114F1040105110521F07E2C5F2D22
:100EC000C801DDCFC201B6010E94FC06A1960FB693
:100ED000F894DEBF0FBECDBFCF91DF911F910F9170
:100EE000FF90EF90DF90CF90BF90AF909F908F904A
:100EF0007F905F904F900895DC012115310541F4FA
:100F0000ED91FC910190F081E02D642F09950895F9
:100F10000E9418070895CF92DF92EF92FF920F93ED
:100F20001F93CF93DF93EC016A017B0121153105FB
:100F300041F4E881F9810190F081E02D642F099559
:100F40001FC02A303105D1F477FF17C0E881F9813D
:100F50000190F081E02D6DE209958C014427552721
:100F6000BA014C195D096E097F09CE012AE00E9481
:100F700018079801280F391F04C02AE00E9418079B
:100F80009C01C901DF91CF911F910F91FF90EF90CC
:100F9000DF90CF9008957F928F929F92AF92BF92F1
:100FA000CF92DF92EF92FF920F931F93CF93DF9335
:100FB0004C017A018B01722ECB01BA01A801970175
:100FC0000E94610D882321F0C40160E271E021C01C
:100FD000C0E0D0E057016801E894D7F8C601B50138
:100FE0002FEF3FEF4FE75FE70E94610D882351F439
:100FF000C601B5012FEF3FEF4FE75FE70E945D0BA2
:10100000181614F0C1E0D0E0219739F0C40164E271
:1010100071E00E94FC06EC0193C0C801B7012FEFFC
:101020003FEF4FE75FE40E94AC0C181654F0C80184
:10103000B7012FEF3FEF4FE75FEC0E945D0B882376
:1010400024F4C40168E271E0E4CFC801B70120E0F4
:1010500030E040E050E00E945D0B87FD03C0C0E03F
:10106000D0E00EC0D401ED91FC910190F081E02D13
:10107000C4016DE20995EC0117FB109517F9109565
:1010800020E030E040E05FE3DD240BC0CA01B9019D
:1010900020E030E040E251E40E94610B9B01AC0192
:1010A000D394D71498F3C801B7010E94F90A5B01E1
:1010B0006C010E94CE0B7B018C01C401B801A70119
:1010C0002AE030E00E947C07C80FD91F772039F052
:1010D000C4016CE271E00E94FC06C80FD91FC80170
:1010E000B7010E94FA0B9B01AC01C601B5010E9439
:1010F000F80A24C020E030E040E251E40E94B00C45
:101100007B018C010E94C90B5B016C01CC24B7FCF4
:10111000C094DC2CC401B601A5012AE030E00E9495
:101120008B07C80FD91FC601B5010E94FC0B9B019C
:10113000AC01C801B7010E94F80A7A947720D1F671
:10114000CE01DF91CF911F910F91FF90EF90DF9033
:10115000CF90BF90AF909F908F907F9008950E9406
:10116000CB070895EF92FF920F931F937C010E948B
:10117000CB078C01C7010E94DC06080F191FC801AC
:101180001F910F91FF90EF900895EF92FF920F93B0
:101190001F937C010E94FC068C01C7010E94DC06A3
:1011A000080F191FC8011F910F91FF90EF9008952C
:1011B000CF93DF930E94BA050E943301C3E2D9E0C6
:1011C0000E948C002097E1F30E942309F9CF089533
:1011D0001F920F920FB60F9211242F933F934F93AC
:1011E0008F939F93EF93FF938091C00082FD1DC06A
:1011F0004091C6002091FD023091FE022F5F3F4FCB
:101200002F7330708091FF029091000328173907E7
:1012100071F0E091FD02F091FE02E354FD4F408336
:101220003093FE022093FD0202C08091C600FF9120
:10123000EF919F918F914F913F912F910F900FBE02
:101240000F901F901895E0915103F0915203E05CCC
:10125000FF4F8191919120813181821B930B8F737C
:101260009070892B11F00E94E70808951F920F9249
:101270000FB60F9211242F933F938F939F93EF9369
:10128000FF93209141033091420380914303909159
:1012900044032817390731F48091C1008F7D809372
:1012A000C10014C0E0914303F0914403EF5FFC4F91
:1012B0002081809143039091440301968F73907035
:1012C00090934403809343032093C600FF91EF91D2
:1012D0009F918F913F912F910F900FBE0F901F9074
:1012E0001895AF92BF92DF92EF92FF920F931F93E8
:1012F000CF93DF93EC017A018B01DD24403081EE46
:10130000580780E0680780E0780711F0DD24D39467
:1013100091E0A92EB12CEC89FD89DD2069F0C50191
:1013200008A002C0880F991F0A94E2F7808360E04A
:1013300079E08DE390E005C0108260E874E88EE10A
:1013400090E0A80197010E949B0D21503040404041
:101350005040569547953795279580E120303807BE
:1013600020F0DD2011F0DD24D6CFE889F989308323
:10137000EA89FB89208319A2EE89FF89408121E057
:1013800030E0C9010C8C02C0880F991F0A94E2F763
:10139000482B4083EE89FF894081C9010D8C02C032
:1013A000880F991F0A94E2F7482B4083EE89FF8942
:1013B0004081C9010E8C02C0880F991F0A94E2F780
:1013C000482B4083EE89FF8980810F8C02C0220F59
:1013D000331F0A94E2F7209528232083DF91CF91D1
:1013E0001F910F91FF90EF90DF90BF90AF90089505
:1013F000DC011C96ED91FC911D97E05CFF4F219163
:10140000319180819181281B390B2F733070C90174
:101410000895DC011C96ED91FC911D97E05CFF4F57
:1014200020813181E054F040DF01AE5BBF4F8D91F0
:101430009C9111972817390719F42FEF3FEF07C038
:101440008D919C91E80FF91F8081282F30E0C90110
:101450000895DC011C96ED91FC911D97E05CFF4F17
:1014600020813181E054F040DF01AE5BBF4F8D91B0
:101470009C9111972817390719F42FEF3FEF10C0EF
:101480008D919C911197E80FF91F20818D919C916E
:10149000119701968F73907011969C938E9330E004
:1014A000C9010895DC0191968C919197882339F0B8
:1014B0005496ED91FC915597808186FFF9CF9196D6
:1014C0001C920895CF93DF93EC01EE85FF85E05CDD
:1014D000FF4F20813181E054F0402F5F3F4F2F7349
:1014E0003070DF01AE5BBF4F8D919C911197281733
:1014F0003907D1F3E05CFF4F80819181E054F040E7
:10150000E80FF91F6083EE85FF85E05CFF4F3183B4
:101510002083EE89FF89208181E090E00F8C02C05A
:10152000880F991F0A94E2F7282B208381E089A372
:10153000EC89FD8980818064808381E090E0DF9187
:10154000CF910895109248031092470388EE93E0DC
:10155000A0E0B0E08093490390934A03A0934B032B
:10156000B0934C0383E391E090934603809345034B
:101570008DEB92E0909352038093510381E093E0CE
:10158000909354038093530385EC90E0909356031B
:101590008093550384EC90E0909358038093570315
:1015A00080EC90E090935A038093590381EC90E093
:1015B00090935C0380935B0382EC90E090935E03D6
:1015C00080935D0386EC90E09093600380935F03CB
:1015D00084E08093610383E08093620387E08093DB
:1015E000630385E08093640381E08093650308953D
:1015F0005058BB27AA270ED075C166D130F06BD1E9
:1016000020F031F49F3F11F41EF45BC10EF4E0951D
:10161000E7FB51C1E92F77D180F3BA17620773074F
:101620008407950718F071F49EF58FC10EF4E095CC
:101630000B2EBA2FA02D0B01B90190010C01CA018C
:10164000A0011124FF27591B99F0593F50F4503E37
:1016500068F11A16F040A22F232F342F4427585F29
:10166000F3CF469537952795A795F0405395C9F741
:101670007EF41F16BA0B620B730B840BBAF09150F9
:10168000A1F0FF0FBB1F661F771F881FC2F70EC098
:10169000BA0F621F731F841F48F48795779567956B
:1016A000B795F7959E3F08F0B3CF9395880F08F054
:1016B0009927EE0F979587950895D9D008F481E082
:1016C00008950CD00FC107D140F0FED030F021F4C6
:1016D0005F3F19F0F0C0511139C1F3C014D198F334
:1016E0009923C9F35523B1F3951B550BBB27AA27A3
:1016F00062177307840738F09F5F5F4F220F331F15
:10170000441FAA1FA9F333D00E2E3AF0E0E830D0E0
:1017100091505040E695001CCAF729D0FE2F27D0E3
:10172000660F771F881FBB1F261737074807AB07B1
:10173000B0E809F0BB0B802DBF01FF2793585F4F26
:101740002AF09E3F510568F0B6C000C15F3FECF340
:10175000983EDCF3869577956795B795F7959F5FEB
:10176000C9F7880F911D9695879597F90895E1E03F
:10177000660F771F881FBB1F621773078407BA079E
:1017800020F0621B730B840BBA0BEE1F88F7E095F9
:10179000089504D06894B111D9C00895BCD088F0E0
:1017A0009F5790F0B92F9927B751A0F0D1F0660F4D
:1017B000771F881F991F1AF0BA95C9F712C0B13068
:1017C00081F0C3D0B1E00895C0C0672F782F88277B
:1017D000B85F39F0B93FCCF3869577956795B395A7
:1017E000D9F73EF490958095709561957F4F8F4F16
:1017F0009F4F0895E89409C097FB3EF4909580951B
:10180000709561957F4F8F4F9F4F9923A9F0F92FC6
:1018100096E9BB279395F695879577956795B79544
:10182000F111F8CFFAF4BB0F11F460FF1BC06F5F2A
:101830007F4F8F4F9F4F16C0882311F096E911C03C
:10184000772321F09EE8872F762F05C0662371F05D
:1018500096E8862F70E060E02AF09A95660F771F71
:10186000881FDAF7880F9695879597F90895990F4D
:101870000008550FAA0BE0E8FEEF16161706E8075A
:10188000F907C0F012161306E407F50798F0621B7B
:10189000730B840B950B39F40A2661F0232B242B50
:1018A000252B21F408950A2609F4A140A6958FEF6F
:1018B000811D811D089597F99F6780E870E060E0C1
:1018C00008959FEF80EC089500240A9416161706D9
:1018D00018060906089500240A9412161306140621
:1018E00005060895092E0394000C11F4882352F084
:1018F000BB0F40F4BF2B11F460FF04C06F5F7F4F3C
:101900008F4F9F4F089557FD9058440F551F59F022
:101910005F3F71F04795880F97FB991F61F09F3FDC
:1019200079F087950895121613061406551FF2CF05
:101930004695F1DF08C0161617061806991FF1CF55
:1019400086957105610508940895E894BB2766277C
:101950007727CB0197F908958ADF08F48FEF089570
:101960000BD0C0CFB1DF28F0B6DF18F0952309F017
:10197000A2CFA7CF1124EACFC6DFA0F3959FD1F362
:10198000950F50E0551F629FF001729FBB27F00D2D
:10199000B11D639FAA27F00DB11DAA1F649F662782
:1019A000B00DA11D661F829F2227B00DA11D621FD1
:1019B000739FB00DA11D621F839FA00D611D221F8B
:1019C000749F3327A00D611D231F849F600D211D6F
:1019D000822F762F6A2F11249F5750408AF0E1F012
:1019E00088234AF0EE0FFF1FBB1F661F771F881F5B
:1019F00091505040A9F79E3F510570F05CCFA6CFA3
:101A00005F3FECF3983EDCF3869577956795B79545
:101A1000F795E7959F5FC1F7FE2B880F911D96956F
:101A2000879597F9089511F40EF44BCF4EC073DFEC
:101A3000D0F39923D9F3CEF39F57550B87FF55D099
:101A400056959795B0E020F4660F771F881FBB1F4F
:101A50001F930F9300249001A0018001F001A0E8E2
:101A60000E0F1F1F0A1E511D601B710B8009B50B45
:101A700048F4600F711F801DB51F0E1B1F0B0A0A53
:101A8000510907C02E0F3F1F4A1F0E0F1F1F0A1EAE
:101A9000511D660F771F881FBB1FA695F795E79509
:101AA000F8F60617170708065B07211D311D411DB3
:101AB0000F911F91B901842F9158880F96958795A2
:101AC0000895D5DE880B990B08959F3F49F09150FA
:101AD00028F4869577956795B7959F5F80389F4FD7
:101AE000880F9695879597F9089591505040660F05
:101AF000771F881FD2F70895629FD001739FF0016E
:101B0000829FE00DF11D649FE00DF11D929FF00D8D
:101B1000839FF00D749FF00D659FF00D9927729FC4
:101B2000B00DE11DF91F639FB00DE11DF91FBD014F
:101B3000CF0111240895A1E21A2EAA1BBB1BFD019F
:101B40000DC0AA1FBB1FEE1FFF1FA217B307E4079C
:101B5000F50720F0A21BB30BE40BF50B661F771FF4
:101B6000881F991F1A9469F76095709580959095D4
:101B70009B01AC01BD01CF01089597FB092E0526FD
:101B80000ED057FD04D0D7DF0AD0001C38F4509592
:101B90004095309521953F4F4F4F5F4F0895F6F791
:101BA00090958095709561957F4F8F4F9F4F0895C9
:101BB000EE0FFF1F0590F491E02D0994F894FFCFEC
:101BC000656D6F6E54782056332044697265637476
:101BD0002073657269616C204578616D706C650079
:101BE0006E616E00696E66006F7666002E00010001
:101BF000000000620AAA06F809290A090A520A0026
:00000001FF
