:100000000C946F010C9439170C9466170C94931789
:100010000C94C0170C9497010C9497010C94ED1755
:100020000C9497010C9497010C94740E0C94FB0E95
:100030000C9468090C9497010C9497010C94970107
:100040000C9497010C9497010C9497010C949701D0
:100050000C9497010C9497010C9497010C945710F1
:100060000C9497010C9497010C9497010C949701B0
:100070000C9497010C9497010C9497010C949701A0
:100080000C9497010C9497010C9497010C94970190
:100090000C9497010C9497010C9497010C94970180
:1000A0000C9497010C9497010C949701080B000293
:1000B0000202010009040000010202000005240000
:1000C0001001052401010104240206052406000193
:1000D0000705810310004009040100020A00000026
:1000E00007050202400000070583024000000403E8
:1000F00009042203550053004200200049004F002C
:10010000200042006F0061007200640020002000A7
:10011000200020001803410072006400750069008F
:100120006E006F0020004C004C00430012010002E2
:10013000000000404123398000010102000112014A
:100140000002020000404123398000010102000149
:1001500000C18081C100000000240027002A002D7A
:1001600000300000000000250028002B002E003188
:1001700000000000002300260029002C002F0004AE
:10018000040404040304050202020204030202023E
:100190000206060606060604040202020404080219
:1001A00001104080401020408040800802040180FF
:1001B000402010020110801020404000000002008A
:1001C000080E0000030401000B00000000070605F4
:1001D000040100080A0B0C0D0905010902A101091F
:1001E00001A10085010509190129031500250195C3
:1001F0000375018102950175058103050109300927
:100200003109381581257F750895038106C0C00521
:10021000010906A1018502050719E029E715002556
:100220000175019508810295017508810395067590
:1002300008150025650507190029658100C0090416
:1002400002000103000000092101010001226500F4
:100250000705840340000100000000000000002AA0
:100260002B2800000000000000000000000000003B
:10027000000000000000002C9EB4A0A1A2A434A69F
:10028000A7A5AE362D3738271E1F2021222324256F
:1002900026B333B62EB7B89F8485868788898A8B24
:1002A0008C8D8E8F909192939495969798999A9B16
:1002B0009C9D2F3130A3AD350405060708090A0BB4
:1002C0000C0D0E0F101112131415161718191A1BF6
:1002D0001C1DAFB1B0B50000D709B00DB915112480
:1002E0001FBECFEFDAE0DEBFCDBF12E0A0E0B1E08D
:1002F000ECE1F6E302C005900D92AE33B107D9F7F9
:1003000013E0AEE3B2E001C01D92A639B107E1F7F8
:1003100012E0CEEDD2E004C02297FE010E94081B3D
:10032000C83DD107C9F70E9444100C940C1B0C94D3
:100330000000FB01DC0102C001900D9241505040D1
:10034000D8F708950F931F93CF93DF938C01C0E0EC
:10035000D0E008C068EE73E080E090E00E94AD104D
:10036000A8952196C017D107ACF3DF91CF911F91CB
:100370000F910895CF93DF938FEF0E94A314C0E0F5
:10038000D0E00E942C14882339F4CA30D10521F022
:100390000E949D132196F5CF80E060E872E04AE06C
:1003A0000E94BF1482E00E94861480E00E94A31481
:1003B000DF91CF9108952F923F924F925F926F926B
:1003C0007F928F929F92AF92BF92CF92DF92EF92E5
:1003D000FF920F931F93DF93CF93CDB7DEB7CF5923
:1003E000D0400FB6F894DEBF0FBECDBF3C018B01ED
:1003F0000E949F106B017C019801442737FD4095B6
:10040000542FC456DF4F288339834A835B83CC59EA
:10041000D04080913E020E94661164969FAF8EAFDD
:1004200064970E949F106C197D098E099F09C4561C
:10043000DF4F288139814A815B81CC59D040261712
:1004400037074807590748F064968EAD9FAD64970B
:10045000895B91408D369105E0F60E949F102E96A3
:100460006CAF7DAF8EAF9FAF2E97A301440F551F8A
:10047000CA57DF4F59834883C658D0408091B30292
:100480009091B402CC57DF4F99838883C458D040F1
:1004900020918B0230918C0240918D0250918E02FE
:1004A000C058DF4F288339834A835B83C058D040CC
:1004B0004EEF5FEF62965FAF4EAF62972224332418
:1004C00060961FAE1EAE60979CC12A965FAD2A97BC
:1004D000A516E9F162968EAD9FAD62970196629680
:1004E0009FAF8EAF6297892B91F520E030E040E01E
:1004F00050E0E0962CAF3DAF4EAF5FAFE097AC96CB
:100500002CAF3DAF4EAF5FAFAC97A8962CAF3DAFD1
:100510004EAF5FAFA897A4962CAF3DAF4EAF5FAF85
:10052000A497A0962CAF3DAF4EAF5FAFA0976C964F
:100530002CAF3DAF4EAF5FAF6C9768962CAF3DAF21
:100540004EAF5FAF689760961FAE1EAE6097C30157
:10055000B201A30192010E94D2199B01AC01E09665
:100560006CAD7DAD8EAD9FADE0970E941B18E096FF
:100570006CAF7DAF8EAF9FAFE097EC966CAD7DAD6D
:100580008EAD9FADEC979B01AC010E94D2199B01EF
:10059000AC01AC966CAD7DAD8EAD9FADAC970E94BD
:1005A0001B18AC966CAF7DAF8EAF9FAFAC97E89643
:1005B0006CAD7DAD8EAD9FADE8979B01AC010E9407
:1005C000D2199B01AC01A8966CAD7DAD8EAD9FADEF
:1005D000A8970E941B18A8966CAF7DAF8EAF9FAFF7
:1005E000A897E4966CAD7DAD8EAD9FADE4979B0171
:1005F000AC010E94D2199B01AC01A4966CAD7DADFB
:100600008EAD9FADA4970E941B18A4966CAF7DAFD2
:100610008EAF9FAFA4974101C101099762E170E0DD
:100620000E94D11AFC01EE0FFF1FEE0FFF1F41E0E9
:1006300050E04C0F5D1FE40FF51FE080F180028158
:1006400013810894211C311CC10162E170E00E94F9
:10065000D11AFC01EE0FFF1FEE0FFF1F81E090E0AB
:100660008C0F9D1FE80FF91FA080B180C280D3803E
:10067000C301B201C458DF4F288139814A815B81AF
:10068000CC57D0400E941A182091060230910702E0
:1006900040910802509109020E94D2199B01AC01BD
:1006A000C458DF4F688179818A819B81CC57D040C3
:1006B0000E941B18EC962CAD3DAD4EAD5FADEC9796
:1006C0000E94D2199B01AC01A0966CAD7DAD8EADA0
:1006D0009FADA0970E941B18A0966CAF7DAF8EAF08
:1006E0009FAFA097C401089762E170E00E94D11A01
:1006F000FC01EE0FFF1FEE0FFF1FA1E0B0E0AC0FFB
:10070000BD1FEA0FFB1F6081718182819381A80167
:1007100097010E941A1820910A0230910B02409111
:100720000C0250910D020E94D2199B01AC01C8012C
:10073000B7010E941B18E8962CAD3DAD4EAD5FADE4
:10074000E8970E94D2199B01AC016C966CAD7DAD0F
:100750008EAD9FAD6C970E941B186C966CAF7DAFF1
:100760008EAF9FAF6C97C401029662E170E00E9469
:10077000D11AFC01EE0FFF1FEE0FFF1F21E030E04A
:100780002C0F3D1FE20FF31F6081718182819381E5
:10079000A60195010E941A1820910E0230910F02B5
:1007A00040911002509111020E94D2199B01AC019C
:1007B000C601B5010E941B18E4962CAD3DAD4EADAF
:1007C0005FADE4970E94D2199B01AC0168966CADB5
:1007D0007DAD8EAD9FAD68970E941B1868966CAF7B
:1007E0007DAF8EAF9FAF689760964EAD5FAD60975F
:1007F0004F5F5F4F60965FAF4EAF60972A96AFAC8A
:100800002A9762968EAD9FAD6297CA57DF4FA88137
:10081000B981C658D0408A179B070CF0A2C10E942C
:100820009F102E962CAD3DAD4EAD5FAD2E97621B49
:10083000730B840B950BC456DF4F288139814A8195
:100840005B81CC59D040621773078407950708F085
:1008500088C18091C3029091C4029093C602809394
:10086000C5028091BF029091C0029093C202809312
:10087000C1028091BB029091BC029093BE02809312
:10088000BD028091B7029091B8029093BA02809312
:10089000B902CC57DF4F48815981C458D04050939A
:1008A000B6024093B5028091AB029091AC02A09148
:1008B000AD02B091AE028093AF029093B002A093CC
:1008C000B102B093B2028091A3029091A402A091D0
:1008D000A502B091A6028093A7029093A802A093CC
:1008E000A902B093AA0280919B0290919C02A091D0
:1008F0009D02B0919E0280939F029093A002A093CC
:10090000A102B093A2028091930290919402A091CF
:100910009502B09196028093970290939802A093CB
:100920009902B0939A02C058DF4F88819981AA81B9
:10093000BB81C058D04080938F0290939002A093C7
:100940009102B093920280913E020E9466119093B0
:10095000C4028093C3028091F0010E9466119093BB
:10096000C0028093BF028091F2010E9466119093B1
:10097000BC028093BB028091F4010E9466117C014D
:100980009093B8028093B7022091AF023091B002E9
:100990004091B1025091B202C458DF4F288339838D
:1009A0004A835B83CC57D040C090C302D090C4022E
:1009B0008091C5029091C602B601681B790B882709
:1009C00077FD8095982F0E941E199B01AC01C45899
:1009D000DF4F688179818A819B81CC57D0400E940A
:1009E0001B182BED39EF4EE75FE30E94D2192B0164
:1009F0003C016093AB027093AC028093AD02909384
:100A0000AE026091BF027091C0022091C10230918C
:100A1000C202621B730B882777FD8095982F0E9476
:100A20001E192091A7023091A8024091A90250916D
:100A3000AA020E941B182BED39EF4EE75FE30E94DC
:100A4000D219EC966CAF7DAF8EAF9FAFEC976093F1
:100A5000A3027093A4028093A5029093A6026091D2
:100A6000BB027091BC022091BD023091BE02621B9C
:100A7000730B882777FD8095982F0E941E1920916F
:100A80009F023091A0024091A1025091A2020E94C7
:100A90001B182BED39EF4EE75FE30E94D219E89661
:100AA0006CAF7DAF8EAF9FAFE89760939B02709362
:100AB0009C0280939D0290939E028091B902909136
:100AC000BA02E81AF90A0027F7FC0095102FC801AE
:100AD000B7010E941E19209197023091980240910F
:100AE000990250919A020E941B182BED39EF4EE7A4
:100AF0005FE30E94D219E4966CAF7DAF8EAF9FAFDB
:100B0000E49760939302709394028093950290937C
:100B10009602C10162E170E00E94D11AFC01EE0F61
:100B2000FF1FEE0FFF1F41E050E04C0F5D1FE40F71
:100B3000F51F40825182628273822A961FAE2A97E5
:100B400064968EAD9FAD64978C159D0524F491E05D
:100B50002A969FAF2A97A1E02A16310409F0B5CC56
:100B6000F6CC6091F6017091F7018091F8019091B7
:100B7000F9012DE038E643E55BE30E94D2191B0141
:100B80002C0160962EAD3FAD6097B901882777FDA7
:100B90008095982F0E941E195B016C01E0966CAD48
:100BA0007DAD8EAD9FADE097A60195010E948318A3
:100BB0000E94391A9B01AC01C201B1010E94D219F5
:100BC0003B014C0160937C0270937D0280937E0216
:100BD00090937F026091FA017091FB018091FC017A
:100BE0009091FD012DE038E643E55BE30E94D219C8
:100BF0007B018C01AC966CAD7DAD8EAD9FADAC979D
:100C0000A60195010E9483180E94391A9B01AC012C
:100C1000C801B7010E94D219C857DF4F6883798392
:100C20008A839B83C858D04060934C0270934D02D6
:100C300080934E0290934F026091FE017091FF01EC
:100C400080910002909101022DE038E643E55BE3DC
:100C50000E94D219C457DF4F688379838A839B83AC
:100C6000CC58D040A8966CAD7DAD8EAD9FADA89709
:100C7000A60195010E9483180E94391A9B01AC01BC
:100C8000C457DF4F688179818A819B81CC58D040DD
:100C90000E94D219C057DF4F688379838A839B8370
:100CA000C059D04060935C0270935D0280935E02F5
:100CB00090935F026091020270910302809104029E
:100CC000909105022DE038E643E55BE30E94D219DE
:100CD000CC56DF4F688379838A839B83C459D04085
:100CE000A4966CAD7DAD8EAD9FADA497A601950188
:100CF0000E9483180E94391A9B01AC01CC56DF4F29
:100D0000688179818A819B81C459D0400E94D2191F
:100D1000C856DF4F688379838A839B83C859D04044
:100D200060936C0270936D0280936E0290936F02D9
:100D3000C201B101A80197010E94D219A0962CAD61
:100D40003DAD4EAD5FADA0970E94D219A6019501B1
:100D50000E9483187B018C016093400270934102D2
:100D60008093420290934302C401B301C857DF4FFE
:100D7000288139814A815B81C858D0400E94D219AC
:100D80009B01AC016093440270934502809346023C
:100D900090934702C801B7010E94831860934802EC
:100DA0007093490280934A0290934B02C201B101B1
:100DB000C457DF4F288139814A815B81CC58D040AC
:100DC0000E94D2196C962CAD3DAD4EAD5FAD6C97C7
:100DD0000E94D219A60195010E9483187B018C0103
:100DE0006093500270935102809352029093530289
:100DF000C401B301C057DF4F288139814A815B812B
:100E0000C059D0400E94D2199B01AC01609354029A
:100E1000709355028093560290935702C801B70110
:100E20000E948318609358027093590280935A026B
:100E300090935B02C201B101CC56DF4F288139810A
:100E40004A815B81C459D0400E94D21968962CAD6A
:100E50003DAD4EAD5FAD68970E94D219A6019501D8
:100E60000E9483187B018C01609360027093610281
:100E70008093620290936302C401B301C856DF4FAE
:100E8000288139814A815B81C859D0400E94D2199A
:100E90009B01AC01609364027093650280936602CB
:100EA00090936702C801B7010E948318609368029B
:100EB0007093690280936A0290936B0280E090E0E5
:100EC000A0E0B0E08093700290937102A093720250
:100ED000B09373028093740290937502A09376028C
:100EE000B09377028093780290937902A0937A026C
:100EF000B0937B02C156DF4F0FB6F894DEBF0FBE32
:100F0000CDBFCF91DF911F910F91FF90EF90DF90B8
:100F1000CF90BF90AF909F908F907F906F905F9099
:100F20004F903F902F9008958BE090E060ED77E038
:100F30000E94DB018BE093E060E071E00E94ED0B2A
:100F400040917C0250917D0260917E0270917F02FF
:100F50008BE093E022E030E00E94D70C8BE093E03E
:100F60006AE071E00E94ED0B40914C0250914D02FD
:100F700060914E0270914F028BE093E022E030E0EE
:100F80000E94D40C8BE093E067E171E00E94ED0BCE
:100F9000409140025091410260914202709143029F
:100FA0008BE093E022E030E00E94D40C8BE093E0F1
:100FB00062E271E00E94ED0B4091440250914502C3
:100FC00060914602709147028BE093E022E030E0AE
:100FD0000E94D40C8BE093E06AE271E00E94ED0B7A
:100FE000409148025091490260914A0270914B022F
:100FF0008BE093E022E030E00E94D70C8BE093E09E
:1010000062E371E00E94ED0B40915C0250915D0241
:1010100060915E0270915F028BE093E022E030E02D
:101020000E94D40C8BE093E06FE371E00E94ED0B23
:1010300040915002509151026091520270915302BE
:101040008BE093E022E030E00E94D40C8BE093E050
:101050006AE471E00E94ED0B4091540250915502F8
:1010600060915602709157028BE093E022E030E0ED
:101070000E94D40C8BE093E062E571E00E94ED0BDE
:10108000409158025091590260915A0270915B024E
:101090008BE093E022E030E00E94D70C8BE093E0FD
:1010A0006AE571E00E94ED0B40916C0250916D0277
:1010B00060916E0270916F028BE093E022E030E06D
:1010C0000E94D40C8BE093E067E671E00E94ED0B88
:1010D00040916002509161026091620270916302DE
:1010E0008BE093E022E030E00E94D40C8BE093E0B0
:1010F00062E771E00E94ED0B40916402509165023D
:1011000060916602709167028BE093E022E030E02C
:101110000E94D40C8BE093E06AE771E00E94ED0B33
:10112000409168025091690260916A0270916B026D
:101130008BE093E022E030E00E94D70C8BE093E05C
:101140000E94CC0A64E670E080E090E00E94AD105E
:10115000609140027091410280914202909143025D
:101160000E94EB187093810260938002609150029C
:101170007091510280915202909153020E94EB189B
:1011800070938302609382026091600270916102A9
:1011900080916202909163020E94EB187093850225
:1011A000609384026091700270917102809172026A
:1011B000909173020E94EB187093870260938602ED
:1011C00060917C0270917D0280917E0290917F02FD
:1011D0000E94EB18709389026093880280918A02C2
:1011E000882351F40E949F106958734180409040B9
:1011F00018F081E080938A0280918A028823A1F00E
:101200000E94BA0186E061E00E943B1262E070E059
:1012100080E090E00E94AD1086E060E00E943B120A
:1012200083E090E00E94A20108950F931F930BE0CA
:1012300013E0C80160E875E20E948C09C80162E809
:1012400071E00E94EA0CC8016BEA71E00E94EA0CAE
:10125000C80161EC71E00E94ED0BC8016AE070E02A
:101260004AE050E00E94BB0BC80168EC71E00E94AC
:10127000ED0BC80160ED71E00E94ED0BC80167ED58
:1012800071E00E94ED0BC80162ED70E04AE050E0B1
:101290000E94CE0B8AE061E042ED0E94031580E0DF
:1012A0000E94A31486E061E00E949E1186E061E046
:1012B0000E943B1229E288E190E00FB6F894A895CD
:1012C000809360000FBE209360001F910F910895DE
:1012D0001F920F920FB60F9211242F933F934F93AB
:1012E0005F936F937F938F939F93AF93BF93EF938E
:1012F000FF930E949E12FF91EF91BF91AF919F913A
:101300008F917F916F915F914F913F912F910F90AE
:101310000FBE0F901F9018950895209107033091EC
:1013200008038091090390910A03281B390B2F733E
:101330003070C9010895209107033091080380910E
:10134000090390910A032817390719F42FEF3FEF8B
:1013500009C0E0910903F0910A03E953FD4F808130
:10136000282F30E0C9010895209107033091080328
:101370008091090390910A032817390719F42FEF78
:101380003FEF13C0E0910903F0910A03E953FD4FC9
:1013900020818091090390910A0301968F739070C8
:1013A00090930A038093090330E0C90108951092D5
:1013B0000E0310920D0388EE93E0A0E0B0E080935E
:1013C0000F0390931003A0931103B093120382E2D2
:1013D00092E090930C0380930B0308950F931F9357
:1013E000DF93CF930F92CDB7DEB78C0169838091E5
:1013F0001902882369F083E0BE016F5F7F4F41E0EF
:1014000050E00E94CF0D1816190614F49C0107C075
:1014100081E090E0F8019383828320E030E0C9010D
:101420000F90CF91DF911F910F91089583E00E945B
:10143000A60D0895CF93DF9312C082E00E94310D74
:101440002FEF8F3F9207C9F0E0910703F091080357
:10145000E953FD4F8083D0930803C0930703C091E5
:101460000703D09108032196CF73D07080910903B0
:1014700090910A03C817D90701F7DF91CF9108951A
:10148000FC0180818E5F808380E86CEA70E042E43A
:1014900050E00E944A0D0895FC0181819081913AAB
:1014A00059F4813209F04CC080E062E172E047E01B
:1014B00050E00E944A0D42C0913209F041C0803292
:1014C00039F482E192E067E070E00E948E0D36C050
:1014D000823209F035C08281809319028091120214
:1014E00090911302A0911402B0911502805B944078
:1014F000A040B04019F58091190280FD12C087E725
:1015000097E790930108809300082BE088E190E032
:101510000FB6F894A895809360000FBE20936000EA
:101520000DC088E10FB6F8948093600010926000BF
:101530000FBEA895109201081092000881E008954E
:1015400080E00895CF92DF92EF92FF920F931F9366
:10155000CF93DF937C016B018A01C0E0D0E00FC024
:10156000D6016D916D01D701ED91FC910190F08153
:10157000E02DC7010995C80FD91F01501040011572
:10158000110571F7CE01DF91CF911F910F91FF905F
:10159000EF90DF90CF900895EF92FF920F931F93FB
:1015A0008C01DC01ED91FC910190F081E02D6DE06A
:1015B00009957C01D801ED91FC910190F081E02D1D
:1015C000C8016AE009959C012E0D3F1DC9011F91BC
:1015D0000F91FF90EF900895CF93DF93EC01611589
:1015E000710519F420E030E00FC0DB010D90002000
:1015F000E9F71197A61BB70BE881F9810280F38107
:10160000E02DAD0109959C01C901DF91CF910895AD
:101610004F925F927F928F929F92AF92BF92CF92A2
:10162000DF92EF92FF920F931F93DF93CF93CDB78B
:10163000DEB7A1970FB6F894DEBF0FBECDBF2C0169
:10164000742ECB01223008F42AE019A231E2C32E15
:10165000D12CCC0EDD1E822E9924AA24BB24672D0A
:10166000752FA50194010E94E41A79018A01C8012D
:10167000B701A50194010E949E1A472D461B0894AC
:10168000C108D1084A3014F4405D01C0495CF6013C
:101690004083E114F1040105110521F07E2C5F2D3A
:1016A000C801DDCFC201B6010E94EC0AA1960FB6B7
:1016B000F894DEBF0FBECDBFCF91DF911F910F9188
:1016C000FF90EF90DF90CF90BF90AF909F908F9062
:1016D0007F905F904F900895DC012115310541F412
:1016E000ED91FC910190F081E02D642F0995089512
:1016F0000E94080B0895CF92DF92EF92FF920F9312
:101700001F93CF93DF93EC016A017B012115310513
:1017100041F4E881F9810190F081E02D642F099571
:101720001FC02A303105D1F477FF17C0E881F98155
:101730000190F081E02D6DE209958C014427552739
:10174000BA014C195D096E097F09CE012AE00E9499
:10175000080B9801280F391F04C02AE00E94080BCB
:101760009C01C901DF91CF911F910F91FF90EF90E4
:10177000DF90CF900895EF92FF920F931F937B011C
:101780009A010027F7FC0095102FB801A7010E94CD
:101790007B0B1F910F91FF90EF900895CF92DF92F6
:1017A000EF92FF920F931F936C017B019A01002728
:1017B000F7FC0095102FB801A7010E947B0B8C014C
:1017C000C6010E94CC0A080F191FC8011F910F9172
:1017D000FF90EF90DF90CF9008950E94EC0A08955B
:1017E0007F928F929F92AF92BF92CF92DF92EF92B1
:1017F000FF920F931F93CF93DF934C017A018B01DC
:10180000722ECB01BA01A80197010E94831A882386
:1018100021F0C40162EE71E021C0C0E0D0E05701C8
:101820006801E894D7F8C601B5012FEF3FEF4FE705
:101830005FE70E94831A882351F4C601B5012FEF98
:101840003FEF4FE75FE70E947F18181614F0C1E0E2
:10185000D0E0219739F0C40166EE71E00E94EC0AF5
:10186000EC0193C0C801B7012FEF3FEF4FE75FE4F2
:101870000E94CE19181654F0C801B7012FEF3FEFA0
:101880004FE75FEC0E947F18882324F4C4016AEEBE
:1018900071E0E4CFC801B70120E030E040E050E063
:1018A0000E947F1887FD03C0C0E0D0E00EC0D401C5
:1018B000ED91FC910190F081E02DC4016DE209955C
:1018C000EC0117FB109517F9109520E030E040E08F
:1018D0005FE3DD240BC0CA01B90120E030E040E243
:1018E00051E40E9483189B01AC01D394D71498F360
:1018F000C801B7010E941B185B016C010E94F0181F
:101900007B018C01C401B801A7012AE030E00E94EC
:101910006C0BC80FD91F772039F0C4016EEE71E04F
:101920000E94EC0AC80FD91FC801B7010E941C19F8
:101930009B01AC01C601B5010E941A1824C020E029
:1019400030E040E251E40E94D2197B018C010E94F8
:10195000EB185B016C01CC24B7FCC094DC2CC401F7
:10196000B601A5012AE030E00E947B0BC80FD91F09
:10197000C601B5010E941E199B01AC01C801B70147
:101980000E941A187A947720D1F6CE01DF91CF9178
:101990001F910F91FF90EF90DF90CF90BF90AF908D
:1019A0009F908F907F9008950E94F00B0895EF9282
:1019B000FF920F931F937C010E94F00B8C01C701D3
:1019C0000E94CC0A080F191FC8011F910F91FF90A8
:1019D000EF900895EF92FF920F931F937C010E9466
:1019E000EC0A8C01C7010E94CC0A080F191FC8011C
:1019F0001F910F91FF90EF900895282F80911B0366
:101A00008823C1F057FF1AC015C0289890931A0375
:101A10008091F1008193E217F307B9F74115510561
:101A200039F08091F200882319F48BE68093E80066
:101A3000AFBF02C04FEF5FEFCA010895AFB7F89490
:101A400027702093E9008091F200282F30E02417BE
:101A500035070CF4A901FB019B01240F311D94E60D
:101A6000DACFDF93CF930F92CDB7DEB7BE016F5FB2
:101A70007F4F41E050E00E94FD0C019719F02FEFDD
:101A80003FEF03C08981282F30E0C9010F90CF912B
:101A9000DF910895FF920F931F93F82E142F052FB7
:101AA00040911E0350911F03212F302FC901DC01EB
:101AB000FB016EEF29C0F7FE02C0949101C0908136
:101AC00020911C0330911D0324173507ACF480913D
:101AD000E8008570E1F38091E80082FF03C02FEFFA
:101AE0003FEF17C09093F100C90101968F7390707A
:101AF000892B11F46093E8002F5F3F4F30931D0353
:101B000020931C03119731961097A9F6812F902FDF
:101B10009C01C9011F910F91FF9008959C01809134
:101B2000E80082FFFCCFF901260F311D03C0809130
:101B3000F1008193E217F307D1F7289884E68093A8
:101B40001A038BEF8093E800CB0108958093E9009E
:101B50008091F200882319F08AE38093E8000895C9
:101B6000089510921B0381E08093D70080EA809350
:101B7000D80082E189BD09B400FEFDCF61E070E0CC
:101B800080E090E00E94AD1080E98093D8008CE066
:101B90008093E2001092E000559A209A08955F9297
:101BA0006F927F928F929F92AF92BF92CF92DF926D
:101BB000EF92FF920F931F93CF93DF93E82E842E23
:101BC000752E80911B03882371F18B01242F352FF3
:101BD000C901EC017AEFF72E67E0962E9E2050E4C3
:101BE000552E8E2D90E040E2A42EB12CA822B922D1
:101BF0003AE3632E20E4C22ED12CC822D92258C049
:101C00009FB7F8949092E9008091E80085FD02C0AA
:101C100020E004C08091F200252D281B9FBF2223C5
:101C200061F4FA9419F42FEF3FEF4DC061E070E0DA
:101C300080E090E00E94AD103BC0822F90E0C8177A
:101C4000D9070CF42C2FC21BD1094FB7F8949092EE
:101C5000E900A114B10421F406C01092F100215052
:101C60002223D9F719C0E7FC03C0F801922F10C056
:101C7000C801322F06C0FC010196E491E093F10007
:101C800031503323C1F706C081918093F100915008
:101C90009923D1F7020F111D8091E80085FF05C03F
:101CA000209729F4C114D10411F06092E8004FBFCD
:101CB000209709F0A5CF5D9884E680931903282D1D
:101CC000372DC9019C01C901DF91CF911F910F915F
:101CD000FF90EF90DF90CF90BF90AF909F908F904C
:101CE0007F906F905F9008951F920F920FB60F92A2
:101CF00011242F933F934F935F936F937F938F9311
:101D00009F93AF93BF93EF93FF938091E100109265
:101D1000E100982F83FF0FC01092E90081E08093CB
:101D2000EB001092EC0082E38093ED0010921B0315
:101D300088E08093F00092FF34C083E08093E90054
:101D40008091F200882319F08AE38093E8008FB72E
:101D5000F89492E09093E9009091F2008FBF99235C
:101D600021F08BE093E00E941A0A809119038823E6
:101D700051F08091190381508093190380911903C8
:101D8000882309F45D9A80911A03882351F0809189
:101D90001A03815080931A0380911A03882309F44F
:101DA000289AFF91EF91BF91AF919F918F917F9171
:101DB0006F915F914F913F912F910F900FBE0F90B8
:101DC0001F9018950F931F93DF93CF930F92CDB76A
:101DD000DEB719828E010F5F1F4FC8010E94400AB3
:101DE000C8010E94B616898190E00F90CF91DF91D3
:101DF0001F910F9108951F920F920FB60F92112409
:101E0000EF92FF921F932F933F934F935F936F93A4
:101E10007F938F939F93AF93BF93EF93FF93DF9342
:101E2000CF93CDB7DEB76197DEBFCDBF1092E9008B
:101E30008091E80083FF0FC1FE0131969E01275F6C
:101E40003F4F03C08091F1008193E217F307D1F770
:101E5000289884E680931A0382EF8093E8009981A2
:101E600097FF05C08091E80080FFFCCF03C08EEF94
:101E70008093E800292F30E0C90180769070892B8B
:101E800009F0C2C08A81882329F41092F1001092CF
:101E9000F100D6C0813009F4D3C0833009F4D0C03A
:101EA000853049F48091E80080FFFCCF8B81806809
:101EB0008093E300C5C0863009F07CC01C81EF80B0
:101EC000F8841230C1F51092E90010921D031092AF
:101ED0001C0310921F0310921E030E94E20E99E051
:101EE000FE013996DF01292F1D922A95E9F799877E
:101EF0001A8791E09E8790E8988B9AEF998B2091B2
:101F00001C0330911D03275F3F4F3C872B878D8734
:101F10001092E90010921D0310921C03F0921F030F
:101F2000E0921E0380E0BF0149E050E00E944A0DAC
:101F30000E94E20E85C01092E90010921D031092DB
:101F40001C03F0921F03E0921E03123241F482E25E
:101F500090E00E94AE16892B09F476C071C0113052
:101F600079F488E0E816F10419F481E08093200305
:101F700080912003882309F06BC0ECE2F1E013C0EC
:101F8000133009F061C08B81882319F4EEEEF0E084
:101F90000AC0823019F4E2EFF0E005C0813009F0A8
:101FA00053C0E4E1F1E0449180E8BF0150E00E94B9
:101FB0004A0D46C0873009F447C0883021F481E0DB
:101FC0008093F1003DC08930D9F523703070232B08
:101FD000D9F5E1E5F1E091E031E026E39093E90005
:101FE0003093EB0084918093EC002093ED009F5F91
:101FF0003196953099F78EE78093EA001092EA00C7
:102000008B8180931B031CC08F8198851092E900FF
:1020100010921D0310921C0390931F0380931E03C4
:102020008D81882329F4CE0101960E944C0A06C0B6
:10203000823051F4CE0101960E947F15882321F051
:102040008EEF8093E80007C081E28093EB0003C02D
:10205000EEE3F1E0A8CF6196DEBFCDBFCF91DF9177
:10206000FF91EF91BF91AF919F918F917F916F9170
:102070005F914F913F912F911F91FF90EF900F90A3
:102080000FBE0F901F901895CF93DF930E940611FB
:1020900081E293E00E94B10D0E941509C0E0D0E0FA
:1020A0000E9494072097E1F30E940000F9CF1F924D
:1020B0000F920FB60F9211242F933F938F939F93FC
:1020C000AF93BF938091260390912703A09128039B
:1020D000B091290330912A030196A11DB11D232F30
:1020E0002D5F2D3720F02D570196A11DB11D209396
:1020F0002A038093260390932703A0932803B09389
:1021000029038091220390912303A0912403B0918D
:1021100025030196A11DB11D8093220390932303F3
:10212000A0932403B0932503BF91AF919F918F910A
:102130003F912F910F900FBE0F901F9018958FB762
:10214000F894209126033091270340912803509161
:1021500029038FBFB901CA0108959B01AC017FB764
:10216000F8948091220390912303A0912403B091CD
:10217000250366B5A89B05C06F3F19F00196A11D08
:10218000B11D7FBFBA2FA92F982F8827860F911DC9
:10219000A11DB11D62E0880F991FAA1FBB1F6A9580
:1021A000D1F7BC012DC0FFB7F89480912203909124
:1021B0002303A0912403B0912503E6B5A89B05C095
:1021C000EF3F19F00196A11DB11DFFBFBA2FA92F36
:1021D000982F88278E0F911DA11DB11DE2E0880F59
:1021E000991FAA1FBB1FEA95D1F7861B970B885E24
:1021F0009340C8F2215030404040504068517C4FDD
:10220000211531054105510571F60895789484B57D
:10221000826084BD84B5816084BD85B5826085BDE2
:1022200085B5816085BDEEE6F0E0808181608083C8
:10223000E1E8F0E0108280818260808380818160AB
:102240008083E0E8F0E0808181608083E1EBF0E072
:10225000808184608083E0EBF0E080818160808316
:10226000E1E9F0E080818260808380818160808309
:10227000E0E9F0E0808181608083E1ECF0E0808142
:10228000846080838081826080838081816080839C
:10229000E3ECF0E0808181608083E0ECF0E080811D
:1022A00082608083E2ECF0E0808181608083EAE7F5
:1022B000F0E080818460808380818260808380817F
:1022C000816080838081806880830895823108F0F6
:1022D0008251E82FF0E0E353FE4FE49120917B0020
:1022E0008E2F86958695869590E08170907035E06A
:1022F000880F991F3A95E1F72F7D282B20937B00BB
:10230000E77080911A028295880F880F807C8E2B4F
:1023100080937C0080917A00806480937A00809121
:102320007A0086FDFCCF2091780040917900942FAF
:1023300080E030E0282B392BC9010895CF93DF933B
:10234000482F50E0CA0183569E4FFC0134914158FA
:102350005E4FFA018491882369F190E0880F991FFC
:10236000FC01EB5AFE4FA591B491FC01ED59FE4FD3
:10237000C591D491662351F42FB7F8948C91932F83
:10238000909589238C93888189230BC0623061F4F6
:102390002FB7F8948C91932F909589238C938881F3
:1023A000832B88832FBF06C09FB7F8948C91832B13
:1023B0008C939FBFDF91CF9108958730C1F1883012
:1023C00080F48330F9F0843030F4813029F18230A8
:1023D00009F050C024C08430C9F0863009F04AC0EA
:1023E00022C08A3091F18B3030F4883031F189305D
:1023F00009F040C026C08C3091F18C3060F18E30F5
:10240000C9F533C0809180008F7703C08091800030
:102410008F7D80938000089584B58F7702C084B546
:102420008F7D84BD08958091B0008F7703C0809127
:10243000B0008F7D8093B0000895809190008F77D9
:1024400007C0809190008F7D03C080919000877FAE
:102450008093900008958091C0008F7703C0809191
:10246000C0008F7D8093C00008958091C200877F57
:102470008093C2000895FF920F931F93F62E482F6A
:1024800050E0CA0185549E4FFC012491CA01835635
:102490009E4FFC01149141585E4FFA0104910023B4
:1024A000C9F0222319F0822F0E94DD11E02FF0E005
:1024B000EE0FFF1FED59FE4FA591B4919FB7F89411
:1024C000FF2021F48C911095812302C08C91812BE7
:1024D0008C939FBF1F910F91FF9008950F931F93AF
:1024E000482F50E0CA0185549E4FFC012491CA0137
:1024F00083569E4FFC01049141585E4FFA0114919E
:10250000112319F420E030E015C0222319F0822FA6
:102510000E94DD11812F90E0880F991F8F589E4FE8
:10252000FC01A591B4918C9120E030E0802311F062
:1025300021E030E0C9011F910F91089580912B0394
:102540008F5F80932B030895782F8CB581608CBDAD
:1025500065B121E030E040E050E000901B0204C093
:10256000220F331F441F551F0A94D2F7522F822F78
:102570008095862385B99EBD0DB407FEFDCF8EB52F
:102580007EBD0DB407FEFDCF4EB5382F20E085B1DE
:10259000582B55B98CB58E7F8CBD50E0422B532BF8
:1025A000CA010895E9980E94A412E99A089580E06A
:1025B00090E00E94A41280917C03853009F054C001
:1025C00080E090EB0E94A412282F80917E03882344
:1025D00071F490917D03992351F080917E03E82F4F
:1025E000F0E0E25DFC4F90838F5F80937E038091EB
:1025F0007E03E82FF0E0E25DFC4F20838F5F809345
:102600007E0380912C0390912D038227282F229501
:102610002827022E269526952025022E2695202550
:102620002770082E892F269507942795902D8227AD
:10263000069427959025822790932D0380932C0351
:102640008091300320917E0390E0049630E0821761
:1026500093072CF080917E03873408F46DC08DE0E1
:1026600092E80E94A412089580917C0387FF2EC0F7
:10267000E091300380917C038F5F80937C038150D5
:10268000ED5FE80FF0E0E25DFC4FE08180912C030C
:1026900090912D038E27282F22952827022E2695EC
:1026A00026952025022E269520252770082E892F75
:1026B000269507942795902D822706942795902597
:1026C000822790932D0380932C0330C080917C034C
:1026D0008F5F80937C038150833019F184302CF418
:1026E000882399F0813009F516C0893019F08A30B5
:1026F000E1F402C0EDE21AC0E0917D039091300355
:102700008EEF891B80937C0311C080912C039091E4
:102710002D03E82F0BC080912C0390912D03E92FFE
:1027200005C08DE092E80E94A412EAEA8E2F90E0A4
:10273000805098440E94A412089580917C038530B3
:1027400009F042C08091300320917E0390E004960E
:1027500030E08217930724F080917E038734A0F144
:1027600084E080937C0380913003833430F081E0F7
:1027700090E090932D0380932C0380912F0386FF8C
:1027800012C080917B03282F30E0C9018F719070B7
:102790004F9749F080912F0390E0822793278F7104
:1027A0009070892B89F480912C0390912D03892BB3
:1027B00009F044C0E0917903F0917A03309709F46D
:1027C0003DC080E0099546C080917C03843011F0C3
:1027D00080E00895109230038091300380937E034F
:1027E0008FEF9FEF90932D0380932C0320917D0317
:1027F0002223D9F08227282F22952827022E2695DA
:1028000026952025022E269520252770082E892F13
:10281000269507942795902D822706942795902535
:10282000822790932D0380932C0385E080937C0373
:102830008DED92E80E94A41280E008958FEF9FEF43
:10284000AFEFBFEF8093750390937603A093770368
:10285000B093780381E0089580917C03853099F4EA
:1028600080917E03882379F480E090E00E94D21268
:1028700090FD09C08DE092E80E94D21284E080931E
:102880007C0381E0089580E00895982F86FD05C0BF
:10289000907E80917B038F71980F90932F03E0912E
:1028A0007903F0917A03309711F081E009958FEF69
:1028B0009FEF90932D0380932C0380912C03909194
:1028C0002D0320917D038227282F22952827022E71
:1028D000269526952025022E269520252770082E40
:1028E000892F269507942795902D82270694279562
:1028F0009025822790932D0380932C0386E080936C
:102900007C038DE392E80E94A4120895282F16C03C
:102910002223A1F093B7233011F484E005C02230C4
:1029200011F080E001C08CE0917F892B83BF83B7D9
:10293000816083BF889583B78E7F83BF80917C033E
:10294000843031F708951F93182F87FF03C08DE05F
:1029500092E80EC0992787FD9095956E0E94D2123D
:1029600085E092E80E94D212112321F087E092E8DC
:102970000E94D21284E080937C031F9108951F93DC
:10298000182F4093300321E333E0C90150E00E9447
:102990009901812F0E9445141F91089525B181E06E
:1029A00090E0A0E0B0E000901B0204C0880F991FE7
:1029B000AA1FBB1F0A94D2F7282B25B924B1822B5A
:1029C00084B981E161E00E943B1281E161E00E94F3
:1029D0009E1180E161E00E949E118EE060E00E9405
:1029E0009E118FE061E00E949E1180E58CBD8DB547
:1029F00081608DBD80E060E00E949E1180E061E01A
:102A00000E943B1208951F93162F80937B034093DF
:102A10007D030E94CE1480E090E00E94A41285E025
:102A200092E80E94A41280E098EB02C080E090E05F
:102A30000E94A41280E00E946E12892BB9F3812FAC
:102A400090E074E0880F991F7A95E1F7876C9068A1
:102A50000E94A41280E496EA0E94A41286E096ECFA
:102A60000E94A41282EA90E90E94A4128CEA92ECDD
:102A70000E94A41210917D03112341F083E89AEC87
:102A80000E94A412812F90E09E6C06C08BE89AEC05
:102A90000E94A4128DE29EEC0E94A41283E894ECA2
:102AA0000E94A41280E598E90E94A41287E79CEC9A
:102AB0000E94A41280E090EE0E94A41280E098ECA4
:102AC0000E94A41289E490EC0E94A41284E08093F6
:102AD0007C0380917B0390E08F719070892B41F093
:102AE00081E067ED72E140E050E00E94C21603C051
:102AF00081E00E94171780917B031F910895FC01CC
:102B000091818081813A31F4913089F080E0933075
:102B100089F40DC0813269F49B3021F48281809365
:102B20001C0205C09A3029F4828180931D0281E045
:102B3000089580E00895EF92FF920F931F938C0108
:102B4000E62EDC01ED91FC910480F581E02D0995E4
:102B5000F82ED801ED91FC910680F781E02DC80197
:102B60006E2D09958F2D90E01F910F91FF90EF90A2
:102B7000089510927F03109283031092820384E3DE
:102B800092E090938103809380030895EF92FF92E7
:102B90000F931F93DF93CF930F92CDB7DEB7898347
:102BA0008B017A0184E0BE016F5F7F4F41E050E00E
:102BB0000E94CF0D84E4B801A7010E94CF0D0F90B1
:102BC000CF91DF911F910F91FF90EF90089582E0D8
:102BD00048E050E00E94C6150895FC011682178255
:102BE000108611861286138614823496BF010E94C5
:102BF000E7150895DC01683810F0685829C0E62F01
:102C0000F0E067FF13C0E058F04081E090E002C0C0
:102C1000880F991FEA95E2F7809514962C911497E6
:102C2000282314962C93149760E012C0E95AFD4FA4
:102C30006491662319F420E030E01DC067FF08C0EE
:102C400014968C9114978D7F14968C9314976F77AC
:102C5000FD0190E0662321F08681861709F4168233
:102C60009F5F31969630B1F7CD011496BD010E9459
:102C7000E71521E030E0C9010895CF93DF93DC012F
:102C8000683810F0685825C0E62FF0E067FF12C0E2
:102C9000E058F04081E090E002C0880F991FEA956B
:102CA000E2F714962C911497282B14962C931497D2
:102CB00060E00FC0E95AFD4F64916623D9F167FFC8
:102CC00008C014968C911497826014968C93149774
:102CD0006F7716968C9116978617A9F117968C9197
:102CE0001797861781F118968C911897861759F1C6
:102CF00019968C911997861731F11A968C911A971B
:102D0000861709F11B968C911B978617E1F0ED0150
:102D1000E0E0F0E09E2F8E81882321F4EA0FFB1F74
:102D2000668306C09F5F31962196E630F10591F7E4
:102D3000963049F481E090E013969C938E9312971D
:102D400020E030E007C0CD011496BD010E94E715D8
:102D500021E030E0C901DF91CF91089580E869ED6D
:102D600071E045E650E00E944A0D0895FC01808123
:102D70008F5F808380E86EE372E049E150E00E945B
:102D80004A0D0895853008F051C0E82FF0E0EE0FAD
:102D9000FF1FE457FC4F71836083823009F1833059
:102DA00030F4882349F0813009F040C00DC08330F1
:102DB00021F18430D9F52EC0809169008C7F842B5D
:102DC00080936900E89A089580916900440F551F27
:102DD000440F551F837F842B80936900E99A0895DF
:102DE0008091690034E0440F551F3A95E1F78F7CDC
:102DF000842B80936900EA9A08958091690026E007
:102E0000440F551F2A95E1F78F73842B8093690037
:102E1000EB9A089580916A0094E0440F551F9A95AB
:102E2000E1F78F7C842B80936A00EE9A08958530B9
:102E3000F8F4823081F0833028F4882341F0813027
:102E400079F407C0833049F0843051F408C0E89821
:102E500007C0E99805C0EA9803C0EB9801C0EE9856
:102E6000E82FF0E0EE0FFF1FE457FC4F11821082B5
:102E700008951F920F920FB60F9211242F933F9334
:102E80004F935F936F937F938F939F93AF93BF9372
:102E9000EF93FF9380918C0390918D03892B29F000
:102EA000E0918C03F0918D030995FF91EF91BF9113
:102EB000AF919F918F917F916F915F914F913F91D2
:102EC0002F910F900FBE0F901F9018951F920F9289
:102ED0000FB60F9211242F933F934F935F936F93ED
:102EE0007F938F939F93AF93BF93EF93FF938091C3
:102EF0008E0390918F03892B29F0E0918E03F0913E
:102F00008F030995FF91EF91BF91AF919F918F91A1
:102F10007F916F915F914F913F912F910F900FBED5
:102F20000F901F9018951F920F920FB60F921124B9
:102F30002F933F934F935F936F937F938F939F93C1
:102F4000AF93BF93EF93FF93809190039091910380
:102F5000892B29F0E0919003F09191030995FF915D
:102F6000EF91BF91AF919F918F917F916F915F9101
:102F70004F913F912F910F900FBE0F901F9018957A
:102F80001F920F920FB60F9211242F933F934F93DE
:102F90005F936F937F938F939F93AF93BF93EF93C1
:102FA000FF938091920390919303892B29F0E091F4
:102FB0009203F09193030995FF91EF91BF91AF9127
:102FC0009F918F917F916F915F914F913F912F9141
:102FD0000F900FBE0F901F9018951F920F920FB673
:102FE0000F9211242F933F934F935F936F937F938F
:102FF0008F939F93AF93BF93EF93FF93809194032D
:1030000090919503892B29F0E0919403F091950319
:103010000995FF91EF91BF91AF919F918F917F9112
:103020006F915F914F913F912F910F900FBE0F9035
:103030001F9018955058BB27AA270ED075C166D18E
:1030400030F06BD120F031F49F3F11F41EF45BC1DE
:103050000EF4E095E7FB51C1E92F77D180F3BA1761
:10306000620773078407950718F071F49EF58FC106
:103070000EF4E0950B2EBA2FA02D0B01B901900193
:103080000C01CA01A0011124FF27591B99F0593FD7
:1030900050F4503E68F11A16F040A22F232F342F1F
:1030A0004427585FF3CF469537952795A795F0406D
:1030B0005395C9F77EF41F16BA0B620B730B840B82
:1030C000BAF09150A1F0FF0FBB1F661F771F881F3A
:1030D000C2F70EC0BA0F621F731F841F48F4879592
:1030E00077956795B795F7959E3F08F0B3CF939581
:1030F000880F08F09927EE0F979587950895D9D0F6
:1031000008F481E008950CD00FC107D140F0FED043
:1031100030F021F45F3F19F0F0C0511139C1F3C014
:1031200014D198F39923C9F35523B1F3951B550B8B
:10313000BB27AA2762177307840738F09F5F5F4F8A
:10314000220F331F441FAA1FA9F333D00E2E3AF0CB
:10315000E0E830D091505040E695001CCAF729D0E5
:10316000FE2F27D0660F771F881FBB1F2617370734
:103170004807AB07B0E809F0BB0B802DBF01FF2764
:1031800093585F4F2AF09E3F510568F0B6C000C1CA
:103190005F3FECF3983EDCF3869577956795B7959E
:1031A000F7959F5FC9F7880F911D9695879597F9B9
:1031B0000895E1E0660F771F881FBB1F6217730732
:1031C0008407BA0720F0621B730B840BBA0BEE1F47
:1031D00088F7E095089504D06894B111D9C0089596
:1031E000BCD088F09F5790F0B92F9927B751A0F025
:1031F000D1F0660F771F881F991F1AF0BA95C9F78B
:1032000012C0B13081F0C3D0B1E00895C0C0672FC3
:10321000782F8827B85F39F0B93FCCF3869577953A
:103220006795B395D9F73EF4909580957095619523
:103230007F4F8F4F9F4F0895E89409C097FB3EF44E
:1032400090958095709561957F4F8F4F9F4F9923F3
:10325000A9F0F92F96E9BB279395F6958795779571
:103260006795B795F111F8CFFAF4BB0F11F460FF31
:103270001BC06F5F7F4F8F4F9F4F16C0882311F089
:1032800096E911C0772321F09EE8872F762F05C09D
:10329000662371F096E8862F70E060E02AF09A9538
:1032A000660F771F881FDAF7880F9695879597F92D
:1032B0000895990F0008550FAA0BE0E8FEEF1616C7
:1032C0001706E807F907C0F012161306E407F5071A
:1032D00098F0621B730B840B950B39F40A2661F08E
:1032E000232B242B252B21F408950A2609F4A14031
:1032F000A6958FEF811D811D089597F99F6780E83E
:1033000070E060E008959FEF80EC089500240A9437
:103310001616170618060906089500240A941216B0
:103320001306140605060895092E0394000C11F4E3
:10333000882352F0BB0F40F4BF2B11F460FF04C090
:103340006F5F7F4F8F4F9F4F089557FD9058440FE9
:10335000551F59F05F3F71F04795880F97FB991FF4
:1033600061F09F3F79F087950895121613061406B1
:10337000551FF2CF4695F1DF08C01616170618063E
:10338000991FF1CF86957105610508940895E89419
:10339000BB2766277727CB0197F908958ADF08F4C2
:1033A0008FEF08950BD0C0CFB1DF28F0B6DF18F053
:1033B000952309F0A2CFA7CF1124EACFC6DFA0F34F
:1033C000959FD1F3950F50E0551F629FF001729FBA
:1033D000BB27F00DB11D639FAA27F00DB11DAA1FD9
:1033E000649F6627B00DA11D661F829F2227B00D26
:1033F000A11D621F739FB00DA11D621F839FA00DB1
:10340000611D221F749F3327A00D611D231F849F00
:10341000600D211D822F762F6A2F11249F57504057
:103420008AF0E1F088234AF0EE0FFF1FBB1F661FF2
:10343000771F881F91505040A9F79E3F510570F0AB
:103440005CCFA6CF5F3FECF3983EDCF38695779593
:103450006795B795F795E7959F5FC1F7FE2B880FA6
:10346000911D9695879597F9089511F40EF44BCF19
:103470004EC073DFD0F39923D9F3CEF39F57550B8A
:1034800087FF55D056959795B0E020F4660F771FCB
:10349000881FBB1F1F930F9300249001A001800180
:1034A000F001A0E80E0F1F1F0A1E511D601B710BBB
:1034B0008009B50B48F4600F711F801DB51F0E1BEE
:1034C0001F0B0A0A510907C02E0F3F1F4A1F0E0F7C
:1034D0001F1F0A1E511D660F771F881FBB1FA69551
:1034E000F795E795F8F60617170708065B07211DFD
:1034F000311D411D0F911F91B901842F9158880FE3
:10350000969587950895D5DE880B990B08959F3F72
:1035100049F0915028F4869577956795B7959F5F08
:1035200080389F4F880F9695879597F90895915009
:103530005040660F771F881FD2F70895629FD00111
:10354000739FF001829FE00DF11D649FE00DF11D5E
:10355000929FF00D839FF00D749FF00D659FF00D0D
:103560009927729FB00DE11DF91F639FB00DE11DFA
:10357000F91FBD01CF0111240895AA1BBB1B51E106
:1035800007C0AA1FBB1FA617B70710F0A61BB70BD3
:10359000881F991F5A95A9F780959095BC01CD0178
:1035A000089597FB092E07260AD077FD04D0E5DFA2
:1035B00006D000201AF4709561957F4F0895F6F7B4
:1035C000909581959F4F0895A1E21A2EAA1BBB1BCF
:1035D000FD010DC0AA1FBB1FEE1FFF1FA217B307DF
:1035E000E407F50720F0A21BB30BE40BF50B661FF5
:1035F000771F881F991F1A9469F7609570958095B9
:1036000090959B01AC01BD01CF010895EE0FFF1F06
:0C3610000590F491E02D0994F894FFCF90
:10361C00566F6C746167653A200020437572726551
:10362C006E7420313A200020506F77657220313A49
:10363C00200020564120313A200020504620313ABB
:10364C0020002043757272656E7420323A2000207F
:10365C00506F77657220323A200020564120323A62
:10366C00200020504620323A2000204375727265AB
:10367C006E7420333A200020506F77657220333AF5
:10368C00200020564120333A200020504620333A67
:10369C002000656D6F6E54782056332043543132C0
:1036AC00333420566F6C7461676520332050686129
:1036BC007365206578616D706C65004F70656E4543
:1036CC006E657267794D6F6E69746F722E6F72676B
:1036DC00004E6F64653A200020467265713A2000F6
:1036EC003433334D687A00204E6574776F726B3AC1
:1036FC0020006E616E00696E66006F7666002E00AB
:10370C0001000200030033738A43CDCCB542CDCC0B
:10371C00B542CDCCB5420000803FCDCCAC3F295C4E
:10372C00AF3F00E1000000000000010601010000B5
:10373C000000EE09A20A8D09B4099B09160A1A0A9F
:0E374C00000000009B15A20A3D16FA15ED15AF
:00000001FF
